:0800000030C0FECFFDCF72C736
:10000800FBCFFACFF9C8F8CFF7CFF6CFF5CFF4CFBB
:10001800F3CFF2CFF1CFF0CFEFCFEECFEDCF102768
:10002800E80364000A00010000100001100001004C
:10003800000044535441434B454E440048535441F7
:10004800434B454E4400010002003800090060009F
:100058003A000900310244000000F894EE27ECBB96
:10006800F1E0FBBFEBBFE5BFF8E1F1BDE1BD8DE01D
:10007800A2E0BB27ED938A95E9F780E094E0A0E63B
:10008800ED930197E9F7EEE4F0E0859195910097FB
:1000980061F0A591B59105901590BF01F00105900B
:1000A8000D920197E1F7FB01F0CFEFE5EDBFE4E03A
:1000B800EEBFC0E6D1E000C0EFE1E1BDEFE0E1BD99
:1000C800E0E0E8BBE3E0E7BBE0E0E5BB2EDCE0E432
:1000D800E2BBEEEBE1BBE0E0E3BFEBE4E2BFE0E074
:1000E800EFBDEEBD25DCE2E0EBBDE0E0EABDE9BD39
:1000F800E8BDE2BDE4BDE9EFE3BDEAE0E5BDEBB78D
:10010800EBBFE0E0E5BFE4E9E9BFE0E8E8B9E0E03B
:10011800E0BF789411DCE9E015DCA091A301E8E0E8
:10012800D4DE0E2EA091A401E8E0CFDEE021B9F0E4
:100138000CDCF5D8E2E0E093A601E091A601E030FE
:1001480021F0E091C201E03009F002C0A895F5CF96
:10015800E9E0FDDBE9E0FEDBE9E0FFDB15DA00DCE6
:10016800C19AC19801DCA89589D3E0E0E093DA014F
:10017800E093DB01FDDB74D9A895FEDBD9F0B998D3
:100188005EDAB19B04C0E091FE01EF5F01C0E0E0E0
:10019800E093FE01A091FE01A93758F0E0E0E0935A
:1001A800FE01F0DB139728F0E2E0F0E0F0DBE8E78F
:1001B800F3DBB99AE0912502E03031F0E150E093A9
:1001C8002502E03009F4EBDBEEDBE03041F0EBDB5D
:1001D800E150E093FB01E7DBE03009F49798ACDBF2
:1001E800E5DB29F4949B02C0959801C0959A869BFB
:1001F80004C0E0E0E093DB010FC0E091DB01EF5FBA
:10020800E093DB01A091DB01A93111F4D5DB09F002
:1002180003C0E1E0E093CA0180990DC0E091E301D9
:10022800EF5FE093E301A091E301A23319F4E1E069
:10023800E093E40109C0E0E0E093E301E093E40126
:10024800AAE2B2E0BDDBBFDBE091E401E03069F097
:10025800E091E501EF5FE093E501E0E0E093E40180
:10026800E0932A02E0932B020BC0A0912A02B091DE
:100278002B02A53CE9E0BE0718F0E0E0E093E501B9
:10028800E091EE01A091E501EA1791F4E1E0E09335
:10029800EA01A2E08AD79BDB9DDB09F0929AE0E0B5
:1002A800E093E5019CDB9EDB08F0A3DBABDB949AD3
:1002B800B59B0FC078DBE03021F4E3E0E093FB016D
:1002C800979AB59B05C0E091E601EF5FE093E601E0
:1002D80012C0E0E0E093E601E091F601EF5FE09301
:1002E800F601A091F601AB3030F0EAE0E093F601B8
:1002F800E0E0E093F501EAE0E0932302A091E60153
:10030800AE1730F0E091F501E03011F47DDB09F033
:10031800A1C1E1E0E093F501E0E0E093F6017ADBCA
:100328008ED9E0E07BDBE3B3E77178DBE091E901AC
:10033800E07121F0E091E901E86070DBE091E9010A
:10034800EF7E6CDBE091F301E03009F057C069DB28
:10035800AB3018F4E0E0E093F20166DB39F469DBD6
:1003680011F46EDB01C070DB73DB76DB5DDB51F40F
:1003780060DB11F465DB01C067DB6ADBE89422F817
:100388006BDB3BC0E091F0014CDBEA1719F41FDB93
:10039800E03009F00FC064DBE091D901E03011F4DE
:1003A8004FDB01C051DBE1E0E093E001689422F803
:1003B80053DB23C036DBAA3009F452DB54DB21F4CB
:1003C800A091F201A13008F411C0E1E0E093F3013B
:1003D8004DDBE5DA4FDBA33130F44FDB51DBA0E036
:1003E800A08352DBF7CFEAEFE09325023CDB29F448
:1003F800E091F201EF5FE093F2012AC1EFE0F0E053
:10040800C6DA0FDBA13010F02EDB08F036C009DBAE
:10041800AA3019F42FDBA23008F002C0E0E0FEDABF
:1004280000DBAB3011F4ECE0F9DA33DBFADAA08365
:100438001ADB29F4EBE0F2DAE1E02DDB1BC0E091F6
:100448002402E030B1F0EDDAAA3019F422DBAEE094
:100458000EC0E7DAA13019F41CDBADE008C0E1DA20
:10046800A23019F416DBACE002C013DBABE0A083CA
:1004780015DB0ADBE0E0E093F701F5DA21F4E0911F
:10048800F701E03009F403C0EBDA08DBE1C0EBDA8E
:1004980009F0DEC0E1E0E093F701E091110200DB32
:1004A800E0911202EA0FE093F801E4DAA43019F4BB
:1004B800FCDAA33309F018C0FBDA01DB09F403DB2B
:1004C80006DB09F408DB09DBEBDA0ADB0CDB21F0DD
:1004D800A0912702A23019F4F6DAE3E038DA0ADB51
:1004E8000CDB0EDB11DB4DD8C5DAA33018F0C2DA0D
:1004F800A13108F03FC0E091F801E852E0932902E9
:10050800E03021F0A0912902AB3008F033C0D0DAF6
:10051800E09115021FDAE09116021FDAF9DAE0918C
:100528001902E0936D01E0911A02E0936E01E091E7
:100538001B02E0936F01E0911C02E0937001E091CF
:100548001D02E0937101E0911E02E0937201E091B7
:100558001F02E0937301E0912002E0937401E0919F
:100568002102E0937501DDDAE0912902DDDACCDAC7
:100578007DDA84D17FDAA83019F497DAA93009F046
:100588000CC096DAE0911502E5D9E0911602E5D99A
:10059800BFDACDDAB9DA6ADA71D16CDAA43009F0E7
:1005A8004BC083DAAF3018F080DAA33108F015C0F9
:1005B8005DDAE0911202EF70E093FD01E091130221
:1005C800EF70C8D9E0911402EF70C7D9B7DA09F40F
:1005D800B9DABADA09F4BCDA2FC06ADA66DAA13015
:1005E80011F488DA22C061DAA23019F4B3DAE2E051
:1005F8001FC05BDAA53019F4ADDAE5E019C055DAA9
:10060800AB3019F4A7DAE3E013C04FDAAC3019F4D1
:10061800A1DAE4E00DC049DAAE3019F49BDAE6E07D
:1006280007C043DAAD3041F497DAFA93EA93E1E090
:10063800EA9395DA1BDA22D1B2D91CDAA33128F46D
:1006480028DAA0E0A08320DAF8CFEAEFE0932502C9
:10065800C1986BD9A091A301A93010F4E0E007C0BC
:10066800A091D601AB3028F4E091D601EF5FE0937A
:10067800D601A091D601AA3029F4C1D7E1E0E093D0
:10068800280263D9E091A50125DCA091D701EA23CE
:1006980021F0B4D7E0E0E093D701DD20E9F0DD24D4
:1006A80060DAE03049F0C09906C0929B03C08FD948
:1006B800E03009F001C001C001C0979AA091C701BC
:1006C800A03019F451DAE03009F401C050DAA091F1
:1006D800C701A13009F44BDAAAD5E091C301E03093
:1006E80069F4EDE0E093C30160D8E0937E01E03067
:1006F80029F0EAE0E0938201E1E03EDAA091C2014C
:10070800A13029F43CDA11F040DA90D10FC0A09161
:10071800C201A23029F433DA11F037DA3DD206C02B
:10072800E091C601E03011F030DA82D2E091C901DF
:10073800E03009F440C0E0E0E093C901A0E020FE09
:10074800A1E028DAC7DBEA2339F4E0E021FEE1E0A2
:10075800A091E001EA23A9F0E0E0E093CC01E8945D
:1007680022F81BDA11F0689422F864D76DD9E09169
:10077800D30116DA12DA19F0E091D80111DA4ED75E
:100788001AC00BDA31F0E2B3A4E0EA27E2BB92998F
:100798000ADA03DA31F4E8B3A1E0EA27E8BBC09942
:1007A80002DA91D9929906DA96D9C09B02C0E1E0A3
:1007B800CED804DAD4D9E091CB01E03011F004DAD4
:1007C80009F013C022FC929A22FEC09A27D7979A62
:1007D800E0E0E093CB01E1E0E093CC01C2D9E0D9BD
:1007E800DCD919F0E091D901DBD9E091CC01E030F6
:1007F80011F0EAD909F006C033D697981BD7E0E084
:10080800E093CC01E091CA01E03079F0E0E0E093B8
:10081800CA01E093CF0120FC08C0E1E0E093CE01DB
:10082800E091D501E093D001F9D6E091CE01E03016
:1008380011F0C2D809F00CC0F1D6979AC09AE0E03E
:10084800E093CE01E1E0E093CF018BD9E093D001B2
:10085800E091CF01E03011F0AFD809F006C000D622
:100868009798C098E0E0E093CF01E091C501E030AF
:10087800E1F3E0E0E093C5017FCCFFCF2297E89455
:1008880021F820F8A1E06CD6E093D301E093D801D9
:10089800A2E066D6E093D40164D9E093D90161D986
:1008A800E03011F4689420F8E091D901E03011F4B7
:1008B800689421F8A3E054D6E093DF01A4E050D671
:1008C800E093EE01A5E04CD6E093D501A6E048D62A
:1008D800E093FA01A7E044D635D87AD981D911F442
:1008E800E0E0E883A981AA3011F4E0E0E983E2E3DB
:1008F800E093DE016CD8E03019F4E4E1E093DE0126
:1009080075D96ED911F4E0E0E883A981AA3011F411
:10091800E0E0E983E881E093EF01E981E093F00109
:100928004DD96BD9DE01149603D79298C09820FE52
:1009380003C066D909F4C09A21FE04C0A881A13079
:1009480009F4929A30C7AA93A981E1E0B9DAAE2FE7
:10095800E091A501BFDAEA23A981A73009F460D69E
:1009680022C7AA93A981A93081F44DD9EA814ED929
:10097800A881EAE0C7DAE05DE0939D01A881EAE09A
:10098800CFDAE05DE0939E01E7D5A981A73011F4A5
:1009980044D997D5A981A63019F44AD975D591D5E6
:1009A800A981A53029F422D94DD9E0939401D4D551
:1009B80050D949F40DD946D9E093930191D8E05D17
:1009C800E0939401C9D5A981A33021F4B0D844D9C2
:1009D8008AD5C2D545D919F446D918D9BDD510D963
:1009E80021F5A881A13021F4B5D842D906D943D937
:1009F800A881A23021F4AED800D9FFD83CD9A8816B
:100A0800A33021F4A7D8E3E03AD935D9A881A43096
:100A180021F4A0D8E4E033D92ED9A881A53029F44F
:100A280099D8E5E02CD927D93BD5BDC6AA93A8818A
:100A3800AB3009F096C0E1E024D941D809F443D895
:100A480046D809F448D820D94BD820D9A13081F00C
:100A580023D9A23069F020D9A53051F01DD9A93089
:100A680039F01AD9AB3018F017D9A33108F002C001
:100A7800E0E007D911D9A63028F411D9A43011F42F
:100A880011D909F006C012D965D817D919D91AD9B8
:100A980066C002D9AB3021F41FD911F403D909F08B
:100AA80006C004D957D8E3E00BD90CD958C0F4D8FC
:100AB800AC3021F411D911F4F5D809F006C0F6D8F4
:100AC80049D8E4E0FDD8FED84AC0E6D8AE3021F4D3
:100AD80003D911F4E7D809F006C0E8D83BD8E6E016
:100AE800EFD8F0D83CC0D8D8AD3021F4F5D811F4FF
:100AF800D9D809F007C0DAD82FD8FFD7B9D82FD856
:100B0800E1D82DC0C9D8A93029F4C9D8A83011F422
:100B1800C9D809F005C0E5D50AD8F6D7D3D81FC07B
:100B2800BBD8A33120F4D8D811F4BCD809F014C02C
:100B3800C4D8EA500CD7E0916901EF700BD7E09167
:100B48006A01EF700AD7FAD709F4FCD7FDD709F480
:100B5800FFD71AD5B7D803C0C2D8C5D8A2E025D3C5
:100B68001AC0A881EEE0ACD90E2EECE0A9D9E02994
:100B780081F0FED69798E0E0E093C701B9D8A2E0EB
:100B8800E2DEF6D6EDD6F0D679DEE0E0B4D868D469
:100B980002C0A88179D1C7C6AA93A881AB3091F5C4
:100BA800A2D89DD851D57ED851F5E091F101E03019
:100BB80011F4A4D81BC070D8A333A1F480D709F4CA
:100BC80082D785D709F487D75FD88AD78CD721F001
:100BD800A0912702A23019F476D7E3E0B8D6BAD7A5
:100BE8008FD704C09ED769D8E8529ED7EA93A7E664
:100BF800B1E085D57DD88BD8D8D250D702C0A2E035
:100C0800D4D215C0A881AD3019F4E1E044D70FC0A3
:100C1800A881AE3051F432DE41D7E0E06CD8979825
:100C2800A7D69ED6A1D61CD402C0A8812DD17BC63A
:100C3800AA931A93E091C701E03009F08CC0A9810A
:100C4800AB3009F040C0ADD01E2F0AD7A12FE1E08C
:100C580037D90E2EA091D601EBE032D9E02199F0D8
:100C6800E1E0E093C201E3E046D842D8A2E06BDEBF
:100C7800E1E0E093C701E093640131D84CD8ECD7A8
:100C880037D845D81DC0123071F4E2E0E093C201B4
:100C980005D7E9E030D8E1E0E09364013CD8DCD73F
:100CA80027D835D80DC0133021F4E091EB01E0309E
:100CB80009F005C0E1E0E093C901A4E001C0A2E0A9
:100CC80074D2E0E046C0A981AE3011F0AC3061F5D5
:100CD800E091EA01E03039F5E091EB01E03031F0E4
:100CE800E4E0E093EC01BCD68DD61DC018D809F01D
:100CF800929A1AD8E03009F41AD8A091E701AA30DC
:100D080009F415D887D60DD7E091E7010DD713D888
:100D18001BD8979A64D6E03031F061D663D608F0D4
:100D280068D670D6949A17C0FFD7F0E0E355FE4F07
:100D3800A981A083E981E093E70124D6159718F0EB
:100D4800E4E0F0E024D6A091C101A73020F4ECD76C
:100D5800EF5FE093C101188126C5FDD71A9310E013
:100D6800E3D71E1768F4E12FF0E0E355FE4F00804B
:100D7800F5D7EC91E01511F0E0E0C6C51F5FF0CFA4
:100D8800163010F0E1E0C0C5E9D7AC91A13020F0F1
:100D9800E5D7AC91AB3008F002C0E0E0B5C5E1E0C2
:100DA800B3C526971A93C0D7E03021F0A091C101AE
:100DB800A73008F026C057D7D7D711F0E1E022C0F6
:100DC800B6D6EA93DE011596B3D4DE011196C5DFD7
:100DD800E03011F0E2E016C03BD610E0193288F49A
:100DE800A89511D7E12FEF5FBFD749F0E091DE0159
:100DF8001E1718F0E1E0E093E001E3E003C01F5F95
:100E0800EDCFE0E0188127960895AA93E881E130B4
:100E180029F4E0E0B4D7B6D7E7E020C0E23019F40F
:100E2800E2E3B4D71BC0E33019F4E8E3AFD716C048
:100E3800E43029F4E0E1A3D7A5D7E1E00FC0E5301D
:100E480029F4EEE09CD79ED7E1E008C0E93041F4F0
:100E5800EEE395D7E6E0E0936501E3E3E09366010E
:100E680062C5AA93E0916501A881AE1760F4E88194
:100E7800A981BA81F0E0AE0FBF1FE0E0EC93E881F2
:100E8800EF5FE883EFCF41C5AA93E0916501E45F86
:100E980006D7AE1730F5E0912402E030D1F0FED548
:100EA800A881AA3019F478D7AEE011C0A881A13082
:100EB80019F472D7ADE00BC0A881A23019F46CD731
:100EC800ACE005C0A881A33018F066D7ABE0A083DA
:100ED80003C062D7A881A083E091C801EF5FE093C7
:100EE800C80121C50A921A92FA926A937A938A9350
:100EF8009A93AA93BA93EA93FA93EFB7EA93E09195
:100F0800A701EF5FE093A701A091A701A83008F41B
:100F180031C1E1E0E093C501E0E0E093A701E09191
:100F2800E101EF5F39D5B394E091F901E030D1F0F8
:100F3800E150E093F901A091F901A63721F4E0917D
:100F4800FD01E03009F407C0E091FD0100D51CD394
:100F5800E0E0E093FD01A091F901A23311F4E7E18B
:100F680021D71DD551D509F464C0ACE2B2E020D731
:100F7800A0912C02B0912D025E9746D509F059C078
:100F8800949A1BD7EF5FE093E8019798A091C1016D
:100F9800A230D0F0A091E801A63080F411D7A0913A
:100FA800C101EA1758F40CD7F0E00F010CD7DF01A4
:100FB800F001E355FE4FE081EC9306C0E091E801B3
:100FC800E15004D7A0E0A083FBD600D7A081A130D0
:100FD80010F0AA3038F0A081AA3021F0AC3011F01E
:100FE800AB30B1F4EBE4F0E0F3D6979AE9D6EED65D
:100FF800E081F3D6F5D6AC3011F4E3E1EED6F0D6C5
:10100800AB3011F4E2E1E9D6E6D2E091ED01CAD6BF
:10101800D7D6DCD6A081AE3019F4E8E5F2E0D8D610
:10102800CFD6D4D6A081AD3021F4E4E6F0E0D0D616
:101038009498A091E101AA3FA8F0E4D49DD491F03E
:10104800AEE2B2E0B5D698D469F4949809D2E0E05B
:10105800E093EA01E093EB01E093F201E093F301FE
:101068009ED49798EAEFBE1608F46CC0BB24ACD5A2
:1010780081F0E091CB01E03011F0A1E096D0E09151
:10108800CC01E03011F0A5E090D0E091CD01E15025
:1010980087D592D489F0E091CE01E03011F0A1E03B
:1010A80084D0E091CF01E03011F0A5E07ED0E0914E
:1010B800D001E150E093D001E0918101E03019F0D6
:1010C800E150E0938101E091A601E03019F0E15090
:1010D800E093A601E0918201E03031F0E150E09325
:1010E8008201E03009F440D4E091E201E03031F0CF
:1010F800E150E093E201E03009F49298E091EC01CC
:10110800E03001F1E150E093EC01E030D9F407D68A
:1011180009F0929A09D6E03009F409D6A091E701BE
:10112800AA3009F404D676D4FCD4E091E701FCD4C3
:1011380002D60AD654D4E03029F051D4F0E027D4AE
:1011480061D4949AE091C301E03019F0E150E09342
:10115800C3012CD431F0ABEAB1E02AD627D409F484
:1011680037D0A394EEE3AE1628F0AA24E1E0DE26F9
:10117800E093D701E0918001E03049F0E150E0933D
:101188008001E03021F45524E0E0E0937F01E9910B
:10119800EFBFF991E991B991A991999189917991C3
:1011A8006991F990199009901895AA93E0912602EF
:1011B800A881EA1720F4E0912802E03041F0E881A4
:1011C800E093A801E8EEF3E00ED612D60DD0ABC33B
:1011D800E0E0E093A801E0932802E093AB01E093FC
:1011E800AC0106D0959A0895A3D3E9E0EEBD089521
:1011F800E0E0EEBD95980895AA93EA93EFB7EA93D5
:10120800E091AA01E03049F4E091A901E093AA0134
:10121800E2B3A0E2EA27E2BB05C0E091AA01E150EF
:10122800E093AA01E991EFBFE991A9911895E0919E
:10123800A801E13049F4E0D5A13CE3E0BE0710F095
:10124800E0D501C0E2D56AC0E23051F4D5D5AD355C
:10125800E3E0BE0718F0E6E0DBD501C0D6D55EC0F6
:10126800E33019F5C9D5AA3DE3E0BE0710F0C9D5AA
:101278001BC0C2D5AB3CE3E0BE0718F0E7E0C8D519
:1012880013C0BAD5AC3BE3E0BE0710F0B1D50CC033
:10129800C2D510F0B6D508C0AFD5AE39E3E0BE0769
:1012A80010F0A6D501C0B1D539C0E43069F5A4D590
:1012B800A53DE3E0BE0710F0A4D525C09DD5A13C0F
:1012C800E3E0BE0718F0E7E0A3D51DC0A4D510F0F1
:1012D8008FD519C091D5A939E3E0BE0718F0ECE025
:1012E80097D511C089D5A538E3E0BE0718F0EEE020
:1012F8008FD509C081D5A137E3E0BE0718F0E0E13A
:1013080087D501C082D50AC0E53041F475D5A53E20
:10131800E2E0BE0710F075D501C077D508951A939D
:101328006ED1E2E07DD5E2E012D3E2E013D3E2E051
:1013380014D3E2E078D5E2E079D5F9D3E5D379D5CD
:10134800EAE005D307D494D40AD473D5E3E0FFD2F6
:1013580001D453D404D4E6E063D5BDD3FBD3E3E092
:10136800AFD467D5E1E0F3D2F5D3E4E0A9D461D5F1
:10137800EAE0EDD2EFD3E5E0A3D4E3E051D5EAE02B
:10138800E6D2E8D3E6E09CD454D5E6E0E0D2E2D356
:10139800B7D3BAD3E7E044D5E5E0D9D2DDD3ADD3AE
:1013A80067D4DDD3E5E03CD596D3E0E1F0E0A5D302
:1013B8005FD4D5D3FFD3E2E0CAD2E3E0CBD2C8D31F
:1013C8003AD53BD520D454D43AD57DD384D3BAD397
:1013D800BFD331D532D517D410D431D574D37BD3FC
:1013E800B1D3B6D328D529D513E0183428F40BD4B3
:1013F8001A9325D51F5FF9CF1CD56DD392D3EAE098
:1014080093D382D314C2BCD5E6E8E6B9E0E6E7B9DF
:1014180000E00A3010F515D5E660E7B90000A89598
:10142800369A349BFECF15B1143628F4E091A40106
:10143800EF5FE093A40105D5E760E7B90000A89540
:10144800369A349BFECF15B1143628F4E091A301E7
:10145800EF5FE093A3010F5FDCCF09911991089525
:10146800E7D306D0DAD32CD0E1E0E093D701089592
:101478001A9310E0103138F4A12FB0E0AD57BE4FE9
:10148800E5D41F5FF7CFD3C11A9310E0103138F4B9
:10149800A12FB0E0AD56BE4FD9D41F5FF7CFC7C15B
:1014A8000FD0EDE3E093960118D3E05DE09394014B
:1014B80017D3E05DE0939501E9EBE09393014CC00D
:1014C8000895A0916701A03E10F0AB3F08F004C05A
:1014D80004D3E054E093D101EFE0E093D201E0E0DF
:1014E800E093DD010895F9D2E03011F4E0EF98D4EB
:1014F800F7D2E03011F4E0EF2AD2E0916901E03050
:1015080011F4E0EF27D2E0916A01E03011F4E0EF46
:1015180024D2E0916B01E03011F4E0EF84D4E09143
:101528006C01E03011F4E0EF81D4C9D209F4CBD2D8
:10153800CED209F4D0D202D309F404D305D309F4E6
:1015480007D3A0916B01AA3009F475D4A0916C015E
:10155800AA3009F472D40895E1E0E093A501089552
:10156800AA93F8D2EA818BD3A7E6B1E0E1D0A7D25B
:1015780009F4A9D2ACD209F4AED286D3B1D2EA0F1B
:10158800D2C174D27BD90895E1E0E093FC0165D41F
:10159800A53000F562D4A13011F4E5E110C05DD4A6
:1015A800A23011F49DD20BC058D4A33019F4E091A5
:1015B800690105C052D4A43021F4E0916A01E09396
:1015C800ED0109D0919A9198E091FC01EF5FE093C9
:1015D800FC01DDCF089504D4A83011F4E0E1FDD377
:1015E800FFD3A93011F4E1E1F8D3FAD3AA3011F40A
:1015F800E0E0F3D3E091ED01E5BB08950895DAD278
:10160800E2E0A5D1E3E0A6D1E4E0A7D1E5E00BD480
:10161800E6E00CD428D3EA9312D4089551DF089554
:101628004FDFECDF08954BD209F44DD250D209F4C4
:1016380052D2089520FEC09821FE92980895000085
:101648000000000000000895E0E01BD3E0E0E09314
:10165800F10135D209F437D23AD209F43CD214D385
:101668003FD214D3A43318F428D3E03011F4E1E0C6
:1016780008D312D3A93218F0E1E0E093F10116D3B0
:10168800E0916B0167D1E0916C0167D1E0916D0148
:10169800CAD3E0916E01CAD3E0916F01E0936D0166
:1016A800E0917001E0936E01E0917101E0936F01A8
:1016B800E0917201E0937001E0917301E093710190
:1016C800E0917401E0937201E0917501E093730178
:1016D800E0917601E0937401E0917701E093750160
:1016E8000895E4D2E0916B0135D1E0916C0135D1D8
:1016F800E0916D0198D3E0916E0198D30895B0D32D
:10170800B8D3EE811E1710F4103108F010C0A89558
:10171800E1E0E0933002BED33197EFD1AE81BF81D3
:10172800EE27A10FBE1FAC9126D01F5FEACF20C0C5
:1017380097D3A0916001B0916101A156B04F2CD010
:1017480098D3EE811E1710F4103108F011C0E12F64
:10175800AC81BD81F0E0EA0FFB1FFF93EF939AD3B2
:101768003197DF0119D0AF91BF91EC931F5FE9CF9B
:101778000AD42A960895AA93E0913002E03059F0ED
:10178800E0E0E0933002E299FECFE881A981BA81D6
:10179800E4D3E49AE29AB9C0DED2E299FECFE19AA4
:1017A800A881B981CED3229608951A9310E041D02A
:1017B8001E2FE03051F11A9371D372D01E2FE09191
:1017C8007A01E11719F0E0E0E0937C0110937A01C7
:1017D800A0917C01AE3128F4E0917C01EF5FE093A9
:1017E8007C01A0917C01AE3121F4E0917D01E030D3
:1017F80009F009C0E1E0E0937D01A12F88D01E2FF8
:10180800A2E0D3DC01C010E011C0E0917D01E0301E
:1018180031F410917A01103011F0A1E0C6DCE0E05B
:10182800E0937C01E0937A01E0937D01E12F199127
:101838000895A4D310E000E035B3E0E132D334D307
:10184800E6B3EC7111F00F5F13C028D3A13029F46F
:10185800E0E027D335BBE0E020C020D3A03111F46D
:10186800E8E01FD3E0917B01E6951BD31DD300E090
:10187800053020F4E0917B01E03009F401C0E0CFAD
:10188800E6B3EC711E2F1695169535BBE0917B01DA
:10189800E03011F0E12F01C0E0E075D324960895FF
:1018A800AA931A9310E0AA81A13069F4A9D109F486
:1018B80014E0D6D109F41BE0CCD109F417E0A981D2
:1018C800A03109F411E0AA81A43069F499D109F48E
:1018D80015E0C6D109F41AE0BCD109F418E0A981D1
:1018E800A03109F412E0AA81A23069F489D109F47F
:1018F80016E0B6D109F41CE0ACD109F419E0A981CD
:10190800A03109F413E0E12F188123960895AA93D2
:10191800A881AC3011F4EEE006C0A881AB3011F418
:10192800EDE001C0E0E021960895EFE7E4BB0895FB
:10193800E0E0EDBDECBD0895E0E0E093A301E093A5
:10194800A40161CDE09326020895A4E02ECCE09393
:1019580068010895E09369010895E0936A01089584
:10196800E0E0E093C2010895E0E0E093C10108954A
:10197800E0E0E093A5010895E0912E02F0912F0296
:1019880030970895A0912E02B0912F020895E09308
:101998002E02F0932F020895E093E1010895E0E00C
:1019A800E093F4010895E091FB010895E091AB0103
:1019B800F091AC0130970895E091D001E03008959E
:1019C800ED91FD9108953196FE93EE930895E0917F
:1019D800FA010895E093E201FADFE0300895E0911A
:1019E800DF010895E65FF0E0D2DFA091DF01AB35BB
:1019F8000895F5DFEA55F0E0CADFC4DFECE377D2FB
:101A08003A96C5CFE0E0C8CFE0912C02F0912D02C4
:101A180030970895E8E6E4BBC19A0895E093E90198
:101A28000895A091E9010895E091EF01FADFEA171E
:101A38000895E1E0F0E0ABDFE091D401E0300895F3
:101A4800E1E0E093C90181CFE1E0E093CB010895A3
:101A5800E0E0E093E0010895E1E0E093CD0108952E
:101A6800E1E0F0E094CFDDDFAC300895E8E7E09303
:101A7800F9010895A091F4010895E091F401089501
:101A8800F0E0EF5EFD4F0895F8DFEF5FE093F401BB
:101A98000895F3DFF5CFE09324020895E0E0FBCF4B
:101AA800AAE0EA9FF001AE2F0895A091F8010895E9
:101AB800E0911302E0936701E091140248CFA091EE
:101AC8006701AA300895E0E0E09367010895A091C6
:101AD8006801AA300895E0E03ACFE09167010895DF
:101AE800E09168010895EA0FE0932702A091270288
:101AF800A1300895E0E0F0E00895FA93EA9308959C
:101B0800E7E0EA93E2E00895EA93A7E6B1E0F7CDCB
:101B1800E0911702E0936B01E0911802E0936C01E9
:101B28000895E4E3F1E0E9CFEA93EFE00895E8E30C
:101B3800F0E0E3DFE1E0EA93E6E00895A0916901CF
:101B4800AA300895E0E006CFA0916A01AA3008956E
:101B5800E0E003CFCFDFD1CFEEE0F0E00895E2E0A0
:101B6800D3CFE091D4010895E091C4010895E2B380
:101B7800A0E8EA27E2BB0895E093C6010895E6E0ED
:101B8800E1DEE091C601E0300895E0E0F5DFA091E4
:101B98007E010895E091E0010895FCDFE0300895AA
:101BA800E093CD010895E0EBF4E0E093AB01F0930E
:101BB800AC010895E1E0E09367010895EAECF1E0F3
:101BC8009CDFE1E0EA930895E091CD01E0300895CB
:101BD800E0E1F0E092DFE1E0EA93E2E0EA930895E1
:101BE800DE011496A5DDA881AA300895B5DF85DF4A
:101BF800E1E0EA93E2E0EA930895E2E0EA930895E7
:101C0800A981A1300895EEE3F0E077CFEA93E6E00A
:101C1800EA93A7E6B1E08CDD66CCE2E2F0E06DDFA6
:101C2800E1E0EA93E0E1EA93A7E6B1E081DD2CCCBC
:101C3800E2E1F0E062DFE1E0EA93E0E1EA93A7E6BF
:101C4800B1E076CDA7E6B1E073DDEDDC46DFE05D1F
:101C58000895A981A4300895EA93A7E6B1E068CD74
:101C6800A981A2300895E2E3F0E047DFE1E00895BA
:101C7800E1E0EA930895A7E6B1E05ADDD4CCEA930F
:101C8800BCCFE093DC01089528DF0ACFEA0FE09388
:101C98006401A09164010895A09164010895A09140
:101CA800C8010895E091DC01E0300895E0916901F0
:101CB800E0936701E0916A014ACEE09164010895DA
:101CC800EA934DCFE0E0E093C801E7E6F1E015DFE5
:101CD800E6DFC7D8A3E00895E2DFA4300895E0E086
:101CE800E093C8010895E7E6F1E007DFD8DFB9C857
:101CF8003BDFEA930895E093C4010895E0916301FE
:101D0800F0E0FBDEDADFEA93E09165010895C4DFD5
:101D180028D6A3E00895A091C40177D8EFCFE1E0D9
:101D2800E093EB0154DE56CEE091C1010895EAE05C
:101D3800E093E7010895EA93AFEFB1E0F9DCE0E062
:101D4800E093E801C198F1CDEAEFF0E0E0932C02CE
:101D5800F0932D020895BA93AA930895A981BA81A0
:101D6800EE27A10FBE1F0895EA93E6E0EA93DE018D
:101D78001596DEDCDE011196F0D7E0300895E09389
:101D880063010895E2E0E09365010895F8DFE6E075
:101D9800E0936501E1E00895E091C801F0E0E959B8
:101DA800FE4F0895E5BB4BDC919A49DC9198089564
:101DB80007DE3197FE93EE930895E091E8010895C8
:101DC800FCDFE1500895E150FE4F0895F0E0FBCFAD
:101DD800E0932C02F0932D020895E093ED0108950D
:101DE800A091ED010895E093AB01F093AC01089543
:101DF800EAE0E093A9010895A091AB01B091AC018C
:101E08000895E4E0E093A9010895E1E0F0E0EBCF64
:101E1800E093A9010895F0DFAD3AE3E0BE07089525
:101E2800E09367010895E0936B010895E0936C01D6
:101E38000895EAE0F5CFE0E0F6CFE0E0F7CFE6E09E
:101E480063CEE7B1E87FE7B9E7B10895E12FF0E0A5
:101E5800E959FE4FE081EC930895A091FC010895A3
:101E68007ADF8CD0EF81E0936201E1502E2F332787
:101E78000895E885F985EF5FFF4FBF01EE81D9012D
:101E8800F0E03BD0E60FF71FE0936001F0936101AB
:101E980010E00895A0E6B1E093DD95CDA0917B0117
:101EA8000895E0937B010895E5B3E07EE5BBE5B3D3
:101EB800F5DFEA2BE5BB0895F195E195F04008952B
:101EC800EA17E1E009F0EE270895EA17E1E008F0E3
:101ED800EE270895EE23E1E009F0EE270895FA9F32
:101EE800F02DEB9FF00DEA9FE02DF10D08956E2F78
:101EF8006A9FF0016B9FF00D089515D0F0DF0EF486
:101F0800DBDF0895002498E0AA0F001C0E1A10F4D5
:101F18000E0E01C0A1609A95B9F7EA2FA02D089579
:101F2800F1DFEA2F0895E894F7FF02C0C5DF68944F
:101F3800B7FF06C0A095B095119600F8039400FA73
:101F48000895E199FECFFF93FFB7F894AEBBBFBBEE
:101F5800E09AEDB3FFBFFF910895E19B02C0A895F9
:101F6800FCCF9FB7F894AEBBBFBBE09A8DB3E81720
:101F780019F0EDBBE29AE19A9FBF08953A932A932C
:101F88001A930A9308953B812A811981088108953B
:00000001FF
