:100000000C942A001895000018950000189500001F
:10001000189500001895000018950000189500002C
:100020001895000018950000189500000C947908A8
:10003000189500000C94D90D189500001895000033
:1000400018950000189500001895000018950000FC
:10005000189500008FE58DBFC0E4E6E24E2E88E0E3
:100060008EBFD8E0F8E05F2EEEEFF7E0A0E6B0E05C
:10007000A89584B7082E877F84BF88E1992781BD22
:1000800091BD88278D933197E9F787E689B980E09C
:1000900080BD88E18AB9662480E08ABB8FE087BB97
:1000A00080E084BB8CEF81BB80E088BB8CEF85BB9C
:1000B00083E082BB87E886B980E087B9579A85E0FC
:1000C00083BF80E090E0A4EEB0E08D939C9389B76D
:1000D000816089BF882783BF78940E947209EAE70C
:1000E000FEE10E946B090E947209379AEAE0F0E093
:1000F000AEEEB0E094E00E94DA0EEEEEF0E00E9488
:10010000E00BEEE3FEE10E94E80C0E94820981E030
:1001100009F080E08F93EEEEF0E00E94E00BE2E465
:10012000FEE10E94E80C0E94820981E009F080E073
:100130009F91892B882311F40C94A400AEEEB0E0BB
:10014000E6E4FEE10E94C50D0027AAE8B0E08C912C
:1001500087FB0EF401E041E0041711F00C94160146
:1001600080918A008F7780938A0081E090E0A6EEEC
:10017000B0E08D939C93AEE1B1E04D915527A6EE92
:10018000B0E00D911C910417150718F011F00C94B4
:10019000EF00A6EEB0E0AD90BC90A7E0B1E0AA0DF4
:1001A000BB1D0C910D3011F40C94E800A6EEB0E0EC
:1001B000AD90BC90A7E0B1E0AA0DBB1D8C91ADE85D
:1001C000B0E08F930E945C098F918D9388278C9368
:1001D000A6EEB0E00E94180910F40C94BB00ADE844
:1001E000B0E00E94E10E082F003011F00C940601DF
:1001F000EEE8FEE10E946B090E947209ADE8B0E0F2
:1002000088278C930E9441020C941601EDE8F0E0DF
:10021000A2EAB0E090E204E133E00E94FD0EA1EE1C
:10022000B0E02C930E9461020E9441020C94A40051
:10023000F894FFCFAA81BB810C91043118F011F022
:100240000C9424010C942C01E2E9FEE10E946B095C
:100250000E9472090C945E0181E090E0A6EEB0E08D
:100260008D939C93AA81BB814D915527A6EEB0E05A
:100270000D911C910417150718F011F00C945E01F4
:1002800007B1007EA881B9818C9190E0890F082781
:1002900007B90E94870BA6EEB0E0AD90BC90A0E637
:1002A000B0E0AA0CBB1CAA0DBB1D8D939C93A6EEBF
:1002B000B0E00E94180910F40C94320108955A928B
:1002C0004A928AE0A42DB52D8C9381E00E941409F6
:1002D0005A924A92AC81BD818C91A42DB52D8C93FC
:1002E00081E00E9414090E941A01249682E00E9473
:1002F00010090E94BE01AAE6B0E08D919C91A0E693
:10030000B0E08D939C93089581E08093E200A881F2
:10031000B9814C910091E200041718F011F00C948F
:10032000AF01AFEFB0E00D911C91A2EEB0E0AD9047
:10033000BB24A0E6B0E0AA0CBB1CAA0DBB1D4D91CE
:100340005C91040F151FAFEFB0E00D931C93A2EE6C
:10035000B0E08C918F5F8C9310F40C948701AFEF19
:10036000B0E00D911C91A881B9814D9155270E9453
:100370002209AFEFB0E04D935C9308958AE080933B
:10038000E30080918A00806480938A0081E08093FA
:10039000E2004091E3000091E200041718F011F030
:1003A0000C942F02A2EEB0E0AD90BB24A2E6B0E028
:1003B000AA0CBB1CAA0DBB1D4D915C91A2EEB0E036
:1003C000AD90BB24A0E6B0E0AA0CBB1CAA0DBB1DDF
:1003D0000D911C910417150718F011F00C94F201FF
:1003E0000C942702A2EEB0E0AD90BB24A0E6B0E0F2
:1003F000AA0CBB1CAA0DBB1D0D911C91A2EEB0E076
:10040000AD90BB24A2E6B0E0AA0CBB1CAA0DBB1D9C
:100410008D919C91A2EEB0E0AD90BB24A0E6B0E03F
:10042000AA0CBB1CAA0DBB1D8D939C93A2EEB0E041
:10043000AD90BB24A2E6B0E0AA0CBB1CAA0DBB1D6C
:100440000D931C9380918A008F7B80938A00A2EE8B
:10045000B0E08C918F5F8C9310F40C94C901809163
:10046000E30081508093E3000027AAE8B0E08C917C
:1004700086FB0EF401E041E0041711F00C94C10179
:10048000089580E080931E0180E080931C0180E04D
:1004900080931D01089503B34CEF0423AEEFB0E049
:1004A0000C9392E0AEEFB0E00E949A0BAEEFB0E09A
:1004B0008C9180958C93AEEFB0E08C918F738C9380
:1004C0000895E2EAF0E0A2EAB0E00E94CD0DA2EACF
:1004D000B0E0E6EAFEE10E94E70E11F00C9464053C
:1004E000E7EBF0E0A7EBB0E00E94CD0DA7EBB0E0AA
:1004F000EAEAFEE10E94E70E11F00C94C70207B190
:10050000007E006007B90E94870BA0E6B0E08D93E3
:100510009C9307B1007E006007B90E94870BA0E69C
:10052000B0E08D939C93EAE4FEE10E94E80CE0E6E3
:10053000F0E0D190E080FF2400270E94F20B0E949F
:100540009809EDE0F0E0AAEEB0E00E94CB0EEEE4F8
:10055000FEE10E94E80CEAEEF0E00E94E00B0E944F
:100560009809EDE0F0E0AAEEB0E00E94CB0EAEE01C
:10057000B8E0AEE0B8E0EAEEF0E0552743E00E94D4
:10058000EE090E9463090E9472090C946205EEEA6A
:10059000FEE10E94E70E11F00C94160307B1007EF5
:1005A000016007B90E94870BA0E6B0E08D939C9391
:1005B00007B1007E016007B90E94870BA0E6B0E09A
:1005C0008D939C93E2E5FEE10E94E80CE0E6F0E00A
:1005D000D190E080FF2400270E94F20B0E9498092E
:1005E000EDE0F0E0AAEEB0E00E94CB0EEEE4FEE11A
:1005F0000E94E80CEAEEF0E00E94E00B0E949809ED
:10060000EDE0F0E0AAEEB0E00E94CB0EAEE0B8E084
:10061000AEE0B8E0EAEEF0E0552743E00E94EE09D4
:100620000E9463090E9472090C946205E2EBFEE1EC
:100630000E94E70E11F00C94650307B1007E026082
:1006400007B90E94870BA0E6B0E08D939C9307B199
:10065000007E026007B90E94870BA0E6B0E08D9390
:100660009C93E6E5FEE10E94E80CE0E6F0E0D19024
:10067000E080FF2400270E94F20B0E949809EDE021
:10068000F0E0AAEEB0E00E94CB0EEEE4FEE10E94A4
:10069000E80CEAEEF0E00E94E00B0E949809EDE021
:1006A000F0E0AAEEB0E00E94CB0EAEE0B8E0AEE023
:1006B000B8E0EAEEF0E0552743E00E94EE090E9420
:1006C00063090E9472090C946205E6EBFEE10E9448
:1006D000E70E11F00C94B80307B1007E036007B970
:1006E0000E94870BA0E6B0E08D939C9307B1007E3B
:1006F000036007B90E94870BA0E6B0E08D939C933E
:10070000EAE5FEE10E94E80CE0E6F0E0D190E0804E
:10071000FF2400270E94F20B0E949809EDE0F0E010
:10072000AAEEB0E00E94CB0EEEE4FEE10E94E80CDF
:10073000EAEEF0E00E94E00B0E949809EDE0F0E0A4
:10074000AAEEB0E00E94CB0EECEBFEE10E946B093A
:10075000AEE0B8E0AEE0B8E0EAEEF0E0552743E006
:100760000E94EE090E9463090E9472090C946205BE
:10077000EEEBFEE10E94E70E11F00C94070407B1C6
:10078000007E046007B90E94870BA0E6B0E08D935D
:100790009C9307B1007E046007B90E94870BA0E616
:1007A000B0E08D939C93EEE5FEE10E94E80CE0E65C
:1007B000F0E0D190E080FF2400270E94F20B0E941D
:1007C0009809EDE0F0E0AAEEB0E00E94CB0EEEE476
:1007D000FEE10E94E80CEAEEF0E00E94E00B0E94CD
:1007E0009809EDE0F0E0AAEEB0E00E94CB0EAEE09A
:1007F000B8E0AEE0B8E0EAEEF0E0552743E00E9452
:10080000EE090E9463090E9472090C946205E2ECF1
:10081000FEE10E94E70E11F00C945A0407B1007E2D
:10082000056007B90E94870BA0E6B0E08D939C930A
:1008300007B1007E056007B90E94870BA0E6B0E013
:100840008D939C93E2E6FEE10E94E80CE0E6F0E086
:10085000D190E080FF2400270E94F20B0E949809AB
:10086000EDE0F0E0AAEEB0E00E94CB0EEEE4FEE197
:100870000E94E80CEAEEF0E00E94E00B0E9498096A
:10088000EDE0F0E0AAEEB0E00E94CB0EECEBFEE172
:100890000E946B09AEE0B8E0AEE0B8E0EAEEF0E04E
:1008A000552743E00E94EE090E9463090E947209E5
:1008B0000C946205E8ECFEE10E94E70E11F00C9446
:1008C000A90407B1007E066007B90E94870BA0E665
:1008D000B0E08D939C9307B1007E066007B90E943B
:1008E000870BA0E6B0E08D939C93E2E5FEE10E94C9
:1008F000E80CE0E6F0E0D190E080FF2400270E94C1
:10090000F20B0E949809EDE0F0E0AAEEB0E00E9440
:10091000CB0EEEE4FEE10E94E80CEAEEF0E00E946D
:10092000E00B0E949809EDE0F0E0AAEEB0E00E9432
:10093000CB0EAEE0B8E0AEE0B8E0EAEEF0E055276E
:1009400043E00E94EE090E9463090E9472090C9420
:100950006205E2EDFEE10E94E70E11F00C945C05E9
:1009600007B1007E076007B90E94870BA0E6B0E0E0
:100970008D939C9307B1007E076007B90E94870B97
:10098000A0E6B0E08D939C93E6E6FEE10E94E80CC1
:10099000E0E6F0E0D190E080FF2400270E94F20B17
:1009A0000E949809EDE0F0E0AAEEB0E00E94CB0EC4
:1009B000EEE4FEE10E94E80CEAEEF0E00E94E00BBB
:1009C0000E949809EDE0F0E0AAEEB0E00E94CB0EA4
:1009D000AAEFB0E0EAE6FEE10E94C50DEAEFF0E022
:1009E0000E94E50BEAEEF0E00E94E00B0E949809FD
:1009F000EDE0F0E0AAEEB0E00E94CB0EEAEEF0E00F
:100A00000E94E00BEEE6FEE10E94E80C0E948209E3
:100A100080E010F009F081E08F93EAEEF0E00E94B0
:100A2000E00BE2E7FEE10E94E80C0E94820981E00F
:100A300008F080E09F918923882311F40C945405D9
:100A4000EEE6FEE10E94E80CEAEEF0E00E94E00B28
:100A50000E94870CEDE0F0E0AAEEB0E00E94CB0E21
:100A6000E6E7FEE10E94E80CEAEEF0E00E94E00B0F
:100A70000E94300CEDE0F0E0AAEEB0E00E94CB0E58
:100A8000EAEEF0E00E94A20BA1E0B1E0DD92EC9270
:100A9000AEE0B8E0E1E0F1E00E942C0E0E946309B4
:100AA0000E9472090C945A05E8EDFEE10E946B0960
:100AB0000E9472090C946205ECEDFEE10E946B0944
:100AC0000E9472090C946208EEEEFEE10E94E70EAD
:100AD00011F00C9493050E944B02AEE0B8E0EEEFEB
:100AE000F0E00E943B0E0E9463090E947209E2EF4F
:100AF000FEE10E946B09AEE0B8E0E5E3F0E00E94A1
:100B0000B40E0E946309EAEFFEE10E946B09AEE0B9
:100B1000B8E0E4E3F0E00E94B40E0E9463090E9492
:100B200072090C946208E4E0FFE10E94E70E11F004
:100B30000C94BE060091E100023081E009F080E0F3
:100B40008F930091E100033081E009F080E09F91F4
:100B5000892B882311F40C94B606A7EBB0E00E9411
:100B6000850EA5E0B1E00C9300910501003080E016
:100B700010F009F081E08F9300910501053081E0CC
:100B800008F080E09F918923882311F40C94AE062D
:100B90000091E100033011F00C948406ACECB0E05D
:100BA0000E94850EA6E0B1E00C9300910601003092
:100BB00081E009F080E08F9300910601013081E02F
:100BC00009F080E09F91892B882311F40C947C0616
:100BD00000910601003011F00C942B068DEF8093EC
:100BE0000601A5E0B1E09C91A6E0B1E00E94900B67
:100BF00002B340910601042302BBE8E0FFE10E943A
:100C00006B09AEE0B8E0E5E0F1E00E943B0E0E9427
:100C10006309E0E1FFE10E946B090E947209E8E1CB
:100C2000FFE10E946B09AEE0B8E0E2E3F0E00E9471
:100C3000B40E0E946309E0E2FFE10E946B09AEE09E
:100C4000B8E0E1E3F0E00E94B40E0E9463090E9464
:100C500072090C947A0600910501043011F00C948D
:100C60003F0680E090E0A4EEB0E08D939C9385E099
:100C700083BFE8E2FFE10E946B090E94720982E0F3
:100C800080930601A5E0B1E09C91A6E0B1E00E944E
:100C9000900B02B340910601042B02BBE8E0FFE198
:100CA0000E946B09AEE0B8E0E5E0F1E00E943B0E87
:100CB0000E946309E6E4FFE10E946B090E94720949
:100CC000E8E1FFE10E946B09AEE0B8E0E2E3F0E0AA
:100CD0000E94B40E0E946309EEE4FFE10E946B09DA
:100CE000AEE0B8E0E1E3F0E00E94B40E0E946309D8
:100CF0000E9472090C948206ECEDFEE10E946B09E1
:100D00000E9472090C94AC0682E080930601A5E073
:100D1000B1E09C91A6E0B1E00E94900B00B340913D
:100D200006010423A6E0B1E00C9300910601003017
:100D300018F011F00C949E060C94A606E8E5FFE16D
:100D40000E946B090E9472090C94AC06EAE5FFE16F
:100D50000E946B090E9472090C94B406ECEDFEE14E
:100D60000E946B090E9472090C94BC06ECEDFEE136
:100D70000E946B090E9472090C946208ECE5FFE185
:100D80000E94E70E11F00C94BA07E7EBF0E0A7EB36
:100D9000B0E00E94CD0DE0E6FFE10E946B09AEE0FD
:100DA000B8E0EBE3F0E00E94B40E0E946309E8E6CD
:100DB000FFE10E946B09AEE0B8E0EAE3F0E00E94D8
:100DC000B40E0E9463090E947209A7EBB0E0EAE545
:100DD000FFE10E94E70E11F00C94040707B1007EBA
:100DE000006007B90E94870BA0E6B0E08D939C934A
:100DF000AEE0B8E0E0E6F0E00E942C0E0E9463094D
:100E00000E9472090C94B807E8E5FFE10E94E70E22
:100E100011F00C94210707B1007E016007B90E9410
:100E2000870BA0E6B0E08D939C93AEE0B8E0E0E6DF
:100E3000F0E00E942C0E0E9463090E9472090C943B
:100E4000B807E2E7FFE10E94E70E11F00C943E07BD
:100E500007B1007E026007B90E94870BA0E6B0E0F0
:100E60008D939C93AEE0B8E0E0E6F0E00E942C0E9B
:100E70000E9463090E9472090C94B807E4E7FFE13D
:100E80000E94E70E11F00C945B0707B1007E03602F
:100E900007B90E94870BA0E6B0E08D939C93AEE06B
:100EA000B8E0E0E6F0E00E942C0E0E9463090E9488
:100EB00072090C94B807E6E7FFE10E94E70E11F013
:100EC0000C94780707B1007E046007B90E94870B75
:100ED000A0E6B0E08D939C93AEE0B8E0E0E6F0E0F1
:100EE0000E942C0E0E9463090E9472090C94B8079C
:100EF000E8E7FFE10E94E70E11F00C94950707B1B7
:100F0000007E056007B90E94870BA0E6B0E08D93D4
:100F10009C93AEE0B8E0E0E6F0E00E942C0E0E9468
:100F200063090E9472090C94B807EAE7FFE10E9486
:100F3000E70E11F00C94B20707B1007E066007B906
:100F40000E94870BA0E6B0E08D939C93AEE0B8E0E2
:100F5000E0E6F0E00E942C0E0E9463090E947209F4
:100F60000C94B807ECEDFEE10E946B090E94720937
:100F70000C946208ECE7FFE10E94E70E11F00C947C
:100F80002E08A7EBB0E00E94E10E082F003011F010
:100F90000C94DA07AEE0B8E0AEE0B8E0EEEEF0E0D8
:100FA000552743E00E94EE090E9463090E947209DE
:100FB0000C942C08A7EBB0E00E9465090E9472090E
:100FC000A7EBB0E00E94850EA0E1B0E00D911D916D
:100FD0002D913C91AEE0B8E0E0E1F0E00E942F0EF0
:100FE0000E9463090E94720940E050E060E070E0F6
:100FF000A7EBB0E00E94850EA0E1B0E00D911D913D
:101000002D913C910E94190E80E014F009F081E0CE
:101010008F9344E650E060E070E0A7EBB0E00E9400
:10102000850EA0E1B0E00D911D912D913C910E94A3
:10103000190E80E00CF481E09F918923882311F43C
:101040000C942C08A7EBB0E00E94F10CEDE0F0E06E
:10105000AEEEB0E00E94CB0E0C946208E2E8FFE135
:101060000E94E70E11F00C944908E8E8FFE10E94A5
:101070006B090E947209E6EBFFE10E946B090E9476
:101080007209EAEBFFE10E946B090E9472090C945D
:101090006208E0ECFFE10E94E70E11F00C945C089E
:1010A00084B7877F84BF88E181BD80E081BD81B541
:1010B000886081BD0C946208E6ECFFE10E946B0938
:1010C0000E947209ADE8B0E088278C93A2EAB0E0F4
:1010D00088278C93A7EBB0E088278C93ACE1B1E034
:1010E0000E940B0E089580918A00806880938A0088
:1010F00008950F921F922F923F924F925F927F928C
:10110000AF92BF920F931F932F933F934F935F9391
:101110006F937F938F939F93AF93BF93CF93DF93FF
:10112000EF93FF938FB78F93A4EEB0E00E9418095E
:10113000A4EEB0E00D911C91003556E4150711F0B6
:101140000C94F408E6EDFFE10E946B090E9472091D
:1011500084E0809305018DEF80930601A5E0B1E066
:101160009C91A6E0B1E00E94900B02B34091060171
:10117000042302BBE8E0FFE10E946B09AEE0B8E0A7
:10118000E5E0F1E00E943B0E0E946309E0E1FFE12F
:101190000E946B090E947209E8E1FFE10E946B095D
:1011A000AEE0B8E0E2E3F0E00E94B40E0E94630912
:1011B000E0E2FFE10E946B09AEE0B8E0E1E3F0E0BD
:1011C0000E94B40E0E9463090E94720980E090E0C0
:1011D000A4EEB0E08D939C93882783BFEAEEFFE1F5
:1011E0000E946B090E9472098F918FBFFF91EF914E
:1011F000DF91CF91BF91AF919F918F917F916F912F
:101200005F914F913F912F911F910F91BF90AF90A0
:101210007F905F904F903F902F901F900F90189568
:10122000481A8827580A0895480E8827581E089596
:10123000ED91FC91EF5FFF4FFC93EE93089500FC5E
:1012400010D0089503D01ED001F8F9CF0024E894FF
:1012500057FF02C009D0689400F80BD010F80124A1
:10126000089502D009D00895509540954F5F5F4F83
:101270000895E89417FF0895009510950F5F1F4F8C
:1012800068940895352F242FE894452B11F4689421
:101290000895512F402F0027112780E1440F551F3B
:1012A000001F111F021B130B416018F4020F131FC4
:1012B0004E7F8A9599F708958F938D918823E9F74A
:1012C00011978F910895AEE0B8E08D91882311F0C9
:1012D0000CD0FBCF08950E94E40C802D11F005D0B6
:1012E000FACF08958DE001D08AE05D9BFECF8CB9E6
:1012F00008953197F1F70895689462F80895E89495
:1013000062F808958F939F93D216E306F4060FB602
:1013100080E890E8802795270FBE89070FB6892BB4
:1013200087FD02C091E009260FBE9F918F9108951D
:1013300043D0A9F0503899F01627050F1BF40AF096
:10134000BCC2C2C203951BD0FF202AF0BB0CDD1C1F
:10135000EE1CFF1C02C003951BF003D03BC2B4C2BD
:10136000ACC2B7FE089590E8B91611F4D0FE089506
:101370009FEFD91AE90AF90A09F403950895FF9233
:10138000EF928D2DFF24EE24DD24BB2493E0849F77
:101390001001829FB00CD11CE21CF31C839FD00C67
:1013A000E11C2224F21C9A9531F0BD2CDE2CEF2C8E
:1013B000FF248F91ECCF0895652F90E8440F551FBF
:1013C0005927990F47956078102F90E8FF0C001F60
:1013D0000927990FF794107800380895F1D1F4DFB8
:1013E00017FF03C08DE28D931127003821F4E6EA40
:1013F000F6E10C94810B0F3741F4FF2019F4ECE96E
:10140000F6E1F7CFE8E9F6E1F4CF4A934A934A933D
:101410005A93BA93AA93BB270F5FE2F4BB27802F9E
:101420000A95D8D18D3E80F4E6EFF6E1A3E00E9464
:10143000E80C68DFBB1FB0FF05C070970E94E80C86
:1014400077DF3C96AA9599F7E2EFF6E10E94E80C67
:101450006FDF1FC0093038F1033158F10A3130F421
:1014600018E08BE192E9EAEAF6E12AC00A95B2D1E6
:10147000EAEEF6E1BFEFA3E00E94E80C43DFBB1FFA
:10148000B0FD05C038960E94E80C52DF3C97AA9543
:1014900099F7B095BB0F98DF039513E08AEF99E0B9
:1014A000F816090740F413E08BE094E0EEEBF6E168
:1014B00007C016E001C0B39583E194E2E2EBF6E1E8
:1014C0006A81BF3F19F4BB2711276260BD836A831D
:1014D0001C83A881B98160E36D93A883B9836D9360
:1014E000081B0195AA24BB246A816A7F002339F076
:1014F000F694E794D794B794A7940A95F7CF19E098
:1015000000270E94E80CCC248FEF74E0AC14B206E4
:10151000D306E406F50630F0AC18B20AD30AE40AA2
:10152000F50A21F1881F7A9531F056954795379540
:101530002795C794EBCF809522D041F0969508F778
:10154000FE2CED2CDB2CBA2CAA24DBCF25D05D8120
:101550003C812B8170D0277021F02BD06CD0E8F328
:1015600001C03CD04CD078D0269608958894881F2E
:101570007A95E9F7809503D049F38827FCCF8063FB
:1015800060FD06C0803311F0616002C0039561FD0B
:101590008D9360FD1A95089599278E919C938533BC
:1015A0008E9108F083958A3308F080E38C93C0F71E
:1015B0000895732F720F61FF701B0AD01296785036
:1015C00019F050F38E9380E38E937150EAF70895EB
:1015D000A881B981A70F8827B81F089579E061FD18
:1015E000700FF6DF48E0431B400F8AF381F3992721
:1015F0004A9569F38E91803351F79C93F9CF732FFD
:1016000061FF701B7395A881B981EA2FFB2F119799
:101610008191803361FF09F08D937A9511F48EE208
:101620008D9381918823C1F7772311F480E38D9303
:1016300088278C930895889462FD0895002359F4B7
:10164000A881B9818C91803331F0552321F05395D5
:1016500033506460089408955523E9F085E48D9330
:101660001AF48DE28D935195652F660F560F5A30FF
:1016700010F060E503D068E001D0DACF8FEF74E0BE
:10168000561708F0561B881F7A9511F06695F8CF0B
:10169000809580638D9308954E414E00496E666932
:1016A0006E6974790000302E300000404B4C0020F1
:1016B000A107000050C3000088130000F4010000DF
:1016C00000320000000500008000CCCCCC0C14AE31
:1016D00047019CC42000DC460300E353000063087C
:1016E0000000D7000000150000001CC25367A5D4FD
:1016F00068530024744915BE9A17CCBC8C2BBD3797
:1017000086350E94E40C0D920020D9F70895369A90
:101710003699FECF369A3699FECF84B195B10895A9
:10172000903039F08C91880F08F481609A95D9F740
:101730008C930895903029F08C9186959A95E9F7CD
:101740008C9308953DD0992711278F2D880F80E81D
:10175000F82A802F881F08F41FEF41F08F57082FB9
:1017600007FD04C0003240F08FEF01C08827982F9A
:10177000D82EE82EF82E09C08FE1801B082FF69492
:10178000E794D79497950A95D1F7112351F0909546
:10179000D094E094F09481E0980F8827D81EE81E3A
:1017A000F81E0F2DFE2CED2CD92E0895D094E09428
:1017B000F09491E0D90E9927E91EF91E109508952D
:1017C000D190E190F1900191089521913191419151
:1017D00051910895FF0C90E89027110F9795F79479
:1017E000092F0895102FBD2CDE2CEF2CF02E112385
:1017F0004AF4B094D094E094F0949FEFB91AD90AC7
:10180000E90AF90A0EE1FF2039F4FE2CED2CDB2C5D
:10181000BB240850C2F758C032F00A95BB0CDD1C3F
:10182000EE1CFF1CF9CF9DDDD5CF502F2D2D3E2D69
:101830004F2D612F08952DEC3CEC4CEC5DE36627B9
:101840000FC0BEDFF2DFDD24EE2490E8F92E0FE3B7
:1018500007C0BBDF05C02227332740E251E46627DB
:10186000552351F1002381F1A7DD71F116270058AE
:1018700050580894050B18F407FD03C025C007FD58
:1018800023C0469537952795F694E794D79422D0B0
:10189000FF202AF0DD0CEE1CFF1C015073F09D2D83
:1018A000969548F0DD203AF4EE202AF491E0D90E26
:1018B0009927E91EF91E8ECF07C09FE7092FF92A45
:1018C0009FEFD92EE92E0895DD24EE24FF24002772
:1018D000112708959F929924AA24BB2488E1D21647
:1018E000E306F40628F0D21AE30AF40A089401C0C9
:1018F0008894991CAA1CBB1CDD0CEE1CFF1C8A954D
:1019000071F7D92CEA2CFB2C9F9008955EDF54DDF3
:10191000503829F090E869270CC00AF045D05ACF1A
:101920005FE322273327442701C04FDF45DD5038CE
:10193000B1F3003899F3902F951B8BF312F434D048
:10194000FACF983118F0222733274427983028F00F
:10195000232F342F44279850F9CF992329F0469507
:10196000379527959A95D9F7912F962742F014D05D
:10197000B0F6F794E794D7940F5F8BF69ECF10D014
:1019800051F008F413DFFF2052F2DD0CEE1CFF1CB7
:101990000150CBF792CF98CFD20EE31EF41E0895DC
:1019A000D21AE30AF40A0895DF92EF92FF920F939E
:1019B0001F93D22EE32EF42E052F162F6F915F91D9
:1019C0004F913F912F910895C89531960020089529
:1019D000FBDF202DF9DF302DF7DF402DF5DF502D17
:1019E00008950E947F09E89488278A938A936CDF80
:1019F00011278D918032E9F31197BBD098F08D3289
:101A000029F4109511968C91B4D060F08E3229F49F
:101A100011968C91AED008F446C022960E947C09A3
:101A200081E008958C91A5D0D8F547D01196D0F7D4
:101A300003958D919ED0E0F38E3229F48C9199D04C
:101A400010F41196FBCF853419F0853609F055C096
:101A500011968C918ED060F08D3219F08B3221F07E
:101A6000DCCF08800094088211968C9182D0A8F671
:101A70008053898311968C917CD058F49981990F69
:101A8000990F0980900D990F8053890F89838732B0
:101A900020F68981988199230AF48195080F2DC039
:101AA0008E3289F611968C9164D068F606D018F0C3
:101AB00011960A95F8CF1196C1CF4F2D3E2D2D2DA1
:101AC000DD0CEE1CFF1CA8F0DD0CEE1CFF1C88F0EA
:101AD000D20EE31EF41E68F0DD0CEE1CFF1C48F075
:101AE000805309F06894D80E8827E81EF81E08F085
:101AF0000895F42EE32ED22E089534D019F116F560
:101B0000098308E921D00695882787959F2D9F771F
:101B1000980FF92E0150000F110F07958981882326
:101B200079F01AF48195898306C085DE89818A95CA
:101B30008983D9F705C08FDE89818A958983D9F792
:101B400022960895C1DEFCCF0DD041F0FF2032F087
:101B50000A9531F0DD0CEE1CFF1CD2F78894089535
:101B60000894089500240D280E280F28002A00202C
:101B70000895803320F08A3310F4089408958894EF
:101B8000089591E005C092E003C094E001C098E0A0
:101B90001BDF0D929A95E1F70895819104D08D9302
:101BA0008823D9F70895813418F08B3508F48062C2
:101BB00008957F930F93AF93BF938F939F938FB7A6
:101BC0008F93E89480911E0104E1081B21F49CB1DD
:101BD0000E947C0913C000911D01A8E0B1E07727A5
:101BE0009CB1A00FB71F9C936894839580931E01AE
:101BF0000395043109F4002700931D019D3011F471
:101C00000E9473088F918FBF9F918F91BF91AF9169
:101C10000F917F9118956FB7F894882793E08D9373
:101C20009A95E9F76FBF0895040F151F261F371FF8
:101C3000089504171507260737070895000F111F89
:101C4000221F331F089500951095209530950F5F42
:101C50001F4F2F4F3F4F0895019110810EC00191EA
:101C60001191219130810BC00191108117FF05C0A6
:101C70003FEF2FEF04C0008111272227332737FFC2
:101C800003C0E1DF8DE28D93CF93DF93CF92DF929C
:101C9000EF92AA24BB24CC24DD24EE2440E2CAE047
:101CA000DD2755E093E38881890F87FD9F7083FDD1
:101CB000907F891B89935A95A9F7C0DFAA1CBB1C8A
:101CC000CC1CDD1CEE1C4A9551F7E894EFE0FF2791
:101CD00082910ED0EB30E0F71EF068948A2D0CD084
:101CE00088278D93EF90DF90CF90DF91CF9108956B
:101CF000982F829501D0892F8F70805D26F08033D8
:101D000009F4089568948D930895002711272227D8
:101D100033271DD08A3328F4803318F005D015D02E
:101D2000F9CF0EF490CF089580538F93402F512F09
:101D3000622F732F83DF82DF77DF80DF8F91992718
:101D4000080F191F291F391F08958D910895E894D0
:101D5000FCDF8032E9F38B32D9F38930C9F38D325D
:101D600011F46894F2CF089541E003C042E001C04D
:101D700044E0E40F8827F81F829138E098E1880F4B
:101D8000991F9D933A95D1F74A95B1F70C94C80ED7
:101D900088278D93089594E081918D939A95E1F72A
:101DA0000895E199FECFEEBBFFBB3196089591E017
:101DB00001C092E0F6DFE09A8DB38D939A95D1F74A
:101DC00008958FEF83959D919923E1F70895689485
:101DD00001C0E894AF93BF938D9116F0919103C029
:101DE0000E94E40C902D891718F011F48823A1F7B4
:101DF000BF91AF910895689401C0E8942227102FF5
:101E0000231709F4089526F40E94E40C802D01C0E4
:101E10008191803069F0891731F08D931A9599F787
:101E200023951D93ECCF01D0EACF011709F4089553
:101E30002395882713958D931A95E9F70895000047
:101E4000000000007F43333307415A64BB3F6F12E9
:101E5000833B14AEEF404E6280400000A04085EB13
:101E600049409CC440400000803F74CE7A4200004C
:101E7000C84200000C43B81EC53E566F6C746167C3
:101E800065204D6F6E69746F7220563034002D2DB1
:101E90003E0053616D706C6573206C696D697420D0
:101EA0006572726F720067657400357600003234B7
:101EB0007600313576002D31357600002D00313039
:101EC00076002D31307600003234765F7366747997
:101ED000000074656D70000031303000496E76612D
:101EE0006C696420617267756D656E740000696469
:101EF0000000504F5254433D0000202C20444452D7
:101F0000433D00006F75740072656C6179200000BC
:101F1000206973204F464600504F5254443D000004
:101F20002C20444452443D00526573746172742005
:101F30007761746368646F6720666F722031206D0B
:101F4000696E75746500206973204F4E0000202C67
:101F500020444452443D000031003000616463007D
:101F6000504F5254413D0000202C20444452413DEA
:101F7000000032003300340035003600636F6566C0
:101F800000006C6973740000474554202835562CB6
:101F9000203135562C202D3135562C203130562C01
:101FA000202D3130562C203234562C203234565FBE
:101FB0007366747929004944000052455345540022
:101FC000726573657400496E76616C696420636F35
:101FD0006D6D616E64005761746368646F67206142
:101FE0006374697661746564000057617463686442
:081FF0006F672073746F70002D
:00000001FF
