:0A7000000C944E380C9400380C94E8
:10700A0000380C9400380C9400380C9400380C9416
:10701A0000380C9400380C9400380C9400380C9406
:10702A0000380C9400380C9400380C9400380C94F6
:10703A0000380C9400380C9400380C9400380C94E6
:10704A0000380C9400380C9400380C9400380C94D6
:10705A0000380C9400380C9400380C940038302016
:10706A0020202020202020202000464C4153482068
:10707A002020005B73657474696E67735D000C0091
:10708A000003687009000C0374700B0015037D700F
:10709A000000F894EE27EFBBF1E0F5BFF2E0F5BF90
:1070AA008DE0A2E0BB27ED938A95E9F780E098E0AE
:1070BA00A0E0B1E0ED930197E9F7E8E8F0E7859100
:1070CA009591009761F0A591B59105901590BF0132
:1070DA00F00105900D920197E1F7FB01F0CFE0E096
:1070EA00EEBBEFEFEDBFE8E0EEBFC0E0D3E00C94FB
:1070FA006639BA93AA930E94E93F00E010E0AE8194
:10710A00BF8150D0E03009F448C0EFB3E8703E2F99
:10711A00FB98F999FECF2FB7F894E1EFFFEFE0174C
:10712A00F10761F4E0E0F0E0FA93EA93A0E0B0E05E
:10713A000E940639A0E0BFEE0E944039E7B7E0FDA1
:10714A00FDCFAE81BF810E94133900E010E0003804
:10715A00E0E01E07C8F41A930A93F801AE81BF81D2
:10716A00AE0FBF1F0C9011243196AE81BF81AE0FB6
:10717A00BF1FEC91FE2FE0E0D001AE0FBF1F0E94AF
:10718A0006390E5F1F4FE3CFAE81BF8123D0EFB325
:10719A00E32BEFBB2FBFE1E001C0E0E00E94F03F2C
:1071AA00289608950E941C3E8827992799235AF009
:1071BA00A881B981A030E0E7BE0728F4E881F98107
:1071CA00EF77E03009F003C0E1E00C94673DE0E0BE
:1071DA000C94673D0E941C3E0E9428390C94673D1E
:1071EA0061E067BFE895E7B7E0FDFDCFE7B7E6FFE7
:1071FA0007C061E167BFE895E7B7E0FDFDCFF6CFCD
:10720A000895BA93AA93E7B7E0FDFDCFEA81FB811F
:10721A00088019800E94F5380C942C3DBA93AA93E1
:10722A00E7B7E0FDFDCFE881F98163E067BFE89544
:10723A00E7B7E0FDFDCF61E167BFE895E7B7E0FD9D
:10724A00FDCF0C94673DBA93AA93E7B7E0FDFDCF53
:10725A00E881F98165E067BFE895E7B7E0FDFDCF12
:10726A0061E167BFE895E7B7E0FDFDCFE7B7E6FD67
:10727A00F7CF0C94673DBA93AA93E7B7E0FDFDCF29
:10728A00E881F98163E067BFE895E7B7E0FDFDCFE4
:10729A0061E167BFE895E7B7E0FDFDCFE881F981D5
:1072AA0065E067BFE895E7B7E0FDFDCF61E167BF3D
:1072BA00E895E7B7E0FDFDCFE7B7E6FDF7CF0C9419
:1072CA00673DE0E2E0937C00E3E8E0937A00219AEC
:1072DA002998209A289AAAEFB0E00E94573F00E026
:1072EA0010E020E030E035D3E03121F42B30E0E04B
:1072FA003E0708F410C0299A289AF90131969F018D
:10730A00759720F000240016010609F001C025C077
:10731A0000E010E01DC01DD3E43061F4299B02C0D7
:10732A00299801C0299A2B30E0E03E0710F42F5F1C
:10733A003F4F0EC020E030E0289B02C0289801C0D1
:10734A00289AF80131968F013B9710F00E94213E4E
:10735A00A4E6B0E00E94573FC6CF0E94813DE09369
:10736A002003E03011F0A1E0B6D2299B02C029988F
:10737A0001C0299A0E94293E0E94303E11F0A2E0E3
:10738A00AAD2299B02C0299801C0299AE2E0E09377
:10739A00CD05A091E704A63010F4E0E005C0A09165
:1073AA00E704A83018F4E1E0E093CD05E091CD05BB
:1073BA00E030F1F0EBEEF4E0FA93EA93A4E0A0D225
:1073CA000E943B3E0E94443E0E944D3E11F0A3E0C3
:1073DA0082D20E94503EE093B105F093B2056093C9
:1073EA00B3057093B4050E94443E0E94563E02C003
:1073FA000E94503EE093B105F093B2056093B30545
:10740A007093B40540903203A091CD05A23089F063
:10741A00EBE3F3E00E94613E0E94653EE0E3F3E0A5
:10742A000E94613EDF01CB01E4E00E94773F3F0109
:10743A000AC0E9E4F3E0FA93EA93A4E061D20E9475
:10744A00653E66247724E091AD05F091AE05609122
:10745A00AF057091B0050E948C3F0E94563EE093A2
:10746A00B505F093B6056093B7057093B8050E9409
:10747A003B3EE0E0E0932103299B02C0299801C02A
:10748A00299A00E010E00E946E3E80F50E94743E48
:10749A0011F0A4E020D220E030E02031E0E03E0705
:1074AA0040F4E0E0F3E00E94763E19F42F5F3F4F8C
:1074BA00F4CFE0912103E03079F00E94853EE75C49
:1074CA00FC4F0E94613E0E948B3EE15CFC4F0E9491
:1074DA00613E0E94963E0AC00E94A93E299B02C0B4
:1074EA00299801C0299A0F5F1F4FCDCFE091210340
:1074FA00E03011F4A5E0EFD10E94B43E7F936F9380
:10750A00FF93EF930E94C23EAF91BF918F919F91DB
:10751A000E94613F0E943B3E299B02C0299801C0FC
:10752A00299A00E010E00E946E3E08F040C00E94D6
:10753A00743E11F0A6E0CFD120E030E02031E0E047
:10754A003E0740F4ECE0F3E00E94763E19F42F5F28
:10755A003F4FF4CFE0912103E030F9F00E94853EDD
:10756A00E75CFC4F0E94613E0E948B3EE15CFC4F4F
:10757A000E94613E0E94963E0E94853EEF5BFC4F50
:10758A00FA93EA93A8E0BCD1E093C105F093C2054F
:10759A006093C3057093C4050AC00E94A93E299B43
:1075AA0002C0299801C0299A0F5F1F4FBCCFE091F2
:1075BA002103E03011F4A0E18ED1E0E0E093C505AB
:1075CA00E093C605E093C705E093C8050E94D73E3D
:1075DA000E94E03E29F00E94D73E0E94E83E09F44C
:1075EA0062C10E94D73EE8E00E94773F0E94563E61
:1075FA000E944D3E11F0A7E06ED1A091CD05A230B8
:10760A0069F0E091B905F091BA05EE0FFF1FF1702C
:10761A00EB5DFC4FFA93EA93A2E00CC0E091B90546
:10762A00F091BA050E94873FF170EB5DFC4FFA9327
:10763A00EA93A4E065D1E093BD05F093BE0560939B
:10764A00BF057093C0050E94B43E7F936F93FF936A
:10765A00EF930E94C23EAF91BF918F919F910E947A
:10766A00613F04D300E010E034D308F00BC137D3F4
:10767A0011F0A8E030D10E94F03E0E94DE3F29F5C9
:10768A0051E05030F1F020E030E02A30E0E03E07EF
:10769A0068F4F901EB5DFA4F0E94F93EAB5DBA4F0F
:1076AA00EC91E527EC932F5F3F4FEFCFE5E1F3E055
:1076BA00FA93EA93A5E2B5E0F8D0E03011F45F5FFF
:1076CA00E0CF503011F4A9E006D120E030E02030BC
:1076DA00E2E03E07E8F4F901EB5DFC4F0E94F93E57
:1076EA00AB5DBC4FEC91E527EC93A5E2B3E0A20FAA
:1076FA00B31FEC91F0E0A091C905B091CA05EA0F59
:10770A00FB1FE093C905F093CA052F5F3F4FDFCFF8
:10771A000E94F03EE050FE4F6F4F7F4FE093C50549
:10772A00F093C6056093C7057093C8050E940E3F83
:10773A00A130E8E0BE07E0E08E07E0E09E07D0F166
:10774A00AA24BB24E4E0F0E0AE16BF0690F5299B1C
:10775A0002C0299801C0299AE091A505F091A605D1
:10776A00FA93EA93F5010E94853F0E94833FEB5DFD
:10777A00FC4FDF010E947E38E03011F4AAE0ABD062
:10778A00E091A505F091A6056091A7057091A8055D
:10779A00E058FF4F6F4F7F4F0E94173FF401319718
:1077AA004F01082C092809F447D2F50131965F01E7
:1077BA00C9CF4AC02ED3A03DE7E0BE07E0E08E075E
:1077CA00E0E09E0708F440C0B0910305A0E0E09114
:1077DA000405F0E0EA2BFB2BEE0FFF1FE038A0E0D8
:1077EA00FA0711F0ABE077D0E091F504F0E00E94DF
:1077FA009B3F0E94963F16D3E091F604F0E00E9468
:10780A009B3FDF01CB01E8E00E946B3F14D3E0917C
:10781A00F704F0E00E949B3F0ED3F091F804E0E0F9
:10782A004F01E091F904F0E08E2A9F2AF091FA04C0
:10783A00E0E06F01E091FB04F0E0CE2ADF2AE0E00D
:10784A00E093C905E093CA0501D3B5D219F0FED277
:10785A00BAD2A1F4E091C105F091C2056091C305C5
:10786A007091C405D6D20E94E23F60F4E42DF0E0A4
:10787A0031970E171F0710F0ACE02DD065D20F5FBD
:10788A001F4FF2CEE091BD05F091BE056091BF0594
:10789A007091C005E093B905F093BA056093BB05F2
:1078AA007093BC0593CEFFCFFFCFBA93AA93AA8158
:1078BA00BB81EC91E03069F00D90AA83BB83A8816B
:1078CA00B981ED91A883B983E01511F0E0E0BFC05A
:1078DA00EECFE1E0BCC0AA931A934198299A10E02E
:1078EA00E9811E1760F4289AACE2B1E00E94573F82
:1078FA002898ACE2B1E00E94573F1F5FF1CFFFCF5B
:10790A00AA932497E0E0E883E983EA83EB83AC81D6
:10791A00A130E0F00E94CF3FE8E00E946B3F0E9456
:10792A00D43FEC81F0E03197AD81BE81AE0FBF1F2D
:10793A00EC910E94CF3FFF27662777270E94663F78
:10794A000E94D43FEC81E150EC83E1CF0E94CA3F10
:10795A006AC01A930A9310E0E6E281D2E0917A00B3
:10796A00E074E1F700917900023310F4106103C06A
:10797A00063908F41460E7E272D2E0917A00E07402
:10798A00E1F700917900023310F4186003C0063958
:10799A0008F41260103011F0E12F01C0E1E0099102
:1079AA0019910895E4B1EC62E4B92A9A24982C9AC0
:1079BA00E3E5ECBD0895AA93E881EEBDEDB5E07864
:1079CA00E9F3EEB5219608951A93ECDF2A9AA1E01D
:1079DA00B0E00E94573F10E01A3020F4AFEFEBDF1F
:1079EA001F5FFACF47D286C0AA931A93EE81E0644A
:1079FA0044D2E8E10E94773FAE2FDDDFEA81FB81C6
:107A0A006C817D810E94913F38D2E8E00E94773FE5
:107A1A00AE2FD1DFAA81CFDFE981E160AE2FCBDFC4
:107A2A0004D01E2F1881279608950E94E93F20E06E
:107A3A0030E0AFEFC0DF1E2FE07831F02F5F3F4F0D
:107A4A002030E2E03E07A8F3E12F0E94F03F24969F
:107A5A0008951AD2E0E0EA93F7D0A4E947C0E7D044
:107A6A00AC91A23078F5AFEFA6DFA881B981119663
:107A7A00EC93AFEFA0DFA881B9811296EC93AFEF38
:107A8A009ADFA881B9811396EC93AFEF94DFA881AE
:107A9A00B9811496EC9316C0FCD1E8E0EA93EAEABD
:107AAA00F1E060E070E00E94D93FA6E805C0F1D19C
:107ABA00EAE3EA93C9D0A0E097DFA881B981EC9301
:107ACA00CEDFEDD122960895DFD1E7E3EA93E0E035
:107ADA00F0E060E070E007C0D7D1E9E2EA93E0E0C5
:107AEA00F0E060E070E40E94D93FA0E07DDF1E2F45
:107AFA00D6D1E12F1991089525971A9310E064DFE2
:107B0A00A8DFE983E13031F01F5F153610F0E1E0BC
:107B1A002EC0F6CFDE011196BFDFA981A13011F088
:107B2A00E1E025C0AD81AA3A11F0E1E020C010E001
:107B3A00153610F0E1E01BC0C7DFE983A981A23046
:107B4A0010F4CADFE983E981E03021F0AAE0B0E06D
:107B5A000E94573F1F5FE981E03051F7DE0111961D
:107B6A00A6DFEA81E07811F4E1E001C0E0E01881E3
:107B7A0026960895BA93AA930E94E73FEA85FB8561
:107B8A006C857D85A0E0B2E080E090E00E94A03F95
:107B9A00EA87FB876C877D87AE81BF81EFEFEC9325
:107BAA00AFEF09DF2A98E1E1EA93EB85FC856D8561
:107BBA007E850E94D93FA0E017DF1E2F1F3F69F183
:107BCA0040E050E0FA013196AF01EB31A6E0FA0746
:107BDA0029F0AFEFF0DE0E2FEF3FA1F30E3FD1F405
:107BEA0020E030E02030E2E03E0780F4E885F985C5
:107BFA003196E887F9873197FF93EF93AFEFDBDE92
:107C0A00AF91BF91EC932F5F3F4FECCFAFEFD3DE35
:107C1A00AFEFD1DEAE81BF810C9341D10E3F11F49B
:107C2A00E12F01C0E1E00E94EE3F2E960895BA933B
:107C3A00AA93A881B9810895299A289AE091CB0537
:107C4A00F091CC0509950895E0E0F0E060E070E07D
:107C5A000E94D93F0895E5E2F3E0FA93EA93A5E09A
:107C6A00B0E088DFE0932003E0300895E093A905AF
:107C7A00F093AA056093AB057093AC050895E09163
:107C8A00A905F091AA056091AB057091AC0508951C
:107C9A000E94D93FE0CFE3E3F3E0FA93EA93A2E04C
:107CAA002FCEA091B105B091B2058091B305909104
:107CBA00B4050E94613F0895FA93EA93A2E020CEA8
:107CCA00E093AD05F093AE056093AF057093B005F0
:107CDA000895E42DD801F0E0AE17BF070895CFDF6D
:107CEA00D7CFFA93EA93A0E2A29FF001A39FF00DE7
:107CFA00EB5DFC4FDF01D9DDE0932103E03008950D
:107D0A00A0E2A29FF001A39FF00D08950E94963F62
:107D1A00E093B905F093BA056093BB057093BC056F
:107D2A00EFCFA091B905B091BA058091BB059091AA
:107D3A00BC050E94663FE093B905F093BA056093CB
:107D4A00BB057093BC050895A9EAB5E00E94C03F3F
:107D5A00EF5FFF4F6F4F7F4F0E94C53F0895F301BA
:107D6A00A091B505B091B6058091B7059091B80577
:107D7A00662777270E94613F0895E091B905F0913F
:107D8A00BA056091BB057091BC05E250F0406040B5
:107D9A007040DF01CB01E42DF0E00E949B3F0E947E
:107DAA00A03F0895A091B905B091BA058091BB058D
:107DBA009091BC050895AF3FEFEFBE07EFEF8E0736
:107DCA00EFE09E070895AF3FEFEFBE07E0E08E07B2
:107DDA00E0E09E070895E091C505F091C60560911F
:107DEA00C7057091C8050895BF01A5E2B3E0A20FC7
:107DFA00B31FEC91EE0F0E2EA5E2B3E0A20FB31F54
:107E0A00EC91EE1FE0E0EE1FE029DB01EC93D901D3
:107E1A000895A091C505B091C6058091C7059091B6
:107E2A00C8050895E093A505F093A6056093A705F4
:107E3A007093A8050895A091A505B091A605809113
:107E4A00A7059091A8050E94663FECCFA091BD05B9
:107E5A00B091BE058091BF059091C0050895E09349
:107E6A007C0085E38A95F1F7E0917A00E064E0937B
:107E7A007A0008952A9AAFEF9ECDAE2F9CDDAA8193
:107E8A00BB818C819D8108951A93AFEF94DD2A9866
:107E9A000895BA93AA93AFEF8EDD2A980895AFEFAB
:107EAA008ADDE8CF109639F080ED97E00197F1F777
:107EBA00A8951197C9F70895EA0FFB1F681F791F44
:107ECA000895EA2BFB2B682B792B0895EE230E2EAF
:107EDA00FD01BC0131F0EE0FFF1F661F771F0A94E8
:107EEA00D1F70895EE230E2EFD01BC0131F07695EF
:107EFA006795F795E7950A94D1F70895EE0FFF1F56
:107F0A00EE0FFF1FEE0FFF1FEE0FFF1F0895EE0F7C
:107F1A00FF1F661F771F0895E62FF72F60E070E0B6
:107F2A0008956E2F7F2FE0E0F0E008956F2F660F1F
:107F3A00660B762F08957A9F702D6B9F700DF89FB0
:107F4A00700DE99F700D6A9F602D710DFB9F600D8A
:107F5A00711DE89F600D711D8827FA9FF02D610D34
:107F6A00781FEB9FF00D611D781FEA9FE02DF10D40
:107F7A00681F781F0895ED91FD916D917D91089587
:107F8A007E936E93FE93EE930895E881F9816A8158
:107F9A007B810895A881B9818A819B810895E883AC
:107FAA00F9836A837B8308957A936A93FA93EA93AF
:107FBA0008953097604070400895AE17BF0786074E
:107FCA00970708955A934A933A932A931A930A93CE
:107FDA0008955D814C813B812A8119810881089528
:00000001FF
