:100000000C940A040C9400000C9400000C94000062
:100010000C9400000C9400000C9400000C94000060
:100020000C9400000C9400000C9400000C94000050
:100030000C9400000C9442040C9400000C940000FA
:100040000C9400000C9400000C9400000C94000030
:100050000C9400000C9427050C9400000C940000F4
:100060000C9400000C94000013FF207F287F30FFC9
:1000700034FF387F48FF4CFF51FF55FF56FF68FFA4
:100080006CFF86FF87FF01400440054006400740A3
:10009000084009400E101A100F201B2014201C20AD
:1000A0001D402310312033203540374039403D403A
:1000B0003E4057103A204140438045805E106040EA
:1000C00062406440692072407440762078400000AD
:1000D000415652204953500000E979255488DFA544
:1000E000B9F6C2ABFCB3B137E183D5970438FE99BA
:1000F00026E48E4BF704C5A51F8868EF1D39BC6246
:10010000D8630F6AA512AAE58C7536BA818F303D87
:10011000EBE0FE70FA94AEB53100D406D506E106E8
:10012000EC06F90604070F071F07290732074407E3
:1001300057076807770788079807809A90418E418C
:100140008F804545454949498E8F9092924F994FEE
:10015000555559999A9B9C9D9E9F41494F55A5A5E0
:10016000A6A7A8A9AAABAC21AEAFB0B1B2B3B4B543
:10017000B6B7B8B9BABBBCBDBEBFC0C1C2C3C4C5A7
:10018000C6C7C8C9CACBCCCDCECFD0D1D2D3D4D597
:10019000D6D7D8D9DADBDCDDDEDFE0E1E2E3E4E587
:1001A000E6E7E8E9EAEBECEDEEEFF0F1F2F3F4F577
:1001B000F6F7F8F9FAFBFCFDFEFF05000000000071
:1001C0000000000F4156524953505344205600340A
:1001D000322E3230004C697374204C6F636B65644F
:1001E000002E0050726F6772616D6D696E67202E10
:1001F0002E2E2E004C69737420556E6C6F636B65E8
:1002000064005265616420666F6C64657220002032
:100210006F66200046726565206C6963656E736564
:100220002E00466F6C6465722000206572726F72DA
:100230002E002020202020202020202020202020D0
:10024000202000526561647920746F2053746172BC
:10025000742E00004563686F35333A005369676E4A
:100260003A30780063732072002065004261642098
:1002700068657820646967697421004B687A20207A
:1002800000456E7465722050726F67204D6F646513
:100290000050004E6F207461726765740020446FD7
:1002A0006E65002F302F636F6E6669672E696E6909
:1002B0000075704F00646F776E4F007461646F72E9
:1002C0000075703000646F776E3000446576696346
:1002D00065206572617365640052656D6F76652097
:1002E0006572617320534400496E73657274206EA9
:1002F0006F726D2020534400506F776572206379D0
:10030000636C650076697267696E0044657669633F
:100310006520756E6C6F636B65640052656D6F76FA
:100320006520756E6C636B205344004661696C6593
:100330006420756E6C6F636B00454550524F4D20C5
:1003400069737375650075700075706F00646F7701
:100350006E00646F776E6F006D6178666F6C6465B8
:100360007273006370755F667265710070616765B6
:1003700073697A65006368697073697A6500656599
:1003800070726F6D73697A65006D61736B667573FA
:100390006573006E6F726D66757365730070726F52
:1003A000676675736573007369676E6174757265EE
:1003B000007370696469760070726F67696E666F4A
:1003C0000070726F676E616D65006E6F206565739A
:1003D0007061636520006C61737420656E632E002C
:1003E0003C0066696C6520697320746F6F206F6CC8
:1003F000640066696C65206973206F6C64206F6EA1
:10040000650057726F6E6720746172676574005380
:1004100069676E6174757265204F4B2E00570043FB
:100420004C423A0045726173696E672E2E2E200091
:1004300050726F6720467573657320000D0A507205
:100440006F6772616D204675736573206661696CB4
:100450000050726F67204675736573206661696C22
:10046000000D0A4661696C656420746F20766572C0
:100470006966792066757365730043686B204675FD
:10048000736573206661696C00646F6E65000D0AA8
:1004900057726974696E6720666C6173682E2E2EC0
:1004A00000466C617368696E670025005772697455
:1004B000696E6720464C4153482E2E00464C4153EE
:1004C00048204661696C6564212121000D0A53654D
:1004D0007441646472204641494C005772697469E2
:1004E0006E6720454550524F4D2E00566572696625
:1004F0007920454550524F4D005665726966792006
:100500006565206661696C6564002F0073657269BA
:10051000616C2E74787400737461727461646472B7
:10052000657373006E65787473657269616C0045FC
:1005300045207772697465206661696C000D0A5602
:10054000726966792073657269616C2076732065C3
:100550006570726F6D206661696C65640045452049
:10056000766572696679206661696C002530386C41
:100570005800534E3A200063616C62797465732EA3
:1005800074787400636C6220777220656520666100
:10059000696C0063616C69622076726620666169CD
:1005A0006C0063616C696262797465730063616C8D
:1005B00020777220636F6E660063616C2072642026
:1005C000636F6E660063616C2072642076616C00FC
:1005D0000D0A537461727420666C617368696E678A
:1005E0002066726F6D205344636172642E2E2E0D4F
:1005F0000A004E6F206C6963656E73657300446515
:100600006D6F206C696D697420313000534E204548
:1006100045204661696C65642E0043616C69622007
:100620004661696C65642E000D0A4E6F726D616CD7
:10063000204675736573206661696C0054696D6549
:100640002000736563005375636365737321202015
:10065000004E6F20636F6C6F6E3F004261642063D9
:100660006865636B73756D3A20004E6F20656E642C
:10067000206F66206C696E650052656164696E6703
:1006800020004E6F20636F6C6F6E006C696E656149
:10069000646472200052443A0057523A00520053A8
:1006A000657474696E67206675736573005665724C
:1006B0006966792066757365732E0046004E005199
:1006C0000000303A2F31302F66696C653132333497
:1006D0002E7478740046525F4449534B5F45525222
:1006E0000046525F494E545F4552520046525F4E9B
:1006F0004F545F52454144590046525F4E4F5F464A
:10070000494C450046525F4E4F5F504154480046A9
:10071000525F494E56414C49445F4E414D4500465B
:10072000525F44454E4945440046525F455849533F
:10073000540046525F494E56414C49445F4F424A2D
:100740004543540046525F57524954455F50524FFB
:100750005445435445440046525F494E56414C4926
:10076000445F44524956450046525F4E4F545F45E0
:100770004E41424C45440046525F4E4F5F46494C05
:100780004553595354454D0046525F4D4B46535FB8
:1007900041424F525445440046525F54494D454FE3
:1007A0005554004469736B20696E697420666169F1
:1007B0006C65640043617264206E6F7420707265B2
:1007C00073656E740043617264207772697465208A
:1007D00070726F74005B73657474696E67735D002B
:1007E0002F00666C6173682E6461740080C0010024
:1007F0002D4E414E00494E4600000A000400BA0149
:1008000012000508C20602008508EC0701008C08EA
:10081000EE070000F894EE27EFBBF1E0F5BFE5BF6F
:10082000F8E1A895A4B7A77FA4BFF0936000E09378
:1008300060008DE0A2E0BB27ED938A95E9F780E0A8
:1008400098E0A0E0B1E0ED930197E9F7EAEFF7E077
:1008500085919591009761F0A591B59105901590BE
:10086000BF01F00105900D920197E1F7FB01F0CF78
:10087000E0E0EEBBEFEFEDBFE8E0EEBFC0E0D2E0BE
:100880000C942F050A921A92FA926A937A938A9399
:100890009A93AA93BA93EA93FA93EFB7EA93E09103
:1008A0003A08E0938500E0913908E0938400A09134
:1008B0003308AF5FA0933308A53108F46CC0E0E0C3
:1008C000E0933308A0EBB2E00E94792DE091AF02F3
:1008D000E03019F4299A289A5EC0A091AF02A330A3
:1008E00071F40E947F2DA33048F0E0E0E09304080B
:1008F000289A299B02C0299801C0299A4CC0A0912E
:10090000AF02A13019F42998289A45C0A091AF02EE
:10091000A23011F5299A0E947F2DAC3378F0E0E0E7
:10092000E0930408289B02C0289801C0289AE0910F
:100930002108E03019F40E94852DAFD4E091210800
:10094000E03049F453D4E43031F4E1E0E09321089D
:10095000E0E0E09320081FC0A091AF02A43071F442
:10096000299A0E947F2DA43640F0E0E0E09304082D
:10097000289B02C0289801C0289A0DC0A091AF0200
:10098000A53049F4299A289A0E947F2DA43618F0A0
:10099000E0E0E0930408A091AF02A33021F0E091E1
:1009A0002008E03009F445C0A0913308BB27E2E0FD
:1009B000F0E00E9496363097E1F5E0913608E0309D
:1009C00049F1E0913608E150E0933608E0913608AD
:1009D000E03059F4E0913708E03039F0E091370821
:1009E000E150E093370870923508E0913808E03024
:1009F00081F0E0913808E150E0933808E091380840
:100A0000E03039F45E9B02C05E9801C05E9A80922D
:100A100038080FC0E0913508E03059F0E091350812
:100A2000E150E0933508E0913508E03011F4609230
:100A30003608E991EFBFF991E991B991A99199919E
:100A4000899179916991F990199009901895EA9393
:100A5000E1E0E0933C080E948E2DE99118950E94F8
:100A6000932DE5B9E0E0E4B9E8B9E7B9EBB9579AF5
:100A7000E4BDE5BDE6BDE7BDE8BDE0938000E093E1
:100A80008100E0938500E0938400E0938700E09389
:100A90008600E0938900E0938800E0938B00E09368
:100AA0008A00E093B600E093B000E093B100E093D9
:100AB000B200E093B300E093B400E0936900EDBBB3
:100AC000E0936800E0936E00E0936F00E0937000A5
:100AD0000E94982D549A5C980E949E2D0E94982DF9
:100AE000E0E8E0BFE0E0E0937B00E0937F00E0938C
:100AF0007E00E0E2E0937C00E3E8E0937A00E0E04F
:100B0000ECBDE093BC00E1E0E0933C080E94730977
:100B10000E94371D569A5E98E1E0E093B202789405
:100B2000E1E0E0932803E0932903E5E0E0932A0362
:100B3000E0E4FFE1E0932B03F0932C03E8B1E07CC9
:100B4000E8B9E7B1EF63E7B95F98579AE3D20E943B
:100B5000A52DE4ECF1E00E94AE2DEFECF1E00E9457
:100B6000AE2D0E94B22D0E94B82D0E94CD2DA0E086
:100B7000AE1BEA2FE09339080E9400130E94B82DA3
:100B80000E94CD2DA0E0AE1BEA2FE09339080E9411
:100B9000DC2DE03059F00E94DC2DAE2FE0912A03CD
:100BA000F0E03197B0E0AE17BF072CF0A5E0B0E061
:100BB000E1E00E941A370E94DC2DE093B3020E940C
:100BC000E12D0E94E52D49D30E94EA2DE23028F064
:100BD000A6E0B0E0E0E00E941A37E0E00E94EF2DCE
:100BE00011F4E0E001C0E4E0E093AF02FFD2E09353
:100BF0003208F0E0E830A0E0FA0711F43BD015C06D
:100C0000E031A0E0FA0711F4F8D00FC0E230A0E024
:100C1000FA0711F491D009C0E430A0E0FA0711F40A
:100C20004CD103C0E0E0E0933208A091AF02A030C5
:100C300021F0A091AF02A13011F400000FC0A091EB
:100C4000AF02A23021F0A091AF02A43039F4E091BC
:100C5000CF03E03019F4E1E0E093CF03E091210805
:100C6000E03009F02AD1E0913408E03009F06FD289
:100C7000BDCFFFCF0E94F42D21F0A091AF02A43090
:100C800009F401C090C10E94EA2DE03031F00E94C9
:100C9000FA2D0E94852DE1D286C108E813E10024D7
:100CA000001601067CF40E94022E0E94072E19F401
:100CB0000E940E2EF2D2E3E00E94122E19F0015093
:100CC0001040EDCF0F37E3E11E070CF06CC1002E92
:100CD000012A21F40E94852DE0D265C1A091B302C2
:100CE000BB27E0912803F0E0AE0FBF1FE0912A037D
:100CF000F0E0EA17FB0714F4E1E005C0E0912803F7
:100D0000A091B302EA0FE093B3020E94932D0E94D8
:100D1000EF2D39F4E0E0E093AF020E940E2E9DD259
:100D200007C0E4E0E093AF020E94852D96D23BC15C
:100D3000E0E00E94172E37C10E94F42D21F0A0910F
:100D4000AF02A13009F401C02EC108E813E100246C
:100D5000001601067CF40E94022E0E94072E19F450
:100D60000E940E2E7AD2E1E00E94122E19F001505C
:100D70001040EDCF0F37E3E11E070CF014C10E94C5
:100D8000DC2DAE2FE091B302EA1711F00E941C2E69
:100D9000002E012A99F40E94EA2DE13029F0A6E004
:100DA000B0E0E1E00E941A370E94232E0E94022E3A
:100DB00074D20E94FA2D0E94282EF5C00E942E2E79
:100DC0000E94342E0E944D2AE0E0EA930E94342EC5
:100DD0000E94392E0E943E2EE3E0EA93E3EEF1E01A
:100DE0000E94442EE3E00E94172EE0E0E093B00260
:100DF000E093B1020E945719D6C00E94F42D21F051
:100E0000A091AF02A43009F401C0CDC00E94EA2D28
:100E1000E03031F00E94FA2D0E94852D1ED2C3C011
:100E200008E813E10024001601067CF40E94022E5B
:100E30000E94072E19F40E940E2E2FD2E4E00E9489
:100E4000122E19F001501040EDCF002E012A21F48E
:100E50000E94852D02D2A7C00F37E3E11E070CF0D8
:100E6000A2C0E091B302E03081F0E0912903A091AB
:100E7000B302EA1718F0E0912A0305C0A0912903F4
:100E8000E091B302EA1BE093B3020E94932D0E940B
:100E9000EF2D39F4E0E0E093AF020E940E2EDDD199
:100EA00008C00E94232E0E94482EE4E0E093AF0287
:100EB0007AC0E0E00E94172E76C01A930A93A091A0
:100EC000AF02A33021F40E94852DC7D16CC008E881
:100ED00013E1002400160106E4F40E94022E0E9491
:100EE0009A35E2E00E94122EA1F0EEE7F3E1E0175E
:100EF000F10761F40E940E2EB0D1A091AF02A23092
:100F000021F0A091AF02A43009F403C001501040B9
:100F1000E0CF0F37E3E11E070CF045C0A091AF0210
:100F2000A230C9F0002E012AB1F40E94EA2DE0306F
:100F300029F0A6E0B0E0E0E00E941A370E94232EDC
:100F40000E94022E8AD1E3E0EA93E4EFF1E00E94EE
:100F5000442E0E94282EE0E0E0932108E093CF0386
:100F6000299A289AE5E0E093AF020E940013E0E09E
:100F70000E94EF2D69F4E0E0E093AF020E94DC2DC7
:100F8000AE2FE091B302EA1711F00E941C2E07C0A9
:100F9000E4E0E093AF020E94232E0E94482EE0E09E
:100FA0000E94122EE1F30991199108952C97E0E027
:100FB000E093CE030E942E2E0E944E2EAC85A230CE
:100FC00008F06FC00E94A52D0E945529E0E0EA9329
:100FD000E2E0F2E00E94442E0E94542EE0E0EA9308
:100FE000E1E0EA930E9444290E940914E13009F0EB
:100FF00048C00E942E2E0E94342E0E944D2AEC855D
:10100000EA930E94342E0E94392E0E943E2EE1E087
:10101000EA93E0E0F3E00E945A2EE2E0EA93EFE088
:10102000F3E00E945A2EE3E0EA93EEECF1E00E9436
:10103000442E0E945E2E3097E1F0E091FC02F09188
:10104000FD020E94632EFE013A960E94682E0E94C5
:10105000542EEFE0F2E00E94AE2D0E945E2E0E9420
:10106000632EFE0134960E94682EFE010E946C2EB3
:1010700004C0E4E1F2E00E94AE2DE1E0E093CF0392
:1010800011C0E1E0EA93E2E2F2E00E94442E0E9405
:101090002E2E0E944E2E0E94542EEAE2F2E00E9472
:1010A000AE2DE0E02D960895EA81EA93E981FA8178
:1010B0000E94442E0C944F0BA091CE03A93028F42B
:1010C0000E94702EA081A03009F403C00E94782EE7
:1010D000F3CFC090CE030C944F0B0E94342E0E948D
:1010E0007E2E0E94302DAA81A43010F00C944F0B5C
:1010F0000E94852EE2E3F2E00E94AE2D0E94852E32
:101100000E94342E0E9485290E94E52D0E949A3566
:101110000C944F0B0895E0E0E093CE03A091CE0332
:10112000AA3038F40E94702EA0E0A0830E94782E8E
:10113000F5CFE0E0E093CE03E0933408C090CE0317
:10114000E3E0EA93E3E4F2E00E94442E0895089578
:101150000E94782EA091CE03AA3028F40E94702E0F
:10116000A081A03019F4E1E0E093CE03E0E0E09349
:1011700034080895AA81A43010F00C944F0B0E94FB
:101180008B2E0E947E2E0E941C2D0E94852EE2E353
:10119000F2E00E94AE2D0E94852EE881F9810E9426
:1011A0006C2E0E94E52D0E949A350C944F0BE8811D
:1011B000E2950E94902EE8810E94902E0E94E52DDB
:1011C0000E949A350C944B0B11D01E2EE881A1E0A1
:1011D000B0E00E94D735A12DB0E0EA17FB0719F463
:1011E000E1E00C944B0BE0E00C944B0B1A9310E0F5
:1011F000E0E0E0933C08E6E20E94972EE0917A005E
:10120000E074E1F70E948E2DA0913B08A23310F408
:10121000106105C0A0913B08A63908F41460E0E015
:10122000E0933C08E7E20E94972EE0917A00E07498
:10123000E1F70E948E2DA0913B08A23310F41860B4
:1012400005C0A0913B08A63908F41260103011F0D7
:10125000E12F01C0E1E019910895E1E0E093200859
:10126000EB81E03019F4E0E0E0932008E0E0E09367
:101270002108E881A4E6EA02F0016E2EE093360828
:10128000EA819E2EE0933708EB818E2EE09338089A
:10129000E0E07E2EE093350807C0EB81EA93EB8116
:1012A000EA930E94A22ED9DF249608951A937DD145
:1012B0000E94981110E00E94A72E0E94F92CA12FE5
:1012C000B0E0AE17BF0760F4E12FA981BA81F0E06A
:1012D000EA0FFB1FE491EA930E94A0111F5FEBCF7E
:1012E00011D01881DCC1219A299A209A289AC1D15B
:1012F0000E94AC2EE0E0E0938902E09341080E9456
:10130000981134C4E0E0E0938002E0938102E09120
:101310005408E13008F4FBC0E0918902E13049F45F
:10132000E0918802E13011F42DD5F1CFE0E0E093B7
:101330008902E0914108E03019F49CD1E093400823
:10134000E0914008F0E0EB31A0E0FA0709F4DAC0E0
:10135000E035A0E0FA0711F4AAD1D4C0E136A0E04C
:10136000FA0711F465D4CEC0E134A0E0FA0711F415
:1013700062D4C8C0E335A0E0FA0711F43FD4C2C07C
:10138000E635A0E0FA0711F449D4BCC0E637A0E086
:10139000FA0711F448D4B6C0E037A0E0FA0711F418
:1013A00048D4B0C0E435A0E0FA0711F4D5D1AAC002
:1013B000E437A0E0FA0711F4C1D1A4C0E837A0E0F7
:1013C000FA0711F402D29EC0E937A0E0FA0711F43F
:1013D00002D298C0EA33A0E0FA0711F402D292C018
:1013E000EE32A0E0FA0711F40ED28CC0E236A0E093
:1013F000FA0711F4FBD386C0E536A0E0FA0711F432
:10140000F6D280C0E534A0E0FA0711F481D07AC0AA
:10141000EC34A0E0FA0711F4E7D374C0EC36A0E096
:10142000FA0711F4FFD26EC0E636A0E0FA0711F415
:101430001ED368C0E135A0E0FA0711F466D362C09C
:10144000E634A0E0FA0711F451D35CC0EE36A0E018
:10145000FA0711F421D356C0EE34A0E0FA0711F4D4
:1014600063D350C0EF36A0E0FA0711F42AD34AC084
:10147000EF34A0E0FA0711F467D344C0E337A0E0EB
:10148000FA0711F477D33EC0E735A0E0FA0711F46C
:1014900095D338C0E436A0E0FA0711F48CD232C0FC
:1014A000E736A0E0FA0711F4E1D32CC0E234A0E063
:1014B000FA0711F426D426C0E235A0E0FA0731F489
:1014C000E8E2EA93E0E2EA9342D21CC0E336A0E00D
:1014D000FA0711F4DDD116C0E334A0E0FA0711F4E5
:1014E000DDD110C0ED36A0E0FA0719F40FD2EDE01F
:1014F00007C0E434A0E0FA0711F4D6D103C0EFE34B
:10150000EA93BAD0E0914108E13009F000CF0895A4
:101510000E94B22E09F466C3ADD01E2FF0E0E7FDA5
:10152000FFEFE434A0E0FA0719F40E9470120BC038
:10153000EE32A0E0FA0739F4A895E8E1E093600004
:10154000EFE0E09360004EC3E0918002F0E0E050F5
:10155000FE4FA881B981ED93FC93A0918002E091A8
:101560008102EA1B0BC2E0E0E0938102E09380027B
:101570000895E881A0918002EA0FE0938002E09153
:101580008102A0918002EA1779F4E0E0E093810201
:10159000E0938002E0918902E13021F4E091880239
:1015A000E03009F001C089D376C00E944137EDB721
:1015B000FEB73197FA93EA931F930F93C5DF0F910C
:1015C0001F913E2FE13060F03A93D3DFE32F31508B
:1015D000E03029F0D8010F5F1F4FEC91F7CFE7CF34
:1015E000CDC31A93E091C000E072E1F31091C60000
:1015F000E981E093C600E091C000E078E1F3E0917A
:10160000C6001881BBC1A0918A02A23011F45D9876
:1016100001C00000E0E0E093C200E093C100E0936D
:10162000C500549A5C9A0E94022E0E949A35559ADF
:101630005D980E94022E0E949A355C980E94022EAC
:101640000E949A35519A5098589A0E94022E0E94F0
:101650009A3558980E949E2DE091C600E0932D0384
:101660005D9AA0918A02A23009F45D980E94BB2E77
:10167000089508957FD60895A0918102A03858F466
:10168000E0918102EF5FE0938102E150F0E0E050F1
:10169000FE4FA881A083219608950E94C12E239613
:1016A0000895EB81EA939DDF0E94C12E69C30E94D9
:1016B000413710E03DE029980E94D02EDADFE0911A
:1016C0008A02E23039F49FDF0E94D52E0E94DB2E81
:1016D00011E02AC0E3E0EA93E4E5F2E00E94442E40
:1016E00000E0033090F48FDF0E94DB2E2E2FE0E02D
:1016F000EA9377DFE0912D03EA930E94D708233520
:1017000011F411E002C00F5FECCF103049F4B1DFEB
:101710003FE3E091CF03E03011F00E94E32E04C0DC
:10172000E4E6F0E00E94E92E3A93A6DF103011F4CF
:10173000299A299AE0E0E0933D0820C31A930A937E
:1017400000E0E02FF0E0E859FF4F14911A9394DF86
:101750000E5F1030B1F7AEC20E9441370FE330E0A8
:101760000E94ED2E09F40AC385DF2E2FE32FF0E04F
:10177000E859FF4FE4911E2FE03021F1121701F5D7
:10178000E32FF0E0E859FF4F049000923E08E32F6A
:10179000F0E0E759FF4F049000928B020DE0E091DA
:1017A0003E08E03810F0E2E009C0A0918B02AF37AC
:1017B00011F0AF3F11F4E1E001C0E0E0E0938A02F4
:1017C0003E5FD4CF0A9358DFD9C20E94ED2E09F4B0
:1017D000089550DF47C20E94ED2E09F408954ADFB4
:1017E00041C20E9441370E94F52E09F4C7C20E94EF
:1017F000FD2E1A930A933A930E94092F0E940D2FEF
:10180000299A299ABBC20E9441370E94152F09F4D8
:10181000B5C20E94FD2E2EDF2E2F1A930A933A9303
:101820002A933FDF0E940D2F299A299AA7C21A9363
:101830000E941D2FA0918A02A23039F40E94222F0B
:10184000E2600E94322F29DF04C0E0E40E94382FBA
:1018500028DFE0E2EA931A932DD0E0918A02E23089
:1018600011F40E943D2F299ABDC11A93E0918A027A
:10187000E23069F00E941D2FE8E40E94382F11DF4A
:10188000E8E2EA931A9316D00E943D2F299AAAC142
:101890000E94ED2E09F40895CADFE4C10E94ED2EE6
:1018A00009F40895E2DFDEC10E94ED2E09F40895E7
:1018B00067D0D8C1E0918B02EF7039F1E881A09137
:1018C0008B02EA1719F40E94D52E1FC02197EFEF63
:1018D000E883E0918A02E23041F40E94222F0E94C4
:1018E000402FA981EA1759F006C0EA810E94492FCA
:1018F000A981EA1721F0E881E150E88351F7E881F6
:10190000E03011F40E94D52E219638C0E0918A0271
:10191000E030E1F42297E0918202F0918302E883C3
:10192000F983E0918902E13029F4E881F981319766
:10193000E883F983ECE4EA93EA81F070EA93EA81C0
:10194000EA930E94092F0E94D52E22960895299885
:10195000E0918A02E23049F0E9810E94492FEA933E
:101960008BDEE8810E94492F04C00E94222F0E9432
:10197000402FEA9381DE0E943D2F299A22960895F6
:101980001A930E941D2FE0918A02E23029F0E0ECC8
:101990000E94382F86DE09C0E0913E08E63829F41F
:1019A0000E94222FE6600E94522F0E94D52E0E9494
:1019B0003D2F299A17C12998E0918A02E23021F03F
:1019C000E0EA0E94492F0DC0E0913E08E63859F444
:1019D000E0918302F070EE0FEE0FEE0FE5600E94D3
:1019E000522FEA9349DE0E943D2F299A08950E94C2
:1019F000D02EA0918A02A23041F4ECEAEA93E4E00E
:101A0000EA93E0E0EA9349DE07C0ECEAEA93E0E813
:101A1000EA930E94E12D45DEE2E3F0E00E94E92E28
:101A2000EDE0A1C00E94B22E09F4DCC00E94D02ECD
:101A300021DE1E2FA0918A02A23051F4ECEAEA9333
:101A4000E12FE07EE760EA93E0E0EA9326DE09C05A
:101A5000ECEAEA93E12FE96FEA93E0E0EA931A9364
:101A600020DE0E94D52EEDE0EA9306DEB7C00E948C
:101A70005A2F09F41FC10E94D02E0E945D2F11F42D
:101A80001FE305C0ECEAEA93E0EA0E94652F0E949A
:101A9000D52E0E946B2F0EC10E945A2F09F40AC145
:101AA0000E94D02E0E945D2F11F41FE305C0ECEAC6
:101AB000EA93E8EA0E94652F0E94D52E0E946B2FC0
:101AC000F9C00E945A2F09F4F5C00E94D02E0E943E
:101AD0005D2F11F41FE305C0ECEAEA93E4EA0E94EB
:101AE000652F0E94D52E0E946B2FE4C00E94D02E3D
:101AF000A0918A02A23011F4EFE306C0E0E5EA9378
:101B00000E94E12D0E94092F2EC00E94D02EA0918C
:101B10008A02A23011F4EFE306C0E8E5EA930E94DE
:101B2000E12D0E94092F1FC00E94D02EA0918A0291
:101B3000A23011F4EFE307C0E8E5EA93E8E0EA93A6
:101B40000E94E12DAEDD0FC00E94D02EA0918A022E
:101B5000A23011F4EFE307C0E0E5EA93E8E0EA938E
:101B60000E94E12D9EDDEA9387DD299AE0E0E09373
:101B70003D0808951A930E94D02E10E0E3E0EA9306
:101B8000ECE5F2E00E94442EE0E3EA93E0E0EA9321
:101B90001A930E94092FEA936FDDE0912D03EA93D7
:101BA0000E94D7081F5F133078F3E091CF03E03035
:101BB00021F0E8ECF0E00E94E92E10C01A930E9498
:101BC000D02E10E0E8E3EA93E8EAEA931A930E9441
:101BD000092FEA9351DD1F5F1430A0F3299AE0E04A
:101BE000E0933D081991089544DD3CC0E9E5EA938E
:101BF00043DDE0E0EA9340DDE0E835C01A930A9364
:101C000000ED10E0F801E491E03039F0F8010F5FE9
:101C10001F4FE491EA9330DDF5CF4CC0E5E5EA9340
:101C20002BDDE2E320C0E0E3EA9326DDE2E31BC024
:101C300019C0E3E518C0E2E0EA93B9D3E0914108A6
:101C4000E13009F4089516DDFE2FE0E0FF93EF93F5
:101C500011DDF0E0AF91BF91EA2BFB2BE093820204
:101C6000F0938302EDE0EA9307DD08951A930A9357
:101C70000E94F52EF9F00E94732FF12FE0E0DF01B2
:101C8000E02FF0E0EA2BFB2B0E947A2FF3DCE093AD
:101C90008C02E0E0E0938802E1E0E0938902E091C9
:101CA0008A02E23031F0E0918C02E63411F40E94B5
:101CB000852F03D0099119910895E0918C02E634A3
:101CC00091F4A0918102A03868F4E0E2EA93E8E29E
:101CD000EA933DDE0E94982F21F4E0E0E093890230
:101CE00001C0EFCF0DC0A0918102A03848F463DE9F
:101CF0000E94982F21F4E0E0E093890201C0F3CF25
:101D000008950E94413731E00E94152F41F4E3E02D
:101D1000EA934DD330E0E0914108E13079F1303081
:101D200011F0A8DC3E2F0E94732FE32FF0E00E94F9
:101D300020360E941B36DF01CB01F12FE0E00E942C
:101D4000A42FDF01CB01E02FF0E00E94A42F0E941E
:101D5000A92F90DCE0938C02E1E0E0938902E0930C
:101D60008802E0E0E0933F08E0918A02E23031F03F
:101D7000E0918C02E63411F40E94852F0E944837CE
:101D800024960895E0918C02E53441F4E0915408E2
:101D9000E13020F0F5DD0E94B22FF8CFE0918C0207
:101DA000E634E1F4E0915408E130C0F040DD5DDD5F
:101DB0000E94B22FE0918A02E03079F4E0913F086E
:101DC000EF5FE0933F08E0918B02A0913F08EA1794
:101DD00021F49CDDE0E0E0933F08E4CF0E94BC2FBB
:101DE00079F4E0913F08E03029F0E0918C02E6348C
:101DF00009F48CDDE0E0E0938902EDE0EA933CDC5D
:101E000008952D97E0E0EE83EF83E8870E943F3747
:101E1000E0EDF7E060E070E00E94C72F0E94191E1D
:101E2000E03011F4E0E080C20E94D02F11F4E0E035
:101E30007BC20E94681EE03011F4E0E075C2E0E071
:101E4000EC87ED870E94DE2F20810E94DE2F5081DB
:101E50000E94DE2F40810E94DE2FE081FF2766274F
:101E600077270E94A92F0E94E72FE8E00E94E03523
:101E7000DF01CB010E94DE2FE081FF276627772755
:101E80000E94BE350E94A92F0E94DE2FE081F0E063
:101E9000E887F987F8850E94F02F0E94F32FE887E2
:101EA000F9870E94DE2FE081EA8B0E94DE2FE0811D
:101EB000E98B0E94DE2FE081E88B0E94DE2FE0811B
:101EC000F0E0EA87FB87FA850E94F02F0E94F32F4B
:101ED000EA87FB87309711F0E1E0EE870E94DE2F62
:101EE000E081F0E0EE83FF83FE810E94F02F0E94EC
:101EF000F32FEE83FF830E94F82F0E94F82F319773
:101F0000E050FA4FE081E0938B0230918B02E0E0E9
:101F1000EC87ED87E0E0F8E060E070E00E94C72F1A
:101F20000E94AC2E0E94FE2F0E94043011F4E0E0CB
:101F3000FBC10E94E72F0E942F3708F0E9C1AE8550
:101F4000A03021F0AA85BB85109709F005C02A8929
:101F500059894889E0E0EE87E091C000E072E1F342
:101F6000E0E4E093C600E091C000E072E1F3E0E05D
:101F7000E093C600E091C000E072E1F34093C60038
:101F80000E94F82F3197E053FC4F0081E091C00090
:101F9000E072E1F30093C600E091C000E072E1F36B
:101FA000E8E4E093C6003150E091C000E072E1F354
:101FB000E0E0E093C600E091C000E072E1F3E42FBE
:101FC0004F5F0E940E303197E053FC4F0081E0914B
:101FD000C000E072E1F30093C600303009F097C111
:101FE000E091C000E072E1F3ECE4E093C600E09120
:101FF000C000E072E1F35093C600E091C000E072CF
:10200000E1F3E42FE150E093C600E091C000E072FC
:10201000E1F3E0E0E093C600E091C000E072E1F39C
:102020001FEF0E94FE2F0E941130A0918B024A1BCD
:102030000E94B22F0E94E72F0E942F3720F0AA851E
:10204000BB851097B9F10E94BC2FB9F40E941830DB
:1020500039F00E9421300E9426300E94333064C142
:10206000EE81FF81E887F9870E94AC2EEA85FB8527
:102070000E947A2FE0E0EA87EB87EC85FD853097B8
:1020800041F00E94FE2F0E94043011F4E0E04CC1A8
:1020900010C00E94FE2FFA93EA930E94FE2FE05395
:1020A000FC4FFA93EA930E94951EE03011F4E0E0B1
:1020B0003BC104C00E94022E0E949A35E0918B021F
:1020C000E31709F466C01F3F09F05AC0EC85FD858F
:1020D000E053FC4FA081AF3F09F452C0EC85FD8571
:1020E000E053FC4F1081E091C000E07819F00091BE
:1020F000C600F9CFE4E1EF87EF85E150EF8709F4FF
:102100003FC0E091C000E072E1F3EC85FD85E17035
:1021100011F0E8E201C0E0E2E093C600E091C00007
:10212000E078E1F30091C600E091C000E072E1F3D5
:102130005093C600E091C000E078E1F30091C60042
:10214000E091C000E072E1F34093C600E091C0006E
:10215000E078E1F30091C600E091C000E072E1F3A5
:10216000E0E0E093C600E091C000E078E1F3009188
:10217000C600101729F00E94022E0E949A35BCCF8B
:10218000EC85FD85E17011F04F5F3F5F0E94F82FF5
:1021900095CF1F3F21F40E94D52E0E94D52E30E00E
:1021A000A0918B024A1B0E94FE2F0E941130E091E9
:1021B000C000E07819F00091C600F9CFE091C000AE
:1021C000E072E1F3E0E2E093C600E0918B02E317F6
:1021D00009F47BC0E091C000E072E1F35093C600C7
:1021E000E091C000E078E1F30091C600E091C0000A
:1021F000E072E1F34093C600E091C000E078E1F3C3
:102200000091C600E091C000E072E1F3E0E0E093ED
:10221000C600E091C000E078E1F30091C600E091D3
:10222000C000E072E1F3E8E20E940E303197E05323
:10223000FC4F1081E091C000E078E1F30091C6000E
:10224000101711F0E0E070C0E091C000E072E1F31F
:102250005093C6003F5FE091C000E078E1F3009149
:10226000C600E091C000E072E1F3E42F4F5FE0931D
:10227000C600E091C000E078E1F30091C600E09173
:10228000C000E072E1F3E0E0E093C600403009F402
:102290005F5FE091C000E078E1F30091C600E0915B
:1022A000C000E072E1F3E0E20E940E303197E053AB
:1022B000FC4F1081E091C000E078E1F30091C6008E
:1022C000101711F0E0E030C080CFE091C000E07264
:1022D000E1F3E0E2E093C600E091C000E072E1F3D8
:1022E000E0E2E093C600E091C000E072E1F3E0E2DA
:1022F000E093C600E0918B02F0E00E94FC35AC85D3
:10230000BD85AE17BF0718F0E0E0EC87ED8711CE72
:102310000E94183039F00E9421300E9426300E941D
:10232000333002C07894E1E00E9446376396089506
:10233000E0E0E0935308E0935208E09354080895D6
:10234000E0915408E031A8F4E0915208EF5FE09387
:102350005208E150F0E0EE5BF74FA881A083E091D6
:102360005208EF70E0935208E0915408EF5FE09359
:1023700054085EC0E0915408E130C0F02197E0912C
:102380005308EF5FE0935308E150F0E0EE5BF74F46
:10239000E081E883E0915308EF70E0935308E09107
:1023A0005408E150E0935408E88142C030C2E09103
:1023B0005408A881EA1710F4E1E001C0E0E0E093DE
:1023C000410836C01BC1A881B981EC9117C10E9498
:1023D000F61E0895A881A03310F0AA3308F003C0B8
:1023E000E881E05325C0A881A13410F0A73408F09B
:1023F00003C0E881E7531CC0ECE6F2E00E943D30E8
:10240000E0E016C0E881EF70E883A881A03010F00A
:10241000AA3008F003C0E881E05D0AC0A881AA30B4
:1024200010F0A03108F003C0E881E95C01C0E8E5E4
:1024300021960895A881B9810E944130EF93E881E7
:10244000F981A181AA93C6DFAF91EA2BD7C01A9375
:1024500010E0E9811E17B8F4E12FAA81BB81F0E0FA
:10246000EA0FFB1FFF93EF93E2E0E19FF001AC81E5
:10247000BD81EA0FFB1FFA93EA93DCDFAF91BF91B6
:10248000EC931F5FE6CF1881269608950E948B2E4D
:10249000D1DFFE2FE0E0FF93EF93E881F9813296E0
:1024A000FA93EA93C7DFF0E0AF91BF91EA2BFB2BE1
:1024B000A5C00E948B2EEADF0E9448307F936F9365
:1024C000FF93EF93E881F98134960E944D3066279F
:1024D0007727AF91BF918F919F910E94BE358EC09B
:1024E0000895E0E0E093C400A091B502A63020F585
:1024F000A091C400A03021F4A091B502A13009F050
:1025000004C0E1E0E093C40016C0A091C400A03074
:1025100021F4A091B502A23008F407C0E1E0E093F5
:10252000C4000E945130E15002C00E9451300E940C
:10253000CF35A12DEC9301C001D00895EFEFE093CA
:10254000C4000895E091C400E07839F4E091B50248
:10255000EF5FE093B502C5DF58C159C11A9311E08E
:10256000E981E03011F0EADF01C0BBDF1030A9F1F2
:10257000E091CF03E03021F00E9458300E94282ED5
:10258000E2E3F0E00E94E92EE3E0EA93E1E8F2E022
:102590000E94442EE091CF03E03011F00E94282EDB
:1025A000E1E9F2E00E947E30A0910002AD3059F0E6
:1025B000C9DFE030D9F610E0E3E0EA93E3E9F2E0C6
:1025C0000E94823009C0B3D3E03029F4BBDFE03091
:1025D00069F610E001C001C0C9CF103011F4E0E08D
:1025E0000CC0EDE9F2E00E94AE2DE981E03021F46B
:1025F000E091B502E0932203E1E01881229608956C
:102600000E94A52D0E945C1DE03039F40E94232E0B
:102610000E94022E0E942D09FAC00E948630E3EA31
:10262000F2E00E948B300E940E1FE03009F4EFC0F0
:10263000E0E0E09355080E948F3061F00E949B30EB
:1026400049F40E94A73031F00E949B3019F4E1E078
:10265000E0935508A0915508A13059F0EBEBF2E05A
:102660000E94B33011F4E0E002C00E94BD30E0935C
:102670005508E0915508E03009F07DC0E1ECF2E04A
:102680000E94B330E1F10E949B30C9F5E5ECF2E025
:102690000E94B330A1F10E949B3089F5E0E0E09305
:1026A000B402A091B402A43698F40E94C530E45F4D
:1026B000FF4F0E94CB30E35FFF4F0E94CB30E25FC1
:1026C000FF4FDF01EFEF0E941A370E94D030E9CFB1
:1026D000E0E0EA93EBECF2E00E94442EE1E0EA93C2
:1026E000E9EDF2E00E94442E0E94D6300E94DB30D9
:1026F0000E94E030FA93EA930E942D09FFCFE4E0B4
:10270000F3E00E94B330B9F10E94E83029F0A4E070
:10271000B0E0E4E40E941A370E94E83099F4E0E067
:10272000EA93EBE0F3E00E94442EE1E0EA93EBE170
:10273000F3E00E94442E0E94D6300E94DB300E94BB
:10274000E03014C0E0E0EA93EBE2F3E00E94442EB4
:10275000E1E0EA93E9E3F3E00E94442EE2E0E09353
:10276000AF02E3E0EA93EA93E4EFF1E0FA93EA934D
:102770000E942D09FFCFE6E4F3E00E94B33069F434
:10278000E9E4F3E00E94B33041F40E948F3029F471
:10279000E1ECF2E00E94B330D1F10E94BD30E09351
:1027A0002803EDE4F3E00E94B33069F4E2E5F3E0DE
:1027B0000E94B33041F40E94A73029F4E5ECF2E026
:1027C0000E94B33021F10E94BD30E0932903E8E577
:1027D000F3E00E94B330D9F00E94BD30E0932A03A9
:1027E000A0912A03A53618F0E4E6E0932A03E3E675
:1027F000F3E00E94B33019F4E0E4FFE102C00E946C
:10280000BD30E0932B03F0932C03E1E00895E0E06A
:1028100008951A9379D20E945C1DE03031F40E9431
:10282000232E0E94482EE0E06DC20E949D1DE030E4
:1028300011F4E0E067C2ECE6F3E00E94B33011F47B
:10284000E0E060C20E94BD30EE0FFF1FE093FA028D
:10285000F093FB02E5E7F3E00E94B33011F4E0E00F
:1028600051C20E94EE30E093F602F093F7026093BB
:10287000F8027093F902EEE7F3E00E94B33011F42E
:10288000E0E040C20E94EE30E0932303F093240383
:10289000E9E8F3E00E94B33011F4E0E033C20E94B3
:1028A000F6300E94FD300E940231E3E9F3E00E941D
:1028B000B33011F4E0E026C20E94F6300E940631E7
:1028C0000E940231EDE9F3E00E94B33011F4E0E040
:1028D00019C20E94F6300E940B310E940231E7EAD1
:1028E000F3E00E94B33011F4E0E00CC20E94F63035
:1028F000E7EEF2E0FA93EA93E3E0EA93A8DDE0E0A2
:10290000E0932203E1EBF3E00E94B33021F00E9458
:10291000BD30E0932203A0912203A83018F0E0E03C
:10292000E0932203E0912203E093B502E0E0F3E0BC
:10293000FA93EA93E8EBF3E00E941031EEE1EA93B8
:102940000E941C2DE6ECF2E0FA93EA93E1ECF3E04E
:102950000E941031ECE0EA930E941C2D0E94681E38
:10296000E03011F4E0E0CEC1A0910006E7E7EA27ED
:10297000E0930006E1E0F6E00E941B31E2E0F6E0C1
:102980000E941B31E3E0F6E00E941B31E4E0F6E038
:102990000E941B31E5E0F6E00E941B31E6E0F6E024
:1029A0000E941B31E7E0F6E00E941B31E8E0F6E010
:1029B0000E941B31E9E0F6E00E941B31EAE0F6E0FC
:1029C0000E941B31EBE0F6E00E941B31E0915508BC
:1029D000E03009F076C1E0E0E093B402A091B402E7
:1029E000A436B8F40E94C5300E942231AE2FE09187
:1029F0000906EF70EA1751F40E94C530E25FFF4FFD
:102A00000E942931E0910A06EA1719F00E94D0309D
:102A1000E5CFA091B402A43609F061C0E0E0E093F4
:102A2000B402A091B402A43608F042C00E94C5309E
:102A30000E942231EF3039F40E94C530E25FFF4F2F
:102A40000E942E3171F00E94C530E45FFF4F0E945A
:102A50002E3131F40E94C5300E943331E03F09F03D
:102A600024C00E94C5300E943A310E94C530E35F05
:102A7000FF4F0F01E0910206E07FAE2FE0910906C3
:102A8000EF700E9442310E94C530E25FFF4FDF01CC
:102A9000E0910A060E941A37E0910306E03021F027
:102AA0000E94C5300E94473103C00E94D030B9CF88
:102AB000A091B402A43699F4E3E0EA93EAECF3E0DF
:102AC0000E94442EE0910906EF70EA930E94D70815
:102AD000E0910A06EA930E94D708E0E013C1A091B2
:102AE0000006A130C9F50E944F3119F40E94E83068
:102AF00099F10E94C5300E945531EA1768F10E9491
:102B0000C5300E945531AE1768F00E94C5300E9452
:102B10005531EA1731F40E945D310E9433316E174E
:102B200008F01AC00E94C5300E945531EA1721F002
:102B30000E94C5300E943A310E945D310E943331BB
:102B4000E61751F00E94C5300E9422310E94623186
:102B50000E9465310E9469310E94C530E45FFF4FD9
:102B60000E942E3161F40E94C5300E943331E03E54
:102B700031F4E3E0EA93E6EDF3E00E94442E0E9494
:102B80006D31E093FE02F093FF020E944F3119F481
:102B90000E94E83031F00E94C5300E945531AE17D6
:102BA00008F019C00E9476310E947B310E94C53026
:102BB0000E9492310E9498310E949231E295E07F0A
:102BC0006E2F0E94C5300E949E31E2EEF3E00E941B
:102BD000442EE0E097C00E944F3119F40E94E83083
:102BE00031F00E94C5300E945531EA1709F038C013
:102BF0000E945D310E9433316E17C8F40E94763115
:102C00000E947B310E94C5300E9492310E9498310F
:102C10000E949231E295E07F6E2F0E94C5300E94A3
:102C20009E31E2EFF3E00E94442EE0E06BC00E9490
:102C30005D310E943331E61790F40E94C5300E9446
:102C400022310E9462310E9465310E946931E09117
:102C50000306E03021F00E94C5300E9447311CC0BD
:102C60000E94C5300E943A310E945D310E9433318A
:102C7000E61751F00E94C5300E9422310E94623155
:102C80000E9465310E946931E0910306E03021F035
:102C90000E94C5300E9447310E94C5300E94AC316D
:102CA000EF3FAFEFFA0721F40E94C5300E94473191
:102CB0000E94C5300E94AC310E94B2310E946D3139
:102CC00006C0E0E0F0E00E94B231E0E0F0E0E09326
:102CD000FE02F093FF02E0912103E03031F4E0E0E6
:102CE000F0E0E093FE02F093FF02E0910606E0932D
:102CF0002503E0910706E0932603E0910806E093A0
:102D00002703E1E019910895F298F198E0E0E0934B
:102D10008802E0938902E0935A08E0935B08E0930D
:102D20005C08E0935D08F0980E94B7310895E1E6F1
:102D3000F3E00E947E30A091E802E0910102EA17E0
:102D400031F4A091E902E0910202EA1749F00E94F1
:102D5000B22DE3E0EA93E2E0F4E00E94442E02C1E7
:102D6000E3E0EA93EFE0F4E00E94442E0E94D50AEB
:102D700002C1E8ECF0E00E94E92EEDE1F4E00E94EF
:102D80007E30E0910002E0935608E0910102E0936A
:102D90005708E0910202E0935808E0910302E093A3
:102DA0005908E091CF03E03041F0E3E0EA93EFE12E
:102DB000F4E00E94442E0E94C1310E94D50ADBC07B
:102DC000E3E0EA93E4E2F4E00E94442EEFE8F2E06C
:102DD0000E947E30EEE9F2E00E94AE2D0E94B30A1E
:102DE0000895E091FA02F091FB02F695E795E093E1
:102DF0008B02E0E0E0938A02BEC0A0DBE091CF034B
:102E0000E03031F0E3E0EA93E0E3F4E00E94442EA6
:102E10000E940B310E94FD3030D5E03049F4ECE3E4
:102E2000F4E00E943D30E3E0EA93E1E5F4E096C08F
:102E30000E940B310E94FD3091D5E03049F4E1E66B
:102E4000F4E00E943D30E3E0EA93EAE7F4E086C074
:102E5000E091CF03E03021F0E9E8F4E00E94AE2DEC
:102E60008AC03FDBE091CF03E03021F00E94583070
:102E70000E94D631E3E0EA93ECEAF4E00E94442EAB
:102E80000E94010FE03039F4E3E0EA93ECEBF4E068
:102E90000E94442E67C00E94DD316BC00E94E23167
:102EA00029F0ECECF4E00E94FD315CC0E3E0EA9331
:102EB000EBEDF4E00E94442E0E94B7310E940132F3
:102EC00009F450C00E94681EE03009F44BC00E9413
:102ED0000832B8F40E94B30A0E9419320E942232CA
:102EE00019F40E94F51E3EC0F09908C00E943032CD
:102EF00081D4E03019F40E94F51E34C00E943F32A4
:102F0000E6CF37C00E94E23169F50E94D50AE3E0BE
:102F1000EA93EBEEF4E00E94442E0E94B7310E9447
:102F2000013201F10E94681EE030E1F00E94083297
:102F300000F50E9419320E94223219F40E94F51EF7
:102F400011C0F09911C00E94303277D4E03061F4A2
:102F50000E94F51EE3E0EA93E9EFF4E0FA93EA93C6
:102F60000E945408E0E00895F19903C00E943F32A6
:102F7000DDCF0E94F51EE1E008950E944D32E88108
:102F8000EA93ECDA219608952296089524971A93ED
:102F90000A930E945232EAE0F5E00E948B300E94D0
:102FA0002E2E0E9458320E945D320E9458320E949A
:102FB00060320E946332ECE0F5E00E946A3211F464
:102FC000E0E0BAC0E7E1F5E00E94B33011F4E0E0E0
:102FD000B3C00E9472320E944D308F01E4E2F5E0EE
:102FE0000E94B33011F4E0E0A7C00E94F63061DA2D
:102FF0000E9477320E947C320E942B3709F49BC0DA
:10300000A091AD02B091AE020E944130EF930E94B8
:103010007232E1810E948132AF91EA2BE0938D02FE
:103020000E947232E2810E948632EF930E947232D5
:10303000E3810E948132AF91EA2BE0938E020E94DD
:103040007232E4810E948632EF930E947232E581EF
:103050000E948132AF91EA2BE0938F020E9472327C
:10306000E6810E948632EF930E947232E7810E94CD
:103070008132AF91EA2BE09390020E9458320E9475
:103080008C32B8D3E03041F4E3E0EA93EFE2F5E0CC
:103090000E948230E0E050C00E9458320E948C3280
:1030A000CCD3E03061F4EDE3F5E00E94FD31E3E0E4
:1030B000EA93EDE5F5E00E948230E0E03DC00E9439
:1030C0005832ECE6F5E0FA93EA930E9493320E94BC
:1030D000983284E00E947A2C2896E4E2F5E0FA9394
:1030E000EA930E9458320E949F3211F4E0E024C01B
:1030F0000E940E1FE03011F4E0E01EC0E4E2F5E0B3
:103100000E94B33011F4E0E017C0E3E0EA93E2E795
:10311000F5E00E9482300E94A732EDE8F2E00E94C2
:10312000682EEDE8F2E00E946C2EE091CF03E030D3
:1031300011F00E94282EE1E0198108812696089559
:103140001A930A9316DEE03011F4E0E0ADC00E945D
:103150005232EAE0F5E00E948B300E942E2E0E944F
:1031600058320E945D320E9458320E9460320E94A2
:103170006332E7E7F5E00E946A3211F4E0E094C0C0
:10318000E7E1F5E00E94B33009F48DC00E9472328D
:103190000E944D308F010E94AB322CD3E03051F4AD
:1031A000E3E0EA93E4E8F5E00E9482300E94282EF2
:1031B000E0E07AC00E94AB3240D3E03071F4EDE33E
:1031C000F5E00E94FD31E3E0EA93E3E9F5E00E94D7
:1031D00082300E94B22DE0E067C0E09156080E9464
:1031E000B032E0938D02E0915608EA930BD9E09358
:1031F0008E02E09157080E94B032E0938F02E09176
:103200005708EA93FFD8E0939002E09158080E9493
:10321000B032E0939102E0915808EA93F3D8E0933A
:103220009202E09159080E94B032E0939302E0913B
:103230005908EA93E7D8E0939402E2EAF5E0FA93BA
:10324000EA930E9458320E949F3241F4E3E0EA93ED
:10325000EDEAF5E00E948230E0E026C00E940E1FF9
:10326000E03041F4E3E0EA93E9EBF5E00E948230DC
:10327000E0E01AC0E2EAF5E00E94B33041F4E3E096
:10328000EA93E5ECF5E00E948230E0E00DC0E091C9
:10329000CF03E03041F0E3E0EA93EFE1F4E00E9495
:1032A00082300E94C131E1E0099119910895E3E073
:1032B000E093AF02E0912203E093B502E0EDF5E088
:1032C0000E94FD31299AE0915508E03079F50E947D
:1032D000C5300E94AC31A091FE02B091FF02EA1706
:1032E000FB0740F40E94C5300E94AC31EE3FAFEFC7
:1032F000FA07E1F40E945E2E309739F0E3E0EA939A
:10330000E2EFF5E00E94823090C00E94E83031F098
:103310000E94C5300E94AC313A9708F407C0E3E040
:10332000EA93EEEFF5E00E9482307FC0EDDCE1E051
:10333000EA9314D9E03009F478C042DD5EDDE03074
:1033400009F473C0CED8E0E0EA9317DEE03009F468
:103350006CC047DDE03009F468C032DDD5DCE6E45E
:10336000E0938C027EDDE03021F4ECD8E03059F7B8
:103370005CC0E091CF03E03031F00E9458300E94F1
:10338000D6310E94282E0E94DD31BEDCE09125035B
:10339000E03041F083DDE03009F447C0B3DDE030D8
:1033A00009F443C0E0912603E03051F0EFDDE03056
:1033B00039F4E3E0EA93ECE0F6E00E94823035C0B5
:1033C000E0912703E03051F0BBDEE03039F4E3E078
:1033D000EA93EAE1F6E00E94823027C00E940631BB
:1033E0000E94FD304AD2E03029F4E8E2F6E00E9483
:1033F0003D301BC076D8E1E0EA93BFDDE030A9F0B4
:103400000E9406310E94FD30A9D2E03029F4E1E6A5
:10341000F4E00E943D3009C064D8E091B502E09329
:103420002203E1E0E093AF0229980E944D320E940E
:10343000C5300E94AC310E94B231A091AF02A130E0
:1034400059F0E1E0E093CF03A091AF02A43019F06E
:10345000E2E0E093AF024DC0E0E0E093CF030E94D2
:103460004F3119F40E94E83049F00E94C5300E94A3
:10347000AC3131960E9412370E94B2310E948A0804
:10348000A091B002B091B102E4E6F0E00E9454369F
:103490000E94B532E3E0EA93ECE3F6E00E94442EAA
:1034A000E1E6F8E00E946C2EE2E4F6E00E94AE2D28
:1034B0000E94E32EE3E0EA93E6E4F6E00E94442E65
:1034C0000E944F3119F40E94E83051F0E091FC0263
:1034D000F091FD020E94B532E1E6F8E00E946C2E08
:1034E000E1E0EA93EA93E4EFF1E0FA93EA930E94D1
:1034F0002D09089525970E943F3720E030E040E0F5
:10350000F09912C000E010E0ED85FE850E171F0750
:1035100050F4F801AB85BC85AE0FBF1FEFEFEC9305
:103520000F5F1F4FF1CFF09AF19B02C0E1E05EC147
:10353000F299F9C00E94E711EA3329F0E1E5F6E0DB
:103540000E943D3052C10E94BD32EE83E295E07F81
:10355000EF930E94BD32AF91EA0FEE834E810E943D
:10356000BD320E94C232EF930E94BD32AF910E94E1
:10357000C632FF27662777270E94CA320E94BD32D3
:103580000E94C232EF930E94BD32AF91EA0F5E2FCC
:10359000450F0E94CF32E8E00E94E035DF01CB0109
:1035A000E52FF0E00E94D4320E94CA32E0915A081E
:1035B000F0915B0860915C0870915D080E94CF32C9
:1035C0000E94AA350E94CA32ED85FE85AF85B88972
:1035D00089899A890E94D9320E94CF320E943A3753
:1035E00010F0E1E003C10E94BD320E94C232EF93AD
:1035F0000E94BD32AF91EA0F5E2F450F513019F492
:10360000F19AE1E0F3C0523009F04BC00E94BD32A4
:103610000E94C232EF930E94BD32AF910E94C63227
:10362000F0E00E942036DF01CB01ECE00E94E035A3
:103630000E94DE320E94C232EF930E94BD32AF91EF
:103640000E94C632F0E00E942036DF01CB01E4E0A8
:103650000E94E035A0915A08B0915B0880915C0807
:1036600090915D080E94BE350E94DE320E94C232F7
:10367000EF930E94BD32AF910E94E73219F00E9491
:10368000EC32B3C00E94E711ED3019F00E94EF3226
:10369000ACC00E94E711EA3019F00E94EF32A5C0D9
:1036A00043CF5330E9F50E94BD320E94C232EF93FE
:1036B0000E94BD32AF910E94F2320E94C232EF935B
:1036C0000E94BD32AF910E94F2320E94C232EF934B
:1036D0000E94BD32AF910E94F2320E94C232EF933B
:1036E0000E94BD32AF910E94F2320E94C232EF932B
:1036F0000E94BD32AF910E94E73219F00E94EC3275
:1037000074C00E94E711ED3019F00E94EF326DC0D5
:103710000E94E711EA3019F00E94EF3266C004CF30
:1037200000E010E009C000915E08112740915F0899
:10373000E0916008EE83F298EE81D801F0E0AE17D8
:10374000BF0768F50E94BD320E94C232EF930E940B
:10375000BD32AF91EA0F5E2F450FF09B03C05F3F74
:1037600009F0F098F901AB85BC85EA0FFB1F508387
:103770002F5F3F4FED85FE853197E217F30760F429
:10378000F29AE02FEF5FE0935E0840935F08EE81CE
:10379000E0936008E1E02AC00F5F1F4FCDCFF29B9E
:1037A00002C0E1E023C00E94BD320E94C232EF930A
:1037B0000E94BD32AF910E94E73219F00E94EC32B4
:1037C00014C00E94E711ED3019F00E94EF320DC0D5
:1037D0000E94E711EA3019F00E94EF3206C0ED8531
:1037E000FE85E217F30709F09FCEE0E00E9446371E
:1037F000639608950E94F632EC81FD810E171F0733
:1038000018F40E940B3308F014C0E4E4EA930E9419
:10381000A0110E941633EA930E941D33A09100026A
:10382000AD3021F0E0E019810881DDC20F5F1F4F4C
:10383000E3CFE1E019810881D6C20E94F632EC8123
:10384000FD810E171F0718F40E940B3308F011C0FA
:10385000E4E6EA930E941D330E941633A091000211
:10386000EA1721F0E0E019810881BDC20F5F1F4F08
:10387000E6CFE1E019810881B6C21A930E949E1238
:10388000E3E0EA93EFE9F6E00E94442EEB81FC814D
:103890000E942133EF93E981FA810E942133E09560
:1038A000AF910E9426330E942133E03039F00E940C
:1038B000B30AE6E60E942B330E94B30AEB81FC8137
:1038C0000E943033EF93E981FA810E943033E09512
:1038D000AF910E9426330E943033E03039F00E94CD
:1038E000B30AEEE60E942B330E94B30AEB81FC81FF
:1038F0000E943533EF93E981FA810E943533E095D8
:10390000AF910E9426330E943533E03039F00E9497
:10391000B30AEFE60E942B330E94B30AEB81FC81CD
:10392000FA93EA930E94E311EF930E94A72E0E945C
:10393000E311E095AF91EA2B1E2F0E94A72E0E9463
:10394000E311E03039F00E94B30AECE60E942B3319
:103950000E94B30AE1E01881259608951A930A930C
:103960000E949E12E3E0EA93EDEAF6E00E94442E04
:10397000EC81FD810E942133EF930E943A33E09560
:10398000AF91EA2B1E2F0E943A33E03071F0EBEB3F
:10399000F6E00E947E30009100020E943A33E095EA
:1039A0000E2B101711F0E0E05EC0EC81FD810E944B
:1039B0003033EF930E943D33E095AF91EA2B1E2FF9
:1039C0000E943D33E03071F0EDEBF6E00E947E3076
:1039D000009100020E943D33E0950E2B101711F06C
:1039E000E0E041C0EC81FD810E943533EF930E94FD
:1039F0004033E095AF91EA2B1E2F0E944033E03018
:103A000071F0E3EBF2E00E947E30009100020E9430
:103A10004033E0950E2B101711F0E0E024C00E9417
:103A200043330E94E311EF930E94A22E0E94E31100
:103A3000E095AF91EA2B1E2F0E94A22E0E94E31167
:103A4000E03081F0EFEBF6E00E947E300091000262
:103A50000E94A22E0E94E311E0950E2B101711F088
:103A6000E0E001C0E1E01981088126960895E0E0D8
:103A7000E0938000E3E0E0938100EFEFE0938500C6
:103A8000E2ECE0938400E1E0E0936F000895E881C8
:103A9000E03019F0E4E0E093AF02E3E0EA93E9817B
:103AA000AAE1B1E0F0E0EE0FFF1FEA0FFB1F0E945A
:103AB000E2360E94823050C21A9313E01030D1F1E6
:103AC000115099D2E0937F08E03029F1E17029F09C
:103AD000E3E0EA93E3EAF7E011C0E0917F08E270E7
:103AE00029F0E3E0EA93E4EBF7E008C0E0917F0817
:103AF000E37041F0E3E0EA93E5ECF7E0FA93EA9350
:103B00000E9454081030D1F60E94E32EE4E0E093C6
:103B1000AF02E0E02BC2E4EDF5E0FA93EA930E94F5
:103B2000CA24E0937F08E03019F0103039F602C063
:103B3000E1E01CC20E94483319C20E94413730E0C4
:103B4000E1E0E093B20275D0E03009F46DC0A8D096
:103B50000E944F330E94543309F066C00E946233C2
:103B6000E050FA4FA0E0A083313408F040C00E943A
:103B700058320E944F330E946733FA93EA930E94AF
:103B8000B62CE32FF0E0E852FF4F249100E010E064
:103B90000E9467330E171F0710F4213008F414C079
:103BA000F801E357FD4FBF01ADE8B2E00E946D336D
:103BB000ADE8B2E00E947333A357BD4FEC91E2270A
:103BC000EC930F5F1F4FE4CF0E945832E5EDF7E012
:103BD000FA93EA93E5EDF7E0FA93EA930E94F92C61
:103BE000EA930E94042DE03011F03F5FBDCF3134E5
:103BF000D8F420932103213098F000E010E00E94D7
:103C00007E3370F40E948233A0E0B6E00E947333EA
:103C1000A050BA4FEC91E227EC930F5F1F4FEFCF0C
:103C2000E1E00E94483748C10E9448330E9448376B
:103C300043C11A9313E00E948630E0EEF7E00E9441
:103C40008B300E942E2E0E9458320E945D320E94BC
:103C500058320E946032E0EEF7E0FA93EA930E9455
:103C6000D52C0E948630E2EEF7E0FA93EA930E94A8
:103C7000D52C103081F011500E9486300E94EF2523
:103C8000E0937F08E03021F40E94893331F403C0CF
:103C9000103079F702C0E1E069C10E94483366C183
:103CA0000E94893329F0E0917F08EA93F0DED0C0CA
:103CB000CDC00E94E6360E94EB360E943B28E0937E
:103CC0007F08E03019F00E944833F6C0E1E0F4C00C
:103CD0000E944137E09121033E2F0E944F330E9402
:103CE0005433B1F4303099F000E010E00E947E339C
:103CF00070F40E948233A0E0B6E00E947333A050BB
:103D0000BA4FEC91E327EC930F5F1F4FEFCF01C049
:103D100007C00E9495330E949F330E944837CCC051
:103D20000E9448330E944837C7C00E944137E09143
:103D300021033E2F0E94D02F09F451C00E9443332B
:103D4000E885F9850E94A733E0917F08E03071F59E
:103D500000E010E00E947E3340F53030B1F0F80111
:103D6000AC81BD81EA0FFB1FBF010E94B233EE0F91
:103D70000E2E0E94B233EE1FE0E0EE1FE029DB01C1
:103D8000EC930E94B233E327EC930E94B233F0E04D
:103D9000A0918202B0918302EA0FFB1FE09382029E
:103DA000F09383020F5F1F4FD5CF01C018C0009161
:103DB000000810910108EE81FF810E171F0750F4D3
:103DC000F801AC81BD81AE0FBF1FEFEFEC930F5F29
:103DD0001F4FF1CF0E9495330E949F3302C00E9473
:103DE00048330E9448372896089508951A930E94F0
:103DF0006233A0910208B0910308AE17BF0708F024
:103E000067DFA2E0B8E00E94792D3197E050FA4FC9
:103E10001081A8E1B8E00E94B933A7C00E948630A3
:103E20000E94EF25E0937F08E03091F40E948933EF
:103E300079F40E944F33E0E0F2E00E94A733E030D3
:103E400029F4E0E0E0930208E0930308E1E008953C
:103E5000E0E008950E94C2330E944F330E94433332
:103E60000E94522D8F01309739F00E94A22E0E949D
:103E7000F92C31960E0F1F1F1CC00E94C2330E94E6
:103E8000A22EE8DF8F013097A1F00E9458321A93DA
:103E90000A93E0E2EA930E941C2D0DE812E01A93C7
:103EA0000A93EDE0EA930E94442DE00FF11FA0E099
:103EB000A083F80119810881249608950E94C233D5
:103EC000ADDFE030A1F10E94C733C4DF8F0130972E
:103ED00041F1EA81FB81309779F0AC81BD81EC91B1
:103EE000D801EC930F5F1F4F0E94CC33EA81FB8116
:103EF0003197EA83FB83EDCF0E948933C1F40E949E
:103F00004F330E9462333197FA93EA930E94D2337F
:103F100071F40E94E52D0E94E52D0E94D23339F400
:103F200001C005C0E1E0198108810C948E24E0E015
:103F3000198108810C948E24E4B1EC62E4B9E5B1F6
:103F4000EC63E5B9E0E5ECBDE1E0EDBD0895E881A5
:103F5000EEBDEDB5E078E9F3219608951A93EFEF01
:103F6000EEBDEDB5E078E9F31EB5E12F19910895A6
:103F7000F5DF08951A930A93EE81E07849F0EE8117
:103F8000EF77EE83E7E70E94DC330E2F023070F507
:103F90002A9AE4DF2A98E2DFEE810E94E533E8E125
:103FA0000E94EC35EA93D3DF0E947C320E941636E1
:103FB0000E94E533E8E00E94EC35EA93C8DFEA812D
:103FC000EA93C5DF11E0AE81A03409F415E9AE81B2
:103FD000A83409F417E81A93BADF1AE0BFDF0E2FEE
:103FE00007FF02C0115009F401C0F8CFE02F19817A
:103FF00008812796089524970E943F379DDF2A99CC
:1040000005C00E94E52D0E94ED33F2D014E6103079
:1040100019F0A4DF1150FBCF30E0E0E40E94DC3364
:10402000E13009F075C0E8E4EA93EAEAF1E060E023
:1040300070E00E94F433E13009F045C010E0143024
:1040400050F40E94F833FF93EF9388DFAF91BF9154
:10405000EC931F5FF4CFA885A13019F4A985AA3A83
:1040600009F030C040EE5EE2042E052A51F0E9EE80
:10407000EA93E0E0F0E060E070E40E94F433E030C6
:1040800009F403C041505040EFCF042E052A29F017
:10409000EAE70E94DC33E03009F014C010E014308D
:1040A00050F40E94F833FF93EF9358DFAF91BF9124
:1040B000EC931F5FF4CFEE81E07411F0ECE001C0EF
:1040C000E4E03E2F25C0E9EE0E94DC33E23018F434
:1040D00032E009EE02C031E001E448EA51E6042E84
:1040E000052A31F00A930E94ED3344DFE03009F4F1
:1040F00003C041505040F3CF042E052A41F0E0E5C3
:10410000EA930E94FF330E94F433E03009F030E07C
:10411000309380082DDFECB5EC7FECBDEDB5E160B0
:10412000EDBD303011F0E0E001C0E1E00E94463723
:10413000CAC20E944137E0918008E87031F40E94C1
:1041400004340E9409340E94103411E0E1E5EA933E
:104150000E9415340E94F433E03009F044C020E39B
:1041600035E7FCDE0E2F0F3F19F42150304009F4E3
:1041700001C0F7CF0E3FB9F5AE81BF81E2E0F2E0BA
:10418000EA1BFB0BDF01EC81FD81AE1BBF0B9D0128
:10419000EE81FF81309739F0E1DEEE81FF813197CA
:1041A000EE83FF83C9F7EC85FD85309781F00E948F
:1041B000F82F3197FF93EF93D1DEAF91BF91EC933E
:1041C000EC81FD813197EC83FD8389F706C0EC819A
:1041D000FD813197EC83FD83D1F7C0DEF901319782
:1041E0009F01D9F710E0C4DEE12F0E9448372EC3AB
:1041F0000E94413711E0E885F9853097F9F02C816C
:104200003D81022E032A31F0E0918108F09182086D
:10421000309709F411C0A885B985ED91A887B987B1
:10422000EA9395DEA1E8B8E0ED91FD913197FE9318
:10423000EE9321503040E5CF10E04DC00E941A347B
:104240000E942B3721F1E0918008E87041F40E9430
:104250001A340E940934EC83FD836E837F83E8E582
:10426000EA93ED81FE816F8178850E94F433E0301E
:1042700069F4EFEFEA936BDEEEEFEA9368DEE0E0DD
:10428000F2E0E0938108F093820810E024C0E0910E
:104290008108F091820832969F01F9012150304047
:1042A000309721F0E0E0EA9352DEF7CF57DEEF716E
:1042B000E53081F428EE3DEF51DEEF3F19F0022E9C
:1042C000032A09F403C021503040F6CF022E032AFE
:1042D00009F010E04DDEE12FF4C11A930A930E812C
:1042E0001F81EA81FB813197EA83FB83319649F094
:1042F0001F930F930F5F1F4FEC81AF91BF91EC9312
:10430000F0CF198108810AC30E943F370A851B85B7
:104310002885398540E050E0EE81FF813197EE83BA
:10432000FF83319681F0D8010F5F1F4F0C9011244D
:10433000D9012F5F3F4FAC91BB27F001EA1BFB0B6C
:10434000AF01309709F001C0E7CFFA010E9446376C
:104350002C96089526970E943F370E941F34EE83C3
:10436000FF830E9424340E94293450F0AE81BF8123
:1043700018960E94CD360E9424340E943A3708F0E5
:10438000A7C0AE81BF81EC91F0E0E130A0E0FA0778
:1043900009F04DC02C853D85F901F695E7952E0F66
:1043A0003F1FF901F170AF01D901E0E0F2E00E9496
:1043B00054369F01EFEFF1E0E417F50759F00E9442
:1043C00031340E94EB365A934A930E943D3409F0EF
:1043D0007FC01FC00E9431340E94EB36EFEFF1E046
:1043E000FA93EA930E94022EA4DEE03009F070C036
:1043F000FE0139960E944534F9010E94D9320E948B
:1044000098320E94E52D0E94022E93DEE03009F0E2
:104410005FC008851985EC85E17021F0F8010E94E4
:10442000083602C0F801FF706627772755C0E230D2
:10443000A0E0FA0709F5FE0138960E9445349F93E3
:104440008F93BF93AF930E944E34E0E0F1E060E0C1
:1044500070E00E946C36AF91BF918F919F910E9446
:104460005334F070EE0FFF1F0E945A3489F5E8852F
:10447000F9856627772730C0E330A0E0FA0741F5D9
:10448000FE0138960E9445349F938F93BF93AF935C
:104490000E944E34E0E8F0E060E070E00E946C368C
:1044A000AF91BF918F919F910E945334EF77F0703D
:1044B0000E94FC35FA93EA93E4E0F0E00E945D3458
:1044C00039F40E940434EF7FFF7F6F7F7F7004C058
:1044D000E1E0F0E060E070E00E9446376096089509
:1044E0000E9463340E947C32E250F0406040704091
:1044F0000E947732F801A085B18582859385E2E03C
:10450000F0E060E070E00E94F5360E94AF350E9456
:104510006A340E943A3728F00E946F34198108816A
:1045200037C2F801E181F0E00E946A340E9420362F
:104530000E942F367F936F93FF93EF93D801549689
:104540000E94CD36AF91BF918F919F910E94AA3565
:10455000198108811DC224970E946334AE81BF81F6
:104560000E947434AE81BF8114960E9479340E94F7
:104570007C3449F0D80118960E94CD360E946A34E6
:104580000E943A3720F0E1E019810881C7C10E94FA
:10459000853421F4D801AC91A33009F004C0D801CE
:1045A00050960E9479340E947C32AE81BF81189669
:1045B0000E94D8360E94853421F00E94A73290DFF5
:1045C00004C0D80150960E94CD36AE81BF811C96A2
:1045D0000E94D836E0E019810881A0C124970E948A
:1045E0008934A885B9850E94C93631968F01002E7D
:1045F000012A31F01C960E94CD360E942B3711F40F
:10460000E3E05FC0F801EF7009F056C0A885B985F6
:104610001C960E94B933A885B98518960E94CD369C
:104620000E942B3751F4D90114960E94C9360E17F7
:104630001F0710F0E3E045C03FC0F8010E940836B4
:10464000DF01F901E181F0E03197EA23FB233097A4
:1046500099F5E885F985A085B185828593850E94C5
:104660009034EC83FD836E837F83AC81BD818E812A
:104670009F810E94293410F4E1E023C0D9011896EB
:104680000E94CD36AC81BD818E819F810E943A37D8
:1046900010F0E3E016C00E941A34A885B985189678
:1046A0000E94D8360E941A340E94EB3619DFA88582
:1046B000B9851C960E94D836A885B9850D931C93A0
:1046C000E0E00E9448372A9608950E9441370E94F0
:1046D000433341DF1E2F103019F00E94483758C174
:1046E0000E9494343A932A93EE81FF810E949C3475
:1046F0000E94F036AA85BB850E94C936EF70F07023
:10470000EE0F0E94F835FA93EA93E0E2F0E00E949F
:104710005D3411F0E1E001C0E0E01E2F103011F532
:10472000D9010C91003011F413E01CC0F901E385AC
:10473000E87079F43A932A93EE81FF81A281B381E4
:10474000BA93AA93EBE0F0E0FA93EA93DDDD3097B9
:1047500009F001C007C00E94433340DF1E2F103014
:1047600009F4C0CFE12F0E94483712C124970E945C
:104770003F37AC85BD8512960E94C936E887F98718
:10478000FA93EA93E0E2F0E0FA93EA93EBE0F0E0E8
:10479000FA93EA93A2DDE0E05E2F2E2F38E0AA859F
:1047A000BB850E94A1340E94A6341C91113210F0E6
:1047B0001F3209F435C01E3211F0531740F0383063
:1047C00011F41E3209F02CC058E03BE028C010382C
:1047D00038F0E12FF0E0E058F040E65CFE4F149135
:1047E000E0E0E03041F0E32FF0E03197A52FB0E0BA
:1047F000AE17BF070CF40AC00E94A6340C910E94A9
:10480000AE3410830E94AE34008309C0113610F01C
:104810001B3708F001C010520E94AE341083C3CF82
:10482000E22FAE81BF81F0E0EA0FFB1FAA85BB85B6
:10483000ED93FC93113210F4E1E001C0E0E0A885B3
:10484000B9851B96EC93E0E00E9446372E960895BA
:104850000E944137AC81BD81AC91A03219F40E9415
:10486000CC33F8CFAC81BD81AC91AF3211F40E9452
:10487000CC33AE81BF8114960E94B634AC81BD8129
:10488000AC91A13258F40E94C73365DE1E2F0E94FE
:104890001F34A681B781E0E0EC933DC00E94C7338E
:1048A000FE013696FA93EA9361DF1E2F103099F5D8
:1048B0000E94C7330ADF1E2F103041F0133019F465
:1048C0000E94BA3409F001C014E025C00E94BA3435
:1048D00011F50E949434F901E385E07111F414E0BC
:1048E0001AC0D90154960E94C9360E9448307F935D
:1048F0006F93FF93EF93D9015A960E94C936AF91F7
:10490000BF918F919F910E94A42FAE81BF81149679
:104910000E94D836C3CFE12F0E94483728960895C9
:104920000E9443330E94A732EEEFF1E00E945A3416
:1049300011F0E3E02DC00E94C234E535AAEAFA077F
:1049400011F0E2E025C00E9443330E94A732E6E363
:10495000F0E00E945A3431F40E94C234E634A1E4FB
:10496000FA0709F002C0E0E013C00E9443330E943E
:10497000A732E2E5F0E00E945A3431F40E94C234DA
:10498000E634A1E4FA0709F002C0E0E001C0E1E08A
:1049900026960895E4971A93E0E0E0938308E09365
:1049A0008408EDA9FEA9309709F415C124DBE17054
:1049B00011F0E2E011C1E0E0ED87EE87EF87E88BD0
:1049C0000E94C734ADDF1E2F1130E1F40E94C734BE
:1049D000EEEBF1E0FA93EA93E0E1F0E00E945D345F
:1049E00011F013E00FC0ED89E03061F0E98DFA8D30
:1049F0006B8D7C8DED87FE876F87788B0E94C73427
:104A00008FDF1E2F133011F4E1E0E6C0103011F0FB
:104A1000E7E0E2C00E94C734EDE0F0E0FA93EA93E9
:104A2000E4E2F0E00E945D3411F0E1E0D5C0FE0167
:104A3000B7960E94D234662777270E94D7340E9407
:104A400015340E942B3741F4FE01F5963D97DF01A6
:104A50000E94CD360E94D734EC89F0E0A985BA8552
:104A60008B859C850E9420360E942F360E94D73469
:104A7000FE017F960E94D234AD85BE858F859889D0
:104A80000E94D932ADA9BEA91C960E94D836E989E8
:104A9000ADA9BEA91196EC93FE01B2960E94D23444
:104AA000ADA9BEA91496ED93FC93FE01B4960E94A5
:104AB000D23466277727ED83FE836F8378870E9441
:104AC0002B3751F4FE01F1963D97DF010E94CD3660
:104AD000ED83FE836F837887FE017F960E94D23438
:104AE000AD81BE818F819885662777270E94F53634
:104AF0000E94AF35A985BA858B859C850E94AF350C
:104B00007F936F93FF93EF930E94DC34AF91BF913B
:104B10008F919F91662777270E94B435EDA9FEA952
:104B20000E94E4340E946C36EE5FFF4F6F4F7F4F60
:104B3000E983FA836B837C83ADA9BEA918960E9492
:104B4000D83611E0A981BA818B819C81A73FEFE023
:104B5000BE07E0E08E07E0E09E0708F012E0A981C2
:104B6000BA818B819C81A73FEFEFBE07E0E08E0703
:104B7000E0E09E0708F013E0ADA9BEA91C93133036
:104B800029F4E8A9F9A96AA97BA902C00E94E9341D
:104B9000ADA9BEA950960E94D8360E94E9347F93F1
:104BA0006F93FF93EF930E94DC34AF91BF918F918D
:104BB0009F910E94D932ADA9BEA954960E94D836C1
:104BC000ADA9BEA91296E0E0EC93EDA9FEA9E09391
:104BD0008308F0938408E0E01881E7960895EC9745
:104BE0000E948934022E032A11F4E6E046C0D9015E
:104BF0001296E0E0EC93FE013496D9011696ED93FF
:104C0000FC93FE01B496EAABFBABFE01F096FA937F
:104C1000EA93FE01EE5BFF4F0190F081E02DFA93E5
:104C2000EA9316DE1E2F103009F027C0EC81E03029
:104C300019F0EF85E07111F0E3E01FC0E88DF98D08
:104C40000E944830DF01CB01EE8DFF8D0E94A42F22
:104C5000D90190960E94D836E8A1F9A16AA17BA15A
:104C6000D9015C960E94D836D90158960E94B63474
:104C7000D9011296E1E0EC93E0E00E944837EF960C
:104C8000239608952E970E943F37288D398D0E94D4
:104C90001F34EE83FF83AC89BD890E947434EE819A
:104CA000FF81309711F4E6E0D6C0EE81FF81A2814A
:104CB000A17011F4E5E0CFC0EE81FF81A48DB58D28
:104CC000868D978D9F938F93BF93AF930E94F034FF
:104CD000EF91FF916F917F910E94AF350E94103448
:104CE0000E940434AE89BF89882799270E943537EE
:104CF00020F4E885F985EE8BFF8BEE89FF893097EC
:104D000009F4A3C00E94F034FD01BC01F17030979A
:104D100009F052C00E94F0340E94F734EE81FF8106
:104D20000E94E4340E94A4360E942B3749F50E9469
:104D3000F0340E942F3731F4AE81BF8190960E94EB
:104D4000CD3604C00E94FD340E949034E88BF98B6C
:104D50006A8B7B8BA889B9898A899B890E942934AF
:104D600008F475C0E889F9896A897B89AE81BF81B9
:104D700094960E94D836AE81BF811396E0E0EC9302
:104D80000E94FD340E94F036ABDB0E940435EC85B6
:104D9000FD856E857F850E942B3709F458C0AE8152
:104DA000BF810E9409350E9424340E94D432AE8112
:104DB000BF8198960E94D836EE81FF810E941035FF
:104DC000A0E0B2E0AE1BBF0BAD01EE89FF89E41796
:104DD000F50710F44E895F89E88DF98D309719F445
:104DE000E0E0F0E001C0F901FA93EA93E885F98583
:104DF0000E941535AC85BD8558960E94C936F17064
:104E0000FA93EA935A934A9394D91E2F1030F9F4E7
:104E1000EE81FF810E941C35DF01CB01FA010E9467
:104E2000D932D0010E94D836240F351FEE89FF8970
:104E3000E41BF50BEE8BFF8BAC89BD89ED91FD91E9
:104E4000E40FF51FFE93EE9358CFE0E004C0AE816F
:104E5000BF810E9422350E9446376A9608952C979A
:104E60000E943F370E891F89409183085091840822
:104E7000AA89BB890E947434042E052A11F4E6E045
:104E8000F6C0FA01A281A17011F4E5E0F0C0EC894E
:104E9000FD893097A1F4FA01A281A07439F00E9433
:104EA000E52D0E94ED33A4D9E03009F401C0DCC047
:104EB000DA011296EC91EF7BEC93E0E0D8C0FA01B6
:104EC000A281A07441F4DA015896ED91FD91E07051
:104ED000FE7FFE93EE93FA01A48DB58D868D978D9E
:104EE0009F938F93BF93AF930E942735EF91FF91CC
:104EF0006F917F910E94AF350E942D35AC89BD899D
:104F0000882799270E94353720F4EE81FF81EC8BAA
:104F1000FD8BEC89FD89309709F4A4C0FA010E9449
:104F20001035309709F05AC00E9427350E94F73497
:104F3000FA010E94E4340E94A4360E942B3719F52E
:104F40000E9427350E942F3729F4DA0190960E949B
:104F5000CD3607C0FA01A4A1B5A186A197A10E94F0
:104F600090340E9432350E944E340E94293408F455
:104F70007BC00E943735DA0194960E94D836DA0158
:104F80001396E0E0EC93FA01A4A1B5A186A197A144
:104F90000E94F036A5DAEA87FB876C877D870E943E
:104FA0003C350E942B3709F45FC0DA010E940935B5
:104FB0000E9441350E94D432DA0198960E94D83678
:104FC0000E94E52DFA010E94153512D9E03009F052
:104FD0004BC0DA011296EC91E064EC93FA010E9466
:104FE0001035A0E0B2E0AE1BBF0B9D01EC89FD893E
:104FF000E217F30710F42C893D891A930A93F901FB
:105000000E94632EF5D8E03079F5FA010E941C3534
:10501000DF01CB01F9010E94D932D0010E94D836BC
:10502000020F131FEC89FD89E21BF30BEC8BFD8B48
:10503000AA89BB89ED91FD91E20FF31FFE93EE93D8
:10504000FA010E941035309761F40E94E52D0E940C
:10505000ED33CED8E03041F4DA011296EC91EF7BDB
:10506000EC9357CFE0E003C0DA010E9422350E94A2
:1050700046376896089560970E946334002E012A8F
:1050800011F4E6E0DCC0F801A281A17011F4E5E0C2
:10509000D6C0D8015C960E9446350E94353740F450
:1050A000D8015C960E94CD36EA8BFB8B6C8B7D8B96
:1050B000D80158960E947934D80158960E94B63487
:1050C0000E944D350E942F3708F0B4C0F8010E94AD
:1050D000E4340E940934EA87FB876C877D870E944D
:1050E0006A340E942F3798F40E9452350E94573537
:1050F0007F936F93FF93EF930E947C320E9457350A
:10510000AF91BF918F919F910E943A3708F427C0C9
:105110000E947C32E150F04060407040DF01CB01E2
:105120000E943C35E150F040604070400E942A36B9
:105130000E94B935D80158960E94D836D8015896A1
:105140000E9446350E94B435AA8BBB8B8C8B9D8BFD
:10515000D80194960E94CD360E94323508C0D801FD
:1051600090960E94CD360E9432350E9461350E9491
:105170003C350E944D350E94353768F50E94373521
:105180000E94EB36E7D80E9432350E944E340E94CE
:10519000293448F0D80118960E94CD360E944E342A
:1051A0000E943A3708F048C00E946135F8010E9419
:1051B0001C350E9441350E94AA35D0010E94D83684
:1051C0000E9441350E9452350E94AF35EA8BFB8B1D
:1051D0006C8B7D8BCCCFF8010E941C350E944D3525
:1051E0000E94AA35D0010E94D8360E9437350E940D
:1051F000EB3676D90E942D350E942B37E9F00E94BC
:105200004D350E94FF330E946C36D8011396EC9303
:105210000E945235F170309769F0D8010E9409352B
:10522000AE81BF81888599850E94D432D801989635
:105230000E94D836E0E003C0D8010E9422351981CF
:10524000088166960895E8B1E07FAE2FE881E29587
:10525000EF70EA2BE8B98DE08A95F1F75F9A8DE05F
:105260008A95F1F75F988DE08A95F1F79BC0E88108
:10527000EA93E9DFE881E295E883E881EA93E3DFF6
:1052800085E88A95F1F78EC0E881F0E0EB57F74F9B
:10529000E081A981EA0FEA93EADFE981E0938908D6
:1052A000E881E0938A0822960895E2E00E9467353B
:1052B000ECE0EA93DCDFE1E00E946735E0E0E093B8
:1052C0008A08E09389080895A881AA3031F0E09116
:1052D0008B08A0918908AE1768F0E0E0EA93E091AE
:1052E0008A08EF5FE0938A08EA93CEDFA881AA30AC
:1052F00009F458C0E0918908EF5FE0938908459A66
:10530000E881EA93B4DF45984DC01A93A981BA8128
:10531000ED91A983BA831E2FE03019F01A93D4DFE0
:10532000F5CF0EC01A93E981FA813196E983FA83A9
:105330003197E4911E2FE03019F01A93C5DFF3CFB7
:10534000188123960895E7B1EF60E7B9579A3D9A1F
:105350003C9A5F9845984498E881E0938B08E05820
:10536000E0938708E881E054E09388080E94BB2E10
:105370000E946D350E946D350E946D35E0E2EA9322
:1053800062DF88EC90E00197F1F7E8E2EA936FDFE3
:10539000E4E0EA936CDFE5E8EA9369DFE6E0EA93AC
:1053A00066DF83DF21960895B981A881EC918A2F69
:1053B000EA930E946F2DA82FEE2311F01196F6CFDD
:1053C000E894EC91ED3211F4689402C0EB3209F4E8
:1053D000119666277727EC918A2FEA930E94672D12
:1053E000A82FEE2379F0FB01660F771F660F771F5A
:1053F0006E0F7F1F660F771FED91FF27E0536E0F33
:105400007F1FE9CFFB011EF4E095F09531962296BF
:105410000895B981A881EC91AF93EA930E946F2D12
:10542000AF91EE2311F01196F6CFE894EC91ED32A6
:1054300011F4689402C0EB3209F41196002411248F
:1054400088279927EC91AF93EA930E94672DAF913B
:10545000EE2389F0F001BC011BD01AD00E0E1F1EE6
:10546000861F971F15D0ED91FF27E0530E0E1F1ECC
:105470008F1F9F1FE7CFF001BC0146F4E095F09528
:105480006095709588273196681F781F2296089539
:10549000000C111C881F991F0895A991B991E991D9
:1054A000F99130962AF4E095F09531966DE26D937E
:1054B000E89480E197E20DD088EE93E00AD084E68C
:1054C000992707D08AE005D06E2F10D066276C93FD
:1054D00008956627E817F90720F06395E81BF90B94
:1054E000C9F7662311F416F008956894605D6D9312
:1054F000089524971A930A93E0E0FAEC6AE97BE3B3
:105500000E94773200E0AB85AA2352F40E94043453
:105510000E94C7350E9410340E947635EDE2EC936C
:105520000E947D350E946C361E2F103029F4003009
:1055300019F40E947C3431F40E947635E12FE05D4D
:10554000EC9301E00E947D350E94A4360E94103445
:105550000E946A34EAE0F0E060E070E00E946C369D
:105560000E9477320E948534D9F6AE81BF81E0E097
:10557000EC93198108812C9608951A930A93AA81B5
:10558000BB8112960E94C936309729F1AA81BB814E
:1055900014960E94C9368F01309761F00230E0E026
:1055A0001E0780F0F80131978F01AA81BB81149604
:1055B000ED93FC93AA81BB8112960E94792D3197BD
:1055C000AC81A083AA81BB810E94C936FF2312F05F
:1055D0000E94792D06C0AA81BB81EFEFFFEFED930A
:1055E000FC9319810881259608952B970E943F37D7
:1055F00010E0A989BA890E947434EF89F88D319638
:10560000EF8BF88F3197E4912E2FE03009F46AC1C7
:10561000E12FE03039F4253211F411E002C00E948C
:1056200083355FC1E130A9F4253219F40E94833536
:1056300057C112E040E000E02D3211F401E051C109
:105640002B3211F44BE24DC1203211F440E249C13A
:1056500002C0E23039F450E013E0203311F4006866
:1056600040C102C0E33091F4203310F02A3308F037
:1056700007C0AAE05A9F502DE22FE0535E0F31C1C0
:105680002C3619F4026015E02CC103C0E53009F096
:1056900028C1E22FE33649F40E948C35ED89FE895A
:1056A000A481AA930E9492351BC1E33769F40E943A
:1056B0008C35AD89BE8914960E94A1340E94C733EF
:1056C0000E94EF2C1E2F0FC0E03791F40E948C3502
:1056D000AD89BE8914960E94A1340E94C7330E94EE
:1056E000F92C1E2F08600F77E0E0E88B30E06CC0EB
:1056F000E43611F0E93611F4046002C0E537A1F494
:10570000EAE0E88B01FF08C0E0E0FAEC6AE97BE33D
:105710000E9410341AE022C0E0E1F7E260E070E09D
:105720000E94103415E01AC0E83511F4086003C077
:10573000E83709F0D5C0E0E1E88B01FF08C0E0E000
:10574000F0E060E070E10E94103418E007C0E0E093
:10575000F0E160E070E00E94103414E001FF08C046
:105760000E948C35AD89BE8914960E94CD3615C035
:1057700002FF0AC00E948C35AD89BE8914960E9432
:10578000C9360E94203609C00E948C35AD89BE8979
:1057900014960E94C93666277727EC87FD876E87A7
:1057A0007F8702FF11C0AF85AA234AF4EC85FD85EF
:1057B0006E857F850E94C7350E9404354DE24030DA
:1057C00011F01F5F01C00B7F00FD11C0151778F4A9
:1057D00007FF08C002FF04C00B7F242F115001C037
:1057E00020E301C020E20E9483355150EFCF312FDA
:1057F000E889E030B9F43030A1F003FF06C0EE8153
:10580000FF812591EE83FF8305C0AE81BF812D917D
:10581000AE83BF830E948335503009F05150315020
:10582000EACF54C00E9404340E9424340E946C3693
:105830002E2F2A3030F003FF02C0295C01C0295A04
:1058400001C0205D04FD22C0213360F4A885B98524
:105850008A859B85A130E0E0BE07E0E08E07E0E0AE
:105860009E0709F409C0531710F000FF01C013C0D0
:1058700020E207FF0BC020E3006102FF07C00B7F9F
:105880004A930E949235503009F051500E9483355E
:10589000503009F0515031500E9404340E94243499
:1058A0000E94A4360E940435E889A885B9858A85B6
:1058B0009B85FF27662777270E946C360E9410344D
:1058C0000E9404340E942B3709F0ACCF00FF08C0BF
:1058D000503031F05150E0E2EA930E949235F8CF17
:1058E00010E08BCEA989BA890E94C9360E9446373A
:1058F00069960895FF92F82E26970E944137DE019F
:105900001C960E94A6350E94C936309719F4EFEF15
:10591000FFEF27C0DE0116960E94A6358D01DE013D
:105920001C960E94A6350E94A134E0E0E887E98732
:10593000DE011A960E94A6350E94C936FA93EA93B0
:105940001A930A93EDEBFAE2FA93EA93FE013A9680
:10595000FA93EA934ADE9F01AE81BF81E0E0EC93C7
:10596000F9010E9448372A96FF900895998188810D
:10597000009641F0BD81AC81FB81EA8161916D931C
:105980000197E1F7FD81EC8126960895E991F9915F
:10599000A991B991CD016D916623E9F711976191B4
:1059A0006D936623E1F7FC010895E991F991A991BE
:1059B000B991CD016D916623E9F7119705900D928C
:1059C0000020E1F7FC010895E991F991A991B991BD
:1059D000CD0105900D920020E1F7FC010895A991F9
:1059E000B991EE27FF276D91662311F03196FBCF19
:1059F0000895AA27BB27E991F9910590002011F09D
:105A00001196FBCFFD010895002411246991E991BD
:105A1000F991A991B991662349F06A951D90059075
:105A2000011421F40020B9F7EE2708951018E1F3CE
:105A3000E1E008F4E25008957991E991F991A99192
:105A4000B991CD01772351F07A9561916D936623D9
:105A5000C9F7772319F07A956D93FBCFFC01089570
:105A60006991E991F991A991B991CD01662351F01C
:105A70006A9505900D920020C9F7662319F06A9582
:105A80000D92FBCFFC0108956991A991B991EE2780
:105A9000FF277D91671729F031967723D1F7EFEF34
:105AA000FFEF0895AA81BB81CD01E881F9810590BE
:105AB000002011F4FC0109C06D916015C1F301963D
:105AC000DC01662391F7EE27FF2724960895E1E095
:105AD000F991F03310F0FA3308F0EE270895E1E081
