:0A7000000C9463380C9400380C94D3
:10700A0000380C9400380C9400380C9400380C9416
:10701A0000380C9400380C9400380C9400380C9406
:10702A0000380C9400380C9400380C9400380C94F6
:10703A0000380C9400380C9400380C9400380C94E6
:10704A0000380C9400380C9400380C9400380C94D6
:10705A0000380C9400380C9400380C9400384D53C6
:10706A00444F5300330030202020202020202020AD
:10707A0020003800464C4153482020200037610048
:10708A003762003763005B73657474696E67735D9A
:10709A000031326100313262006572723A003A3070
:1070AA0078000600000368700C000603707009007F
:1070BA0012037E700B001B0390700000F894EE27F9
:1070CA00EFBBF1E0F5BFF2E0F5BF8DE0A2E0BB2730
:1070DA00ED938A95E9F780E098E0A0E0B1E0ED93BE
:1070EA000197E9F7ECEAF0E785919591009761F04D
:1070FA00A591B59105901590BF01F00105900D92EB
:10710A000197E1F7FB01F0CFE0E0EEBBEFEFEDBF57
:10711A00E8E0EEBFC0E0D3E00C946B39BA93AA93CF
:10712A00A5D600E010E0AE81BF8146D0E03009F478
:10713A003FC0EFB3E8703E2FFB98F999FECF2FB707
:10714A00F894E1EFFFEFE017F10751F4E0E0F0E027
:10715A00FA93EA93A0E0B0E05BD0A0E0BFEE90D053
:10716A00E7B7E0FDFDCFAE81BF815ED000E010E061
:10717A000038E0E01E0798F41A930A93F80100D544
:10718A000C901124F8013196FBD4EC91FE2FE0E02B
:10719A00D001AE0FBF1F3CD00E5F1F4FE9CFAE81AB
:1071AA00BF8121D0EFB3E32BEFBB2FBFE1E001C0DA
:1071BA00E0E063D628960895E8D48827992799238A
:1071CA005AF0A881B981A030E0E7BE0728F4E88127
:1071DA00F981EF77E03009F003C0E1E00C9443391C
:1071EA00E0E00C944339D1D433D00C94433961E0B4
:1071FA0067BFE895E7B7E0FDFDCFE7B7E6FF07C051
:10720A0061E167BFE895E7B7E0FDFDCFF6CF0895E6
:10721A00BA93AA93E7B7E0FDFDCFEA81FB81088024
:10722A001980E5DF0C949D3CBA93AA93E7B7E0FD79
:10723A00FDCFE881F98163E067BFE895E7B7E0FD34
:10724A00FDCF61E167BFE895E7B7E0FDFDCF16C066
:10725A00BA93AA93E7B7E0FDFDCFE881F98165E02B
:10726A0067BFE895E7B7E0FDFDCF61E167BFE89545
:10727A00E7B7E0FDFDCFE7B7E6FDF7CF2296089521
:10728A00BA93AA93E7B7E0FDFDCFE881F98163E0FD
:10729A0067BFE895E7B7E0FDFDCF61E167BFE89515
:1072AA00E7B7E0FDFDCFE881F98165E067BFE895C2
:1072BA00E7B7E0FDFDCF61E167BFE895E7B7E0FD1D
:1072CA00FDCFE7B7E6FDF7CF0C94C33DE8E1E093C5
:1072DA00C100E6E0E093C200E7E6E093C400E0E222
:1072EA00E0937C00E3E8E0937A00219A2998209AB7
:1072FA00289A00E010E020E030E069D3E09326030A
:10730A00E03011F0A1E085D2299B02C0299801C082
:10731A00299A40D445D411F0A2E07BD2299B02C01D
:10732A00299801C0299A4091ED04E0E0F3E0FA932C
:10733A00EA93AEE2B3E057D2E03051F0473041F081
:10734A00463031F04E3021F04B3011F04C30B1F470
:10735A00E1EFF4E030D433D43BD422D621D411F077
:10736A00A3E057D23ED4E093B705F093B8056093F3
:10737A00B9057093BA052CD43AD401C032D4E0933B
:10738A00B705F093B8056093B9057093BA05EEE6B0
:10739A00F0E737D440903803443021F0463011F0FA
:1073AA004E3069F4E1E4F3E039D43CD4E6E3F3E0A7
:1073BA0035D4DF01CB01E4E086D53F0106C0EFE416
:1073CA00F3E0F9D32FD466247724E091B305F09142
:1073DA00B4056091B5057091B60595D508D4E093CA
:1073EA00BB05F093BC056093BD057093BE05E7D35A
:1073FA00E0E0E0932703299B02C0299801C0299A5B
:10740A0000E010E018D450F5E3D3CAD5C9D311F07F
:10741A00A4E0FFD120E030E02031E0E03E0738F47C
:10742A00E6E0F3E00ED419F42F5F3F4FF5CFE09179
:10743A002703E03051F014D4E15CFC4FEFD316D4AB
:10744A00EB5BFC4FEBD31CD409C02CD4299B02C0A4
:10745A00299801C0299A0F5F1F4FD4CFE0912703C3
:10746A00E03011F4A5E0D5D126D47F936F93FF9332
:10747A00EF932ED436D4AF91BF918F919F9102D5BD
:10748A009ED3299B02C0299801C0299A00E010E0E6
:10749A00D2D3B8F531D411F0A6E0BBD120E030E068
:1074AA002031E0E03E0738F4E2E1F3E0CAD319F410
:1074BA002F5F3F4FF5CFE0912703E030C9F0D0D3DB
:1074CA00E15CFC4FABD3D2D3EB5BFC4FA7D3D8D351
:1074DA00C7D3E95BFC4FFA93EA93A8E0B7D1E093EC
:1074EA00C705F093C8056093C9057093CA0509C01A
:1074FA00D9D3299B02C0299801C0299A0F5F1F4F2F
:10750A00C7CFE0912703E03011F4A0E182D1E0E097
:10751A00E093CB05E093CC05E093CD05E093CE054F
:10752A00F6D3FED319F0F3D303D409F45AC1E7E82A
:10753A00F0E7FA93EA93CCD333D5A4E0E8D2EAE8A9
:10754A00F0E75FD3E4D3E8E0BED451D329D528D3FA
:10755A0011F0A7E05ED1443021F0463011F04E30F0
:10756A0031F4EED3EE0FFF1FF0D3A2E004C0E8D34C
:10757A00C5D4EBD3A4E06AD1E093C305F093C40564
:10758A006093C5057093C605EDE8F0E7FA93EA93B0
:10759A00E2D306D5A4E0BBD28ED37F936F93FF9339
:1075AA00EF9396D39ED3AF91BF918F919F916AD457
:1075BA0006D300E010E03FD308F009C19DD311F0D3
:1075CA00A8E027D1D1D3F1D421F551E05030E9F028
:1075DA0020E030E02A30E0E03E0760F4F901E55DA2
:1075EA00FA4FCBD3A55DBA4FEC91E527EC932F5F09
:1075FA003F4FF0CFEBE1F3E0FA93EA93ABE2B5E069
:10760A00F2D0E03011F45F5FE1CF503011F4A9E01D
:10761A0000D120E030E02030E2E03E07E0F4F9015A
:10762A00E55DFC4FAAD3A55DBC4FEC91E527EC9331
:10763A00ABE2B3E0A20FB31FEC91F0E0A091CF054B
:10764A00B091D005EA0FFB1FE093CF05F093D00568
:10765A002F5F3F4FE0CF88D3E050FE4F6F4F7F4FF1
:10766A00E093CB05F093CC056093CD057093CE05DE
:10767A0099D3A130E8E0BE07E0E08E07E0E09E077C
:10768A00E0F1AA24BB24E4E0F0E0AE16BF06A0F5C0
:10769A00299B02C0299801C0299AE091AB05F09173
:1076AA00AC05FA93EA93F50127D424D4E55DFC4F9F
:1076BA00DF0134DDE03011F4AAE0ABD0E091AB0594
:1076CA00F091AC056091AD057091AE05E058FF4FA1
:1076DA006F4F7F4F70D3F40131974F01082C09285F
:1076EA0039F4299A289AE091D105F091D2050995A1
:1076FA00F50131965F01C7CF44C054D3A03DE7E0FE
:10770A00BE07E0E08E07E0E09E07D8F1B0910905D8
:10771A00A0E0E0910A05F0E0EA2BFB2BEE0FFF1F39
:10772A00E038A0E0FA0711F0ABE073D0E091FB0477
:10773A00F0E0F8D3F2D33FD3E091FC04F0E0F2D3C7
:10774A00DF01CB01E8E0A8D33FD3E091FD04F0E0EC
:10775A00E9D33AD3F091FE04E0E04F01E091FF044F
:10776A00F0E08E2A9F2AF0910005E0E06F01E09197
:10777A000105F0E0CE2ADF2AE0E0E093CF05E093AE
:10778A00D0052CD3CDD219F029D3D2D2E1F42FD3FC
:10779A0009D30FD4E0F4E42DF0E031970E171F0758
:1077AA0090F0EBE9F0E7FA93EA93DED2F9D3A4E09A
:1077BA00AED1EFE9F0E7FA93EA9319D3F1D3A4E053
:1077CA00A6D1ACE026D06ED20F5F1F4FF4CEC3D243
:1077DA00E093BF05F093C0056093C1057093C2059D
:1077EA009FCEFFCFFFCFBA93AA93AA81BB81EC9118
:1077FA00E03069F00D90AA83BB83A881B981ED912D
:10780A00A883B983E01511F0E0E092C0EECFE1E081
:10781A008FC0AA931A93E3EAF0E7FA93EA93EB810B
:10782A00F0E080D3BDD3A1E072D14198299A10E04B
:10783A00E9811E1750F4289AACE2B1E0BFD3289828
:10784A00ACE2B1E0BBD31F5FF3CFFFCFAA9324977B
:10785A00E0E0E883E983EA83EB83AC81A130B0F00E
:10786A00CFD2E8E019D3CED2EC81F0E03197AD81E6
:10787A00BE81AE0FBF1FEC91C3D2FF2766277727C1
:10788A0006D3C0D2EC81E150EC83E7CF7AD33EC075
:10789A00E4B1EC62E4B92A9A24982C9AE3E5ECBDA7
:1078AA000895AA93E881EEBDEDB5E078E9F3EEB567
:1078BA002CC11A93EDDF2A9AA1E0B0E07FD310E041
:1078CA001A3020F4AFEFEDDF1F5FFACF2A9AAFEF3D
:1078DA00E8DF7BC0AA931A93EE81E06495D2E8E1CF
:1078EA00F2D2AE2FDEDFEA81FB816C817D8110D37B
:1078FA008BD2E8E0E8D2AE2FD4DFAA81D2DFE981C9
:10790A00E160AE2FCEDF04D01E2F1881279608958E
:10791A00ADD220E030E0AFEFC4DF1E2FE07831F0C7
:10792A002F5F3F4F2030E2E03E07A8F3E12FA5D2B8
:10793A002496089570D2E0E0EA932CD1A4E941C0DC
:10794A0024D1AC91A23008F019C1AFEFAADFA88107
:10795A00B9811196EC93AFEFA4DFA881B981129691
:10796A00EC93AFEF9EDFA881B9811396EC93AFEF4A
:10797A0098DFA881B9811496EC9300C151D2E8E04E
:10798A00EA93EAEAF1E060E070E00AD3A6E84ED2B0
:10799A00F5C046D2EAE3EA93FDD0A0E047D2EEC0B2
:1079AA003AD2E7E3EA93E0E0F0E060E070E007C093
:1079BA0032D2E9E2EA93E0E0F0E060E070E4F0D28B
:1079CA00A0E088DF1E2F3CD2E12F19910895259758
:1079DA001A9310E06EDFAEDFE983E13031F01F5F0A
:1079EA00153610F0E1E02DC0F6CFDE011196C6DFA4
:1079FA00A981A13011F0E1E024C0AD81AA3A11F0C9
:107A0A00E1E01FC010E0153610F0E1E01AC0C8DF4F
:107A1A00E983A981A23010F4CBDFE983E981E03060
:107A2A0019F0AAE0B0E0CAD21F5FE981E03059F745
:107A3A00DE011196AEDFEA81E07811F4E1E001C0DF
:107A4A00E0E0188126960895BA93AA930DD2EA85A2
:107A5A00FB856C857D85A0E0B2E080E090E067D28E
:107A6A00EA87FB876C877D87AE81BF81EFEFEC9356
:107A7A00AFEF17DF2A98E1E1EA93EB85FC856D8584
:107A8A007E858ED2A0E026DF1E2F1F3F69F140E0DF
:107A9A0050E0FA013196AF01EB31A6E0FA0729F07E
:107AAA00AFEFFFDE0E2FEF3FA1F30E3FD1F420E040
:107ABA0030E02030E2E03E0780F4E885F98531962F
:107ACA00E887F9873197FF93EF93AFEFEADEAF913B
:107ADA00BF91EC932F5F3F4FECCFAFEFE2DEAFEFFA
:107AEA00E0DEAE81BF810C93ABD10E3F11F4E12FE2
:107AFA0001C0E1E0C0D12E960895AA93E091C0009A
:107B0A00E072E1F3E881E093C60021960895AA9312
:107B1A001A93AE81BF8122D0A8EAB0E71FD0A9810B
:107B2A00A130B8F092D1EC5F96D118F4A12FA05DE4
:107B3A0002C0A12FA95CE1DF88D18DD118F4A12F51
:107B4A00A05D02C0A12FA95CD8DFE981E150E983D9
:107B5A00E6CFADE0D2DF188128960895BA93AA93AA
:107B6A00E881F981E491E03049F0E881F9813196C0
:107B7A00E883F9833197A491C0DFF2CF2296089562
:107B8A00AE81BF81AE0FBF1F0895BA93AA93A88191
:107B9A00B9810895E0E0F0E060E070E001D2089574
:107BAA00EBE2F3E0FA93EA93A5E0B0E04DDFE0936D
:107BBA002603E0300895FA93EA93A4E047CEE093CF
:107BCA00AF05F093B0056093B1057093B2050895BF
:107BDA00E091AF05F091B0056091B1057091B205E1
:107BEA000895E9E3F3E0FA93EA93A2E02FCEA09195
:107BFA00B705B091B8058091B9059091BA0542D1FF
:107C0A000895FA93EA93E091B705F091B805609167
:107C1A00B9057091BA05C4D1A4E079CFFA93EA9371
:107C2A00A2E014CEE093B305F093B4056093B505D2
:107C3A007093B6050895E42DD801F0E0AE17BF079A
:107C4A000895FA93EA93A0E2A29FF001A39FF00D90
:107C5A00E55DFC4FDF01C7DDE0932703E0300895BF
:107C6A00A0E2A29FF001A39FF00D089556D1E093E0
:107C7A00BF05F093C0056093C1057093C205F0CFAC
:107C8A00A091BF05B091C0058091C1059091C20530
:107C9A00FED0E093BF05F093C0056093C1057093D1
:107CAA00C2050895AFEAB5E062D1EF5FFF4F6F4FAB
:107CBA007F4F62D10895F301A091BB05B091BC0535
:107CCA008091BD059091BE0566277727DBD0089580
:107CDA00E091BF05F091C0056091C1057091C205A0
:107CEA000895E250F04060407040DF01CB01E42D7E
:107CFA00F0E018D11CD10895ECE7F0E7FA93EA9383
:107D0A0067DF4ED1A4E003DF63DF4AD149CFA091F8
:107D1A00BF05B091C0058091C1059091C205089533
:107D2A00AF3FEFEFBE07EFEF8E07EFE09E07089534
:107D3A00AF3FEFEFBE07E0E08E07E0E09E07089551
:107D4A00E091BF05F091C0050895F170E55DFC4F23
:107D5A00FA93EA930895E091C305F091C4056091FE
:107D6A00C5057091C6050895E091CB05F091CC0543
:107D7A006091CD057091CE050895BF01ABE2B3E0E5
:107D8A00A20FB31FEC91EE0F0E2EABE2B3E0A20FDF
:107D9A00B31FEC91EE1FE0E0EE1FE029DB01EC934C
:107DAA00D9010895A091CB05B091CC058091CD055C
:107DBA009091CE050895E093AB05F093AC056093DE
:107DCA00AD057093AE050895A091AB05B091AC05D1
:107DDA008091AD059091AE055AD0EDCFA091C30523
:107DEA00B091C4058091C5059091C6050895E091AA
:107DFA00C705F091C8056091C9057091CA05089533
:107E0A00C5D00895C8D00895AE2F4BDDAA81BB8195
:107E1A008C819D8108951A93AFEF43DD2A980895C6
:107E2A00BA93AA93AFEF3DDD2A98089553DDA8814E
:107E3A00B981EC9385DDAFEF34DD2A9AAFEF31CD0E
:107E4A00AFEF2FDD2A9AAFEF2CCDE981E150EE0F8B
:107E5A00EE0FEE0F0895AA81BB818C819D8133D0EC
:107E6A00EF701E2F1A3008955A934A933A932A9321
:107E7A001A930A9308955D814C813B812A81198165
:107E8A0008810895EA0FFB1F681F791F0895EA2BDE
:107E9A00FB2B682B792B0895EE230E2EE8E01E2E7D
:107EAA00FD01BC0179F0011438F0762F6F2FFE2FF7
:107EBA00E0E00118C1F70895EE0FFF1F661F771F54
:107ECA000A94D1F70895EE230E2EE8E01E2EFD0146
:107EDA00BC0179F0011438F0EF2FF62F672F70E00C
:107EEA000118C1F7089576956795F795E7950A946D
:107EFA00D1F70895EE0FFF1FEE0FFF1FEE0FFF1FC2
:107F0A00EE0FFF1F0895EE0FFF1F661F771F0895DC
:107F1A00E62FF72F60E070E008956E2F7F2FE0E0E4
:107F2A00F0E008956F2F660F660B762F08957A9FFB
:107F3A00702D6B9F700DF89F700DE99F700D6A9FF1
:107F4A00602D710DFB9F600D711DE89F600D711D05
:107F5A008827FA9FF02D610D781FEB9FF00D611DA8
:107F6A00781FEA9FE02DF10D681F781F0895ED91A3
:107F7A00FD916D917D9108957E936E93FE93EE939C
:107F8A000895E881F9816A817B810895A881B98180
:107F9A008A819B810895E883F9836A837B830895A4
:107FAA007A936A93FA93EA930895309760407040FF
:107FBA000895AE17BF07860797070895109639F0F8
:107FCA00A89580ED97E00197F1F71197C9F7089501
:00000001FF
