:100000000C9460000C9400000C9400000C94000010
:100010000C9400000C9400000C9400000C94000060
:100020000C9400000C9400000C9400000C94000050
:100030000C9400000C9400000C9400000C94000040
:100040000C9400000C9400000C9400000C94000030
:100050000C9400000C9400000C9400000C94000020
:100060000C9400000C9400000C9400000C94000010
:100070000C9400000C9400000C9400000C94000000
:100080000C9400000C9400000C940000E0F9B4F90A
:10009000302020202020202020202000464C4153CA
:1000A000482020200000040004008C0000000C0008
:1000B00000059000000009000C059C0000000000F5
:1000C000F894EE27ECBBF1E0F5BFE5BFE0936C00E0
:1000D0008DE0A2E0BB27ED938A95E9F780E090E1FF
:1000E000A0E0B1E0ED930197E9F7E6EAF0E0D0E0B7
:1000F000DBBF87919791009781F0A791B791079007
:100100001790C791D791BF01DBB7F001CBBF079024
:100110000D920197E1F7FB01EBCFEFEFEDBFE0E1CF
:10012000EEBFC0E0D5E00C94E5010E94CC060E9431
:1001300036056BBFE6910C944304BA93AA931A93C5
:100140000A93EC81FD816E817F81E03001F500E052
:1001500010E00030E1E01E07B8F4F801AA81BB818D
:10016000EA0FFB1FFF93EF93F801AC81BD818E81F5
:100170009F81662777270E945206D7DFAF91BF91F4
:10018000EC930F5F1F4FE5CFE1E00C942D04E0E00E
:100190000C942D04BA93AA930E94DC06AE81BF8111
:1001A0008885998558D0E03009F450C0ECB3E870E8
:1001B0003E2FE398E199FECF2FB7F894E1EFFFEFE0
:1001C000E017F10791F40E943905A0E0B0E00E9429
:1001D000AB010E9440050E94BB010E9440050E94A5
:1001E000C9010E9440050E94D701E0916800E170BA
:1001F000E1F700E010E00030E1E01E07E0F4F80174
:10020000662777270E94C706F801A885B985AE0F33
:10021000BF1F0C9011243196A885B985AE0FBF1F62
:10022000EC91FE2FE0E0D001AE0FBF1F0E94AB01AA
:100230000E5F1F4FE0CFAE81BF818885998525D0A5
:10024000ECB3E32BECBB2FBFE1E001C0E0E00E9488
:10025000E3062A9608950E9445050E94D10670F093
:100260000E944A05A030E0EFBE07E1E08E07E0E023
:100270009E0720F40E943605E03009F003C0E1E05B
:100280000C944304E0E00C9443040E9445050E9452
:10029000D7010C94430463E060936800E895E09113
:1002A0006800E170E1F765E060936800E895E0912F
:1002B0006800E170E1F7E0916800E07449F061E105
:1002C00060936800E895E0916800E170E1F7F3CF92
:1002D000089565E060936800E895E0916800E1703A
:1002E000E1F7E0916800E07449F061E16093680033
:1002F000E895E0916800E170E1F7F3CF089563E0DD
:1003000060936800E895E0916800E170E1F7E091A2
:100310006800E07449F061E160936800E895E0915D
:100320006800E170E1F7F3CF089561E06093680041
:10033000E895E0916800E170E1F7E0916800E07411
:1003400049F061E160936800E895E0916800E17030
:10035000E1F7F3CF0895BA93AA93E0916800E170B2
:10036000E1F7EA81FB816C816BBF088019800E94F4
:1003700095010C94D7040E94CC06E0916800E170CE
:10038000E1F7E881F9816A816BBF0E9469010C94F1
:1003900043040E94CC06E0916800E170E1F7E88137
:1003A000F9816A816BBF0E947F010C9443040E9413
:1003B000CC06E0916800E170E1F7E881F9816A819B
:1003C0006BBF0E944B010C944304EFEFE4BBE5BB11
:1003D0000E944D05FDCF80902705EEE3F5E00E94D9
:1003E0006205E0932208F093230860932408709339
:1003F00025080E946F05E05EFF4F6F4F7F4FE0932F
:100400002608F09327086093280870932908E09144
:100410002208F091230860912408709125080E9419
:100420007406A0912608B091270880912808909121
:1004300029080E944D06E0932A08F0932B08609348
:100440002C0870932D080E946605E0E0E0931605E5
:1004500000E010E00E947B0510F50E94810509F084
:1004600094D120E030E02031E0E03E0740F4E0E0CD
:10047000F5E00E94830519F42F5F3F4FF4CFE09120
:100480001605E03039F00E9492050E9498050E94FE
:10049000A90505C00E94C2050F5F1F4FDBCF0E9458
:1004A000CD0529D368F52DD309F06FD120E030E0D8
:1004B0002031E0E03E0738F4ECE0F5E024D319F415
:1004C0002F5F3F4FF5CFE0911605E030A1F02AD322
:1004D0002FD30E94A90526D3EA5CFA4FFA93EA9338
:1004E000A8E055D1E0933608F093370860933808B8
:1004F0007093390805C00E94C2050F5F1F4FD1CF0E
:10050000E0E0E0933A08E0933B08E0933C08E09396
:100510003D08A0912E08B0912F088091300890914D
:1005200031080E94EF0509F418C1E0912608F09106
:1005300027086091280870912908DAD209F025D19E
:10054000A0912E08B0912F08E4E00E94A806E65E74
:10055000FA4FB8D2E0933208F0933308609334082E
:10056000709335081AD3C7D208F0E6C0CAD209F092
:100570000CD120E030E02030E2E03E0730F5F90118
:10058000E65EFA4FBF0133D3EE0F0E2E30D3EE1FCF
:10059000E0E0EE1FE029DB01EC93F901E65EFA4FA3
:1005A0000F01A081E8E8EA27D001EC9320D3F0E026
:1005B000A0914008B0914108EA0FFB1FE09340086A
:1005C000F09341082F5F3F4FD6CFE0913A08F0916A
:1005D0003B0860913C0870913D08E050FE4F6F4F22
:1005E0007F4FE0933A08F0933B0860933C08709388
:1005F0003D0803D3A130E8E0BE07E0E08E07E0E06D
:100600009E0740F1BB24E2E0BE1618F5FFD207D3E7
:1006100011F443D2FECFFAD2E050FF4F6F4F7F4F1D
:1006200006D3F60131976F010C2C0D2881F4E0916F
:100630004208F09143080995AD98A4EFB1E00E94FB
:100640004306AD9AA4EFB1E00E944306F5CFB39400
:10065000DACF44C0D2D2A03DE7E0BE07E0E08E078B
:10066000E0E09E07D8F1E091EA06F0E00E94830600
:100670000E947E06DCD2E091EB06F0E00E94830649
:10068000DF01CB01E8E00E945C06DAD2E091EC06E3
:10069000F0E00E948306D4D2F091ED06E0E06F0115
:1006A000E091EE06F0E0CE2ADF2AF091EF06E0E0DE
:1006B000E0933E08F0933F08E091F006F0E0A0914F
:1006C0003E08B0913F08EA2BFB2BE0933E08F093E5
:1006D0003F08E0E0E0934008E0934108A091320831
:1006E000B0913308809134089091350878D201F5A3
:1006F000E0913608F0913708609138087091390818
:100700007CD20E94D506C0F4E0E0FFEE61E070E02C
:1007100086D209F0AD98E0E0FFEE61E070E00E9463
:10072000C706AAE1B7E00E949D00E03009F0AE984C
:1007300029D20F5F1F4F17CFE0913208F091330895
:100740006091340870913508E0932E08F0932F08DB
:100750006093300870933108DCCEFFCFFFCFBA939F
:10076000AA93AA81BB81EC91E03069F00D90AA8335
:10077000BB83A881B981ED91A883B983E01511F0FD
:10078000E0E081C0EECFE1E07EC0A998FFCFAA9360
:100790002497E0E0E883E983EA83EB83AC81A1302E
:1007A000D0F078D1E8E00E945C060E94C206EC819D
:1007B000F0E03197AD81BE81AE0FBF1FEC916AD1E1
:1007C000FF27662777270E9457060E94C206EC8102
:1007D000E150EC83E3CF4AD127960895E7E0E7BBE9
:1007E000C09ABB98C398E0E5EDB90895AA93E88153
:1007F000EFB9779BFECFEFB1219608951A93EEDF04
:10080000C09AA1E0B0E00E94430610E01A3020F444
:10081000AFEFECDF1F5FFACF1ED28BC0AA931A9303
:100820000A93EF81E0641AD2E8E10E946806AE2FD5
:10083000DDDFEB81FC816D817E810E9479060ED225
:10084000E8E00E946806AE2FD1DFAB81CFDFEA81FE
:10085000E160AE2FCBDF05D01E2F198108812896CD
:1008600008950E94DC0620E030E0AFEFBFDF1E2FCE
:10087000E07831F02F5F3F4F2030E2E03E07A8F3F1
:10088000E12F0E94E30624960895EFD1E0E0EA9379
:10089000F0D0A4E94AC0BA93AA93A881B981AC91D7
:1008A000A23078F5AFEFA2DFA881B9811196EC9361
:1008B000AFEF9CDFA881B9811296EC93AFEF96DF82
:1008C000A881B9811396EC93AFEF90DFA881B9812D
:1008D0001496EC9316C0CED1E8E0EA93EAEAF1E090
:1008E00060E070E00E94C706A6E805C0C3D1EAE355
:1008F000EA93BFD0A0E092DFA881B981EC93CBDF6F
:10090000BFD122960895B1D1E7E3EA93E0E0F0E0A9
:1009100060E070E007C0A9D1E9E2EA93E0E0F0E02E
:1009200060E070E40E94C706A0E078DF1E2FA8D127
:10093000E12F1991089525971A9310E05FDFA5DF45
:10094000E983E13031F01F5F153610F0E1E02EC091
:10095000F6CFDE011196BFDFA981A13011F0E1E0F1
:1009600025C0AD81AA3A11F0E1E020C010E01536B3
:1009700010F0E1E01BC0C7DFE983A981A23010F4C9
:10098000CADFE983E981E03021F0AAE0B0E00E940B
:1009900043061F5FE981E03051F7DE011196A6DFC3
:1009A000EA81E07811F4E1E001C0E0E018812696E8
:1009B0000895BA93AA930E94DA06EA85FB856C85AE
:1009C0007D85A0E0B2E080E090E00E948806EA87A2
:1009D000FB876C877D87AE81BF81EFEFEC93AFEF34
:1009E00005DFC098E1E1EA93EB85FC856D857E85A6
:1009F0000E94C706A0E012DF1E2F1F3F69F140E0F2
:100A000050E0FA013196AF01EB31A6E0FA0729F088
:100A1000AFEFECDE0E2FEF3FA1F30E3FD1F420E05D
:100A200030E02030E2E03E0780F4E885F985319639
:100A3000E887F9873197FF93EF93AFEFD7DEAF9158
:100A4000BF91EC932F5F3F4FECCFAFEFCFDEAFEF17
:100A5000CDDEAE81BF810C9313D10E3F11F4E12F97
:100A600001C0E1E00E94E1062E9608950E94B806BA
:100A70000895E0E0F0E060E070E00E94C7060895AD
:100A8000A0E0BFEE81E090E008950E94CC060E94B5
:100A9000BD0608950E94BD060895AE98A4EFB1E08A
:100AA0000E944306AE9AA4EFB1E00C944306EAE13B
:100AB000F5E0FA93EA93A9E0B0E07BDFE093150557
:100AC000E0300895FA93EA93A4E061CEE0931E0823
:100AD000F0931F0860932008709321080895E09117
:100AE0001E08F0911F086091200870912108089558
:100AF0000E94C706DCCFE82DD801F0E0AE17BF0793
:100B00000895EDDFF5CFFA93EA93A0E2A29FF001FA
:100B1000A39FF00DE65EFA4FDF0121DEE09316059C
:100B2000E0300895A0E2A29FF001A39FF00D089588
:100B3000E25DFA4FE081F0E00E9483060E947E06AB
:100B4000E0932E08F0932F086093300870933108DB
:100B5000E9CFEC5CFA4FE081F0E00E948306A091BF
:100B60002E08B0912F0880913008909131080E9492
:100B70005706E0932E08F0932F0860933008709387
:100B800031080895AEE1B8E00E94AE06EF5FFF4F76
:100B90006F4F7F4F0E94B3060895E0912E08F091A9
:100BA0002F086091300870913108E250F0406040A9
:100BB0007040DF01CB01E82DF0E00E9483060E9427
:100BC0008806A0912A08B0912B0880912C0890915A
:100BD0002D080E944D067ADF00E010E00895AF3F37
:100BE000EFEFBE07EFEF8E07EFE09E070895AAE153
:100BF000B5E0A20FB31FEC910895A0913A08B0910F
:100C00003B0880913C0890913D080895E0911A08B6
:100C1000F0911B0860911C0870911D0808950E94B6
:100C2000C706AAE1B5E00E94CA00E0300895E0934B
:100C30001A08F0931B0860931C0870931D08089510
:100C4000A0911A08B0911B0880911C0890911D0872
:100C50000E945706ECCFC09AAFEFC8CDAE2FC6DDCD
:100C6000AB81BC818D819E8108951A93AFEFBEDD6B
:100C7000C0980895BA93AA93AFEFB8DDC0980895CD
:100C8000AFEFB4DDE8CF109639F080ED97E0019733
:100C9000F1F7A8951197C9F70895EA0FFB1F681F90
:100CA000791F0895AE0FBF1F861F971F0895EA2B67
:100CB000FB2B682B792B0895EE230E2EFD01BC0132
:100CC00031F0EE0FFF1F661F771F0A94D1F70895CA
:100CD000EE230E2EFD01BC0131F076956795F79558
:100CE000E7950A94D1F70895EE0FFF1F661F771F4F
:100CF0000895E62FF72F60E070E008956E2F7F2FA4
:100D0000E0E0F0E008956F2F660F660B762F0895F0
:100D10007A9F702D6B9F700DF89F700DE99F700D7D
:100D20006A9F602D710DFB9F600D711DE89F600D26
:100D3000711D8827FA9FF02D610D781FEB9FF00D34
:100D4000611D781FEA9FE02DF10D681F781F08953F
:100D50006E2F6A9FF0016B9FF00D0895ED91FD914C
:100D60006D917D9108957E936E93FE93EE93089519
:100D7000E881F9816A817B810895A881B9818A819E
:100D80009B810895E883F9836A837B8308957A932E
:100D90006A93FA93EA9308959A938A93BA93AA93DB
:100DA00008951097804090400895AE17BF078607BA
:100DB000970708955A934A933A932A931A930A935A
:100DC00008955D814C813B812A81198108810895B4
:00000001FF
