:0C0000000C9446000C9400000C940000CE
:10000C000C9400000C9400000C9400000C94000064
:10001C000C9400000C9400000C9400000C94000054
:10002C000C9400000C9400000C9400000C94000044
:10003C000C9400000C9400000C9400000C94000034
:10004C000C9400000C9400000C9400000C94000024
:10005C000C9400000C9400000C9400003020202024
:10006C002020202020202000464C415348202020D6
:10007C0000000C000003680009000C037400000071
:10008C00F894EE27EFBBF1E0F5BFE5BF8DE0A2E001
:10009C00BB27ED938A95E9F780E098E0A0E0B1E00A
:1000AC00ED930197E9F7EEE7F0E0859195910097D4
:1000BC0061F0A591B59105901590BF01F0010590E7
:1000CC000D920197E1F7FB01F0CFE0E0EEBBEFEF13
:1000DC00EDBFE8E0EEBFC0E0D3E00C947E010E94DF
:1000EC004A06E881F981E4910C94D503BA93AA935A
:1000FC001A930A93EC81FD816E817F81EF77E0305A
:10010C00F9F400E010E00038E0E01E07B8F4F80164
:10011C00AA81BB81EA0FFB1FFF93EF93F801AC811F
:10012C00BD818E819F81662777270E94D005D7DFFE
:10013C00AF91BF91EC930F5F1F4FE5CFE1E001C092
:10014C00E0E01981088128960895BA93AA930E9439
:10015C005A0600E010E0AE81BF81888599854ED0AB
:10016C00E03009F446C0EFB3E8703E2FFB98F999E4
:10017C00FECF2FB7F894E1EFFFEFE017F10761F432
:10018C00E0E0F0E0FA93EA93A0E0B0E00E945601C0
:10019C00A0E0BFEE0E946301E7B7E0FDFDCF00E0F9
:1001AC0010E00038E0E01E07C8F41A930A93F80137
:1001BC00AE81BF81AE0FBF1F0C9011243196AE8162
:1001CC00BF81AE0FBF1FEC91FE2FE0E0D001AE0F50
:1001DC00BF1F0E9456010E5F1F4FE3CFAE81BF8140
:1001EC008885998528D0EFB3E32BEFBB2FBFE1E0D7
:1001FC0001C0E0E00E9461062A9608950E944A061A
:10020C000E94C8040E944F0678F00E94C804A030D7
:10021C00E0EFBE07E1E08E07E0E09E0728F40E94C5
:10022C003606EF77E03009F003C0E1E00C94D5031B
:10023C00E0E00C94D5030E944A06A881B9810E9483
:10024C0063010C94D50363E060933700E895E7B73E
:10025C00E0FDFDCF65E060933700E895E7B7E0FD82
:10026C00FDCFE7B7E6FF08C061E160933700E89582
:10027C00E7B7E0FDFDCFF5CF089561E0609337005F
:10028C00E895E7B7E0FDFDCFE7B7E6FF08C061E111
:10029C0060933700E895E7B7E0FDFDCFF5CF089503
:1002AC00BA93AA93E7B7E0FDFDCFEA81FB81088002
:1002BC0019800E9443010C94D503BA93AA93E7B713
:1002CC00E0FDFDCFE881F9810E9429010C94130413
:1002DC00AA93E091C000E072E1F3E881E093C600DC
:1002EC0019C2E091C000E078E1F3E091C6000895F6
:1002FC00E0E0E093C000E8E1E093C100E6E0E093C9
:10030C00C200E0E0E093C500E7E6E093C400E9DF5B
:10031C00E33719F4A1E6DCDF06C0AEE2D9DFAAEFC1
:10032C00B0E00E94C105F3CF40902703EEE3F3E069
:10033C000E94DD04E093A205F093A3056093A4054D
:10034C007093A5050E94EA04E05EFF4F6F4F7F4F4C
:10035C00E093A605F093A7056093A8057093A905F3
:10036C00E091A205F091A3056091A4057091A505FB
:10037C000E94F205A091A605B091A7058091A80551
:10038C009091A9050E94CB05E093AA05F093AB05CB
:10039C006093AC057093AD050ED3E0E0E0931603CB
:1003AC0000E010E01DD3E8F421D309F07BD120E06C
:1003BC0030E02031E0E03E0738F4E0E0F3E018D321
:1003CC0019F42F5F3F4FF5CFE0911603E03021F089
:1003DC001ED323D333D305C00E943D050F5F1F4F9F
:1003EC00E1CF0E944805FCD258F500D309F05AD150
:1003FC0020E030E02031E0E03E0738F4ECE0F3E0C0
:10040C00F7D219F42F5F3F4FF5CFE0911603E03090
:10041C0099F0FDD202D312D3FAD2EA5CFC4FFA93D4
:10042C00EA93A8E041D1E093B605F093B705609349
:10043C00B8057093B90504C01AD30F5F1F4FD3CF03
:10044C00E0E0E093BA05E093BB05E093BC05E093D4
:10045C00BD05A091AE05B091AF058091B00590910E
:10046C00B10532D309F406C1E091A605F091A705B8
:10047C006091A8057091A905B0D209F013D1A09193
:10048C00AE05B091AF05E4E00E942606E65EFC4F97
:10049C008ED2E093B205F093B3056093B4057093DC
:1004AC00B505F0D29DD208F0D4C0A0D209F0FAD094
:1004BC0020E030E02030E2E03E07F0F4F901E65EA7
:1004CC00FC4FBF0109D3EE0F0E2E06D3EE1FE0E05A
:1004DC00EE1FE029DB01EC93F901E65EFC4F0F0106
:1004EC00A081E8E8EA27D001EC93F6D2F0E0CE0E3A
:1004FC00DF1E2F5F3F4FDECFE091BA05F091BB05B9
:10050C006091BC057091BD05E050FE4F6F4F7F4F61
:10051C00E093BA05F093BB056093BC057093BD05E1
:10052C00E1D2A130E8E0BE07E0E08E07E0E09E07F4
:10053C0080F17724E4E07E1658F5DDD20E94450662
:10054C00A72DE0E8EA9FF001E65EFC4FDF010E9478
:10055C00AB00E03029F44698D7D2469AD5D2FBCFDF
:10056C00CAD2E058FF4F6F4F7F4FD2D2F401319770
:10057C004F01082C092851F4E091BE05F091BF05FC
:10058C0009954598C1D2459ABFD2FBCF7394D2CF6F
:10059C0036C0A8D2A03DE7E0BE07E0E08E07E0E061
:1005AC009E0768F1E091EA04F0E00E9401060E94C7
:1005BC00FC05AED2E091EB04F0E00E940106DF01F5
:1005CC00CB01E8E00E94DA05ACD2E091EC04F0E05B
:1005DC000E940106A6D2F091ED04E0E04F01E091FB
:1005EC00EE04F0E08E2A9F2AF091EF04E0E05F0128
:1005FC00E091F004F0E0AE2ABF2ACC24DD24A091D7
:10060C00B205B091B3058091B4059091B5055CD25B
:10061C00E1F4E091B605F091B7056091B8057091E1
:10062C00B90560D20E945306A0F486D2AAE1B3E0C9
:10063C000E94AB00E03009F045987ED2AAE1B5E00B
:10064C000E947C00E03009F0469811D20F5F1F4FDA
:10065C0029CFE091B205F091B3056091B40570918A
:10066C00B505E093AE05F093AF056093B0057093BC
:10067C00B105EFCEFFCFFFCFBA93AA93AA81BB816E
:10068C00EC91E03069F00D90AA83BB83A881B9810D
:10069C00ED91A883B983E01511F0E0E080C0EECFB6
:1006AC00E1E07DC04198FFCFAA932497E0E0E88376
:1006BC00E983EA83EB83AC81A130D0F063D1E8E02D
:1006CC000E94DA050E944006EC81F0E03197AD8182
:1006DC00BE81AE0FBF1FEC9155D1FF276627772740
:1006EC000E94D5050E944006EC81E150EC83E3CFDB
:1006FC000E94360640C0E7E0E4B9289A23982B986C
:10070C00E0E5ECBD0895AA93E881EEBDEDB5E07887
:10071C00E9F3EEB5219608951A93EDDF289AA1E03E
:10072C00B0E00E94C10510E01A3020F4AFEFEBDF0F
:10073C001F5FFACF08D289C0AA931A93EE81E064A6
:10074C0005D2E8E10E94E605AE2FDDDFEA81FB81F0
:10075C006C817D810E94F705F9D1E8E00E94E605E5
:10076C00AE2FD1DFAA81CFDFE981E160AE2FCBDFE5
:10077C0004D01E2F1881279608950E945A0620E057
:10078C0030E0AFEFC0DF1E2FE07831F02F5F3F4F2E
:10079C002030E2E03E07A8F3E12F0E946106249688
:1007AC000895DBD1E0E0EA93F0D0A4E94AC0BA9313
:1007BC00AA93A881B981AC91A23078F5AFEFA3DFF1
:1007CC00A881B9811196EC93AFEF9DDFA881B98117
:1007DC001296EC93AFEF97DFA881B9811396EC9347
:1007EC00AFEF91DFA881B9811496EC9316C0BAD102
:1007FC00E8E0EA93EAEAF1E060E070E00E94450686
:10080C00A6E805C0AFD1EAE3EA93BFD0A0E094DF3D
:10081C00A881B981EC93CBDFABD1229608959DD101
:10082C00E7E3EA93E0E0F0E060E070E007C095D128
:10083C00E9E2EA93E0E0F0E060E070E40E94450653
:10084C00A0E07ADF1E2F94D1E12F199108952597FE
:10085C001A9310E061DFA5DFE983E13031F01F5F0F
:10086C00153610F0E1E02EC0F6CFDE011196BFDF99
:10087C00A981A13011F0E1E025C0AD81AA3A11F0B7
:10088C00E1E020C010E0153610F0E1E01BC0C7DF3E
:10089C00E983A981A23010F4CADFE983E981E03051
:1008AC0021F0AAE0B0E00E94C1051F5FE981E030B1
:1008BC0051F7DE011196A6DFEA81E07811F4E1E050
:1008CC0001C0E0E0188126960895BA93AA930E947D
:1008DC005806EA85FB856C857D85A0E0B2E080E05A
:1008EC0090E00E940606EA87FB876C877D87AE81C5
:1008FC00BF81EFEFEC93AFEF06DF2898E1E1EA93CD
:10090C00EB85FC856D857E850E944506A0E014DF95
:10091C001E2F1F3F69F140E050E0FA013196AF0104
:10092C00EB31A6E0FA0729F0AFEFEDDE0E2FEF3F2B
:10093C00A1F30E3FD1F420E030E02030E2E03E079E
:10094C0080F4E885F9853196E887F9873197FF932C
:10095C00EF93AFEFD8DEAF91BF91EC932F5F3F4F8A
:10096C00ECCFAFEFD0DEAFEFCEDEAE81BF810C931C
:10097C00FFD00E3F11F4E12F01C0E1E00E945F06B1
:10098C002E9608950E943B060895E0E0F0E060E0AA
:10099C0070E00E9445060895EAE1F3E0FA93EA93C9
:1009AC00A5E0B0E092DFE0931503E0300895FA93F0
:1009BC00EA93A4E079CEE0939E05F0939F056093B3
:1009CC00A0057093A1050895E0919E05F0919F05F7
:1009DC006091A0057091A10508950E944506DCCF99
:1009EC00E42DD801F0E0AE17BF070895EDDFF5CF89
:1009FC00FA93EA93A0E2A29FF001A39FF00DE65EAA
:100A0C00FC4FDF0139DEE0931603E0300895A0E2DD
:100A1C00A29FF001A39FF00D0895E25DFC4FE081D1
:100A2C00F0E00E9401060E94FC05E093AE05F093F5
:100A3C00AF056093B0057093B105E9CFEC5CFC4F4A
:100A4C00E081F0E00E940106A091AE05B091AF05E7
:100A5C008091B0059091B1050E94D505E093AE054B
:100A6C00F093AF056093B0057093B1050895AEE9AE
:100A7C00B5E00E942C06EF5FFF4F6F4F7F4F0E9437
:100A8C0031060895E091AE05F091AF056091B00587
:100A9C007091B105E250F04060407040DF01CB0135
:100AAC00E42DF0E00E9401060E940606A091AA0522
:100ABC00B091AB058091AC059091AD050E94CB0532
:100ACC007ADF00E010E00895AF3FEFEFBE07EFEFE5
:100ADC008E07EFE09E070895AAE1B3E0A20FB31FC3
:100AEC00EC910895A091BA05B091BB058091BC051D
:100AFC009091BD050895E0919A05F0919B05609148
:100B0C009C0570919D050895A4EFB1E00C94C1056E
:100B1C00E0939A05F0939B0560939C0570939D055B
:100B2C000895A0919A05B0919B0580919C05909198
:100B3C009D050E94D505ECCFE0E0FFEE61E070E092
:100B4C000E9445060895289AAFEFDDCDAE2FDBDD70
:100B5C00AA81BB818C819D8108951A93AFEFD3DD5F
:100B6C0028980895BA93AA93AFEFCDDD28980895ED
:100B7C00AFEFC9DDE8CF109639F080EA9FE001971E
:100B8C00F1F7A8951197C9F70895EA0FFB1F681F95
:100B9C00791F0895AE0FBF1F861F971F0895EA2B6C
:100BAC00FB2B682B792B0895EE230E2EFD01BC0137
:100BBC0031F0EE0FFF1F661F771F0A94D1F70895CF
:100BCC00EE230E2EFD01BC0131F076956795F7955D
:100BDC00E7950A94D1F70895EE0FFF1F661F771F54
:100BEC000895E62FF72F60E070E008956E2F7F2FA9
:100BFC00E0E0F0E008956F2F660F660B762F0895F6
:100C0C007A9F702D6B9F700DF89F700DE99F700D82
:100C1C006A9F602D710DFB9F600D711DE89F600D2B
:100C2C00711D8827FA9FF02D610D781FEB9FF00D39
:100C3C00611D781FEA9FE02DF10D681F781F089544
:100C4C006E2F6A9FF0016B9FF00D0895ED91FD9151
:100C5C006D917D9108957E936E93FE93EE9308951E
:100C6C00E881F9816A817B810895A881B9818A81A3
:100C7C009B810895E883F9836A837B8308957A9333
:100C8C006A93FA93EA9308959A938A93BA93AA93E0
:100C9C0008951097804090400895AE17BF078607BF
:100CAC00970708955A934A933A932A931A930A935F
:100CBC0008955D814C813B812A81198108810895B9
:00000001FF
