:080000000C940A040C940000AA
:100008000C9400000C9400000C9400000C94000068
:100018000C9400000C9400000C9400000C94000058
:100028000C9400000C9400000C9400000C94420402
:100038000C9400000C9400000C9400000C94000038
:100048000C9400000C9400000C9400000C942705FC
:100058000C9400000C9400000C9400000C94000018
:1000680013FF207F287F30FF34FF387F48FF4CFF85
:1000780051FF55FF56FF68FF6CFF86FF87FF014061
:100088000440054006400740084009400E101A1079
:100098000F201B2014201C201D402310312033204A
:1000A8003540374039403D403E4057103A204140A6
:1000B800438045805E106040624064406920724021
:1000C8007440762078400000415652204953500031
:1000D80000E979255488DFA5B9F6C2ABFCB3B1377E
:1000E800E183D5970438FE9926E48E4BF704C5A51D
:1000F8001F8868EF1D39BC62D8630F6AA512AAE58C
:100108008C7536BA818F303DEBE0FE70FA94AEB54F
:100118003100D406D506E106EC06F90604070F07F8
:100128001F07290732074407570768077707880713
:100138009807809A90418E418F80454545494949A5
:100148008E8F9092924F994F555559999A9B9C9D95
:100158009E9F41494F55A5A5A6A7A8A9AAABAC2122
:10016800AEAFB0B1B2B3B4B5B6B7B8B9BABBBCBD2F
:10017800BEBFC0C1C2C3C4C5C6C7C8C9CACBCCCD1F
:10018800CECFD0D1D2D3D4D5D6D7D8D9DADBDCDD0F
:10019800DEDFE0E1E2E3E4E5E6E7E8E9EAEBECEDFF
:1001A800EEEFF0F1F2F3F4F5F6F7F8F9FAFBFCFDEF
:1001B800FEFF0500000000000000000F41565249F4
:1001C8005350534420560034322E3231004C697358
:1001D80074204C6F636B6564002E0050726F6772F9
:1001E800616D6D696E67202E2E2E2E004C6973741A
:1001F80020556E6C6F636B656400526561642066A0
:100208006F6C6465722000206F6620004672656519
:10021800206C6963656E73652E00466F6C64657249
:100228002000206572726F722E002020202020206E
:100238002020202020202020202000526561647981
:1002480020746F2053746172742E00004563686FC8
:1002580035333A005369676E3A3078006373207219
:1002680000206500426164206865782064696769D8
:100278007421004B687A202000456E746572205006
:10028800726F67204D6F64650050004E6F20746177
:10029800726765740020446F6E65002F302F636F9E
:1002A8006E6669672E696E690075704F00646F77B6
:1002B8006E4F007461646F720075703000646F7700
:1002C8006E300044657669636520657261736564A4
:1002D8000052656D6F766520657261732053440026
:1002E800496E73657274206E6F726D2020534400DE
:1002F800506F776572206379636C65007669726701
:10030800696E0044657669636520756E6C6F636B12
:1003180065640052656D6F766520756E6C636B2041
:100328005344004661696C656420756E6C6F636B3D
:1003380000454550524F4D206973737565007570BF
:100348000075706F00646F776E00646F776E6F0072
:100358006D6178666F6C64657273006370755F6653
:10036800726571007061676573697A6500636869B1
:100378007073697A6500656570726F6D73697A6507
:10038800006D61736B6675736573006E6F726D6671
:10039800757365730070726F676675736573007344
:1003A80069676E6174757265007370696469760057
:1003B80070726F67696E666F0070726F676E616DDD
:1003C80065006E6F206565737061636520006C6100
:1003D800737420656E632E003C0066696C65206945
:1003E8007320746F6F206F6C640066696C65206998
:1003F80073206F6C64206F6E650057726F6E672094
:10040800746172676574005369676E6174757265AB
:10041800204F4B2E005700434C423A0045726173FF
:10042800696E672E2E2E200050726F6720467573F6
:10043800657320000D0A50726F6772616D204675F2
:10044800736573206661696C0050726F672046752A
:10045800736573206661696C000D0A4661696C6595
:100468006420746F20766572696679206675736595
:10047800730043686B204675736573206661696C09
:1004880000646F6E65000D0A57726974696E6720A3
:10049800666C6173682E2E2E00466C617368696EF7
:1004A8006700250057726974696E6720464C41538E
:1004B800482E2E00464C415348204661696C6564BD
:1004C800212121000D0A536574416464722046415C
:1004D800494C0057726974696E6720454550524F00
:1004E8004D2E0056657269667920454550524F4D2C
:1004F80000566572696679206565206661696C6574
:1005080064002F0073657269616C2E7478740073CF
:100518007461727461646472657373006E65787473
:1005280073657269616C004545207772697465204E
:100538006661696C000D0A56726966792073657286
:1005480069616C20767320656570726F6D206661D5
:10055800696C656400454520766572696679206630
:1005680061696C002530386C5800534E3A2000639E
:10057800616C62797465732E74787400636C6220A0
:100588007772206565206661696C0063616C6962D9
:1005980020767266206661696C0063616C696262CC
:1005A800797465730063616C20777220636F6E667F
:1005B8000063616C20726420636F6E660063616C17
:1005C8002072642076616C000D0A53746172742085
:1005D800666C617368696E672066726F6D2053443C
:1005E800636172642E2E2E0D0A004E6F206C6963B3
:1005F800656E7365730044656D6F206C696D697411
:1006080020313000534E204545204661696C6564B1
:100618002E0043616C6962204661696C65642E0036
:100628000D0A4E6F726D616C204675736573206696
:1006380061696C0054696D652000736563005375CA
:100648006363657373212020004E6F20636F6C6FA6
:100658006E3F0042616420636865636B73756D3A31
:1006680020004E6F20656E64206F66206C696E6591
:100678000052656164696E6720004E6F20636F6C7D
:100688006F6E006C696E6561646472200052443A52
:100698000057523A00520053657474696E672066B9
:1006A800757365730056657269667920667573653A
:1006B800732E0046004E00510000303A2F31302F83
:1006C80066696C65313233342E7478740046525F33
:1006D8004449534B5F4552520046525F494E545F5E
:1006E8004552520046525F4E4F545F52454144595D
:1006F8000046525F4E4F5F46494C450046525F4E9A
:100708004F5F504154480046525F494E56414C494C
:10071800445F4E414D450046525F44454E4945446D
:100728000046525F45584953540046525F494E5659
:10073800414C49445F4F424A4543540046525F5733
:10074800524954455F50524F54454354454400461E
:10075800525F494E56414C49445F44524956450000
:1007680046525F4E4F545F454E41424C4544004609
:10077800525F4E4F5F46494C4553595354454D00BF
:1007880046525F4D4B46535F41424F5254454400D9
:1007980046525F54494D454F5554004469736B2088
:1007A800696E6974206661696C656400436172648E
:1007B800206E6F742070726573656E740043617289
:1007C800642077726974652070726F74005B73655A
:1007D8007474696E67735D002F00666C6173682EB0
:1007E8006461740080C001002D4E414E00494E46A0
:1007F80000000A000400BA0112000508C20602003F
:100808008508EC0701008C08EE070000F894EE2735
:10081800EFBBF1E0F5BFE5BFF8E1A895A4B7A77F66
:10082800A4BFF0936000E09360008DE0A2E0BB27D6
:10083800ED938A95E9F780E098E0A0E0B1E0ED93C8
:100848000197E9F7EAEFF7E085919591009761F054
:10085800A591B59105901590BF01F00105900D92F5
:100868000197E1F7FB01F0CFE0E0EEBBEFEFEDBF62
:10087800E8E0EEBFC0E0D2E00C942F050A921A928D
:10088800FA926A937A938A939A93AA93BA93EA9379
:10089800FA93EFB7EA93E0913A08E0938500E09184
:1008A8003908E0938400A0913308AF5FA093330820
:1008B800A53108F46CC0E0E0E0933308A0EBB2E0A7
:1008C8000E94902DE091AF02E03019F4299A289AFD
:1008D8005EC0A091AF02A33071F40E94962DA330A0
:1008E80048F0E0E0E0930408289A299B02C0299880
:1008F80001C0299A4CC0A091AF02A13019F42998DF
:10090800289A45C0A091AF02A23011F5299A0E94F9
:10091800962DAC3378F0E0E0E0930408289B02C001
:10092800289801C0289AE0912108E03019F40E9423
:100938009C2DAFD4E0912108E03049F453D4E43041
:1009480031F4E1E0E0932108E0E0E09320081FC0E3
:10095800A091AF02A43071F4299A0E94962DA43672
:1009680040F0E0E0E0930408289B02C0289801C00A
:10097800289A0DC0A091AF02A53049F4299A289A67
:100988000E94962DA43618F0E0E0E0930408A091A8
:10099800AF02A33021F0E0912008E03009F445C00F
:1009A800A0913308BB27E2E0F0E00E94AD36309713
:1009B800E1F5E0913608E03049F1E0913608E15080
:1009C800E0933608E0913608E03059F4E0913708B2
:1009D800E03039F0E0913708E150E0933708709241
:1009E8003508E0913808E03081F0E0913808E150AE
:1009F800E0933808E0913808E03039F45E9B02C093
:100A08005E9801C05E9A809238080FC0E091350860
:100A1800E03059F0E0913508E150E0933508E09175
:100A28003508E03011F460923608E991EFBFF9918A
:100A3800E991B991A9919991899179916991F990DF
:100A4800199009901895EA93E1E0E0933C080E9418
:100A5800A52DE99118950E94AA2DE5B9E0E0E4B921
:100A6800E8B9E7B9EBB9579AE4BDE5BDE6BDE7BD1E
:100A7800E8BDE0938000E0938100E0938500E09377
:100A88008400E0938700E0938600E0938900E09378
:100A98008800E0938B00E0938A00E093B600E0932F
:100AA800B000E093B100E093B200E093B300E093AC
:100AB800B400E0936900EDBBE0936800E0936E003A
:100AC800E0936F00E09370000E94AF2D549A5C98F9
:100AD8000E94B52D0E94AF2DE0E8E0BFE0E0E09372
:100AE8007B00E0937F00E0937E00E0E2E0937C00EF
:100AF800E3E8E0937A00E0E0ECBDE093BC00E1E0DD
:100B0800E0933C080E9473090E944E1D569A5E9815
:100B1800E1E0E093B2027894E1E0E0932803E09307
:100B28002903E5E0E0932A03E0E4FFE1E0932B03E7
:100B3800F0932C03E8B1E07CE8B9E7B1EF63E7B9DB
:100B48005F98579AE3D20E94BC2DE4ECF1E00E9432
:100B5800C52DEFECF1E00E94C52D0E94C92D0E9421
:100B6800CF2D0E94E42DA0E0AE1BEA2FE0933908B8
:100B78000E9417130E94CF2D0E94E42DA0E0AE1B07
:100B8800EA2FE09339080E94F32DE03059F00E94D3
:100B9800F32DAE2FE0912A03F0E03197B0E0AE17C5
:100BA800BF072CF0A5E0B0E0E1E00E9431370E94D9
:100BB800F32DE093B3020E94F82D0E94FC2D49D337
:100BC8000E94012EE23028F0A6E0B0E0E0E00E94AA
:100BD8003137E0E00E94062E11F4E0E001C0E4E0C5
:100BE800E093AF02FFD2E0933208F0E0E830A0E0F3
:100BF800FA0711F43BD015C0E031A0E0FA0711F470
:100C0800F8D00FC0E230A0E0FA0711F491D009C083
:100C1800E430A0E0FA0711F44CD103C0E0E0E0931F
:100C28003208A091AF02A03021F0A091AF02A1300C
:100C380011F400000FC0A091AF02A23021F0A091E2
:100C4800AF02A43039F4E091CF03E03019F4E1E0C9
:100C5800E093CF03E0912108E03009F02AD1E09138
:100C68003408E03009F06FD2BDCFFFCF0E940B2EC1
:100C780021F0A091AF02A43009F401C090C10E94F4
:100C8800012EE03031F00E94112E0E949C2DE1D2FD
:100C980086C108E813E10024001601067CF40E94CE
:100CA800192E0E941E2E19F40E94252EF2D2E3E07E
:100CB8000E94292E19F001501040EDCF0F37E3E1C3
:100CC8001E070CF06CC1002E012A21F40E949C2DF5
:100CD800E0D265C1A091B302BB27E0912803F0E000
:100CE800AE0FBF1FE0912A03F0E0EA17FB0714F4E8
:100CF800E1E005C0E0912803A091B302EA0FE09378
:100D0800B3020E94AA2D0E94062E39F4E0E0E09377
:100D1800AF020E94252E9DD207C0E4E0E093AF0207
:100D28000E949C2D96D23BC1E0E00E942E2E37C136
:100D38000E940B2E21F0A091AF02A13009F401C04E
:100D48002EC108E813E10024001601067CF40E9475
:100D5800192E0E941E2E19F40E94252E7AD2E1E047
:100D68000E94292E19F001501040EDCF0F37E3E112
:100D78001E070CF014C10E94F32DAE2FE091B302B0
:100D8800EA1711F00E94332E002E012A99F40E94CE
:100D9800012EE13029F0A6E0B0E0E1E00E94313711
:100DA8000E943A2E0E94192E74D20E94112E0E947F
:100DB8003F2EF5C00E94452E0E944B2E0E94642AA9
:100DC800E0E0EA930E944B2E0E94502E0E94552E7E
:100DD800E3E0EA93E3EEF1E00E945B2EE3E00E9499
:100DE8002E2EE0E0E093B002E093B1020E946E196B
:100DF800D6C00E940B2E21F0A091AF02A43009F4B6
:100E080001C0CDC00E94012EE03031F00E94112EA9
:100E18000E949C2D1ED2C3C008E813E100240016CE
:100E280001067CF40E94192E0E941E2E19F40E94BD
:100E3800252E2FD2E4E00E94292E19F001501040EF
:100E4800EDCF002E012A21F40E949C2D02D2A7C0CA
:100E58000F37E3E11E070CF0A2C0E091B302E030C7
:100E680081F0E0912903A091B302EA1718F0E0910C
:100E78002A0305C0A0912903E091B302EA1BE0937D
:100E8800B3020E94AA2D0E94062E39F4E0E0E093F6
:100E9800AF020E94252EDDD108C00E943A2E0E9482
:100EA8005F2EE4E0E093AF027AC0E0E00E942E2ECD
:100EB80076C01A930A93A091AF02A33021F40E943E
:100EC8009C2DC7D16CC008E813E100240016010668
:100ED800E4F40E94192E0E94B135E2E00E94292E06
:100EE800A1F0EEE7F3E1E017F10761F40E94252E87
:100EF800B0D1A091AF02A23021F0A091AF02A430EE
:100F080009F403C001501040E0CF0F37E3E11E079A
:100F18000CF045C0A091AF02A230C9F0002E012A02
:100F2800B1F40E94012EE03029F0A6E0B0E0E0E044
:100F38000E9431370E943A2E0E94192E8AD1E3E08E
:100F4800EA93E4EFF1E00E945B2E0E943F2EE0E07E
:100F5800E0932108E093CF03299A289AE5E0E093EB
:100F6800AF020E941713E0E00E94062E69F4E0E049
:100F7800E093AF020E94F32DAE2FE091B302EA177F
:100F880011F00E94332E07C0E4E0E093AF020E9404
:100F98003A2E0E945F2EE0E00E94292EE1F309918B
:100FA800199108952C97E0E0E093CE030E94452E16
:100FB8000E94652EAC85A23008F06FC00E94BC2D3F
:100FC8000E946C29E0E0EA93E2E0F2E00E945B2EE6
:100FD8000E946B2EE0E0EA93E1E0EA930E945B292D
:100FE8000E942014E13009F048C00E94452E0E945A
:100FF8004B2E0E94642AEC85EA930E944B2E0E9495
:10100800502E0E94552EE1E0EA93E0E0F3E00E94C2
:10101800712EE2E0EA93EFE0F3E00E94712EE3E044
:10102800EA93EEECF1E00E945B2E0E94752E309759
:10103800E1F0E091FC02F091FD020E947A2EFE019F
:101048003A960E947F2E0E946B2EEFE0F2E00E94FB
:10105800C52D0E94752E0E947A2EFE0134960E949C
:101068007F2EFE010E94832E04C0E4E1F2E00E947C
:10107800C52DE1E0E093CF0311C0E1E0EA93E2E29D
:10108800F2E00E945B2E0E94452E0E94652E0E946F
:101098006B2EEAE2F2E00E94C52DE0E02D9608955D
:1010A800EA81EA93E981FA810E945B2E0C944F0B46
:1010B800A091CE03A93028F40E94872EA081A030E9
:1010C80009F403C00E948F2EF3CFC090CE030C9476
:1010D8004F0B0E944B2E0E94952E0E94472DAA81ED
:1010E800A43010F00C944F0B0E949C2EE2E3F2E027
:1010F8000E94C52D0E949C2E0E944B2E0E949C2966
:101108000E94FC2D0E94B1350C944F0B0895E0E02D
:10111800E093CE03A091CE03AA3038F40E94872E24
:10112800A0E0A0830E948F2EF5CFE0E0E093CE03ED
:10113800E0933408C090CE03E3E0EA93E3E4F2E0FE
:101148000E945B2E089508950E948F2EA091CE03D1
:10115800AA3028F40E94872EA081A03019F4E1E07B
:10116800E093CE03E0E0E09334080895AA81A43028
:1011780010F00C944F0B0E94A22E0E94952E0E94F4
:10118800332D0E949C2EE2E3F2E00E94C52D0E94BE
:101198009C2EE881F9810E94832E0E94FC2D0E94DA
:1011A800B1350C944F0BE881E2950E94A72EE88197
:1011B8000E94A72E0E94FC2D0E94B1350C944B0B67
:1011C80011D01E2EE881A1E0B0E00E94EE35A12DDD
:1011D800B0E0EA17FB0719F4E1E00C944B0BE0E0F0
:1011E8000C944B0B1A9310E0E0E0E0933C08E6E225
:1011F8000E94AE2EE0917A00E074E1F70E94A52DDE
:10120800A0913B08A23310F4106105C0A0913B08DF
:10121800A63908F41460E0E0E0933C08E7E20E9495
:10122800AE2EE0917A00E074E1F70E94A52DA0911E
:101238003B08A23310F4186005C0A0913B08A639FA
:1012480008F41260103011F0E12F01C0E1E01991AB
:101258000895E1E0E0932008EB81E03019F4E0E044
:10126800E0932008E0E0E0932108E881A4E6EA02A0
:10127800F0016E2EE0933608EA819E2EE09337083F
:10128800EB818E2EE0933808E0E07E2EE09335085F
:1012980007C0EB81EA93EB81EA930E94B92ED9DF6C
:1012A800249608951A937DD10E94AF1110E00E94F0
:1012B800BE2E0E94102DA12FB0E0AE17BF0760F41C
:1012C800E12FA981BA81F0E0EA0FFB1FE491EA93CC
:1012D8000E94B7111F5FEBCF11D01881DCC1219A92
:1012E800299A209A289AC1D10E94C32EE0E0E0935F
:1012F8008902E09341080E94AF1134C4E0E0E09312
:101308008002E0938102E0915408E13008F4FBC0C8
:10131800E0918902E13049F4E0918802E13011F46A
:101328002DD5F1CFE0E0E0938902E0914108E0306B
:1013380019F49CD1E0934008E0914008F0E0EB31CB
:10134800A0E0FA0709F4DAC0E035A0E0FA0711F4E2
:10135800AAD1D4C0E136A0E0FA0711F465D4CEC012
:10136800E134A0E0FA0711F462D4C8C0E335A0E084
:10137800FA0711F43FD4C2C0E635A0E0FA0711F429
:1013880049D4BCC0E637A0E0FA0711F448D4B6C087
:10139800E037A0E0FA0711F448D4B0C0E435A0E083
:1013A800FA0711F4D5D1AAC0E437A0E0FA0711F47E
:1013B800C1D1A4C0E837A0E0FA0711F402D29EC058
:1013C800E937A0E0FA0711F402D298C0EA33A0E0A6
:1013D800FA0711F402D292C0EE32A0E0FA0711F433
:1013E8000ED28CC0E236A0E0FA0711F4FBD386C017
:1013F800E536A0E0FA0711F4F6D280C0E534A0E0A3
:10140800FA0711F481D07AC0EC34A0E0FA0711F49D
:10141800E7D374C0EC36A0E0FA0711F4FFD26EC02F
:10142800E636A0E0FA0711F41ED368C0E135A0E063
:10143800FA0711F466D362C0E634A0E0FA0711F4A3
:1014480051D35CC0EE36A0E0FA0711F421D356C0A0
:10145800EE34A0E0FA0711F463D350C0EF36A0E0F1
:10146800FA0711F42AD34AC0EF34A0E0FA0711F4BE
:1014780067D344C0E337A0E0FA0711F477D33EC03E
:10148800E735A0E0FA0711F495D338C0E436A0E0B8
:10149800FA0711F48CD232C0E736A0E0FA0711F44B
:1014A800E1D32CC0E234A0E0FA0711F426D426C018
:1014B800E235A0E0FA0731F4E8E2EA93E0E2EA93E1
:1014C80042D21CC0E336A0E0FA0711F4DDD116C001
:1014D800E334A0E0FA0711F4DDD110C0ED36A0E046
:1014E800FA0719F40FD2EDE007C0E434A0E0FA07D8
:1014F80011F4D6D103C0EFE3EA93BAD0E0914108E2
:10150800E13009F000CF08950E94C92E09F466C39E
:10151800ADD01E2FF0E0E7FDFFEFE434A0E0FA07BE
:1015280019F40E9487120BC0EE32A0E0FA0739F4D2
:10153800A895E8E1E0936000EFE0E09360004EC317
:10154800E0918002F0E0E050FE4FA881B981ED9370
:10155800FC93A0918002E0918102EA1B0BC2E0E0BB
:10156800E0938102E09380020895E881A0918002CF
:10157800EA0FE0938002E0918102A0918002EA17CD
:1015880079F4E0E0E0938102E0938002E09189023F
:10159800E13021F4E0918802E03009F001C089D3FC
:1015A80076C00E945837EDB7FEB73197FA93EA93A1
:1015B8001F930F93C5DF0F911F913E2FE13060F00D
:1015C8003A93D3DFE32F3150E03029F0D8010F5F91
:1015D8001F4FEC91F7CFE7CFCDC31A93E091C0002E
:1015E800E072E1F31091C600E981E093C600E09152
:1015F800C000E078E1F3E091C6001881BBC1A0917A
:101608008A02A23011F45D9801C00000E0E0E09386
:10161800C200E093C100E093C500549A5C9A0E940E
:10162800192E0E94B135559A5D980E94192E0E9474
:10163800B1355C980E94192E0E94B135519A509884
:10164800589A0E94192E0E94B13558980E94B52DBB
:10165800E091C600E0932D035D9AA0918A02A23022
:1016680009F45D980E94D22E0895089596D608959B
:10167800A0918102A03858F4E0918102EF5FE093D5
:101688008102E150F0E0E050FE4FA881A08321964E
:1016980008950E94D82E23960895EB81EA939DDF42
:1016A8000E94D82E69C30E94583710E03DE029985F
:1016B8000E94E72EDADFE0918A02E23039F49FDFF8
:1016C8000E94EC2E0E94F22E11E02AC0E3E0EA9379
:1016D800E4E5F2E00E945B2E00E0033090F48FDF37
:1016E8000E94F22E2E2FE0E0EA9377DFE0912D039F
:1016F800EA930E94D708233511F411E002C00F5F66
:10170800ECCF103049F4B1DF3FE3E091CF03E03094
:1017180011F00E94FA2E04C0E4E6F0E00E94002FC7
:101728003A93A6DF103011F4299A299AE0E0E09361
:101738003D0820C31A930A9300E0E02FF0E0E8592F
:10174800FF4F14911A9394DF0E5F1030B1F7AEC2B9
:101758000E9458370FE330E00E94042F09F40AC3AF
:1017680085DF2E2FE32FF0E0E859FF4FE4911E2F7D
:10177800E03021F1121701F5E32FF0E0E859FF4FAF
:10178800049000923E08E32FF0E0E759FF4F0490E1
:1017980000928B020DE0E0913E08E03810F0E2E0A4
:1017A80009C0A0918B02AF3711F0AF3F11F4E1E00F
:1017B80001C0E0E0E0938A023E5FD4CF0A9358DF8D
:1017C800D9C20E94042F09F4089550DF47C20E942D
:1017D800042F09F408954ADF41C20E9458370E9435
:1017E8000C2F09F4C7C20E94142F1A930A933A9334
:1017F8000E94202F0E94242F299A299ABBC20E9456
:1018080058370E942C2F09F4B5C20E94142F2EDFDE
:101818002E2F1A930A933A932A933FDF0E94242F7C
:10182800299A299AA7C21A930E94342FA0918A0252
:10183800A23039F40E94392FE2600E94492F29DF33
:1018480004C0E0E40E944F2F28DFE0E2EA931A93F5
:101858002DD0E0918A02E23011F40E94542F299A87
:10186800BDC11A93E0918A02E23069F00E94342FD8
:10187800E8E40E944F2F11DFE8E2EA931A9316D0AA
:101888000E94542F299AAAC10E94042F09F408958E
:10189800CADFE4C10E94042F09F40895E2DFDEC123
:1018A8000E94042F09F4089567D0D8C1E0918B02F3
:1018B800EF7039F1E881A0918B02EA1719F40E94C0
:1018C800EC2E1FC02197EFEFE883E0918A02E23007
:1018D80041F40E94392F0E94572FA981EA1759F025
:1018E80006C0EA810E94602FA981EA1721F0E881E9
:1018F800E150E88351F7E881E03011F40E94EC2EC2
:10190800219638C0E0918A02E030E1F42297E09114
:101918008202F0918302E883F983E0918902E13041
:1019280029F4E881F9813197E883F983ECE4EA93B3
:10193800EA81F070EA93EA81EA930E94202F0E94DC
:10194800EC2E229608952998E0918A02E23049F017
:10195800E9810E94602FEA938BDEE8810E94602F64
:1019680004C00E94392F0E94572FEA9381DE0E94FB
:10197800542F299A229608951A930E94342FE091A1
:101988008A02E23029F0E0EC0E944F2F86DE09C07F
:10199800E0913E08E63829F40E94392FE6600E945B
:1019A800692F0E94EC2E0E94542F299A17C129985A
:1019B800E0918A02E23021F0E0EA0E94602F0DC037
:1019C800E0913E08E63859F4E0918302F070EE0F9A
:1019D800EE0FEE0FE5600E94692FEA9349DE0E9440
:1019E800542F299A08950E94E72EA0918A02A230C6
:1019F80041F4ECEAEA93E4E0EA93E0E0EA9349DEB2
:101A080007C0ECEAEA93E0E8EA930E94F82D45DE85
:101A1800E2E3F0E00E94002FEDE0A1C00E94C92E91
:101A280009F4DCC00E94E72E21DE1E2FA0918A0255
:101A3800A23051F4ECEAEA93E12FE07EE760EA9302
:101A4800E0E0EA9326DE09C0ECEAEA93E12FE96FC9
:101A5800EA93E0E0EA931A9320DE0E94EC2EEDE090
:101A6800EA9306DEB7C00E94712F09F41FC10E94D5
:101A7800E72E0E94742F11F41FE305C0ECEAEA93E5
:101A8800E0EA0E947C2F0E94EC2E0E94822F0EC159
:101A98000E94712F09F40AC10E94E72E0E94742F38
:101AA80011F41FE305C0ECEAEA93E8EA0E947C2FF0
:101AB8000E94EC2E0E94822FF9C00E94712F09F417
:101AC800F5C00E94E72E0E94742F11F41FE305C091
:101AD800ECEAEA93E4EA0E947C2F0E94EC2E0E9432
:101AE800822FE4C00E94E72EA0918A02A23011F44E
:101AF800EFE306C0E0E5EA930E94F82D0E94202F4C
:101B08002EC00E94E72EA0918A02A23011F4EFE3C2
:101B180006C0E8E5EA930E94F82D0E94202F1FC016
:101B28000E94E72EA0918A02A23011F4EFE307C0C9
:101B3800E8E5EA93E8E0EA930E94F82DAEDD0FC0ED
:101B48000E94E72EA0918A02A23011F4EFE307C0A9
:101B5800E0E5EA93E8E0EA930E94F82D9EDDEA9337
:101B680087DD299AE0E0E0933D0808951A930E94E2
:101B7800E72E10E0E3E0EA93ECE5F2E00E945B2E4A
:101B8800E0E3EA93E0E0EA931A930E94202FEA93B5
:101B98006FDDE0912D03EA930E94D7081F5F133091
:101BA80078F3E091CF03E03021F0E8ECF0E00E9418
:101BB800002F10C01A930E94E72E10E0E8E3EA9382
:101BC800E8EAEA931A930E94202FEA9351DD1F5FF7
:101BD8001430A0F3299AE0E0E0933D0819910895A4
:101BE80044DD3CC0E9E5EA9343DDE0E0EA9340DD0B
:101BF800E0E835C01A930A9300ED10E0F801E4918B
:101C0800E03039F0F8010F5F1F4FE491EA9330DDBF
:101C1800F5CF4CC0E5E5EA932BDDE2E320C0E0E335
:101C2800EA9326DDE2E31BC019C0E3E518C0E2E051
:101C3800EA93D0D3E0914108E13009F4089516DD24
:101C4800FE2FE0E0FF93EF9311DDF0E0AF91BF913D
:101C5800EA2BFB2BE0938202F0938302EDE0EA93F8
:101C680007DD08951A930A930E940C2FF9F00E9439
:101C78008A2FF12FE0E0DF01E02FF0E0EA2BFB2BC9
:101C88000E94912FF3DCE0938C02E0E0E09388025D
:101C9800E1E0E0938902E0918A02E23031F0E091DC
:101CA8008C02E63411F40E949C2F03D009911991FB
:101CB8000895E0918C02E63491F4A0918102A03855
:101CC80068F4E0E2EA93E8E2EA933DDE0E94AF2F8F
:101CD80021F4E0E0E093890201C0EFCF0DC0A091AC
:101CE8008102A03848F463DE0E94AF2F21F4E0E0BF
:101CF800E093890201C0F3CF08950E94583731E07C
:101D08000E942C2F41F4E3E0EA9364D330E0E091A1
:101D18004108E13079F1303011F0A8DC3E2F0E9403
:101D28008A2FE32FF0E00E9437360E943236DF0117
:101D3800CB01F12FE0E00E94BB2FDF01CB01E02FA8
:101D4800F0E00E94BB2F0E94C02F90DCE0938C0231
:101D5800E1E0E0938902E0938802E0E0E0933F0845
:101D6800E0918A02E23031F0E0918C02E63411F41D
:101D78000E949C2F0E945F3724960895E0918C0260
:101D8800E53441F4E0915408E13020F0F5DD0E949B
:101D9800C92FF8CFE0918C02E634E1F4E0915408C1
:101DA800E130C0F040DD5DDD0E94C92FE0918A027C
:101DB800E03079F4E0913F08EF5FE0933F08E0916D
:101DC8008B02A0913F08EA1721F49CDDE0E0E09344
:101DD8003F08E4CF0E94D32F79F4E0913F08E03028
:101DE80029F0E0918C02E63409F48CDDE0E0E09320
:101DF8008902EDE0EA933CDC08952D97E0E0EE835C
:101E0800EF83E8870E945637E0EDF7E060E070E086
:101E18000E94DE2F0E94301EE03011F4E0E097C2ED
:101E28000E94E72F11F4E0E092C20E947F1EE0308A
:101E380011F4E0E08CC2E0E0EC87ED870E94F52F1A
:101E480020810E94F52F50810E94F52F40810E9429
:101E5800F52FE081FF27662777270E94C02F0E9471
:101E6800FE2FE8E00E94F735DF01CB010E94F52F35
:101E7800E081FF27662777270E94D5350E94C02F6B
:101E88000E94F52FE081F0E0E887F987F8850E9445
:101E980007300E940A30E887F9870E94F52FE08111
:101EA800EA8B0E94F52FE081E98B0E94F52FE081F3
:101EB800E88B0E94F52FE081F0E0EA87FB87FA853E
:101EC8000E9407300E940A30EA87FB87309711F09A
:101ED800E1E0EE870E94F52FE081F0E0EE83FF83DA
:101EE800FE810E9407300E940A30EE83FF830E9421
:101EF8000F300E940F303197E050FA4FE081E093A5
:101F08008B0230918B020E94D32FA1F4EE81FF81C6
:101F1800E887F987E0E0EE83EF830E94C32EEA8525
:101F2800FB850E94912FE0E0EA87EB872A8959898F
:101F38004889EE87E0E0EC87ED87E0E0F8E060E0D4
:101F480070E00E94DE2F0E94C32E0E9415300E946E
:101F58001B3011F4E0E0FBC10E94FE2F0E944637BF
:101F680008F0E9C1AE85A03021F0AA85BB8510979D
:101F780009F005C02A8959894889E0E0EE87E0918F
:101F8800C000E072E1F3E0E4E093C600E091C00035
:101F9800E072E1F3E0E0E093C600E091C000E07297
:101FA800E1F34093C6000E940F303197E053FC4F95
:101FB8000081E091C000E072E1F30093C600E09177
:101FC800C000E072E1F3E8E4E093C6003150E0912C
:101FD800C000E072E1F3E0E0E093C600E091C000E9
:101FE800E072E1F3E42F4F5F0E9425303197E05310
:101FF800FC4F0081E091C000E072E1F30093C6005D
:10200800303009F097C1E091C000E072E1F3ECE4F0
:10201800E093C600E091C000E072E1F35093C6007F
:10202800E091C000E072E1F3E42FE150E093C600D4
:10203800E091C000E072E1F3E0E0E093C600E091D7
:10204800C000E072E1F31FEF0E9415300E942830B3
:10205800A0918B024A1B0E94C92F0E94FE2F0E944A
:10206800463720F0AA85BB851097B9F10E94D32F77
:10207800B9F40E942F3039F00E9438300E943D3068
:102088000E944A3064C1EE81FF81E887F9870E9487
:10209800C32EEA85FB850E94912FE0E0EA87EB8753
:1020A800EC85FD85309741F00E9415300E941B3069
:1020B80011F4E0E04CC110C00E941530FA93EA9385
:1020C8000E941530E053FC4FFA93EA930E94AC1E2D
:1020D800E03011F4E0E03BC104C00E94192E0E94D8
:1020E800B135E0918B02E31709F466C01F3F09F090
:1020F8005AC0EC85FD85E053FC4FA081AF3F09F441
:1021080052C0EC85FD85E053FC4F1081E091C00082
:10211800E07819F00091C600F9CFE4E1EF87EF8588
:10212800E150EF8709F43FC0E091C000E072E1F3AD
:10213800EC85FD85E17011F0E8E201C0E0E2E09392
:10214800C600E091C000E078E1F30091C600E0919C
:10215800C000E072E1F35093C600E091C000E0785F
:10216800E1F30091C600E091C000E072E1F3409312
:10217800C600E091C000E078E1F30091C600E0916C
:10218800C000E072E1F3E0E0E093C600E091C00037
:10219800E078E1F30091C600101729F00E94192E8B
:1021A8000E94B135BCCFEC85FD85E17011F04F5F21
:1021B8003F5F0E940F3095CF1F3F21F40E94EC2E05
:1021C8000E94EC2E30E0A0918B024A1B0E94153031
:1021D8000E942830E091C000E07819F00091C60014
:1021E800F9CFE091C000E072E1F3E0E2E093C600CD
:1021F800E0918B02E31709F47BC0E091C000E07224
:10220800E1F35093C600E091C000E078E1F300915B
:10221800C600E091C000E072E1F34093C600E0918F
:10222800C000E078E1F30091C600E091C000E072E0
:10223800E1F3E0E0E093C600E091C000E078E1F36C
:102248000091C600E091C000E072E1F3E8E20E946C
:1022580025303197E053FC4F1081E091C000E078C1
:10226800E1F30091C600101711F0E0E070C0E091B2
:10227800C000E072E1F35093C6003F5FE091C000F8
:10228800E078E1F30091C600E091C000E072E1F36C
:10229800E42F4F5FE093C600E091C000E078E1F3DF
:1022A8000091C600E091C000E072E1F3E0E0E09345
:1022B800C600403009F45F5FE091C000E078E1F3C8
:1022C8000091C600E091C000E072E1F3E0E20E94F4
:1022D80025303197E053FC4F1081E091C000E07841
:1022E800E1F30091C600101711F0E0E030C080CF94
:1022F800E091C000E072E1F3E0E2E093C600E09113
:10230800C000E072E1F3E0E2E093C600E091C000B3
:10231800E072E1F3E0E2E093C600E0918B02F0E0C6
:102328000E941336AC85BD85AE17BF0718F0E0E0F4
:10233800EC87ED8711CE0E942F3039F00E9438309B
:102348000E943D300E944A3002C07894E1E00E9429
:102358005D3763960895E0E0E0935308E0935208F0
:10236800E09354080895E0915408E031A8F4E0910E
:102378005208EF5FE0935208E150F0E0EE5BF74F50
:10238800A881A083E0915208EF70E0935208E09191
:102398005408EF5FE09354085EC0E0915408E130C0
:1023A800C0F02197E0915308EF5FE0935308E150A4
:1023B800F0E0EE5BF74FE081E883E0915308EF70BF
:1023C800E0935308E0915408E150E0935408E88101
:1023D80042C030C2E0915408A881EA1710F4E1E045
:1023E80001C0E0E0E093410836C01BC1A881B98173
:1023F800EC9117C10E940D1F0895A881A03310F019
:10240800AA3308F003C0E881E05325C0A881A134AD
:1024180010F0A73408F003C0E881E7531CC0ECE6CD
:10242800F2E00E945430E0E016C0E881EF70E883E3
:10243800A881A03010F0AA3008F003C0E881E05D60
:102448000AC0A881AA3010F0A03108F003C0E881C2
:10245800E95C01C0E8E521960895A881B9810E9448
:102468005830EF93E881F981A181AA93C6DFAF9133
:10247800EA2BD7C01A9310E0E9811E17B8F4E12FB0
:10248800AA81BB81F0E0EA0FFB1FFF93EF93E2E024
:10249800E19FF001AC81BD81EA0FFB1FFA93EA933B
:1024A800DCDFAF91BF91EC931F5FE6CF18812696D2
:1024B80008950E94A22ED1DFFE2FE0E0FF93EF9354
:1024C800E881F9813296FA93EA93C7DFF0E0AF9199
:1024D800BF91EA2BFB2BA5C00E94A22EEADF0E9427
:1024E8005F307F936F93FF93EF93E881F981349680
:1024F8000E94643066277727AF91BF918F919F9193
:102508000E94D5358EC00895E0E0E093C400A09104
:10251800B502A63020F5A091C400A03021F4A09106
:10252800B502A13009F004C0E1E0E093C40016C090
:10253800A091C400A03021F4A091B502A23008F403
:1025480007C0E1E0E093C4000E946830E15002C097
:102558000E9468300E94E635A12DEC9301C001D09D
:102568000895EFEFE093C4000895E091C400E07887
:1025780039F4E091B502EF5FE093B502C5DF58C1C9
:1025880059C11A9311E0E981E03011F0EADF01C086
:10259800BBDF1030A9F1E091CF03E03021F00E94B9
:1025A8006F300E943F2EE2E3F0E00E94002FE3E04C
:1025B800EA93E1E8F2E00E945B2EE091CF03E0307D
:1025C80011F00E943F2EE1E9F2E00E949530A091BF
:1025D8000002AD3059F0C9DFE030D9F610E0E3E091
:1025E800EA93E3E9F2E00E94993009C0B3D3E030FE
:1025F80029F4BBDFE03069F610E001C001C0C9CFA3
:10260800103011F4E0E00CC0EDE9F2E00E94C52DB5
:10261800E981E03021F4E091B502E0932203E1E0A2
:102628001881229608950E94BC2D0E94731DE030E7
:1026380039F40E943A2E0E94192E0E942D09FAC0E0
:102648000E949D30E3EAF2E00E94A2300E94251F1A
:10265800E03009F4EFC0E0E0E09355080E94A630AE
:1026680061F00E94B23049F40E94BE3031F00E94FD
:10267800B23019F4E1E0E0935508A0915508A13073
:1026880059F0EBEBF2E00E94CA3011F4E0E002C02E
:102698000E94D430E0935508E0915508E03009F0E5
:1026A8007DC0E1ECF2E00E94CA30E1F10E94B23054
:1026B800C9F5E5ECF2E00E94CA30A1F10E94B230FF
:1026C80089F5E0E0E093B402A091B402A43698F44E
:1026D8000E94DC30E45FFF4F0E94E230E35FFF4F6F
:1026E8000E94E230E25FFF4FDF01EFEF0E943137D7
:1026F8000E94E730E9CFE0E0EA93EBECF2E00E94D9
:102708005B2EE1E0EA93E9EDF2E00E945B2E0E9485
:10271800ED300E94F2300E94F730FA93EA930E945B
:102728002D09FFCFE4E0F3E00E94CA30B9F10E941E
:10273800FF3029F0A4E0B0E0E4E40E9431370E94C1
:10274800FF3099F4E0E0EA93EBE0F3E00E945B2EBF
:10275800E1E0EA93EBE1F3E00E945B2E0E94ED30AA
:102768000E94F2300E94F73014C0E0E0EA93EBE2F6
:10277800F3E00E945B2EE1E0EA93E9E3F3E00E94D4
:102788005B2EE2E0E093AF02E3E0EA93EA93E4EF42
:10279800F1E0FA93EA930E942D09FFCFE6E4F3E013
:1027A8000E94CA3069F4E9E4F3E00E94CA3041F4B7
:1027B8000E94A63029F4E1ECF2E00E94CA30D1F17F
:1027C8000E94D430E0932803EDE4F3E00E94CA307D
:1027D80069F4E2E5F3E00E94CA3041F40E94BE3099
:1027E80029F4E5ECF2E00E94CA3021F10E94D430CD
:1027F800E0932903E8E5F3E00E94CA30D9F00E948B
:10280800D430E0932A03A0912A03A53618F0E4E611
:10281800E0932A03E3E6F3E00E94CA3019F4E0E407
:10282800FFE102C00E94D430E0932B03F0932C0305
:10283800E1E00895E0E008951A9379D20E94731DAB
:10284800E03031F40E943A2E0E945F2EE0E06DC223
:102858000E94B41DE03011F4E0E067C2ECE6F3E05A
:102868000E94CA3011F4E0E060C20E94D430EE0F3A
:10287800FF1FE093FA02F093FB02E5E7F3E00E9402
:10288800CA3011F4E0E051C20E940531E093F6022B
:10289800F093F7026093F8027093F902EEE7F3E021
:1028A8000E94CA3011F4E0E040C20E940531E09372
:1028B8002303F0932403E9E8F3E00E94CA3011F4FB
:1028C800E0E033C20E940D310E9414310E94193198
:1028D800E3E9F3E00E94CA3011F4E0E026C20E9466
:1028E8000D310E941D310E941931EDE9F3E00E947B
:1028F800CA3011F4E0E019C20E940D310E94223161
:102908000E941931E7EAF3E00E94CA3011F4E0E0CE
:102918000CC20E940D31E7EEF2E0FA93EA93E3E08D
:10292800EA93A8DDE0E0E0932203E1EBF3E00E9404
:10293800CA3021F00E94D430E0932203A0912203F0
:10294800A83018F0E0E0E0932203E0912203E0933E
:10295800B502E0E0F3E0FA93EA93E8EBF3E00E94D3
:102968002731EEE1EA930E94332DE6ECF2E0FA9388
:10297800EA93E1ECF3E00E942731ECE0EA930E944D
:10298800332D0E947F1EE03011F4E0E0CEC1A0910B
:102998000006E7E7EA27E0930006E1E0F6E00E9498
:1029A8003231E2E0F6E00E943231E3E0F6E00E94E4
:1029B8003231E4E0F6E00E943231E5E0F6E00E94D0
:1029C8003231E6E0F6E00E943231E7E0F6E00E94BC
:1029D8003231E8E0F6E00E943231E9E0F6E00E94A8
:1029E8003231EAE0F6E00E943231EBE0F6E00E9494
:1029F8003231E0915508E03009F076C1E0E0E0932B
:102A0800B402A091B402A436B8F40E94DC300E944B
:102A18003931AE2FE0910906EF70EA1751F40E94A0
:102A2800DC30E25FFF4F0E944031E0910A06EA176E
:102A380019F00E94E730E5CFA091B402A43609F05E
:102A480061C0E0E0E093B402A091B402A43608F0BB
:102A580042C00E94DC300E943931EF3039F40E94C4
:102A6800DC30E25FFF4F0E94453171F00E94DC309C
:102A7800E45FFF4F0E94453131F40E94DC300E9430
:102A88004A31E03F09F024C00E94DC300E945131F5
:102A98000E94DC30E35FFF4F0F01E0910206E07F08
:102AA800AE2FE0910906EF700E9459310E94DC3088
:102AB800E25FFF4FDF01E0910A060E943137E091A3
:102AC8000306E03021F00E94DC300E945E3103C032
:102AD8000E94E730B9CFA091B402A43699F4E3E09C
:102AE800EA93EAECF3E00E945B2EE0910906EF70AE
:102AF800EA930E94D708E0910A06EA930E94D70851
:102B0800E0E013C1A0910006A130C9F50E9466312A
:102B180019F40E94FF3099F10E94DC300E946C3158
:102B2800EA1768F10E94DC300E946C31AE1768F039
:102B38000E94DC300E946C31EA1731F40E94743133
:102B48000E944A316E1708F01AC00E94DC300E94B9
:102B58006C31EA1721F00E94DC300E9451310E944A
:102B680074310E944A31E61751F00E94DC300E940D
:102B780039310E9479310E947C310E9480310E9453
:102B8800DC30E45FFF4F0E94453161F40E94DC3085
:102B98000E944A31E03E31F4E3E0EA93E6EDF3E0E7
:102BA8000E945B2E0E948431E093FE02F093FF02A4
:102BB8000E94663119F40E94FF3031F00E94DC3027
:102BC8000E946C31AE1708F019C00E948D310E9426
:102BD80092310E94DC300E94A9310E94AF310E94DC
:102BE800A931E295E07F6E2F0E94DC300E94B5315A
:102BF800E2EEF3E00E945B2EE0E097C00E946631AF
:102C080019F40E94FF3031F00E94DC300E946C31D0
:102C1800EA1709F038C00E9474310E944A316E17D1
:102C2800C8F40E948D310E9492310E94DC300E94CB
:102C3800A9310E94AF310E94A931E295E07F6E2F41
:102C48000E94DC300E94B531E2EFF3E00E945B2E77
:102C5800E0E06BC00E9474310E944A31E61790F49C
:102C68000E94DC300E9439310E9479310E947C3107
:102C78000E948031E0910306E03021F00E94DC30B0
:102C88000E945E311CC00E94DC300E9451310E94BB
:102C980074310E944A31E61751F00E94DC300E94DC
:102CA80039310E9479310E947C310E948031E09153
:102CB8000306E03021F00E94DC300E945E310E9461
:102CC800DC300E94C331EF3FAFEFFA0721F40E94D6
:102CD800DC300E945E310E94DC300E94C3310E94C9
:102CE800C9310E94843106C0E0E0F0E00E94C93199
:102CF800E0E0F0E0E093FE02F093FF02E0912103B0
:102D0800E03031F4E0E0F0E0E093FE02F093FF02FF
:102D1800E0910606E0932503E0910706E093260379
:102D2800E0910806E0932703E1E019910895F298ED
:102D3800F198E0E0E0938802E0938902E0935A0872
:102D4800E0935B08E0935C08E0935D08F0980E94CC
:102D5800CE310895E1E6F3E00E949530A091E802B3
:102D6800E0910102EA1731F4A091E902E091020230
:102D7800EA1749F00E94C92DE3E0EA93E2E0F4E0A3
:102D88000E945B2E02C1E3E0EA93EFE0F4E00E94C8
:102D98005B2E0E94D50A02C1E8ECF0E00E94002FE9
:102DA800EDE1F4E00E949530E0910002E0935608CE
:102DB800E0910102E0935708E0910202E09358087D
:102DC800E0910302E0935908E091CF03E03041F02D
:102DD800E3E0EA93EFE1F4E00E945B2E0E94D83131
:102DE8000E94D50ADBC0E3E0EA93E4E2F4E00E9443
:102DF8005B2EEFE8F2E00E949530EEE9F2E00E94E7
:102E0800C52D0E94B30A0895E091FA02F091FB02E1
:102E1800F695E795E0938B02E0E0E0938A02BEC066
:102E2800A0DBE091CF03E03031F0E3E0EA93E0E3A8
:102E3800F4E00E945B2E0E9422310E94143130D5AA
:102E4800E03049F4ECE3F4E00E945430E3E0EA9324
:102E5800E1E5F4E096C00E9422310E94143191D538
:102E6800E03049F4E1E6F4E00E945430E3E0EA930C
:102E7800EAE7F4E086C0E091CF03E03021F0E9E82A
:102E8800F4E00E94C52D8AC03FDBE091CF03E0301B
:102E980021F00E946F300E94ED31E3E0EA93ECEA02
:102EA800F4E00E945B2E0E94010FE03039F4E3E069
:102EB800EA93ECEBF4E00E945B2E67C00E94F431C9
:102EC8006BC00E94F93129F0ECECF4E00E94143256
:102ED8005CC0E3E0EA93EBEDF4E00E945B2E0E9415
:102EE800CE310E94183209F450C00E947F1EE03093
:102EF80009F44BC00E941F32B8F40E94B30A0E9422
:102F080030320E94393219F40E940C1F3EC0F099E9
:102F180008C00E94473281D4E03019F40E940C1F87
:102F280034C00E945632E6CF37C00E94F93169F5A5
:102F38000E94D50AE3E0EA93EBEEF4E00E945B2EF0
:102F48000E94CE310E94183201F10E947F1EE030AB
:102F5800E1F00E941F3200F50E9430320E9439329F
:102F680019F40E940C1F11C0F09911C00E94473239
:102F780077D4E03061F40E940C1FE3E0EA93E9EFB4
:102F8800F4E0FA93EA930E945408E0E00895F19976
:102F980003C00E945632DDCF0E940C1FE1E0089565
:102FA8000E946432E881EA93ECDA21960895229629
:102FB800089524971A930A930E946932EAE0F5E08B
:102FC8000E94A2300E94452E0E946F320E947432E5
:102FD8000E946F320E9477320E947A32ECE0F5E06C
:102FE8000E94813211F4E0E0BAC0E7E1F5E00E9406
:102FF800CA3011F4E0E0B3C00E9489320E94643004
:103008008F01E4E2F5E00E94CA3011F4E0E0A7C0C5
:103018000E940D3161DA0E948E320E9493320E9422
:10302800423709F49BC0A091AD02B091AE020E9454
:103038005830EF930E948932E1810E949832AF9113
:10304800EA2BE0938D020E948932E2810E949D3230
:10305800EF930E948932E3810E949832AF91EA2B64
:10306800E0938E020E948932E4810E949D32EF93A0
:103078000E948932E5810E949832AF91EA2BE09351
:103088008F020E948932E6810E949D32EF930E944E
:103098008932E7810E949832AF91EA2BE09390023F
:1030A8000E946F320E94A332B8D3E03041F4E3E0CB
:1030B800EA93EFE2F5E00E949930E0E050C00E9408
:1030C8006F320E94A332CCD3E03061F4EDE3F5E037
:1030D8000E941432E3E0EA93EDE5F5E00E949930AE
:1030E800E0E03DC00E946F32ECE6F5E0FA93EA9327
:1030F8000E94AA320E94AF3284E00E94912C289646
:10310800E4E2F5E0FA93EA930E946F320E94B63245
:1031180011F4E0E024C00E94251FE03011F4E0E043
:103128001EC0E4E2F5E00E94CA3011F4E0E017C0E6
:10313800E3E0EA93E2E7F5E00E9499300E94BE32AC
:10314800EDE8F2E00E947F2EEDE8F2E00E94832E87
:10315800E091CF03E03011F00E943F2EE1E01981A9
:103168000881269608951A930A9316DEE03011F422
:10317800E0E0ADC00E946932EAE0F5E00E94A230CA
:103188000E94452E0E946F320E9474320E946F3254
:103198000E9477320E947A32E7E7F5E00E94813296
:1031A80011F4E0E094C0E7E1F5E00E94CA3009F4C8
:1031B8008DC00E9489320E9464308F010E94C23201
:1031C8002CD3E03051F4E3E0EA93E4E8F5E00E9420
:1031D80099300E943F2EE0E07AC00E94C23240D36C
:1031E800E03071F4EDE3F5E00E941432E3E0EA9395
:1031F800E3E9F5E00E9499300E94C92DE0E067C03C
:10320800E09156080E94C732E0938D02E09156087B
:10321800EA930BD9E0938E02E09157080E94C732D7
:10322800E0938F02E0915708EA93FFD8E093900269
:10323800E09158080E94C732E0939102E091580843
:10324800EA93F3D8E0939202E09159080E94C732BA
:10325800E0939302E0915908EA93E7D8E093940247
:10326800E2EAF5E0FA93EA930E946F320E94B632DE
:1032780041F4E3E0EA93EDEAF5E00E949930E0E0FA
:1032880026C00E94251FE03041F4E3E0EA93E9EB11
:10329800F5E00E949930E0E01AC0E2EAF5E00E9409
:1032A800CA3041F4E3E0EA93E5ECF5E00E94993096
:1032B800E0E00DC0E091CF03E03041F0E3E0EA93B5
:1032C800EFE1F4E00E9499300E94D831E1E00991E1
:1032D80019910895E3E0E093AF02E0912203E093AF
:1032E800B502E0EDF5E00E941432299AE091550804
:1032F800E03079F50E94DC300E94C331A091FE02D3
:10330800B091FF02EA17FB0740F40E94DC300E94EC
:10331800C331EE3FAFEFFA07E1F40E94752E309704
:1033280039F0E3E0EA93E2EFF5E00E94993090C0CB
:103338000E94FF3031F00E94DC300E94C3313A977E
:1033480008F407C0E3E0EA93EEEFF5E00E94993055
:103358007FC0EDDCE1E0EA9314D9E03009F478C0ED
:1033680042DD5EDDE03009F473C0CED8E0E0EA93D8
:1033780017DEE03009F46CC047DDE03009F468C0BE
:1033880032DDD5DCE6E4E0938C027EDDE03021F42A
:10339800ECD8E03059F75CC0E091CF03E03031F071
:1033A8000E946F300E94ED310E943F2E0E94F4313E
:1033B800BEDCE0912503E03041F083DDE03009F424
:1033C80047C0B3DDE03009F443C0E0912603E030A4
:1033D80051F0EFDDE03039F4E3E0EA93ECE0F6E0B9
:1033E8000E94993035C0E0912703E03051F0BBDEF0
:1033F800E03039F4E3E0EA93EAE1F6E00E9499303C
:1034080027C00E941D310E9414314AD2E03029F4AD
:10341800E8E2F6E00E9454301BC076D8E1E0EA9377
:10342800BFDDE030A9F00E941D310E941431A9D2FD
:10343800E03029F4E1E6F4E00E94543009C064D891
:10344800E091B502E0932203E1E0E093AF0229980E
:103458000E9464320E94DC300E94C3310E94C9314C
:10346800A091AF02A13059F0E1E0E093CF03A09121
:10347800AF02A43019F0E2E0E093AF024DC0E0E003
:10348800E093CF030E94663119F40E94FF3049F09F
:103498000E94DC300E94C33131960E9429370E9475
:1034A800C9310E948A08A091B002B091B102E4E645
:1034B800F0E00E946B360E94CC32E3E0EA93ECE342
:1034C800F6E00E945B2EE1E6F8E00E94832EE2E43B
:1034D800F6E00E94C52D0E94FA2EE3E0EA93E6E4A6
:1034E800F6E00E945B2E0E94663119F40E94FF30BC
:1034F80051F0E091FC02F091FD020E94CC32E1E62D
:10350800F8E00E94832EE1E0EA93EA93E4EFF1E029
:10351800FA93EA930E942D09089525970E94563739
:1035280020E030E040E0F09912C000E010E0ED85C6
:10353800FE850E171F0750F4F801AB85BC85AE0F4A
:10354800BF1FEFEFEC930F5F1F4FF1CFF09AF19B86
:1035580002C0E1E05EC1F299F9C00E94FE11EA33AF
:1035680029F0E1E5F6E00E94543052C10E94D432BD
:10357800EE83E295E07FEF930E94D432AF91EA0F99
:10358800EE834E810E94D4320E94D932EF930E947A
:10359800D432AF910E94DD32FF27662777270E9439
:1035A800E1320E94D4320E94D932EF930E94D43281
:1035B800AF91EA0F5E2F450F0E94E632E8E00E94C5
:1035C800F735DF01CB01E52FF0E00E94EB320E94D6
:1035D800E132E0915A08F0915B0860915C087091C3
:1035E8005D080E94E6320E94C1350E94E132ED85F5
:1035F800FE85AF85B88989899A890E94F0320E9430
:10360800E6320E94513710F0E1E003C10E94D43243
:103618000E94D932EF930E94D432AF91EA0F5E2F05
:10362800450F513019F4F19AE1E0F3C0523009F036
:103638004BC00E94D4320E94D932EF930E94D432F8
:10364800AF910E94DD32F0E00E943736DF01CB01F6
:10365800ECE00E94F7350E94F5320E94D932EF93D0
:103668000E94D432AF910E94DD32F0E00E943736DA
:10367800DF01CB01E4E00E94F735A0915A08B09130
:103688005B0880915C0890915D080E94D5350E9486
:10369800F5320E94D932EF930E94D432AF910E9442
:1036A800FE3219F00E940333B3C00E94FE11ED30C0
:1036B80019F00E940633ACC00E94FE11EA3019F0DE
:1036C8000E940633A5C043CF5330E9F50E94D43297
:1036D8000E94D932EF930E94D432AF910E940933ED
:1036E8000E94D932EF930E94D432AF910E940933DD
:1036F8000E94D932EF930E94D432AF910E940933CD
:103708000E94D932EF930E94D432AF910E940933BC
:103718000E94D932EF930E94D432AF910E94FE32B8
:1037280019F00E94033374C00E94FE11ED3019F0A5
:103738000E9406336DC00E94FE11EA3019F00E9403
:10374800063366C004CF00E010E009C000915E08AF
:10375800112740915F08E0916008EE83F298EE81AE
:10376800D801F0E0AE17BF0768F50E94D4320E9476
:10377800D932EF930E94D432AF91EA0F5E2F450FF2
:10378800F09B03C05F3F09F0F098F901AB85BC8559
:10379800EA0FFB1F50832F5F3F4FED85FE85319762
:1037A800E217F30760F4F29AE02FEF5FE0935E0808
:1037B80040935F08EE81E0936008E1E02AC00F5F64
:1037C8001F4FCDCFF29B02C0E1E023C00E94D4324C
:1037D8000E94D932EF930E94D432AF910E94FE32F8
:1037E80019F00E94033314C00E94FE11ED3019F045
:1037F8000E9406330DC00E94FE11EA3019F00E94A3
:10380800063306C0ED85FE85E217F30709F09FCE63
:10381800E0E00E945D37639608950E940D33EC81C5
:10382800FD810E171F0718F40E94223308F014C0F8
:10383800E4E4EA930E94B7110E942D33EA930E94B0
:103848003433A0910002AD3021F0E0E01981088105
:10385800DDC20F5F1F4FE3CFE1E019810881D6C2B7
:103868000E940D33EC81FD810E171F0718F40E948A
:10387800223308F011C0E4E6EA930E9434330E9430
:103888002D33A0910002EA1721F0E0E019810881A8
:10389800BDC20F5F1F4FE6CFE1E019810881B6C2B4
:1038A8001A930E94B512E3E0EA93EFE9F6E00E946A
:1038B8005B2EEB81FC810E943833EF93E981FA811A
:1038C8000E943833E095AF910E943D330E9438330F
:1038D800E03039F00E94B30AE6E60E9442330E94C3
:1038E800B30AEB81FC810E944733EF93E981FA81A7
:1038F8000E944733E095AF910E943D330E944733C1
:10390800E03039F00E94B30AEEE60E9442330E948A
:10391800B30AEB81FC810E944C33EF93E981FA8171
:103928000E944C33E095AF910E943D330E944C3386
:10393800E03039F00E94B30AEFE60E9442330E9459
:10394800B30AEB81FC81FA93EA930E94FA11EF9390
:103958000E94BE2E0E94FA11E095AF91EA2B1E2F0D
:103968000E94BE2E0E94FA11E03039F00E94B30A7C
:10397800ECE60E9442330E94B30AE1E018812596E2
:1039880008951A930A930E94B512E3E0EA93EDEAC8
:10399800F6E00E945B2EEC81FD810E943833EF93A4
:1039A8000E945133E095AF91EA2B1E2F0E945133AC
:1039B800E03071F0EBEBF6E00E94953000910002E8
:1039C8000E945133E0950E2B101711F0E0E05EC015
:1039D800EC81FD810E944733EF930E945433E095B8
:1039E800AF91EA2B1E2F0E945433E03071F0EDEBBB
:1039F800F6E00E949530009100020E945433E09551
:103A08000E2B101711F0E0E041C0EC81FD810E94FF
:103A18004C33EF930E945733E095AF91EA2B1E2F5A
:103A28000E945733E03071F0E3EBF2E00E949530EA
:103A3800009100020E945733E0950E2B101711F0E9
:103A4800E0E024C00E945A330E94FA11EF930E94CA
:103A5800B92E0E94FA11E095AF91EA2B1E2F0E9411
:103A6800B92E0E94FA11E03081F0EFEBF6E00E94E7
:103A78009530009100020E94B92E0E94FA11E0953B
:103A88000E2B101711F0E0E001C0E1E01981088168
:103A980026960895E0E0E0938000E3E0E09381005B
:103AA800EFEFE0938500E2ECE0938400E1E0E0933F
:103AB8006F000895E881E03019F0E4E0E093AF0288
:103AC800E3E0EA93E981AAE1B1E0F0E0EE0FFF1F3D
:103AD800EA0FFB1F0E94F9360E94993050C21A93D0
:103AE80013E01030D1F1115099D2E0937F08E03003
:103AF80029F1E17029F0E3E0EA93E3EAF7E011C085
:103B0800E0917F08E27029F0E3E0EA93E4EBF7E064
:103B180008C0E0917F08E37041F0E3E0EA93E5EC48
:103B2800F7E0FA93EA930E9454081030D1F60E9405
:103B3800FA2EE4E0E093AF02E0E02BC2E4EDF5E01A
:103B4800FA93EA930E94E124E0937F08E03019F0A9
:103B5800103039F602C0E1E01CC20E945F3319C27E
:103B68000E94583730E0E1E0E093B20275D0E030CF
:103B780009F46DC0A8D00E9466330E946B3309F027
:103B880066C00E947933E050FA4FA0E0A083313438
:103B980008F040C00E946F320E9466330E947E3354
:103BA800FA93EA930E94CD2CE32FF0E0E852FF4FFE
:103BB800249100E010E00E947E330E171F0710F4D6
:103BC800213008F414C0F801E357FD4FBF01ADE8F8
:103BD800B2E00E948433ADE8B2E00E948A33A35772
:103BE800BD4FEC91E227EC930F5F1F4FE4CF0E948B
:103BF8006F32E5EDF7E0FA93EA93E5EDF7E0FA9333
:103C0800EA930E94102DEA930E941B2DE03011F0D8
:103C18003F5FBDCF3134D8F420932103213098F091
:103C280000E010E00E94953370F40E949933A0E000
:103C3800B6E00E948A33A050BA4FEC91E227EC9389
:103C48000F5F1F4FEFCFE1E00E945F3748C10E942E
:103C58005F330E945F3743C11A9313E00E949D307F
:103C6800E0EEF7E00E94A2300E94452E0E946F32DB
:103C78000E9474320E946F320E947732E0EEF7E0C1
:103C8800FA93EA930E94EC2C0E949D30E2EEF7E052
:103C9800FA93EA930E94EC2C103081F011500E94A4
:103CA8009D300E940626E0937F08E03021F40E94B0
:103CB800A03331F403C0103079F702C0E1E069C1E4
:103CC8000E945F3366C10E94A03329F0E0917F080B
:103CD800EA93F0DED0C0CDC00E94FD360E940237C4
:103CE8000E945228E0937F08E03019F00E945F3369
:103CF800F6C0E1E0F4C00E945837E09121033E2F5E
:103D08000E9466330E946B33B1F4303099F000E0C2
:103D180010E00E94953370F40E949933A0E0B6E059
:103D28000E948A33A050BA4FEC91E327EC930F5FBF
:103D38001F4FEFCF01C007C00E94AC330E94B633BB
:103D48000E945F37CCC00E945F330E945F37C7C0B4
:103D58000E945837E09121033E2F0E94E72F09F473
:103D680051C00E945A33E885F9850E94BE33E0911C
:103D78007F08E03071F500E010E00E94953340F5CF
:103D88003030B1F0F801AC81BD81EA0FFB1FBF01F3
:103D98000E94C933EE0F0E2E0E94C933EE1FE0E0D9
:103DA800EE1FE029DB01EC930E94C933E327EC9373
:103DB8000E94C933F0E0A0918202B0918302EA0F19
:103DC800FB1FE0938202F09383020F5F1F4FD5CF52
:103DD80001C018C00091000810910108EE81FF8110
:103DE8000E171F0750F4F801AC81BD81AE0FBF1F3D
:103DF800EFEFEC930F5F1F4FF1CF0E94AC330E949F
:103E0800B63302C00E945F330E945F372896089538
:103E180008951A930E947933A0910208B09103087B
:103E2800AE17BF0708F067DFA2E0B8E00E94902D48
:103E38003197E050FA4F1081A8E1B8E00E94D033E2
:103E4800A7C00E949D300E940626E0937F08E030BC
:103E580091F40E94A03379F40E946633E0E0F2E026
:103E68000E94BE33E03029F4E0E0E0930208E093DA
:103E78000308E1E00895E0E008950E94D9330E9424
:103E880066330E945A330E94692D8F01309739F0AA
:103E98000E94B92E0E94102D31960E0F1F1F1CC0B4
:103EA8000E94D9330E94B92EE8DF8F013097A1F024
:103EB8000E946F321A930A93E0E2EA930E94332D2C
:103EC8000DE812E01A930A93EDE0EA930E945B2D45
:103ED800E00FF11FA0E0A083F80119810881249662
:103EE80008950E94D933ADDFE030A1F10E94DE339E
:103EF800C4DF8F01309741F1EA81FB81309779F077
:103F0800AC81BD81EC91D801EC930F5F1F4F0E94EB
:103F1800E333EA81FB813197EA83FB83EDCF0E948B
:103F2800A033C1F40E9466330E9479333197FA9323
:103F3800EA930E94E93371F40E94FC2D0E94FC2D43
:103F48000E94E93339F401C005C0E1E01981088114
:103F58000C94A524E0E0198108810C94A524E4B10F
:103F6800EC62E4B9E5B1EC63E5B9E0E5ECBDE1E0AC
:103F7800EDBD0895E881EEBDEDB5E078E9F3219651
:103F880008951A93EFEFEEBDEDB5E078E9F31EB5AD
:103F9800E12F19910895F5DF08951A930A93EE8198
:103FA800E07849F0EE81EF77EE83E7E70E94F3339C
:103FB8000E2F023070F52A9AE4DF2A98E2DFEE81AC
:103FC8000E94FC33E8E10E940336EA93D3DF0E94A3
:103FD80093320E942D360E94FC33E8E00E9403369B
:103FE800EA93C8DFEA81EA93C5DF11E0AE81A03425
:103FF80009F415E9AE81A83409F417E81A93BADF71
:104008001AE0BFDF0E2F07FF02C0115009F401C0EC
:10401800F8CFE02F198108812796089524970E94E8
:1040280056379DDF2A9905C00E94FC2D0E94043452
:10403800F2D014E6103019F0A4DF1150FBCF30E0B5
:10404800E0E40E94F333E13009F075C0E8E4EA9354
:10405800EAEAF1E060E070E00E940B34E13009F038
:1040680045C010E0143050F40E940F34FF93EF93D2
:1040780088DFAF91BF91EC931F5FF4CFA885A13083
:1040880019F4A985AA3A09F030C040EE5EE2042E80
:10409800052A51F0E9EEEA93E0E0F0E060E070E430
:1040A8000E940B34E03009F403C041505040EFCF78
:1040B800042E052A29F0EAE70E94F333E03009F0DC
:1040C80014C010E0143050F40E940F34FF93EF93A3
:1040D80058DFAF91BF91EC931F5FF4CFEE81E0748E
:1040E80011F0ECE001C0E4E03E2F25C0E9EE0E94AB
:1040F800F333E23018F432E009EE02C031E001E4B3
:1041080048EA51E6042E052A31F00A930E94043445
:1041180044DFE03009F403C041505040F3CF042E8F
:10412800052A41F0E0E5EA930E9416340E940B3418
:10413800E03009F030E0309380082DDFECB5EC7FFB
:10414800ECBDEDB5E160EDBD303011F0E0E001C04F
:10415800E1E00E945D37CAC20E945837E0918008AA
:10416800E87031F40E941B340E9420340E942734E6
:1041780011E0E1E5EA930E942C340E940B34E03010
:1041880009F044C020E335E7FCDE0E2F0F3F19F499
:104198002150304009F401C0F7CF0E3FB9F5AE8188
:1041A800BF81E2E0F2E0EA1BFB0BDF01EC81FD815D
:1041B800AE1BBF0B9D01EE81FF81309739F0E1DE28
:1041C800EE81FF813197EE83FF83C9F7EC85FD858A
:1041D800309781F00E940F303197FF93EF93D1DE33
:1041E800AF91BF91EC93EC81FD813197EC83FD8316
:1041F80089F706C0EC81FD813197EC83FD83D1F707
:10420800C0DEF90131979F01D9F710E0C4DEE12F34
:104218000E945F372EC30E94583711E0E885F98560
:104228003097F9F02C813D81022E032A31F0E0917C
:104238008108F0918208309709F411C0A885B985E2
:10424800ED91A887B987EA9395DEA1E8B8E0ED91EA
:10425800FD913197FE93EE9321503040E5CF10E069
:104268004DC00E9431340E94423721F1E09180080C
:10427800E87041F40E9431340E942034EC83FD83BD
:104288006E837F83E8E5EA93ED81FE816F8178850F
:104298000E940B34E03069F4EFEFEA936BDEEEEF47
:1042A800EA9368DEE0E0F2E0E0938108F0938208A8
:1042B80010E024C0E0918108F091820832969F01B5
:1042C800F90121503040309721F0E0E0EA9352DEC6
:1042D800F7CF57DEEF71E53081F428EE3DEF51DE80
:1042E800EF3F19F0022E032A09F403C02150304091
:1042F800F6CF022E032A09F010E04DDEE12FF4C1BB
:104308001A930A930E811F81EA81FB813197EA8310
:10431800FB83319649F01F930F930F5F1F4FEC817A
:10432800AF91BF91EC93F0CF198108810AC30E9425
:1043380056370A851B852885398540E050E0EE818F
:10434800FF813197EE83FF83319681F0D8010F5FAB
:104358001F4F0C901124D9012F5F3F4FAC91BB2701
:10436800F001EA1BFB0BAF01309709F001C0E7CF62
:10437800FA010E945D372C96089526970E945637B9
:104388000E943634EE83FF830E943B340E944034FF
:1043980050F0AE81BF8118960E94E4360E943B34EB
:1043A8000E94513708F0A7C0AE81BF81EC91F0E0C0
:1043B800E130A0E0FA0709F04DC02C853D85F901F0
:1043C800F695E7952E0F3F1FF901F170AF01D9015E
:1043D800E0E0F2E00E946B369F01EFEFF1E0E417B6
:1043E800F50759F00E9448340E9402375A934A93BD
:1043F8000E94543409F07FC01FC00E9448340E94B4
:104408000237EFEFF1E0FA93EA930E94192EA4DE47
:10441800E03009F070C0FE0139960E945C34F90161
:104428000E94F0320E94AF320E94FC2D0E94192E89
:1044380093DEE03009F05FC008851985EC85E170EE
:1044480021F0F8010E941F3602C0F801FF706627AC
:10445800772755C0E230A0E0FA0709F5FE01389643
:104468000E945C349F938F93BF93AF930E946534EF
:10447800E0E0F1E060E070E00E948336AF91BF9128
:104488008F919F910E946A34F070EE0FFF1F0E9477
:10449800713489F5E885F9856627772730C0E330D8
:1044A800A0E0FA0741F5FE0138960E945C349F931C
:1044B8008F93BF93AF930E946534E0E8F0E060E02B
:1044C80070E00E948336AF91BF918F919F910E94B7
:1044D8006A34EF77F0700E941336FA93EA93E4E0B7
:1044E800F0E00E94743439F40E941B34EF7FFF7FA0
:1044F8006F7F7F7004C0E1E0F0E060E070E00E9450
:104508005D37609608950E947A340E949332E25093
:10451800F040604070400E948E32F801A085B1855D
:1045280082859385E2E0F0E060E070E00E940C375D
:104538000E94C6350E9481340E94513728F00E949B
:1045480086341981088137C2F801E181F0E00E94C0
:1045580081340E9437360E9446367F936F93FF93CB
:10456800EF93D80154960E94E436AF91BF918F9192
:104578009F910E94C135198108811DC224970E940C
:104588007A34AE81BF810E948B34AE81BF8114968C
:104598000E9490340E94933449F0D80118960E94E2
:1045A800E4360E9481340E94513720F0E1E01981FD
:1045B8000881C7C10E949C3421F4D801AC91A33072
:1045C80009F004C0D80150960E9490340E9493329A
:1045D800AE81BF8118960E94EF360E949C3421F06C
:1045E8000E94BE3290DF04C0D80150960E94E43683
:1045F800AE81BF811C960E94EF36E0E019810881E8
:10460800A0C124970E94A034A885B9850E94E036ED
:1046180031968F01002E012A31F01C960E94E43653
:104628000E94423711F4E3E05FC0F801EF7009F02F
:1046380056C0A885B9851C960E94D033A885B9852F
:1046480018960E94E4360E94423751F4D901149614
:104658000E94E0360E171F0710F0E3E045C03FC088
:10466800F8010E941F36DF01F901E181F0E031977E
:10467800EA23FB23309799F5E885F985A085B1856C
:10468800828593850E94A734EC83FD836E837F83A4
:10469800AC81BD818E819F810E94403410F4E1E09D
:1046A80023C0D90118960E94E436AC81BD818E8161
:1046B8009F810E94513710F0E3E016C00E94313408
:1046C800A885B98518960E94EF360E9431340E9459
:1046D800023719DFA885B9851C960E94EF36A88590
:1046E800B9850D931C93E0E00E945F372A960895E0
:1046F8000E9458370E945A3341DF1E2F103019F09C
:104708000E945F3758C10E94AB343A932A93EE81D6
:10471800FF810E94B3340E940737AA85BB850E9497
:10472800E036EF70F070EE0F0E940F36FA93EA93BE
:10473800E0E2F0E00E94743411F0E1E001C0E0E052
:104748001E2F103011F5D9010C91003011F413E02F
:104758001CC0F901E385E87079F43A932A93EE8155
:10476800FF81A281B381BA93AA93EBE0F0E0FA93B8
:10477800EA93DDDD309709F001C007C00E945A3383
:1047880040DF1E2F103009F4C0CFE12F0E945F37A1
:1047980012C124970E945637AC85BD8512960E9497
:1047A800E036E887F987FA93EA93E0E2F0E0FA93D3
:1047B800EA93EBE0F0E0FA93EA93A2DDE0E05E2F03
:1047C8002E2F38E0AA85BB850E94B8340E94BD34DC
:1047D8001C91113210F01F3209F435C01E3211F04D
:1047E800531740F0383011F41E3209F02CC058E04D
:1047F8003BE028C0103838F0E12FF0E0E058F040F6
:10480800E65CFE4F1491E0E0E03041F0E32FF0E089
:104818003197A52FB0E0AE17BF070CF40AC00E946D
:10482800BD340C910E94C53410830E94C5340083A6
:1048380009C0113610F01B3708F001C010520E9451
:10484800C5341083C3CFE22FAE81BF81F0E0EA0FF9
:10485800FB1FAA85BB85ED93FC93113210F4E1E0B0
:1048680001C0E0E0A885B9851B96EC93E0E00E94C2
:104878005D372E9608950E945837AC81BD81AC9162
:10488800A03219F40E94E333F8CFAC81BD81AC911A
:10489800AF3211F40E94E333AE81BF8114960E94B7
:1048A800CD34AC81BD81AC91A13258F40E94DE3385
:1048B80065DE1E2F0E943634A681B781E0E0EC93B6
:1048C8003DC00E94DE33FE013696FA93EA9361DF1B
:1048D8001E2F103099F50E94DE330ADF1E2F10308C
:1048E80041F0133019F40E94D13409F001C014E0EA
:1048F80025C00E94D13411F50E94AB34F901E3853B
:10490800E07111F414E01AC0D90154960E94E036FF
:104918000E945F307F936F93FF93EF93D9015A966C
:104928000E94E036AF91BF918F919F910E94BB2F5B
:10493800AE81BF8114960E94EF36C3CFE12F0E944B
:104948005F37289608950E945A330E94BE32EEEFD0
:10495800F1E00E94713411F0E3E02DC00E94D934D7
:10496800E535AAEAFA0711F0E2E025C00E945A33B9
:104978000E94BE32E6E3F0E00E94713431F40E94F6
:10498800D934E634A1E4FA0709F002C0E0E013C024
:104998000E945A330E94BE32E2E5F0E00E94713470
:1049A80031F40E94D934E634A1E4FA0709F002C0D0
:1049B800E0E001C0E1E026960895E4971A93E0E06C
:1049C800E0938308E0938408EDA9FEA9309709F4E1
:1049D80015C124DBE17011F0E2E011C1E0E0ED87E0
:1049E800EE87EF87E88B0E94DE34ADDF1E2F113093
:1049F800E1F40E94DE34EEEBF1E0FA93EA93E0E1B1
:104A0800F0E00E94743411F013E00FC0ED89E0303B
:104A180061F0E98DFA8D6B8D7C8DED87FE876F8750
:104A2800788B0E94DE348FDF1E2F133011F4E1E003
:104A3800E6C0103011F0E7E0E2C00E94DE34EDE09D
:104A4800F0E0FA93EA93E4E2F0E00E94743411F0A3
:104A5800E1E0D5C0FE01B7960E94E93466277727C2
:104A68000E94EE340E942C340E94423741F4FE0129
:104A7800F5963D97DF010E94E4360E94EE34EC89FA
:104A8800F0E0A985BA858B859C850E9437360E94FF
:104A980046360E94EE34FE017F960E94E934AD85C9
:104AA800BE858F8598890E94F032ADA9BEA91C9653
:104AB8000E94EF36E989ADA9BEA91196EC93FE01D3
:104AC800B2960E94E934ADA9BEA91496ED93FC9361
:104AD800FE01B4960E94E93466277727ED83FE83AA
:104AE8006F8378870E94423751F4FE01F1963D9713
:104AF800DF010E94E436ED83FE836F837887FE0131
:104B08007F960E94E934AD81BE818F8198856627A2
:104B180077270E940C370E94C635A985BA858B85F0
:104B28009C850E94C6357F936F93FF93EF930E94F5
:104B3800F334AF91BF918F919F91662777270E9499
:104B4800CB35EDA9FEA90E94FB340E948336EE5FA7
:104B5800FF4F6F4F7F4FE983FA836B837C83ADA947
:104B6800BEA918960E94EF3611E0A981BA818B81FF
:104B78009C81A73FEFE0BE07E0E08E07E0E09E07DC
:104B880008F012E0A981BA818B819C81A73FEFEFE1
:104B9800BE07E0E08E07E0E09E0708F013E0ADA94D
:104BA800BEA91C93133029F4E8A9F9A96AA97BA91D
:104BB80002C00E940035ADA9BEA950960E94EF36EA
:104BC8000E9400357F936F93FF93EF930E94F33415
:104BD800AF91BF918F919F910E94F032ADA9BEA96C
:104BE80054960E94EF36ADA9BEA91296E0E0EC9368
:104BF800EDA9FEA9E0938308F0938408E0E018810A
:104C0800E7960895EC970E94A034022E032A11F427
:104C1800E6E046C0D9011296E0E0EC93FE01349636
:104C2800D9011696ED93FC93FE01B496EAABFBAB63
:104C3800FE01F096FA93EA93FE01EE5BFF4F0190B6
:104C4800F081E02DFA93EA9316DE1E2F103009F05A
:104C580027C0EC81E03019F0EF85E07111F0E3E056
:104C68001FC0E88DF98D0E945F30DF01CB01EE8D0A
:104C7800FF8D0E94BB2FD90190960E94EF36E8A1C4
:104C8800F9A16AA17BA1D9015C960E94EF36D901EE
:104C980058960E94CD34D9011296E1E0EC93E0E0F9
:104CA8000E945F37EF96239608952E970E945637F5
:104CB800288D398D0E943634EE83FF83AC89BD89F7
:104CC8000E948B34EE81FF81309711F4E6E0D6C064
:104CD800EE81FF81A281A17011F4E5E0CFC0EE81E1
:104CE800FF81A48DB58D868D978D9F938F93BF93EC
:104CF800AF930E940735EF91FF916F917F910E94CA
:104D0800C6350E9427340E941B34AE89BF89882784
:104D180099270E944C3720F4E885F985EE8BFF8BA4
:104D2800EE89FF89309709F4A3C00E940735FD0179
:104D3800BC01F170309709F052C00E9407350E94FB
:104D48000E35EE81FF810E94FB340E94BB360E9423
:104D5800423749F50E9407350E94463731F4AE8143
:104D6800BF8190960E94E43604C00E9414350E94C8
:104D7800A734E88BF98B6A8B7B8BA889B9898A89D8
:104D88009B890E94403408F475C0E889F9896A89CA
:104D98007B89AE81BF8194960E94EF36AE81BF8138
:104DA8001396E0E0EC930E9414350E940737ABDBC2
:104DB8000E941B35EC85FD856E857F850E944237F4
:104DC80009F458C0AE81BF810E9420350E943B344F
:104DD8000E94EB32AE81BF8198960E94EF36EE8139
:104DE800FF810E942735A0E0B2E0AE1BBF0BAD01EA
:104DF800EE89FF89E417F50710F44E895F89E88D7D
:104E0800F98D309719F4E0E0F0E001C0F901FA9368
:104E1800EA93E885F9850E942C35AC85BD855896BE
:104E28000E94E036F170FA93EA935A934A9394D920
:104E38001E2F1030F9F4EE81FF810E943335DF0117
:104E4800CB01FA010E94F032D0010E94EF36240F04
:104E5800351FEE89FF89E41BF50BEE8BFF8BAC89C0
:104E6800BD89ED91FD91E40FF51FFE93EE9358CFA8
:104E7800E0E004C0AE81BF810E9439350E945D37F1
:104E88006A9608952C970E9456370E891F8940917B
:104E9800830850918408AA89BB890E948B34042E08
:104EA800052A11F4E6E0F6C0FA01A281A17011F416
:104EB800E5E0F0C0EC89FD893097A1F4FA01A28100
:104EC800A07439F00E94FC2D0E940434A4D9E0306B
:104ED80009F401C0DCC0DA011296EC91EF7BEC9387
:104EE800E0E0D8C0FA01A281A07441F4DA01589632
:104EF800ED91FD91E070FE7FFE93EE93FA01A48D93
:104F0800B58D868D978D9F938F93BF93AF930E9496
:104F18003E35EF91FF916F917F910E94C6350E94B7
:104F28004435AC89BD89882799270E944C3720F4DD
:104F3800EE81FF81EC8BFD8BEC89FD89309709F4BC
:104F4800A4C0FA010E942735309709F05AC00E9480
:104F58003E350E940E35FA010E94FB340E94BB3692
:104F68000E94423719F50E943E350E94463729F4BF
:104F7800DA0190960E94E43607C0FA01A4A1B5A10F
:104F880086A197A10E94A7340E9449350E946534E2
:104F98000E94403408F47BC00E944E35DA01949692
:104FA8000E94EF36DA011396E0E0EC93FA01A4A12F
:104FB800B5A186A197A10E940737A5DAEA87FB87E2
:104FC8006C877D870E9453350E94423709F45FC081
:104FD800DA010E9420350E9458350E94EB32DA012E
:104FE80098960E94EF360E94FC2DFA010E942C35FB
:104FF80012D9E03009F04BC0DA011296EC91E06466
:10500800EC93FA010E942735A0E0B2E0AE1BBF0B7B
:105018009D01EC89FD89E217F30710F42C893D897D
:105028001A930A93F9010E947A2EF5D8E03079F59F
:10503800FA010E943335DF01CB01F9010E94F032F9
:10504800D0010E94EF36020F131FEC89FD89E21B85
:10505800F30BEC8BFD8BAA89BB89ED91FD91E20FD7
:10506800F31FFE93EE93FA010E942735309761F4FF
:105078000E94FC2D0E940434CED8E03041F4DA01BD
:105088001296EC91EF7BEC9357CFE0E003C0DA0186
:105098000E9439350E945D376896089560970E948E
:1050A8007A34002E012A11F4E6E0DCC0F801A2816E
:1050B800A17011F4E5E0D6C0D8015C960E945D3578
:1050C8000E944C3740F4D8015C960E94E436EA8B83
:1050D800FB8B6C8B7D8BD80158960E949034D8013D
:1050E80058960E94CD340E9464350E94463708F0D5
:1050F800B4C0F8010E94FB340E942034EA87FB8781
:105108006C877D870E9481340E94463798F40E94FC
:1051180069350E946E357F936F93FF93EF930E94DA
:1051280093320E946E35AF91BF918F919F910E94EB
:10513800513708F427C00E949332E150F040604094
:105148007040DF01CB010E945335E150F0406040D0
:1051580070400E9441360E94D035D80158960E946E
:10516800EF36D80158960E945D350E94CB35AA8B40
:10517800BB8B8C8B9D8BD80194960E94E4360E9441
:10518800493508C0D80190960E94E4360E944935F6
:105198000E9478350E9453350E9464350E944C372E
:1051A80068F50E944E350E940237E7D80E944935BB
:1051B8000E9465340E94403448F0D80118960E9435
:1051C800E4360E9465340E94513708F048C00E94B6
:1051D8007835F8010E9433350E9458350E94C13550
:1051E800D0010E94EF360E9458350E9469350E940E
:1051F800C635EA8BFB8B6C8B7D8BCCCFF8010E947C
:1052080033350E9464350E94C135D0010E94EF36C3
:105218000E944E350E94023776D90E9444350E947A
:105228004237E9F00E9464350E9416340E948336A2
:10523800D8011396EC930E946935F170309769F0A4
:10524800D8010E942035AE81BF81888599850E944A
:10525800EB32D80198960E94EF36E0E003C0D801FF
:105268000E9439351981088166960895E8B1E07F72
:10527800AE2FE881E295EF70EA2BE8B98DE08A95C8
:10528800F1F75F9A8DE08A95F1F75F988DE08A953E
:10529800F1F79BC0E881EA93E9DFE881E295E883CA
:1052A800E881EA93E3DF85E88A95F1F78EC0E88123
:1052B800F0E0EB57F74FE081A981EA0FEA93EADFC4
:1052C800E981E0938908E881E0938A0822960895A5
:1052D800E2E00E947E35ECE0EA93DCDFE1E00E9448
:1052E8007E35E0E0E0938A08E09389080895A88174
:1052F800AA3031F0E0918B08A0918908AE1768F0C8
:10530800E0E0EA93E0918A08EF5FE0938A08EA9385
:10531800CEDFA881AA3009F458C0E0918908EF5F70
:10532800E0938908459AE881EA93B4DF45984DC02F
:105338001A93A981BA81ED91A983BA831E2FE0300F
:1053480019F01A93D4DFF5CF0EC01A93E981FA81C8
:105358003196E983FA833197E4911E2FE03019F0F2
:105368001A93C5DFF3CF188123960895E7B1EF604C
:10537800E7B9579A3D9A3C9A5F9845984498E881CE
:10538800E0938B08E058E0938708E881E054E093C5
:1053980088080E94D22E0E9484350E9484350E947B
:1053A8008435E0E2EA9362DF88EC90E00197F1F758
:1053B800E8E2EA936FDFE4E0EA936CDFE5E8EA937A
:1053C80069DFE6E0EA9366DF83DF21960895B98115
:1053D800A881EC918A2FEA930E94862DA82FEE23AC
:1053E80011F01196F6CFE894EC91ED3211F468942F
:1053F80002C0EB3209F4119666277727EC918A2FC1
:10540800EA930E947E2DA82FEE2379F0FB01660F08
:10541800771F660F771F6E0F7F1F660F771FED913F
:10542800FF27E0536E0F7F1FE9CFFB011EF4E095C5
:10543800F095319622960895B981A881EC91AF93A1
:10544800EA930E94862DAF91EE2311F01196F6CFC4
:10545800E894EC91ED3211F4689402C0EB3209F44F
:1054680011960024112488279927EC91AF93EA9389
:105478000E947E2DAF91EE2389F0F001BC011BD074
:105488001AD00E0E1F1E861F971F15D0ED91FF27ED
:10549800E0530E0E1F1E8F1F9F1FE7CFF001BC01A8
:1054A80046F4E095F0956095709588273196681FC9
:1054B800781F22960895000C111C881F991F0895C3
:1054C800A991B991E991F99130962AF4E095F0956E
:1054D80031966DE26D93E89480E197E20DD088EE05
:1054E80093E00AD084E6992707D08AE005D06E2F8A
:1054F80010D066276C9308956627E817F90720F0FF
:105508006395E81BF90BC9F7662311F416F00895A3
:105518006894605D6D93089524971A930A93E0E068
:10552800FAEC6AE97BE30E948E3200E0AB85AA239D
:1055380052F40E941B340E94DE350E9427340E94D8
:105548008D35EDE2EC930E9494350E9483361E2F30
:10555800103029F4003019F40E94933431F40E9479
:105568008D35E12FE05DEC9301E00E9494350E94B7
:10557800BB360E9427340E948134EAE0F0E060E004
:1055880070E00E9483360E948E320E949C34D9F6C5
:10559800AE81BF81E0E0EC93198108812C960895D3
:1055A8001A930A93AA81BB8112960E94E03630971B
:1055B80029F1AA81BB8114960E94E0368F013097A9
:1055C80061F00230E0E01E0780F0F80131978F01AA
:1055D800AA81BB811496ED93FC93AA81BB81129694
:1055E8000E94902D3197AC81A083AA81BB810E9433
:1055F800E036FF2312F00E94902D06C0AA81BB81DD
:10560800EFEFFFEFED93FC9319810881259608953C
:105618002B970E94563710E0A989BA890E948B34CB
:10562800EF89F88D3196EF8BF88F3197E4912E2F13
:10563800E03009F46AC1E12FE03039F4253211F481
:1056480011E002C00E949A355FC1E130A9F4253209
:1056580019F40E949A3557C112E040E000E02D325B
:1056680011F401E051C12B3211F44BE24DC120324B
:1056780011F440E249C102C0E23039F450E013E0CD
:10568800203311F4006840C102C0E33091F42033A4
:1056980010F02A3308F007C0AAE05A9F502DE22FD5
:1056A800E0535E0F31C12C3619F4026015E02CC1AD
:1056B80003C0E53009F028C1E22FE33649F40E941F
:1056C800A335ED89FE89A481AA930E94A9351BC13F
:1056D800E33769F40E94A335AD89BE8914960E9408
:1056E800B8340E94DE330E94062D1E2F0FC0E0370B
:1056F80091F40E94A335AD89BE8914960E94B834EE
:105708000E94DE330E94102D1E2F08600F77E0E004
:10571800E88B30E06CC0E43611F0E93611F404602F
:1057280002C0E537A1F4EAE0E88B01FF08C0E0E039
:10573800FAEC6AE97BE30E9427341AE022C0E0E130
:10574800F7E260E070E00E94273415E01AC0E835FF
:1057580011F4086003C0E83709F0D5C0E0E1E88B30
:1057680001FF08C0E0E0F0E060E070E10E9427344B
:1057780018E007C0E0E0F0E160E070E00E94273444
:1057880014E001FF08C00E94A335AD89BE891496B4
:105798000E94E43615C002FF0AC00E94A335AD89F5
:1057A800BE8914960E94E0360E94373609C00E94CE
:1057B800A335AD89BE8914960E94E03666277727FF
:1057C800EC87FD876E877F8702FF11C0AF85AA230C
:1057D8004AF4EC85FD856E857F850E94DE350E9442
:1057E8001B354DE2403011F01F5F01C00B7F00FDFB
:1057F80011C0151778F407FF08C002FF04C00B7F1B
:10580800242F115001C020E301C020E20E949A35E4
:105818005150EFCF312FE889E030B9F43030A1F0A2
:1058280003FF06C0EE81FF812591EE83FF8305C04B
:10583800AE81BF812D91AE83BF830E949A355030CF
:1058480009F051503150EACF54C00E941B340E94D5
:105858003B340E9483362E2F2A3030F003FF02C0DB
:10586800295C01C0295A01C0205D04FD22C02133F2
:1058780060F4A885B9858A859B85A130E0E0BE07DC
:10588800E0E08E07E0E09E0709F409C0531710F026
:1058980000FF01C013C020E207FF0BC020E3006136
:1058A80002FF07C00B7F4A930E94A935503009F0C8
:1058B80051500E949A35503009F0515031500E9491
:1058C8001B340E943B340E94BB360E941B35E8897A
:1058D800A885B9858A859B85FF27662777270E9433
:1058E80083360E9427340E941B340E94423709F0F5
:1058F800ACCF00FF08C0503031F05150E0E2EA93DD
:105908000E94A935F8CF10E08BCEA989BA890E94E8
:10591800E0360E945D3769960895FF92F82E269723
:105928000E945837DE011C960E94BD350E94E03661
:10593800309719F4EFEFFFEF27C0DE0116960E94AB
:10594800BD358D01DE011C960E94BD350E94B8341C
:10595800E0E0E887E987DE011A960E94BD350E94DB
:10596800E036FA93EA931A930A93E4EDFAE2FA938B
:10597800EA93FE013A96FA93EA934ADE9F01AE81D2
:10598800BF81E0E0EC93F9010E945F372A96FF900F
:10599800089599818881009641F0BD81AC81FB8191
:1059A800EA8161916D930197E1F7FD81EC8126967B
:1059B8000895E991F991A991B991CD016D91662365
:1059C800E9F7119761916D936623E1F7FC0108955A
:1059D800E991F991A991B991CD016D916623E9F702
:1059E800119705900D920020E1F7FC010895E991C7
:1059F800F991A991B991CD0105900D920020E1F797
:105A0800FC010895A991B991EE27FF276D916623AE
:105A180011F03196FBCF0895AA27BB27E991F99198
:105A28000590002011F01196FBCFFD010895002488
:105A380011246991E991F991A991B991662349F0E5
:105A48006A951D900590011421F40020B9F7EE27FE
:105A580008951018E1F3E1E008F4E250089579910F
:105A6800E991F991A991B991CD01772351F07A95EE
:105A780061916D936623C9F7772319F07A956D9331
:105A8800FBCFFC0108956991E991F991A991B99128
:105A9800CD01662351F06A9505900D920020C9F753
:105AA800662319F06A950D92FBCFFC010895699160
:105AB800A991B991EE27FF277D91671729F03196B3
:105AC8007723D1F7EFEFFFEF0895AA81BB81CD01CE
