:0C0000000C9452020C9400000C940000C0
:10000C000C9400000C9400000C9400000C94000064
:10001C000C9400000C9400000C9400000C94000054
:10002C000C9400000C9400000C948A020C940000B8
:10003C000C9400000C9400000C9400000C94000034
:10004C000C9400000C9400000C947F030C940000A2
:10005C000C9400000C9400000C94000013FF207F03
:10006C00287F30FF34FF387F48FF4CFF51FF55FF8E
:10007C0056FF68FF6CFF86FF87FF01400440054078
:10008C0006400740084009400E101A100F201B2094
:10009C0014201C201D4023103120332035403740C4
:1000AC0039403D403E4057103A2041404380458006
:1000BC005E1060406240644069207240744076205B
:1000CC0078400000415652204953500000E97925F0
:1000DC005488DFA5B9F6C2ABFCB3B137E183D59731
:1000EC000438FE9926E48E4BF704C5A51F8868EFEB
:1000FC001D39BC62D8630F6AA512AAE58C7536BA95
:10010C00818F303DEBE0FE70FA94AEB53100809AF1
:10011C0090418E418F804545454949498E8F90923B
:10012C00924F994F555559999A9B9C9D9E9F414929
:10013C004F55A5A5A6A7A8A9AAABAC21AEAFB0B147
:10014C00B2B3B4B5B6B7B8B9BABBBCBDBEBFC0C10B
:10015C00C2C3C4C5C6C7C8C9CACBCCCDCECFD0D1FB
:10016C00D2D3D4D5D6D7D8D9DADBDCDDDEDFE0E1EB
:10017C00E2E3E4E5E6E7E8E9EAEBECEDEEEFF0F1DB
:10018C00F2F3F4F5F6F7F8F9FAFBFCFDFEFF0000CC
:10019C00000500000F0000004261642068657820B3
:1001AC006469676974210050002F302F636F6E668D
:1001BC0069672E696E690075704F00646F776E4FBA
:1001CC00007461646F720075703000646F776E300C
:1001DC000076697267696E0075700075706F0064E7
:1001EC006F776E00646F776E6F006D6178666F6C01
:1001FC0064657273006370755F667265710070611F
:10020C00676573697A65006368697073697A6500FC
:10021C00656570726F6D73697A65006D61736B667D
:10022C0075736573006E6F726D66757365730070B0
:10023C00726F676675736573007369676E61747549
:10024C007265007370696469760070726F67696EAD
:10025C00666F0070726F676E616D650057000D0AF6
:10026C0050726F6772616D2046757365732066619D
:10027C00696C000D0A4661696C656420746F2076A8
:10028C006572696679206675736573000D0A57721D
:10029C006974696E6720666C6173682E2E2E000D72
:1002AC000A53657441646472204641494C002F0026
:1002BC0073657269616C2E747874007374617274F6
:1002CC0061646472657373006E65787473657269CA
:1002DC00616C000D0A5672696679207365726961EA
:1002EC006C20767320656570726F6D206661696C29
:1002FC006564002530386C580063616C62797465F4
:10030C00732E7478740063616C69626279746573BE
:10031C00000D0A537461727420666C617368696EA7
:10032C00672066726F6D205344636172642E2E2EAB
:10033C000D0A000D0A4E6F726D616C204675736567
:10034C0073206661696C004E6F20636F6C6F6E3F3B
:10035C000042616420636865636B73756D3A2000BD
:10036C004E6F20656E64206F66206C696E65004E62
:10037C006F20636F6C6F6E00520046004E00510090
:10038C00303A2F31302F66696C65313233342E742C
:10039C0078740046525F4449534B5F4552520046B5
:1003AC00525F494E545F4552520046525F4E4F5475
:1003BC005F52454144590046525F4E4F5F46494C8F
:1003CC00450046525F4E4F5F504154480046525FC5
:1003DC00494E56414C49445F4E414D450046525F93
:1003EC0044454E4945440046525F455849535400D4
:1003FC0046525F494E56414C49445F4F424A454331
:10040C00540046525F57524954455F50524F544521
:10041C00435445440046525F494E56414C49445F53
:10042C0044524956450046525F4E4F545F454E412B
:10043C00424C45440046525F4E4F5F46494C455333
:10044C00595354454D0046525F4D4B46535F414204
:10045C004F525445440046525F54494D454F5554F4
:10046C00005B73657474696E67735D002F00666C56
:10047C006173682E6461740001002D4E414E004979
:10048C004E4600000A0004009A01120064078C0317
:10049C000100B40784040000F894EE27EFBBF1E0F0
:1004AC00F5BFE5BFF8E1A895A4B7A77FA4BFF0936B
:1004BC006000E09360008DE0A2E0BB27ED938A958D
:1004CC00E9F780E098E0A0E0B1E0ED930197E9F75F
:1004DC00E0E9F4E085919591009761F0A591B591D3
:1004EC0005901590BF01F00105900D920197E1F771
:1004FC00FB01F0CFE0E0EEBBEFEFEDBFE8E0EEBFCD
:10050C00C0E0D2E00C9487030A921A92FA926A9392
:10051C007A938A939A93AA93BA93EA93FA93EFB73E
:10052C00EA93E0918707E0938500E0918607E093DA
:10053C008400A0918107AF5FA0938107A53108F4D7
:10054C007CC0E0E0E0938107A0EBB2E00E9493272F
:10055C00E091AF02E030A9F4442081F40E94992785
:10056C00AC3330F0E0E0E09363070E949F2705C0B6
:10057C00A0916307AE3109F4C3D202C00E949F2739
:10058C005CC0A091AF02A33071F40E949927A330F4
:10059C0048F0E0E0E0936307289A299B02C0299871
:1005AC0001C0299A4AC0A091AF02A13019F4299830
:1005BC00289A43C0A091AF02A230A1F4299A0E94BC
:1005CC009927AC3370F0E0E0E0936307289B02C0FE
:1005DC00289801C0289AE0918007E03011F40E941D
:1005EC00A4272BC0A091AF02A430B9F4299A0E9481
:1005FC009927A43660F0E0E0E0936307289B02C0E3
:10060C00289801C0289AE5E4EA9380D205C0A0910D
:10061C006307A23309F474D210C0A091AF02A530C5
:10062C0061F4299A289AEDE2EA9370D20E949927F4
:10063C00A43618F0E0E0E0936307A091AF02A3307A
:10064C0021F0E0917F07E03009F445C0A0918107CB
:10065C00BB27E2E0F0E00E94612F3097E1F5E091DA
:10066C008307E03049F1E0918307E150E093830781
:10067C00E0918307E03059F4E0918407E03039F0E1
:10068C00E0918407E150E093840760928207E09147
:10069C008507E03081F0E0918507E150E093850714
:1006AC00E0918507E03039F45E9B02C05E9801C092
:1006BC005E9AB09285070FC0E0918207E03059F046
:1006CC00E0918207E150E0938207E0918207E030ED
:1006DC0011F490928307E991EFBFF991E991B991E7
:1006EC00A9919991899179916991F99019900990B1
:1006FC001895EA93E1E0E09389070E94AE27E9910F
:10070C001895E5E0E093AF02E0E0E5B9E4B9E8B9AB
:10071C00E7B9EBB9579AE4BDE5BDE6BDE7BDE8BD69
:10072C00E0938000E0938100E0938500E0938400E7
:10073C00E0938700E0938600E0938900E0938800C3
:10074C00E0938B00E0938A00E093B600E093B00056
:10075C00E093B100E093B200E093B300E093B400F7
:10076C00E0936900EDBBE0936800E0936E00E093CA
:10077C006F00E09370000E94B327549A5C980E941B
:10078C00B9270E94B327E0E8E0BFE0E0E0937B00EC
:10079C00E0937F00E0937E00E0E2E0937C00E3E8EE
:1007AC00E0937A00E0E0ECBDE093BC00E1E0E09384
:1007BC0089070E94AD060E948518569A5E98E1E062
:1007CC00E093B20278940E94C027E5E0E0932A03FC
:1007DC00E0E4FFE1E0932B03F0932C0391D10E9412
:1007EC00C62759F0E3E0E093AF02E4E6EA938ED13A
:1007FC000E94CC27E5E0E093AF020E94D2270E9432
:10080C00E727A0E0AE1BEA2FE09386070E94FD0FBE
:10081C000E94C027EAE0E0932A030E94D2270E949C
:10082C00E727A0E0AE1BEA2FE0938607E1E0E09318
:10083C00B3020E94F6270E94FA2743D20E94FF2798
:10084C0029F0A6E0B0E0E0E00E94D32FEFE0AE2E5E
:10085C000E94D210E13029F40E94052832D2E0E047
:10086C0001C0E4E0E093AF02E0E0E0932E03F1D1AD
:10087C005E2EF0E0E031A0E0FA0789F4E1E0E41547
:10088C0011F4DCD00BC0A091AF02A23021F0A091EA
:10089C00AF02A43011F4D2D001C013D007C0E430A1
:1008AC00A0E0FA0711F474D001C05524A091AF0256
:1008BC00A03021F0A091AF02A13009F40000D4CFF8
:1008CC00FFCF1A930A93E091AF02E03019F00E9427
:1008DC00A42713C10E94FF2719F00E940D280DC1F7
:1008EC0008E813E10024001601067CF40E94172886
:1008FC000E941C2819F40E94052803D2E4E00E94EF
:10090C00232819F001501040EDCF0F37E3E11E07FB
:10091C000CF0F3C0002E012A19F40E94A427EDC09C
:10092C00EFE0AE2EE091B302F0E03196DF01E09102
:10093C002A03F0E0EA17FB0714F4E1E003C0E091AE
:10094C00B302EF5FE093B302E5E0E093AF020E94E5
:10095C00D210E13021F40E942828B3D113C00E9498
:10096C000D28E1E0E093B3020E94D210E13021F4B3
:10097C00E0E0E093AF0206C0E4E0E093AF020E9437
:10098C000D28BBC0E0E0E093AF02299A289AB5C0CD
:10099C001A930A93A091AF02A03021F0A091AF025C
:1009AC00A13009F401C0A9C008E813E10024001625
:1009BC0001067CF40E9417280E941C2819F40E943E
:1009CC0005287FD1E2E00E94232819F00150104045
:1009DC00EDCF0F37E3E11E070CF08FC0A5E0B0E0C0
:1009EC000E94BF2FAE2FE091B302EA1721F0A5E0D1
:1009FC00B0E00E94D32F002E012A79F4A6E0B0E0DB
:100A0C000E94BF2FE13029F0A6E0B0E0E1E00E94A7
:100A1C00D32F0E94312875D170C0E1E04E2E0E9478
:100A2C009F27E3E0E093AF02299A289AE0E0E09355
:100A3C00B002E093B1020E940D155FC01A930A93A5
:100A4C00A091AF02A33019F40E940D2856C008E8FB
:100A5C0013E1002400160106E4F40E9417280E94FA
:100A6C006A2EE4E00E942328A1F0EEE7F3E1E01700
:100A7C00F10761F40E94052824D1A091AF02A230A5
:100A8C0021F0A091AF02A43009F403C00150104032
:100A9C00E0CF0F37E3E11E0784F5A091AF02A2303F
:100AAC0071F0002E012A59F40E94FF2729F0A6E0CC
:100ABC00B0E0E0E00E94D32F0E94312802D1E0E0A8
:100ACC00E0938007E0932E03299A289AE5E0E093BF
:100ADC00AF020E94FD0F0E94D210E13021F40E945F
:100AEC002828EFD006C0E4E0E093AF020E940D2866
:100AFC0004C0E0E00E942328E1F3099119910895C4
:100B0C00EFE3E7B9579AE8B95F9A0895E881F0E006
:100B1C00309721F4E0E0E8B95F9A87C0E130A0E0BB
:100B2C00FA0721F4E9E3E8B95F9A7FC0E230A0E06C
:100B3C00FA0721F4E4E2E8B95F9877C0E330A0E06B
:100B4C00FA0721F4E0E3E8B95F986FC0E430A0E065
:100B5C00FA0721F4E9E1E8B95F9867C0E530A0E055
:100B6C00FA0721F4E2E1E8B95F985FC0E630A0E053
:100B7C00FA0721F4E2E0E8B95F9857C0E730A0E04B
:100B8C00FA0721F4E8E3E8B95F9A4FC0E830A0E037
:100B9C00FA0721F4E0E0E8B95F9847C0E930A0E03B
:100BAC00FA0721F4E0E1E8B95F983FC0EA30A0E031
:100BBC00FA0721F4E0E0E8B95F9A37C0ED32A0E023
:100BCC00FA0721F4EFE3E8B95F982FC0E436A0E010
:100BDC00FA0721F4E1E2E8B95F9827C0E536A0E016
:100BEC00FA0721F4E4E0E8B95F981FC0E237A0E00F
:100BFC00FA0721F4EFE2E8B95F9817C0E534A0E0FA
:100C0C00FA0721F4E6E0E8B95F980FC0E634A0E0FB
:100C1C00FA0721F4EEE0E8B95F9807C0E035A0E0F0
:100C2C00FA0719F4ECE0E8B95F980C94870811D036
:100C3C001E2EE881A1E0B0E00E94A72EA12DB0E00D
:100C4C00EA17FB0719F4E1E00C948708E0E00C9438
:100C5C0087081A9310E0E0E0E0938907E6E20E942F
:100C6C003628E0917A00E074E1F70E94AE27A0915B
:100C7C008807A23310F4106105C0A0918807A6392B
:100C8C0008F41460E0E0E0938907E7E20E9436285C
:100C9C00E0917A00E074E1F70E94AE27A0918807FA
:100CAC00A23310F4186005C0A0918807A63908F487
:100CBC001260103019F0E12F19910895E1E00C94B5
:100CCC001A0BE1E0E0937F07EB81E03019F4E0E0F0
:100CDC00E0937F07E0E0E0938007E881A4E6EA0276
:100CEC00F0019E2EE0938307EA818E2EE093840719
:100CFC00EB81BE2EE0938507E0E06E2EE093820739
:100D0C0007C0EB81EA93EB81EA930E944128D9DF7B
:100D1C00249608951A937DD10E94B60E10E00E947D
:100D2C0046280E942727A12FB0E0AE17BF0760F41A
:100D3C00E12FA981BA81F0E0EA0FFB1FE491EA935D
:100D4C000E94BE0E1F5FEBCF11D01881DEC1219A1D
:100D5C00299A209A289AC3D10E944B28E0E0E0936C
:100D6C008902E0938E070E94B60E2DC4E0E0E0935A
:100D7C008002E0938102E091A107E13008F4FBC00E
:100D8C00E0918902E13049F4E0918802E13011F4FC
:100D9C001BD5F1CFE0E0E0938902E0918E07E030C3
:100DAC0019F49ED1E0938D07E0918D07F0E0EB31C3
:100DBC00A0E0FA0709F4DAC0E035A0E0FA0711F474
:100DCC00ACD1D4C0E136A0E0FA0711F453D4CEC0B4
:100DDC00E134A0E0FA0711F450D4C8C0E335A0E028
:100DEC00FA0711F42DD4C2C0E635A0E0FA0711F4CD
:100DFC0037D4BCC0E637A0E0FA0711F436D4B6C03D
:100E0C00E037A0E0FA0711F436D4B0C0E435A0E026
:100E1C00FA0711F4CED1AAC0E437A0E0FA0711F416
:100E2C00BAD1A4C0E837A0E0FA0711F4FBD19EC0F8
:100E3C00E937A0E0FA0711F4FBD198C0EA33A0E03F
:100E4C00FA0711F4FBD192C0EE32A0E0FA0711F4CC
:100E5C0007D28CC0E236A0E0FA0711F4E9D386C0C1
:100E6C00E536A0E0FA0711F4EFD280C0E534A0E03B
:100E7C00FA0711F481D07AC0EC34A0E0FA0711F42F
:100E8C00D5D374C0EC36A0E0FA0711F4F8D26EC0DA
:100E9C00E636A0E0FA0711F417D368C0E135A0E0FC
:100EAC00FA0711F45FD362C0E634A0E0FA0711F43C
:100EBC004AD35CC0EE36A0E0FA0711F41AD356C040
:100ECC00EE34A0E0FA0711F45CD350C0EF36A0E08A
:100EDC00FA0711F423D34AC0EF34A0E0FA0711F457
:100EEC0060D344C0E337A0E0FA0711F470D33EC0DE
:100EFC00E735A0E0FA0711F483D338C0E436A0E05C
:100F0C00FA0711F485D232C0E736A0E0FA0711F4E3
:100F1C00CFD32CC0E234A0E0FA0711F414D426C0CD
:100F2C00E235A0E0FA0731F4E8E2EA93E0E2EA9372
:100F3C003BD21CC0E336A0E0FA0711F4D6D116C0A0
:100F4C00E334A0E0FA0711F4D6D110C0ED36A0E0DE
:100F5C00FA0719F408D2EDE007C0E434A0E0FA0770
:100F6C0011F4CFD103C0EFE3EA93BCD0E0918E072C
:100F7C00E13009F000CF08950E94512809F454C3C0
:100F8C00AFD01E2FF0E0E7FDFFEFE434A0E0FA074E
:100F9C0019F40E948C0F0BC0EE32A0E0FA0739F462
:100FAC00A895E8E1E0936000EFE0E09360003CC3BB
:100FBC00E0918002F0E0E050FE4FA881B981ED9302
:100FCC00FC93A0918002E0918102EA1B04C2E0E054
:100FDC00E0938102E09380020895E881A091800261
:100FEC00EA0FE0938002E0918102A0918002EA175F
:100FFC0079F4E0E0E0938102E0938002E0918902D1
:10100C00E13021F4E0918802E03009F001C077D39F
:10101C0078C00E94FA2FEDB7FEB73197FA93EA9396
:10102C001F930F93C5DF0F911F913E2FE13060F09E
:10103C003A93D3DFE32F3150E03029F0D8010F5F22
:10104C001F4FEC91F7CFE7CFBBC31A93E091C000D1
:10105C00E072E1F31091C600E981E093C600E091E3
:10106C00C000E078E1F3E091C6001881B4C1A09112
:10107C008A02A23011F45D9801C00000E0E0E09318
:10108C00C200E093C100E093C500549A5C9A0E94A0
:10109C0017280E946A2E559A5D980E9417280E9464
:1010AC006A2E5C980E9417280E946A2E519A5098BA
:1010BC00589A0E9417280E946A2E58980E94B927A5
:1010CC00E091C600E0932D035D9AA0918A02A230B4
:1010DC0009F45D98E4E1F0E00E945A28089508951F
:1010EC0061D60895A0918102A03858F4E091810254
:1010FC00EF5FE0938102E150F0E0E050FE4FA881F9
:10110C00A083219608950E945E2823960895EB8172
:10111C00EA939BDF0E945E2855C30E94FA2F10E0D1
:10112C003DE029980E946D28DADFE0918A02E230D6
:10113C0039F49DDF0E9472280E94752811E021C0AD
:10114C0000E0033068F493DF0E9475282E2FE0E056
:10115C00EA937BDF233511F411E002C00F5FF1CF6E
:10116C00103059F4BCDF3FE3E0912E03E03021F066
:10117C00E4EFF1E00E945A2804C0E4E6F0E00E949B
:10118C005A283A93AFDF103011F4299A299AE0E0EB
:10119C00E0938A0715C31A930A9300E0E02FF0E05E
:1011AC00E859FF4F14911A939DDF0E5F1030B1F781
:1011BC00A3C20E94FA2F0FE330E00E947D2809F4AD
:1011CC00FFC28EDF2E2FE32FF0E0E859FF4FE491A2
:1011DC001E2FE03021F1121701F5E32FF0E0E85952
:1011EC00FF4F049000928B07E32FF0E0E759FF4F7D
:1011FC00049000928B020DE0E0918B07E03810F028
:10120C00E2E009C0A0918B02AF3711F0AF3F11F4AF
:10121C00E1E001C0E0E0E0938A023E5FD4CF0A93A4
:10122C0061DFCEC20E947D2809F4089559DF3CC2CB
:10123C000E947D2809F4089553DF36C20E94FA2FCC
:10124C000E94852809F4BCC20E948D281A930A9327
:10125C003A930E9499280E949D28299A299AB0C2F3
:10126C000E94FA2F0E94A52809F4AAC20E948D2878
:10127C0037DF2E2F1A930A933A932A9348DF0E9452
:10128C009D28299A299A9CC21A930E94AD28A09154
:10129C008A02A23039F40E94B228E2600E94C2286D
:1012AC0032DF04C0E0E40E94C82831DFE0E2EA93B8
:1012BC001A932DD0E0918A02E23011F40E94CD28CD
:1012CC00299AB2C11A93E0918A02E23069F00E9425
:1012DC00AD28E8E40E94C8281ADFE8E2EA931A93E2
:1012EC0016D00E94CD28299A9FC10E947D2809F40E
:1012FC000895CADFD9C10E947D2809F40895E2DF60
:10130C00D3C10E947D2809F4089567D0CDC1E09126
:10131C008B02EF7039F1E881A0918B02EA1719F476
:10132C000E9472281FC02197EFEFE883E0918A0298
:10133C00E23041F40E94B2280E94D028A981EA1719
:10134C0059F006C0EA810E94D928A981EA1721F038
:10135C00E881E150E88351F7E881E03011F40E9414
:10136C007228219638C0E0918A02E030E1F422978D
:10137C00E0918202F0918302E883F983E091890283
:10138C00E13029F4E881F9813197E883F983ECE4C1
:10139C00EA93EA81F070EA93EA81EA930E94992831
:1013AC000E947228229608952998E0918A02E230D0
:1013BC0049F0E9810E94D928EA9394DEE8810E94E1
:1013CC00D92804C00E94B2280E94D028EA938ADE51
:1013DC000E94CD28299A229608951A930E94AD282E
:1013EC00E0918A02E23029F0E0EC0E94C8288FDEFE
:1013FC0009C0E0918B07E63829F40E94B228E66018
:10140C000E94E2280E9472280E94CD28299A0CC1C1
:10141C002998E0918A02E23021F0E0EA0E94D92872
:10142C000DC0E0918B07E63859F4E0918302F0701F
:10143C00EE0FEE0FEE0FE5600E94E228EA9352DE0B
:10144C000E94CD28299A08950E946D28A0918A02A5
:10145C00A23041F4ECEAEA93E4E0EA93E0E0EA93A8
:10146C0052DE07C0ECEAEA93E0E8EA930E94F62722
:10147C004EDEE2E3F0E00E945A28EDE0A1C00E94AB
:10148C00512809F4D1C00E946D282ADE1E2FA0918C
:10149C008A02A23051F4ECEAEA93E12FE07EE76095
:1014AC00EA93E0E0EA932FDE09C0ECEAEA93E12F3D
:1014BC00E96FEA93E0E0EA931A9329DE0E9472281E
:1014CC00EDE0EA930FDEACC00E94EA2809F414C1E7
:1014DC000E946D280E94ED2811F41FE305C0ECEA70
:1014EC00EA93E0EA0E94F5280E9472280E94FB28E9
:1014FC0003C10E94EA2809F4FFC00E946D280E94D3
:10150C00ED2811F41FE305C0ECEAEA93E8EA0E9427
:10151C00F5280E9472280E94FB28EEC00E94EA283F
:10152C0009F4EAC00E946D280E94ED2811F41FE313
:10153C0005C0ECEAEA93E4EA0E94F5280E947228BE
:10154C000E94FB28D9C00E946D28A0918A02A2306B
:10155C0011F4EFE306C0E0E5EA930E94F6270E943F
:10156C0099282EC00E946D28A0918A02A23011F4F5
:10157C00EFE306C0E8E5EA930E94F6270E9499285B
:10158C001FC00E946D28A0918A02A23011F4EFE3D3
:10159C0007C0E8E5EA93E8E0EA930E94F627B7DD96
:1015AC000FC00E946D28A0918A02A23011F4EFE3C3
:1015BC0007C0E0E5EA93E8E0EA930E94F627A7DD8E
:1015CC00EA9390DD299AE0E0E0938A0708951A9354
:1015DC000E946D2810E0E0E3EA93E0E0EA931A93AE
:1015EC000E949928EA937EDD1F5F1330A0F3E091EF
:1015FC002E03E03021F0E8ECF0E00E945A2810C0F5
:10160C001A930E946D2810E0E8E3EA93E8EAEA9363
:10161C001A930E949928EA9365DD1F5F1430A0F39A
:10162C00299AE0E0E0938A071991089558DD3CC0AF
:10163C00E9E5EA9357DDE0E0EA9354DDE0E835C0F4
:10164C001A930A9300ED10E0F801E491E03039F0C0
:10165C00F8010F5F1F4FE491EA9344DDF5CF4CC0C6
:10166C00E5E5EA933FDDE2E320C0E0E3EA933ADD0F
:10167C00E2E31BC019C0E3E518C0E2E0EA93AFD384
:10168C00E0918E07E13009F408952ADDFE2FE0E0A9
:10169C00FF93EF9325DDF0E0AF91BF91EA2BFB2B8D
:1016AC00E0938202F0938302EDE0EA931BDD089550
:1016BC001A930A930E948528F9F00E940329F12FAE
:1016CC00E0E0DF01E02FF0E0EA2BFB2B0E940A297F
:1016DC0007DDE0938C02E0E0E0938802E1E0E09328
:1016EC008902E0918A02E23031F0E0918C02E6341A
:1016FC0011F40E94152903D0099119910895E091D4
:10170C008C02E63491F4A0918102A03868F4E0E2F6
:10171C00EA93E8E2EA9348DE0E94282921F4E0E00B
:10172C00E093890201C0EFCF0DC0A0918102A038D7
:10173C0048F46EDE0E94282921F4E0E0E09389024F
:10174C0001C0F3CF08950E94FA2F31E00E94A52822
:10175C0041F4E3E0EA9343D330E0E0918E07E130CB
:10176C0079F1303011F0BCDC3E2F0E940329E32FBD
:10177C00F0E00E94F02E0E94EB2EDF01CB01F12F46
:10178C00E0E00E943429DF01CB01E02FF0E00E9461
:10179C0034290E943929A4DCE0938C02E1E0E09327
:1017AC008902E0938802E0E0E0938C07E0918A02E2
:1017BC00E23031F0E0918C02E63411F40E941529EC
:1017CC000E94013024960895E0918C02E53441F496
:1017DC00E091A107E13020F000DE0E944229F8CF11
:1017EC00E0918C02E634E1F4E091A107E130C0F025
:1017FC004BDD68DD0E944229E0918A02E03079F4E9
:10180C00E0918C07EF5FE0938C07E0918B02A09145
:10181C008C07EA1721F4A7DDE0E0E0938C07E4CF16
:10182C000E944C2979F4E0918C07E03029F0E0918A
:10183C008C02E63409F497DDE0E0E0938902EDE0F8
:10184C00EA9350DC08952D97E0E0EE83EF83E88770
:10185C000E94F82FE0EDF7E060E070E00E9457295D
:10186C000E943F19E03011F4E0E076C20E9460293A
:10187C0011F4E0E071C20E948A19E03011F4E0E04A
:10188C006BC2E0E0EC87ED870E946E2920810E94FC
:10189C006E2950810E946E2940810E946E29E08140
:1018AC00FF27662777270E9439290E947729E8E0CD
:1018BC000E94B02EDF01CB010E946E29E081FF2730
:1018CC00662777270E948E2E0E9439290E946E2946
:1018DC00E081F0E0E887F987F8850E9480290E9472
:1018EC008329E887F9870E946E29E081EA8B0E94A0
:1018FC006E29E081E98B0E946E29E081E88B0E94C1
:10190C006E29E081F0E0EA87FB87FA850E94802946
:10191C000E948329EA87FB87309711F0E1E0EE877C
:10192C000E946E29E081F0E0EE83FF83FE810E942D
:10193C0080290E948329EE83FF830E9488290E94BC
:10194C0088293197E15AFA4FE081E0938B0230916C
:10195C008B02E0E0EC87ED87E0E0F8E060E070E01F
:10196C000E9457290E944B280E948E290E9494297C
:10197C0011F4E0E0F1C10E9477290E94E82F08F0F1
:10198C00E4C1AE85A03021F0AA85BB85109709F083
:10199C0005C02A8959894889E0E0EE87E091C000AA
:1019AC00E072E1F3E0E4E093C600E091C000E07285
:1019BC00E1F3E0E0E093C600E091C000E072E1F3F7
:1019CC004093C6000E9488293197E15DFC4F00814D
:1019DC00E091C000E072E1F30093C600E091C0001A
:1019EC00E072E1F3E8E4E093C6003150E091C0000E
:1019FC00E072E1F3E0E0E093C600E091C000E07239
:101A0C00E1F3E42F4F5F0E949E293197E15DFC4F7B
:101A1C000081E091C000E072E1F30093C600303029
:101A2C0009F092C1E091C000E072E1F3ECE4E093C4
:101A3C00C600E091C000E072E1F35093C600E09163
:101A4C00C000E072E1F3E42FE150E093C600E091B6
:101A5C00C000E072E1F3E0E0E093C600E091C0006A
:101A6C00E072E1F31FEF0E948E290E94A129A09140
:101A7C008B024A1B0E9442290E9477290E94E82F60
:101A8C0020F0AA85BB85109791F10E944C2991F406
:101A9C000E94A82911F0E0E05FC1EE81FF81E88788
:101AAC00F9870E944B28EA85FB850E940A29E0E011
:101ABC00EA87EB87EC85FD85309741F00E948E29F3
:101ACC000E94942911F4E0E047C110C00E948E29B5
:101ADC00FA93EA930E948E29E15DFC4FFA93EA9304
:101AEC000E94B719E03011F4E0E036C104C00E9446
:101AFC0017280E946A2EE0918B02E31709F466C046
:101B0C001F3F09F05AC0EC85FD85E15DFC4FA081BB
:101B1C00AF3F09F452C0EC85FD85E15DFC4F1081AF
:101B2C00E091C000E07819F00091C600F9CFE4E133
:101B3C00EF87EF85E150EF8709F43FC0E091C000DB
:101B4C00E072E1F3EC85FD85E17011F0E8E201C093
:101B5C00E0E2E093C600E091C000E078E1F3009190
:101B6C00C600E091C000E072E1F35093C600E09132
:101B7C00C000E078E1F30091C600E091C000E07293
:101B8C00E1F34093C600E091C000E078E1F30091EE
:101B9C00C600E091C000E072E1F3E0E0E093C60023
:101BAC00E091C000E078E1F30091C600101729F035
:101BBC000E9417280E946A2EBCCFEC85FD85E1702F
:101BCC0011F04F5F3F5F0E94882995CF1F3F21F492
:101BDC000E9472280E94722830E0A0918B024A1B4E
:101BEC000E948E290E94A129E091C000E07819F092
:101BFC000091C600F9CFE091C000E072E1F3E0E2A1
:101C0C00E093C600E0918B02E31709F47BC0E091EE
:101C1C00C000E072E1F35093C600E091C000E078A0
:101C2C00E1F30091C600E091C000E072E1F3409353
:101C3C00C600E091C000E078E1F30091C600E091AD
:101C4C00C000E072E1F3E0E0E093C600E091C00078
:101C5C00E078E1F30091C600E091C000E072E1F39E
:101C6C00E8E20E949E293197E15DFC4F1081E091E2
:101C7C00C000E078E1F30091C600101711F0E0E02D
:101C8C006BC0E091C000E072E1F35093C6003F5F7F
:101C9C00E091C000E078E1F30091C600E091C00053
:101CAC00E072E1F3E42F4F5FE093C600E091C000D7
:101CBC00E078E1F30091C600E091C000E072E1F33E
:101CCC00E0E0E093C600403009F45F5FE091C000B3
:101CDC00E078E1F30091C600E091C000E072E1F31E
:101CEC00E0E20E949E293197E15DFC4F1081E0916A
:101CFC00C000E078E1F30091C600101711F0E0E0AD
:101D0C002BC080CFE091C000E072E1F3E0E2E09301
:101D1C00C600E091C000E072E1F3E0E2E093C6009F
:101D2C00E091C000E072E1F3E0E2E093C600E091E4
:101D3C008B02F0E00E94CC2EAC85BD85AE17BF07A0
:101D4C0018F0E0E0EC87ED8716CE0E94A82911F080
:101D5C00E0E002C07894E1E00E94FF2F63960895C2
:101D6C00E0E0E093A007E0939F07E093A1070895BC
:101D7C00E091A107E031A8F4E0919F07EF5FE093B9
:101D8C009F07E150F0E0E157F84FA881A083E09164
:101D9C009F07EF70E0939F07E091A107EF5FE0933F
:101DAC00A1075EC0E091A107E130C0F02197E0915E
:101DBC00A007EF5FE093A007E150F0E0E157F84F88
:101DCC00E081E883E091A007EF70E093A007E09139
:101DDC00A107E150E093A107E88142C0D5C0E09192
:101DEC00A107A881EA1710F4E1E001C0E0E0E0935C
:101DFC008E0736C0FAC0A881B981EC91F6C00E945A
:101E0C00181A0895A881A03310F0AA3308F003C063
:101E1C00E881E05325C0A881A13410F0A73408F064
:101E2C0003C0E881E7531CC0E4EAF1E00E94B12949
:101E3C00E0E016C0E881EF70E883A881A03010F0D4
:101E4C00AA3008F003C0E881E05D0AC0A881AA307E
:101E5C0010F0A03108F003C0E881E95C01C0E8E5AE
:101E6C0021960895A881B9810E94B529EF93E88144
:101E7C00F981A181AA93C6DFAF91EA2BB6C01A9360
:101E8C0010E0E9811E17B0F4E12FAA81BB81F0E0CC
:101E9C00EA0FFB1FFF93EF93E2E0E19FF001AC81AF
:101EAC00BD81EA0FFB1F0E94BC29AF91BF91EC933F
:101EBC001F5FE7CF188126960895E881F9810E946B
:101ECC00BC29FE2FE0E0FF93EF93E881F981329675
:101EDC000E94BC29F0E0AF91BF91EA2BFB2B85C08F
:101EEC00E881F9810E94C0290E94EB2E7F936F93A9
:101EFC00FF93EF93E881F98134960E94C029AF914A
:101F0C00BF918F919F910E948E2E6FC00895E0E03B
:101F1C00E093C400A091B502A63020F5A091C400B6
:101F2C00A03021F4A091B502A13009F004C0E1E089
:101F3C00E093C40016C0A091C400A03021F4A0917D
:101F4C00B502A23008F407C0E1E0E093C4000E949F
:101F5C00C729E15002C00E94C7290E949F2EA12DC3
:101F6C00EC9301C001D00895EFEFE093C400089505
:101F7C00E091C400E07841F4E091B502EF5FE093AA
:101F8C00B502C5DFE1E00895E0E0089508951A93E5
:101F9C0011E0E981E03011F0E7DF01C0B8DF10306B
:101FAC00B9F0E3EBF1E00E94CE29A0910002AD3034
:101FBC0029F0DEDFE03099F710E009C038D3E030CB
:101FCC0029F4D6DFE03059F710E001C001C0E7CFAB
:101FDC00103011F4E0E008C0E981E03021F4E09128
:101FEC00B502E0932203E1E01881229608950E9445
:101FFC009C18E03029F40E9431280E946706CBC05F
:10200C000E94D229E5EBF1E00E94D7290E94301AF8
:10201C00E03009F4C0C0E0E0E093A2070E94DB29A5
:10202C0061F00E94E72949F40E94F32931F00E94E3
:10203C00E72919F4E1E0E093A207A091A207A130EF
:10204C0059F0EDECF1E00E94FF2911F4E0E002C040
:10205C000E94092AE093A207E091A207E03009F060
:10206C004FC0E3EDF1E00E94FF2951F10E94E729F6
:10207C0039F5E7EDF1E00E94FF2911F10E94E72903
:10208C00F9F4E0E0E093B402A091B402A43698F421
:10209C000E94112AE45FFF4F0E94172AE35FFF4F53
:1020AC000E94172AE25FFF4FDF01EFEF0E94D32F50
:1020BC000E941C2AE9CF0E94222A0E942A2AFFCFC2
:1020CC00EDEDF1E00E94FF29D9F00E94C62729F01E
:1020DC00A4E0B0E0E4E40E94D32F0E94C62719F4D8
:1020EC000E94222A08C0E2E0E093AF02E3E0EA9308
:1020FC00EA93E4EFF1E0FA93EA930E946706FFCFCC
:10210C00E4EEF1E00E94FF2969F4E7EEF1E00E94B1
:10211C00FF2941F40E94DB2929F4E3EDF1E00E9450
:10212C00FF29C9F10E94092AE0932803EBEEF1E0A4
:10213C000E94FF2969F4E0EFF1E00E94FF2941F4CD
:10214C000E94F32929F4E7EDF1E00E94FF2919F12F
:10215C000E94092AE0932903E6EFF1E00E94FF298F
:10216C00D1F00E94092AE0932A03A0912A03A536F4
:10217C0018F0E4E6E0932A03E1E0F2E00E94FF2984
:10218C0019F4E0E4FFE102C00E94092AE0932B035A
:10219C00F0932C03FFC2F5C21A9336D20E949C18FE
:1021AC00E03051F4E2E0EA93E1E0EA93E2E0F0E0BF
:1021BC000E942A2AE0E026C20E94C318E03011F4E3
:1021CC00E0E020C2EAE0F2E00E94FF2911F4E0E036
:1021DC0019C20E94092AEE0FFF1FE093FA02F09336
:1021EC00FB02E3E1F2E00E94FF2911F4E0E00AC2F5
:1021FC000E942E2AE093F602F093F7026093F80205
:10220C007093F902ECE1F2E00E94FF2911F4E0E096
:10221C00F9C10E942E2AE0932303F0932403E7E2F2
:10222C00F2E00E94FF2911F4E0E0ECC10E94362A92
:10223C000E943D2A0E94422AE1E3F2E00E94FF291B
:10224C0011F4E0E0DFC10E94362A0E94462A0E9467
:10225C00422AEBE3F2E00E94FF2911F4E0E0D2C144
:10226C000E94362A0E944B2A0E94422AE5E4F2E0A0
:10227C000E94FF2911F4E0E0C5C10E94362AE7EE66
:10228C00F2E0FA93EA93E3E0EA93F9DDE0E0E0931D
:10229C002203EFE4F2E00E94FF2921F00E94092AB8
:1022AC00E0932203A0912203A83018F0E0E0E09321
:1022BC002203E0912203E093B502E0E0F3E0FA930D
:1022CC00EA93E6E5F2E00E94502AEEE1EA930E94DE
:1022DC004A27E6ECF2E0FA93EA93EFE5F2E00E948B
:1022EC00502AECE0EA930E944A270E948A19E030B7
:1022FC0011F4E0E087C1A0915F05E7E7EA27E093DE
:10230C005F05E0E6F5E00E945B2AE1E6F5E00E945D
:10231C005B2AE2E6F5E00E945B2AE3E6F5E00E9428
:10232C005B2AE4E6F5E00E945B2AE5E6F5E00E9414
:10233C005B2AE6E6F5E00E945B2AE7E6F5E00E9400
:10234C005B2AE8E6F5E00E945B2AE9E6F5E00E94EC
:10235C005B2AEAE6F5E00E945B2AE091A207E030F6
:10236C0009F02FC1E0E0E093B402A091B402A436CE
:10237C00B8F40E94112A0E94622AAE2FE0916805DF
:10238C00EF70EA1751F40E94112AE25FFF4F0E948E
:10239C00692AE0916905EA1719F00E941C2AE5CF19
:1023AC00A091B402A43609F050C0E0E0E093B4026E
:1023BC00A091B402A43608F042C00E94112A0E94D7
:1023CC00622AEF3039F40E94112AE25FFF4F0E941B
:1023DC006E2A71F00E94112AE45FFF4F0E946E2A50
:1023EC0031F40E94112A0E94732AE03F09F024C0A4
:1023FC000E94112A0E947A2A0E94112AE35FFF4F41
:10240C000F01E0916105E07FAE2FE0916805EF7060
:10241C000E94822A0E94112AE25FFF4FDF01E091A5
:10242C0069050E94D32FE0916205E03021F00E94F3
:10243C00112A0E94872A03C00E941C2AB9CFA0919E
:10244C00B402A43611F4E0E0DDC0A0915F05A13028
:10245C00C9F50E948F2A19F40E94C62799F10E948F
:10246C00112A0E94952AEA1768F10E94112A0E94EB
:10247C00952AAE1768F00E94112A0E94952AEA1735
:10248C0031F40E949D2A0E94732A6E1708F01AC01C
:10249C000E94112A0E94952AEA1721F00E94112A03
:1024AC000E947A2A0E949D2A0E94732AE61751F0F4
:1024BC000E94112A0E94622A0E94A22A0E94A52A26
:1024CC000E94A92A0E94112AE45FFF4F0E946E2AE3
:1024DC0021F40E94112A0E94732A0E94AD2AE093D3
:1024EC00FE02F093FF020E948F2A19F40E94C62765
:1024FC0031F00E94112A0E94952AAE1708F002C0F2
:10250C00E0E080C00E948F2A19F40E94C62731F0A7
:10251C000E94112A0E94952AEA1709F021C00E94F4
:10252C009D2A0E94732A6E1710F4E0E06BC00E9483
:10253C009D2A0E94732AE61790F40E94112A0E9489
:10254C00622A0E94A22A0E94A52A0E94A92AE0912E
:10255C006205E03021F00E94112A0E94872A1CC0DB
:10256C000E94112A0E947A2A0E949D2A0E94732A94
:10257C00E61751F00E94112A0E94622A0E94A22A98
:10258C000E94A52A0E94A92AE0916205E03021F060
:10259C000E94112A0E94872A0E94112A0E94B62AA0
:1025AC00EF3FAFEFFA0721F40E94112A0E94872A0D
:1025BC000E94112A0E94B62A0E94BC2A0E94AD2AAF
:1025CC0006C0E0E0F0E00E94BC2AE0E0F0E0E0931E
:1025DC00FE02F093FF02E0912103E03031F4E0E0E1
:1025EC00F0E0E093FE02F093FF02E0916505E093CA
:1025FC002503E0916605E0932603E0916705E093DF
:10260C002703E1E019910895F298F198E0E0E09346
:10261C008802E0938902E093A707E093A807E09370
:10262C00A907E093AA07F0980E94C12A0895EFEF3A
:10263C00F1E00E94CE29A091E802E0910102EA1794
:10264C0031F4A091E902E0910202EA1719F00E941C
:10265C00CC2797C00E940F089DC0E8ECF0E00E94C8
:10266C005A28E8E6F2E00E94CE29E0910002E093BD
:10267C00A307E0910102E093A407E0910202E0932A
:10268C00A507E0910302E093A6070E940F0882C001
:10269C00E1E1F2E00E94CE290E94ED070895E0915D
:1026AC00FA02F091FB02F695E795E0938B02E0E0DD
:1026BC00E0938A026FC058DC0E944B2A0E943D2A8C
:1026CC0031D4E03029F4EAE6F2E00E94B12959C095
:1026DC000E944B2A0E943D2A8FD4E03029F4EFE768
:1026EC00F2E00E94B1294DC055C011DC0E94290CAA
:1026FC00E03009F446C04CC00E94CB2A29F0EBEA2A
:10270C00F2E00E94E62A3DC00E94C12A0E94EA2AF9
:10271C00C1F10E948A19E030A1F10E94F12A88F4DB
:10272C000E94ED070E94022B0E940B2B41F1F099A5
:10273C0005C00E94192BB3D3E03009F10E94282B5D
:10274C00ECCF26C00E94CB2AE1F40E940F080E9415
:10275C00C12A0E94EA2AA9F00E948A19E03089F065
:10276C000E94F12AA8F40E94022B0E940B2B39F034
:10277C00F09909C00E94192BB5D3E03021F40E94C6
:10278C00171AE0E00895F19903C00E94282BE8CFB6
:10279C000E94171AE1E008950E94362BE881EA9313
:1027AC00F6DB219608952296089524971A930A939E
:1027BC000E943B2BEAEBF2E00E94D7290E94412BAE
:1027CC000E944D2B0E94522B0E94552BECEBF2E0F9
:1027DC000E945C2B71F0E7ECF2E00E94FF2949F0BB
:1027EC000E94362A6ADB8F01E4EDF2E00E94FF2999
:1027FC0029F4E0E019810881269608950E94362A72
:10280C006FDB0E94642B0E94692B0E94E42F09F459
:10281C0071C4A091AD02B091AE020E94B529EF93A4
:10282C000E946E2BE1810E94732BAF91EA2BE093F7
:10283C008D020E946E2BE2810E94782BEF930E94F6
:10284C006E2BE3810E94732BAF91EA2BE0938E02E7
:10285C000E946E2BE4810E94782BEF930E946E2BCA
:10286C00E5810E94732BAF91EA2BE0938F020E94BB
:10287C006E2BE6810E94782BEF930E946E2BE781E2
:10288C000E94732BAF91EA2BE09390020E944D2B88
:10289C000E947E2B04D3E03011F4E0E02CC40E94A3
:1028AC004D2B0E947E2B1ED3E03031F4EFEDF2E085
:1028BC000E94E62AE0E01FC40E944D2BEFEFF2E0ED
:1028CC00FA93EA930E94852B0E948A2B84E00E9443
:1028DC0003262896E4EDF2E0FA93EA930E944D2B3E
:1028EC000E94912B11F4E0E006C40E94301AE030F3
:1028FC0011F4E0E000C4E4EDF2E00E94FF2911F4D1
:10290C00E0E0F9C3F7C31A930A93A7DEE03011F4A1
:10291C00E0E07AC00E943B2BEAEBF2E00E94D72960
:10292C000E94412B0E944D2B0E94522B0E94552B32
:10293C00E5E0F3E00E945C2B11F4E0E065C0E7EC0D
:10294C00F2E00E94FF2909F45EC00E94362AB5DA33
:10295C008F010E94992BA3D2E03011F4E0E054C017
:10296C000E94992BBFD2E03031F4EFEDF2E00E94DF
:10297C00E62AE0E049C0E091A3070E949E2BE09379
:10298C008D02E091A307EA9355DAE0938E02E09171
:10299C00A4070E949E2BE0938F02E091A407EA9378
:1029AC0049DAE0939002E091A5070E949E2BE093F8
:1029BC009102E091A507EA933DDAE0939202E0914F
:1029CC00A6070E949E2BE0939302E091A607EA9340
:1029DC0031DAE0939402E2E1F3E0FA93EA930E9495
:1029EC004D2B0E94912B11F4E0E00EC00E94301A86
:1029FC00E03011F4E0E008C0E2E1F3E00E94FF29CE
:102A0C0011F4E0E001C0E1E0099119910895E3E0CF
:102A1C00E093AF02E0912203E093B502EDE1F3E025
:102A2C000E94E62A299AE091A207E03049F50E941B
:102A3C00112A0E94B62AA091FE02B091FF02EA1759
:102A4C00FB0740F40E94112A0E94B62AEE3FAFEF1A
:102A5C00FA07B1F4E091FE02F091FF02309709F011
:102A6C0072C00E94C62731F00E94112A0E94B62A19
:102A7C003A9708F405C0E4E6EA930E948C0563C01B
:102A8C00C3DDE1E0EA9383DAE03009F45CC000DEF8
:102A9C0012DEE03009F457C03ADAE0E0EA937CDE6B
:102AAC00E03009F450C0FBDDE03009F44CC0F0DD3F
:102ABC00ABDDE6E4E0938C0218DEE03021F458DA6A
:102ACC00E03059F740C0A0DDE0912503E03031F053
:102ADC0013DEE030C1F136DEE030A9F1E0912603DF
:102AEC00E03019F062DEE03071F1E0912703E03064
:102AFC0019F009DFE03039F10E94462A0E943D2A84
:102B0C0011D2E03029F4EFE3F3E00E94B1291BC0AD
:102B1C00FED9E1E0EA9340DEE030A9F00E94462ABB
:102B2C000E943D2A69D2E03029F4EFE7F2E00E94DE
:102B3C00B12909C0ECD9E091B502E0932203E1E0A0
:102B4C00E093AF0229980E94362B0E94112A0E9412
:102B5C00B62A0E94BC2AA091AF02A13059F0E1E044
:102B6C00E0932E03A091AF02A43019F0E2E0E093C1
:102B7C00AF0219C0E0E0E0932E030E948F2A19F4F3
:102B8C000E94C62749F00E94112A0E94B62A31964B
:102B9C000E94CB2F0E94BC2AE1E0EA93EA93E4EF77
:102BAC00F1E00E942A2A089525970E94F82F20E030
:102BBC0030E040E0F09912C000E010E0ED85FE85B9
:102BCC000E171F0750F4F801AB85BC85AE0FBF1F65
:102BDC00EFEFEC930F5F1F4FF1CFF09AF19B02C018
:102BEC00E1E059C1F299F4C00AD9EA3329F0E3E5DE
:102BFC00F3E00E94B1294EC10E94A32BEE83E29513
:102C0C00E07FEF930E94A32BAF91EA0FEE834E81EE
:102C1C000E94A32B0E94A82BEF930E94A32BAF9191
:102C2C000E94AC2BFF27662777270E94B02B0E94AF
:102C3C00A32B0E94A82BEF930E94A32BAF91EA0F1A
:102C4C005E2F450F0E94B52BE8E00E94B02EDF01ED
:102C5C00CB01E52FF0E00E94BA2B0E94B02BE09143
:102C6C00A707F091A8076091A9077091AA070E9485
:102C7C00B52B0E947A2E0E94B02BED85FE85AF8578
:102C8C00B88989899A890E94BF2B0E94B52B0E9412
:102C9C00F32F10F0E1E0FFC00E94A32B0E94A82BA1
:102CAC00EF930E94A32BAF91EA0F5E2F450F51308B
:102CBC0019F4F19AE1E0EFC0523009F049C00E94DA
:102CCC00A32B0E94A82BEF930E94A32BAF910E94E1
:102CDC00AC2BF0E00E94F02EDF01CB01ECE00E9467
:102CEC00B02E0E94C42B0E94A82BEF930E94A32B02
:102CFC00AF910E94AC2BF0E00E94F02EDF01CB01D3
:102D0C00E4E00E94B02EA091A707B091A807809193
:102D1C00A9079091AA070E948E2E0E94C42B0E9494
:102D2C00A82BEF930E94A32BAF910E94CD2B19F0EF
:102D3C000E94D22BAFC063D8ED3019F00E94D52B76
:102D4C00A9C05DD8EA3019F00E94D52BA3C046CF9C
:102D5C005330D9F50E94A32B0E94A82BEF930E940D
:102D6C00A32BAF910E94D82B0E94A82BEF930E940B
:102D7C00A32BAF910E94D82B0E94A82BEF930E94FB
:102D8C00A32BAF910E94D82B0E94A82BEF930E94EB
:102D9C00A32BAF910E94D82B0E94A82BEF930E94DB
:102DAC00A32BAF910E94CD2B19F00E94D22B72C095
:102DBC0026D8ED3019F00E94D52B6CC020D8EA3003
:102DCC0019F00E94D52B66C009CF00E010E009C0B5
:102DDC000091AB0711274091AC07E091AD07EE8352
:102DEC00F298EE81D801F0E0AE17BF0768F50E94AB
:102DFC00A32B0E94A82BEF930E94A32BAF91EA0F59
:102E0C005E2F450FF09B03C05F3F09F0F098F9016E
:102E1C00AB85BC85EA0FFB1F50832F5F3F4FED85C1
:102E2C00FE853197E217F30760F4F29AE02FEF5F1B
:102E3C00E093AB074093AC07EE81E093AD07E1E084
:102E4C002AC00F5F1F4FCDCFF29B02C0E1E023C021
:102E5C000E94A32B0E94A82BEF930E94A32BAF914F
:102E6C000E94CD2B19F00E94D22B14C00E94050F8A
:102E7C00ED3019F00E94D52B0DC00E94050FEA30E1
:102E8C0019F00E94D52B06C0ED85FE85E217F307DD
:102E9C0009F0A4CEE0E00E94FF2F639608950E94F3
:102EAC00DC2BEC81FD810E171F0718F40E94F12B0F
:102EBC0008F014C0E4E4EA930E94BE0E0E94FC2BBE
:102ECC00EA930E94032CA0910002AD3021F0E0E0C7
:102EDC0019810881A4C20F5F1F4FE3CFE1E0198174
:102EEC0008819DC20E94DC2BEC81FD810E171F070F
:102EFC0018F40E94F12B08F011C0E4E6EA930E944A
:102F0C00032C0E94FC2BA0910002EA1721F0E0E0B8
:102F1C001981088184C20F5F1F4FE6CFE1E0198150
:102F2C0008817DC21A9320D8EB81FC810E94072C6A
:102F3C00EF93E981FA810E94072CE095AF910E94F2
:102F4C000C2C0E94072CE03039F00E94ED07E6E6CD
:102F5C000E94112C0E94ED07EB81FC810E94162C23
:102F6C00EF93E981FA810E94162CE095AF910E94B3
:102F7C000C2C0E94162CE03039F00E94ED07EEE686
:102F8C000E94112C0E94ED07EB81FC810E941B2CEE
:102F9C00EF93E981FA810E941B2CE095AF910E947E
:102FAC000C2C0E941B2CE03039F00E94ED07EFE650
:102FBC000E94112C0E94ED07EB81FC81FA93EA939D
:102FCC000E94010FEF930E9446280E94010FE0958A
:102FDC00AF91EA2B1E2F0E9446280E94010FE03071
:102FEC0039F00E94ED07ECE60E94112C0E94ED07CF
:102FFC00E1E01881259608951A930A930E94BA0F5E
:10300C00EC81FD810E94072CEF930E94202CE0950F
:10301C00AF91EA2B1E2F0E94202CE03071F0E6E8D5
:10302C00F3E00E94CE29009100020E94202CE09532
:10303C000E2B101711F0E0E05EC0EC81FD810E94B8
:10304C00162CEF930E94232CE095AF91EA2B1E2FA8
:10305C000E94232CE03071F0E8E8F3E00E94CE29C6
:10306C00009100020E94232CE0950E2B101711F0FA
:10307C00E0E041C0EC81FD810E941B2CEF930E948B
:10308C00262CE095AF91EA2B1E2F0E94262CE030C7
:10309C0071F0E5ECF1E00E94CE29009100020E9453
:1030AC00262CE0950E2B101711F0E0E024C00E94A6
:1030BC00292C0E94010FEF930E9441280E94010FBE
:1030CC00E095AF91EA2B1E2F0E9441280E94010F20
:1030DC00E03081F0EAE8F3E00E94CE290091000292
:1030EC000E9441280E94010FE0950E2B101711F041
:1030FC00E0E001C0E1E01981088126960895E0E046
:10310C00E0938000E3E0E0938100EFEFE093850033
:10311C00E2ECE0938400E1E0E0936F000895E88135
:10312C00E03019F0E4E0E093AF0232C21A9313E0FE
:10313C00103001F111507BD2E093AE07E03059F022
:10314C001030B1F7E4EFF1E00E945A28E4E0E0938C
:10315C00AF02E0E027C2E3E3F5E0FA93EA930E94C2
:10316C00F21FE093AE07E03019F0103009F702C0FF
:10317C00E1E018C20E942E2C15C20E94FA2F30E0FA
:10318C00E1E0E093B20275D0E03009F46DC0A4D058
:10319C000E94352C0E943A2C09F066C00E94482CE3
:1031AC00E15AFA4FA0E0A083313408F040C00E94ED
:1031BC004D2B0E94352C0E944D2CFA93EA930E94C1
:1031CC00E426E32FF0E0E852FF4F249100E010E0FA
:1031DC000E944D2C0E171F0710F4213008F414C058
:1031EC00F801E357FD4FBF01ADE8B2E00E94532C4C
:1031FC00ADE8B2E00E94592CA357BD4FEC91E227E9
:10320C00EC930F5F1F4FE4CF0E944D2BEDE6F4E0E3
:10321C00FA93EA93EDE6F4E0FA93EA930E942727F7
:10322C00EA930E943227E03011F03F5FBDCF31347A
:10323C00D8F420932103213098F000E010E00E9494
:10324C00642C70F40E94682CAFE5B5E00E94592CF8
:10325C00A15ABA4FEC91E227EC930F5F1F4FEFCFBF
:10326C00E1E00E94013044C10E942E2C0E940130EA
:10327C003FC11A9313E00E94D229E8E7F4E00E94C0
:10328C00D7290E94412B0E944D2B0E94522BE8E71C
:10329C00F4E0FA93EA930E9403270E94D229EAE70A
:1032AC00F4E0FA93EA930E940327103081F0115056
:1032BC000E94D2290E941521E093AE07E03021F440
:1032CC000E946F2C31F403C0103079F702C0E1E09A
:1032DC0069C10E942E2C66C10E946F2C29F0E091CE
:1032EC00AE07EA931CDFD0C0CDC00E949F2F0E9476
:1032FC00A42F0E946523E093AE07E03019F00E94E2
:10330C002E2CF6C0E1E0F4C00E94FA2FE0912103CC
:10331C003E2F0E94352C0E943A2CB1F4303099F09B
:10332C0000E010E00E94642C70F40E94682CAFE561
:10333C00B5E00E94592CA15ABA4FEC91E327EC93BB
:10334C000F5F1F4FEFCF01C007C00E947B2C0E9464
:10335C00852C0E940130CCC00E942E2C0E94013082
:10336C00C7C00E94FA2FE09121033E2F0E946029D2
:10337C0009F451C00E94292CE885F9850E948D2CF6
:10338C00E091AE07E03071F500E010E00E94642C93
:10339C0040F53030B1F0F801AC81BD81EA0FFB1F74
:1033AC00BF010E94982CEE0F0E2E0E94982CEE1F3F
:1033BC00E0E0EE1FE029DB01EC930E94982CE32760
:1033CC00EC930E94982CF0E0A0918202B0918302C1
:1033DC00EA0FFB1FE0938202F09383020F5F1F4FF3
:1033EC00D5CF01C018C000915F0710916007EE8126
:1033FC00FF810E171F0750F4F801AC81BD81AE0F91
:10340C00BF1FEFEFEC930F5F1F4FF1CF0E947B2C90
:10341C000E94852C02C00E942E2C0E9401302896FE
:10342C00089508951A930E94482CA0916107B091B9
:10343C006207AE17BF0708F067DFA1E6B7E00E948E
:10344C0093273197E15AFA4F1081A7E7B7E00E9412
:10345C009F2CA7C00E94D2290E941521E093AE0791
:10346C00E03091F40E946F2C79F40E94352CE0E04E
:10347C00F2E00E948D2CE03029F4E0E0E09361074B
:10348C00E0936207E1E00895E0E008950E94A82C23
:10349C000E94352C0E94292C0E946C278F0130979A
:1034AC0039F00E9441280E94272731960E0F1F1FCA
:1034BC001CC00E94A82C0E944128E8DF8F01309785
:1034CC00A1F00E944D2B1A930A93E0E2EA930E941A
:1034DC004A270DE812E01A930A93EDE0EA930E9452
:1034EC005E27E00FF11FA0E0A083F801198108818D
:1034FC00249608950E94A82CADDFE030A1F10E9423
:10350C00AD2CC4DF8F01309741F1EA81FB813097FC
:10351C0079F0AC81BD81EC91D801EC930F5F1F4F1A
:10352C000E94B22CEA81FB813197EA83FB83EDCFB9
:10353C000E946F2CC1F40E94352C0E94482C3197AC
:10354C00FA93EA930E94B82C71F40E94FA270E9415
:10355C00FA270E94B82C39F401C005C0E1E01981AA
:10356C0008810C94B61FE0E0198108810C94B61FF9
:10357C00E4B1EC62E4B9E5B1EC63E5B9E0E5ECBDCE
:10358C00E1E0EDBD0895E881EEBDEDB5E078E9F33D
:10359C00219608951A93EFEFEEBDEDB5E078E9F3BF
:1035AC001EB5E12F19910895F5DF08951A930A932A
:1035BC00EE81E07849F0EE81EF77EE83E7E70E9449
:1035CC00C22C0E2F023070F52A9AE4DF2A98E2DF23
:1035DC00EE810E94CB2CE8E10E94BC2EEA93D3DF53
:1035EC000E94692B0E94E62E0E94CB2CE8E00E94E0
:1035FC00BC2EEA93C8DFEA81EA93C5DF11E0AE8105
:10360C00A03409F415E9AE81A83409F417E81A932B
:10361C00BADF1AE0BFDF0E2F07FF02C0115009F40A
:10362C0001C0F8CFE02F19810881279608952497BF
:10363C000E94F82F9DDF2A9905C00E94FA270E944C
:10364C00D32CF2D014E6103019F0A4DF1150FBCFBC
:10365C0030E0E0E40E94C22CE13009F075C0E8E4EF
:10366C00EA93EAEAF1E060E070E00E94DA2CE130E3
:10367C0009F045C010E0143050F40E94DE2CFF938A
:10368C00EF9388DFAF91BF91EC931F5FF4CFA885C8
:10369C00A13019F4A985AA3A09F030C040EE5EE2D7
:1036AC00042E052A51F0E9EEEA93E0E0F0E060E048
:1036BC0070E40E94DA2CE03009F403C04150504011
:1036CC00EFCF042E052A29F0EAE70E94C22CE03045
:1036DC0009F014C010E0143050F40E94DE2CFF935B
:1036EC00EF9358DFAF91BF91EC931F5FF4CFEE8156
:1036FC00E07411F0ECE001C0E4E03E2F25C0E9EEEF
:10370C000E94C22CE23018F432E009EE02C031E023
:10371C0001E448EA51E6042E052A31F00A930E948E
:10372C00D32C44DFE03009F403C041505040F3CFB8
:10373C00042E052A41F0E0E5EA930E94E52C0E9454
:10374C00DA2CE03009F030E03093AF072DDFECB528
:10375C00EC7FECBDEDB5E160EDBD303011F0E0E09B
:10376C0001C0E1E00E94FF2FD0C20E94FA2FE0912D
:10377C00AF07E87031F40E94EA2C0E94EF2C0E94F3
:10378C00F62C11E0E1E5EA930E94FB2C0E94DA2C66
:10379C00E03009F044C020E335E7FCDE0E2F0F3F8C
:1037AC0019F42150304009F401C0F7CF0E3FB9F5A0
:1037BC00AE81BF81E2E0F2E0EA1BFB0BDF01EC81A2
:1037CC00FD81AE1BBF0B9D01EE81FF81309739F05F
:1037DC00E1DEEE81FF813197EE83FF83C9F7EC8543
:1037EC00FD85309781F00E9488293197FF93EF93E4
:1037FC00D1DEAF91BF91EC93EC81FD813197EC83DD
:10380C00FD8389F706C0EC81FD813197EC83FD8344
:10381C00D1F7C0DEF90131979F01D9F710E0C4DE72
:10382C00E12F0E94013034C30E94FA2F11E0E88589
:10383C00F9853097F9F02C813D81022E032A31F065
:10384C00E091B007F091B107309709F411C0A88549
:10385C00B985ED91A887B987EA9395DEA0EBB7E01F
:10386C00ED91FD913197FE93EE9321503040E5CFD1
:10387C0010E04DC00E94002D0E94E42F21F1E09138
:10388C00AF07E87041F40E94002D0E94EF2CEC83EE
:10389C00FD836E837F83E8E5EA93ED81FE816F8182
:1038AC0078850E94DA2CE03069F4EFEFEA936BDE56
:1038BC00EEEFEA9368DEE0E0F2E0E093B007F0931D
:1038CC00B10710E024C0E091B007F091B107329637
:1038DC009F01F90121503040309721F0E0E0EA934C
:1038EC0052DEF7CF57DEEF71E53081F428EE3DEF75
:1038FC0051DEEF3F19F0022E032A09F403C02150C8
:10390C003040F6CF022E032A09F010E04DDEE12FF5
:10391C00FAC11A930A930E811F81EA81FB813197B8
:10392C00EA83FB83319649F01F930F930F5F1F4F70
:10393C00EC81AF91BF91EC93F0CF1981088110C34A
:10394C000E94F82F0A851B852885398540E050E0B8
:10395C00EE81FF813197EE83FF83319681F0D801A0
:10396C000F5F1F4F0C901124D9012F5F3F4FAC916B
:10397C00BB27F001EA1BFB0BAF01309709F001C02C
:10398C00E7CFFA010E94FF2F2C96089526970E94EC
:10399C00F82F0E94052DEE83FF830E940A2D0E94B2
:1039AC000F2D50F0AE81BF8118960E948A2F0E9475
:1039BC000A2D0E94F32F08F0A7C0AE81BF81EC91B5
:1039CC00F0E0E130A0E0FA0709F04DC02C853D8510
:1039DC00F901F695E7952E0F3F1FF901F170AF0134
:1039EC00D901E0E0F2E00E94242F9F01EFEFF1E01B
:1039FC00E417F50759F00E94172D0E94A42F5A9333
:103A0C004A930E94232D09F07FC01FC00E94172DDE
:103A1C000E94A42FEFEFF1E0FA93EA930E9417288B
:103A2C00A4DEE03009F070C0FE0139960E942B2D07
:103A3C00F9010E94BF2B0E948A2B0E94FA270E9438
:103A4C00172893DEE03009F05FC008851985EC85F6
:103A5C00E17021F0F8010E94D82E02C0F801FF702D
:103A6C006627772755C0E230A0E0FA0709F5FE017A
:103A7C0038960E942B2D9F938F93BF93AF930E94E8
:103A8C00342DE0E0F1E060E070E00E94372FAF9160
:103A9C00BF918F919F910E94392DF070EE0FFF1FF7
:103AAC000E94402D89F5E885F9856627772730C077
:103ABC00E330A0E0FA0741F5FE0138960E942B2D69
:103ACC009F938F93BF93AF930E94342DE0E8F0E067
:103ADC0060E070E00E94372FAF91BF918F919F9162
:103AEC000E94392DEF77F0700E94CC2EFA93EA9356
:103AFC00E4E0F0E00E94432D39F40E94EA2CEF7FC1
:103B0C00FF7F6F7F7F7004C0E1E0F0E060E070E069
:103B1C000E94FF2F609608950E94492D0E94692BE8
:103B2C00E250F040604070400E94642BF801A08588
:103B3C00B18582859385E2E0F0E060E070E00E9460
:103B4C00AE2F0E947F2E0E94502D0E94F32F28F042
:103B5C000E94552D198108813DC2F801E181F0E0E8
:103B6C000E94502D0E94F02E0E94FF2E7F936F9387
:103B7C00FF93EF93D80154960E948A2FAF91BF9177
:103B8C008F919F910E947A2E1981088123C22497CC
:103B9C000E94492DAE81BF810E945A2DAE81BF81FA
:103BAC0014960E945F2D0E94502D0E94622D49F0A8
:103BBC00D80118960E948A2F0E94502D0E94F32F34
:103BCC0020F0E1E019810881CBC10E94692B0E9491
:103BDC00E42F21F4D801AC91A33009F004C0D80132
:103BEC0050960E945F2D0E94692BAE81BF81189662
:103BFC000E94952F0E94692B0E94E42F21F00E94B5
:103C0C006A2D8ADF04C0D80150960E948A2FAE819B
:103C1C00BF811C960E94952FE0E019810881A0C1FC
:103C2C0024970E946E2DA885B9850E94862F319607
:103C3C008F01002E012A31F01C960E948A2F0E94BF
:103C4C00E42F11F4E3E05FC0F801EF7009F056C007
:103C5C00A885B9851C960E949F2CA885B9851896B5
:103C6C000E948A2F0E94E42F51F4D90114960E94CD
:103C7C00862F0E171F0710F0E3E045C03FC0F80178
:103C8C000E94D82EDF01F901E181F0E03197EA239F
:103C9C00FB23309799F5E885F985A085B185828558
:103CAC0093850E94752DEC83FD836E837F83AC819D
:103CBC00BD818E819F810E940F2D10F4E1E023C005
:103CCC00D90118960E948A2FAC81BD818E819F816B
:103CDC000E94F32F10F0E3E016C00E94002DA8857F
:103CEC00B98518960E94952F0E94002D0E94A42F32
:103CFC0013DFA885B9851C960E94952FA885B985D8
:103D0C000D931C93E0E00E9401302A9608950E94C6
:103D1C00FA2F0E94292C3BDF1E2F103019F00E9425
:103D2C00013058C10E94792D3A932A93EE81FF817C
:103D3C000E94812D0E94A92FAA85BB850E94862FE7
:103D4C00EF70F070EE0F0E94C82EFA93EA93E0E247
:103D5C00F0E00E94432D11F0E1E001C0E0E01E2FE5
:103D6C00103011F5D9010C91003011F413E01CC086
:103D7C00F901E385E87079F43A932A93EE81FF8197
:103D8C00A281B381BA93AA93EBE0F0E0FA93EA93A1
:103D9C00D7DD309709F001C007C00E94292C40DF05
:103DAC001E2F103009F4C0CFE12F0E94013012C138
:103DBC0024970E94F82FAC85BD8512960E94862F01
:103DCC00E887F987FA93EA93E0E2F0E0FA93EA9352
:103DDC00EBE0F0E0FA93EA939CDDE0E05E2F2E2F0F
:103DEC0038E0AA85BB850E94862D0E948B2D1C91E4
:103DFC00113210F01F3209F435C01E3211F0531776
:103E0C0040F0383011F41E3209F02CC058E03BE081
:103E1C0028C0103838F0E12FF0E0E058F040E65EB2
:103E2C00FE4F1491E0E0E03041F0E32FF0E03197E9
:103E3C00A52FB0E0AE17BF070CF40AC00E948B2D63
:103E4C000C910E94932D10830E94932D008309C026
:103E5C00113610F01B3708F001C010520E94932D40
:103E6C001083C3CFE22FAE81BF81F0E0EA0FFB1FBE
:103E7C00AA85BB85ED93FC93113210F4E1E001C0EF
:103E8C00E0E0A885B9851B96EC93E0E00E94FF2F3B
:103E9C002E9608950E94FA2FAC81BD81AC91A03270
:103EAC0019F40E94B22CF8CFAC81BD81AC91AF3229
:103EBC0011F40E94B22CAE81BF8114960E949B2DEE
:103ECC00AC81BD81AC91A13258F40E94AD2C5FDE67
:103EDC001E2F0E94052DA681B781E0E0EC933DC01A
:103EEC000E94AD2CFE013696FA93EA9361DF1E2FE9
:103EFC00103099F50E94AD2C0ADF1E2F103041F0C6
:103F0C00133019F40E949F2D09F001C014E025C054
:103F1C000E949F2D11F50E94792DF901E385E07126
:103F2C0011F414E01AC0D90154960E94A72D0E94D6
:103F3C00EB2E7F936F93FF93EF93D9015A960E94C8
:103F4C00862FAF91BF918F919F910E943429AE81A2
:103F5C00BF8114960E94952FC3CFE12F0E94013090
:103F6C00289608950E94292C0E946A2DEEEFF1E00C
:103F7C000E94402D11F0E3E02DC00E94AC2DE535E0
:103F8C00AAEAFA0711F0E2E025C00E94292C0E944F
:103F9C006A2DE6E3F0E00E94402D31F40E94AC2D36
:103FAC00E634A1E4FA0709F002C0E0E013C00E9475
:103FBC00292C0E946A2DE2E5F0E00E94402D31F49C
:103FCC000E94AC2DE634A1E4FA0709F002C0E0E04F
:103FDC0001C0E1E026960895E4971A93E0E0E0939F
:103FEC00B207E093B307EDA9FEA9309709F413C10A
:103FFC001EDBE17011F0E2E00FC1E0E0ED87EE872F
:10400C00EF87E88B0E94B12DADDF1E2F1130E1F44C
:10401C000E94B12DEEEBF1E0FA93EA93E0E1F0E0CF
:10402C000E94432D11F013E00FC0ED89E03061F0D8
:10403C00E98DFA8D6B8D7C8DED87FE876F87788B84
:10404C000E94B12D8FDF1E2F133011F4E1E0E4C07C
:10405C00103011F0E7E0E0C00E94B12DEDE0F0E08F
:10406C00FA93EA93E4E2F0E00E94432D11F0E1E0D0
:10407C00D3C0FE01B7963D97DF010E94A72D0E9489
:10408C00BC2D0E94FB2C0E94E42F41F4FE01F596FE
:10409C003D97DF010E948A2F0E94BC2DEC89F0E035
:1040AC00A985BA858B859C850E94F02E0E94FF2ED7
:1040BC000E94BC2D0E94C12DAD85BE858F8598892F
:1040CC000E94BF2BADA9BEA91C960E94952FE98911
:1040DC00ADA9BEA91196EC93FE01B2963D97DF01F6
:1040EC000E94862FADA9BEA91496ED93FC93FE01F8
:1040FC00B4963D97DF010E94A72DED83FE836F835D
:10410C0078870E94E42F51F4FE01F1963D97DF0170
:10411C000E948A2FED83FE836F8378870E94C12DC6
:10412C00AD81BE818F819885662777270E94AE2F3F
:10413C000E947F2EA985BA858B859C850E947F2E37
:10414C007F936F93FF93EF930E94C82DAF91BF9114
:10415C008F919F91662777270E94842EEDA9FEA947
:10416C000E94D02D0E94372FEE5FFF4F6F4F7F4F75
:10417C00E983FA836B837C83ADA9BEA918960E9450
:10418C00952F11E0A981BA818B819C81A73FEFE02B
:10419C00BE07E0E08E07E0E09E0708F012E0A98180
:1041AC00BA818B819C81A73FEFEFBE07E0E08E07C1
:1041BC00E0E09E0708F013E0ADA9BEA91C931330F4
:1041CC0029F4E8A9F9A96AA97BA902C00E94D52DF6
:1041DC00ADA9BEA950960E94952F0E94D52D7F9314
:1041EC006F93FF93EF930E94C82DAF91BF918F9166
:1041FC009F910E94BF2BADA9BEA954960E94952FEA
:10420C00ADA9BEA91296E0E0EC93EDA9FEA9E0934E
:10421C00B207F093B307E0E01881E7960895EC97A6
:10422C000E946E2D022E032A11F4E6E048C0D9013B
:10423C001296E0E0EC93FE013496D9011696ED93BC
:10424C00FC93FE01B496EAABFBABFE01F096FA933D
:10425C00EA93FE01EE5BFF4F0190F081E02DFA93A3
:10426C00EA9318DE1E2F103009F029C0EC81E030E3
:10427C0019F0EF85E07111F0E3E021C0E88DF98DC4
:10428C00662777270E94EB2EDF01CB01EE8DFF8D89
:10429C000E943429D90190960E94952FE8A1F9A18A
:1042AC006AA17BA1D9015C960E94952FD9015896E1
:1042BC000E949B2DD9011296E1E0EC93E0E00E9464
:1042CC000130EF96239608952E970E94F82F288D93
:1042DC00398D0E94052DEE83FF83AC89BD890E9428
:1042EC005A2DEE81FF81309711F4E6E0D6C0EE81B5
:1042FC00FF81A281A17011F4E5E0CFC0EE81FF81B6
:10430C00A48DB58D868D978D9F938F93BF93AF930F
:10431C000E94DC2DEF91FF916F917F910E947F2E77
:10432C000E94F62C0E94EA2CAE89BF898827992717
:10433C000E94EE2F20F4E885F985EE8BFF8BEE8939
:10434C00FF89309709F4A3C00E94DC2DFD01BC014C
:10435C00F170309709F052C00E94DC2D0E94E32DC1
:10436C00EE81FF810E94D02D0E946F2F0E94E42FBE
:10437C0049F50E94DC2D0E94E82F31F4AE81BF81FB
:10438C0090960E948A2F04C00E94E92D0E94752DE0
:10439C00E88BF98B6A8B7B8BA889B9898A899B8975
:1043AC000E940F2D08F475C0E889F9896A897B8908
:1043BC00AE81BF8194960E94952FAE81BF811396DA
:1043CC00E0E0EC930E94E92D0E94A92FA5DB0E944E
:1043DC00F02DEC85FD856E857F850E94E42F09F418
:1043EC0058C0AE81BF810E94F52D0E940A2D0E94FB
:1043FC00BA2BAE81BF8198960E94952FEE81FF81DA
:10440C000E94FC2DA0E0B2E0AE1BBF0BAD01EE890B
:10441C00FF89E417F50710F44E895F89E88DF98D53
:10442C00309719F4E0E0F0E001C0F901FA93EA9357
:10443C00E885F9850E94012EAC85BD8558960E94B1
:10444C00862FF170FA93EA935A934A938ED91E2FC2
:10445C001030F9F4EE81FF810E94082EDF01CB01B0
:10446C00FA010E94BF2BD0010E94952F240F351FFB
:10447C00EE89FF89E41BF50BEE8BFF8BAC89BD89B4
:10448C00ED91FD91E40FF51FFE93EE9358CFE0E014
:10449C0004C0AE81BF810E940E2E0E94FF2F6A962F
:1044AC0008952C970E94F82F0E891F894091B2070E
:1044BC005091B307AA89BB890E945A2D042E052A54
:1044CC0011F4E6E0F8C0FA01A281A17011F4E5E064
:1044DC00F2C0EC89FD893097A1F4FA01A281A07495
:1044EC0039F00E94FA270E94D32C9ED9E03009F4AF
:1044FC0001C0DEC0DA011296EC91EF7BEC93E0E0A8
:10450C00DAC0FA01A281A07441F4DA015896ED9157
:10451C00FD91E070FE7FFE93EE93FA01A48DB58DB4
:10452C00868D978D9F938F93BF93AF930E94132E7D
:10453C00EF91FF916F917F910E947F2E0E94192E17
:10454C00AC89BD89882799270E94EE2F20F4EE8133
:10455C00FF81EC8BFD8BEC89FD89309709F4A6C0AB
:10456C00FA010E94FC2D309709F05AC00E94132EBC
:10457C000E94E32DFA010E94D02D0E946F2F0E9401
:10458C00E42F19F50E94132E0E94E82F29F4DA016A
:10459C0090960E948A2F07C0FA01A4A1B5A186A10A
:1045AC0097A10E94752D0E941E2E0E94342D0E94F0
:1045BC000F2D08F47DC00E94232EDA0194960E94E0
:1045CC00952FDA011396E0E0EC93FA01A4A1B5A1C2
:1045DC0086A197A10E94A92F9FDAEA87FB876C8797
:1045EC007D870E94282E0E94E42F09F461C0DA0115
:1045FC000E94F52D0E942D2E0E94BA2BDA0198965E
:10460C000E94952F0E94FA27FA010E94012E0CD9C4
:10461C00E03009F04DC0DA011296EC91E064EC93B5
:10462C00FA010E94FC2DA0E0B2E0AE1BBF0B9D0175
:10463C00EC89FD89E217F30710F42C893D891A9354
:10464C000A93F901662777270E94A42FEDD8E03052
:10465C0079F5FA010E94082EDF01CB01F9010E94C5
:10466C00BF2BD0010E94952F020F131FEC89FD89DF
:10467C00E21BF30BEC8BFD8BAA89BB89ED91FD91B1
:10468C00E20FF31FFE93EE93FA010E94FC2D30977C
:10469C0061F40E94FA270E94D32CC6D8E03041F472
:1046AC00DA011296EC91EF7BEC9355CFE0E003C06E
:1046BC00DA010E940E2E0E94FF2F689608956097D3
:1046CC000E94492D002E012A11F4E6E0DCC0F8010D
:1046DC00A281A17011F4E5E0D6C0D8015C960E94CD
:1046EC00322E0E94EE2F40F4D8015C960E948A2F45
:1046FC00EA8BFB8B6C8B7D8BD80158960E945F2DBF
:10470C00D80158960E949B2D0E94392E0E94E82FAA
:10471C0008F0B4C0F8010E94D02D0E94EF2CEA875B
:10472C00FB876C877D870E94502D0E94E82F98F4A0
:10473C000E943E2E0E94432E7F936F93FF93EF9324
:10474C000E94692B0E94432EAF91BF918F919F9134
:10475C000E94F32F08F427C00E94692BE150F0400F
:10476C0060407040DF01CB010E94282EE150F040E8
:10477C00604070400E94FA2E0E94892ED8015896F3
:10478C000E94952FD80158960E94322E0E94842E9A
:10479C00AA8BBB8B8C8B9D8BD80194960E948A2FF5
:1047AC000E941E2E08C0D80190960E948A2F0E944B
:1047BC001E2E0E944D2E0E94282E0E94392E0E94E1
:1047CC00EE2F68F50E94232E0E94A42FDFD80E94A2
:1047DC001E2E0E94342D0E940F2D48F0D8011896E1
:1047EC000E948A2F0E94342D0E94F32F08F048C09B
:1047FC000E944D2EF8010E94082E0E942D2E0E9420
:10480C007A2ED0010E94952F0E942D2E0E943E2EB2
:10481C000E947F2EEA8BFB8B6C8B7D8BCCCFF801AF
:10482C000E94082E0E94392E0E947A2ED0010E94DE
:10483C00952F0E94232E0E94A42F6ED90E94192E10
:10484C000E94E42FE9F00E94392E0E94E52C0E9470
:10485C00372FD8011396EC930E943E2EF1703097AF
:10486C0069F0D8010E94F52DAE81BF8188859985AC
:10487C000E94BA2BD80198960E94952FE0E003C0B5
:10488C00D8010E940E2E19810881669608951A93FC
:10489C000A93AA81BB8112960E94862F309729F128
:1048AC00AA81BB8114960E94862F8F01309761F0EC
:1048BC000230E0E01E0780F0F80131978F01AA81E9
:1048CC00BB811496ED93FC93AA81BB8112960E9436
:1048DC0093273197AC81A083AA81BB810E94862F3C
:1048EC00FF2312F00E94932706C0AA81BB81EFEF31
:1048FC00FFEFED93FC9319810881259608952B9772
:10490C000E94F82F10E0A989BA890E945A2DEF89CC
:10491C00F88D3196EF8BF88F3197E4912E2FE03094
:10492C0009F463C1E12FE03039F4253211F411E0C0
:10493C0002C00E94532E58C1E130A9F4253219F45B
:10494C000E94532E50C112E040E000E02D3211F4D1
:10495C0001E04AC12B3211F44BE246C1203211F472
:10496C0040E242C102C0E23039F450E013E020339F
:10497C0011F4006839C102C0E33091F4203310F017
:10498C002A3308F007C0AAE05A9F502DE22FE053BB
:10499C005E0F2AC12C3619F4026015E025C103C044
:1049AC00E53009F021C1E22FE33649F40E945C2E78
:1049BC00ED89FE89A481AA930E94622E14C1E3376B
:1049CC0069F40E945C2EAD89BE8914960E94862DD6
:1049DC000E94AD2C0E941D271E2F0FC0E03791F4B2
:1049EC000E945C2EAD89BE8914960E94862D0E9471
:1049FC00AD2C0E9427271E2F08600F77E0E0E88B74
:104A0C0030E06AC0E43611F0E93611F4046002C0FB
:104A1C00E537A1F4EAE0E88B01FF08C0E0E0FAEC2E
:104A2C006AE97BE30E94F62C1AE022C0E0E1F7E28F
:104A3C0060E070E00E94F62C15E01AC0E83511F425
:104A4C00086003C0E83709F0CEC0E0E1E88B01FF55
:104A5C0008C0E0E0F0E060E070E10E94F62C18E0A5
:104A6C0007C0E0E0F0E160E070E00E94F62C14E09A
:104A7C0001FF08C00E945C2EAD89BE8914960E946D
:104A8C008A2F13C002FF0AC00E945C2EAD89BE891A
:104A9C0014960E94862F0E94F02E07C00E945C2E56
:104AAC00AD89BE8914960E94A72DEC87FD876E8771
:104ABC007F8702FF11C0AF85AA234AF4EC85FD85E0
:104ACC006E857F850E94972E0E94F02D4DE240301E
:104ADC0011F01F5F01C00B7F00FD11C0151778F49A
:104AEC0007FF08C002FF04C00B7F242F115001C028
:104AFC0020E301C020E20E94532E5150EFCF312F02
:104B0C00E889E030B9F43030A1F003FF06C0EE8143
:104B1C00FF812591EE83FF8305C0AE81BF812D916E
:104B2C00AE83BF830E94532E503009F05150315048
:104B3C00EACF4FC00E94EA2C0E940A2D0E94372F08
:104B4C002E2F2A3030F003FF02C0295C01C0295AF5
:104B5C0001C0205D04FD1DC0213338F4A885B98542
:104B6C008A859B850E94622D09F409C0531710F0A9
:104B7C0000FF01C013C020E207FF0BC020E300615F
:104B8C0002FF07C00B7F4A930E94622E503009F03F
:104B9C0051500E94532E503009F0515031500E9408
:104BAC00EA2C0E940A2D0E946F2F0E94F02DE8899A
:104BBC00A885B9858A859B85FF27662777270E945C
:104BCC00372F0E94F62C0E94EA2C0E94E42F09F049
:104BDC00B1CF00FF08C0503031F05150E0E2EA9301
:104BEC000E94622EF8CF10E092CEA989BA890E9459
:104BFC00862F0E94FF2F69960895FF92F82E269714
:104C0C000E94FA2FDE011C960E94762E0E94862F9F
:104C1C00309719F4EFEFFFEF27C0DE0116960E94D4
:104C2C00762E8D01DE011C960E94762E0E94862D1A
:104C3C00E0E0E887E987DE011A960E94762E0E9452
:104C4C00862FFA93EA931A930A93EDE4F4E2FA931B
:104C5C00EA93FE013A96FA93EA9351DE9F01AE81F4
:104C6C00BF81E0E0EC93F9010E9401302A96FF909D
:104C7C000895B981A881EC918A2FEA930E94892723
:104C8C00A82FEE2311F01196F6CFE894EC91ED32AB
:104C9C0011F4689402C0EB3209F411966627772759
:104CAC00EC918A2FEA930E948127A82FEE2379F0AA
:104CBC00FB01660F771F660F771F6E0F7F1F660F46
:104CCC00771FED91FF27E0536E0F7F1FE9CFFB019C
:104CDC001EF4E095F095319622960895B981A8813D
:104CEC00EC91AF93EA930E948927AF91EE2311F0D8
:104CFC001196F6CFE894EC91ED3211F4689402C061
:104D0C00EB3209F411960024112488279927EC9191
:104D1C00AF93EA930E948127AF91EE2389F0F001C3
:104D2C00BC011BD01AD00E0E1F1E861F971F15D04C
:104D3C00ED91FF27E0530E0E1F1E8F1F9F1FE7CF15
:104D4C00F001BC0146F4E095F095609570958827CC
:104D5C003196681F781F22960895000C111C881F2D
:104D6C00991F0895A991B991E991F99130962AF476
:104D7C00E095F09531966DE26D93E89480E197E2C1
:104D8C000DD088EE93E00AD084E6992707D08AE00C
:104D9C0005D06E2F10D066276C9308956627E81700
:104DAC00F90720F06395E81BF90BC9F7662311F49A
:104DBC0016F008956894605D6D93089599818881CB
:104DCC00009641F0BD81AC81FB81EA8161916D93CC
:104DDC000197E1F7FD81EC8126960895E991F9910F
:104DEC00A991B991CD016D916623E9F71197619164
:104DFC006D936623E1F7FC010895E991F991A9916E
:104E0C00B991CD016D916623E9F7119705900D923B
:104E1C000020E1F7FC010895E991F991A991B9916C
:104E2C00CD0105900D920020E1F7FC010895A991A8
:104E3C00B991EE27FF276D91662311F03196FBCFC8
:104E4C000895AA27BB27E991F9910590002011F04C
:104E5C001196FBCFFD010895002411246991E9916D
:104E6C00F991A991B991662349F06A951D90059025
:104E7C00011421F40020B9F7EE2708951018E1F37E
:104E8C00E1E008F4E25008957991E991F991A99142
:104E9C00B991CD01772351F07A9561916D93662389
:104EAC00C9F7772319F07A956D93FBCFFC01089520
:104EBC006991A991B991EE27FF277D91671729F088
:104ECC0031967723D1F7EFEFFFEF0895AA81BB81DD
:104EDC00CD01E881F9810590002011F4FC0109C095
:104EEC006D916015C1F30196DC01662391F7EE27F5
:104EFC00FF2724960895E1E0F991F03310F0FA338E
:104F0C0008F0EE270895E1E0F991F03229F0F9303C
:104F1C0010F0FE3008F0EE270895ED91FD913196DA
:104F2C00FE93EE930895A0916307AF5FA093630780
:104F3C000895E091B302EA930C948C05E3E0EA93B4
:104F4C00E1E0EA93E1E0F0E0FA93EA930C9487064F
:104F5C00E0917900E09388070895E0E0E093C500C4
:104F6C00E093C4000895E0ECE093C200E8E1E09324
:104F7C00C1000895E1E0E0932803E093290308952C
:104F8C00A4E0B0E00E94BF2FE4340895E8EEF3E013
:104F9C00FA93EA930C946A2EA0912B03B0912C03F4
:104FAC000E94F52EE8EEF3E060E070E00E941F2F07
:104FBC00DF01CB01E0E0F4EF61E070E00E945C2FD8
:104FCC000895A0E0B0E081E090E00E94AE2F0E9436
:104FDC007F2E66277727EF2FF0E0E0938707DCCF53
:104FEC00E0E0EA93EA930895E0E0F0E0FA93EA93C4
:104FFC000895A6E0B0E00E94BF2FE0300895E1E0F4
:10500C00EA93EA93E1E0F0E0FA93EA930895E3E09F
:10501C00EA93E1E0EA93E1E0F0E0FA93EA930C948E
:10502C006706E1E0F0E0FA93EA9308950E946A2E95
:10503C00EEE7F3E1E017F1070895EA930E941D06ED
:10504C00E0300895E0E0E093AF02E1E0EA93E09114
:10505C00B302EA93E6CFE2E0EA93E1E0EA93E1CF30
:10506C00E0937C0085E38A95F1F7E0917A00E064A7
:10507C00E0937A000895EA81FB81FA93EA9308950C
:10508C00E981FA81FA93EA930895E0E0E0938202D1
:10509C00E093830208951A93E1E0EA930E94F50EDF
:1050AC00E0918E07E1300895FA93EA930C946A2EFE
:1050BC00EA81EA930E942B08E981EA930E942B086B
:1050CC00E881EA930E942B08E0932D030895299818
:1050DC00E1E0E0938A070895EAE0F0E0E5CFECEA3E
:1050EC00EA93E3E5EA93E0E0EA930C948908E1E0C3
:1050FC00EA930E94F50EE0918E07E1300895E3E00B
:10510C00EA930E94F50EE0918E07E13008952998FC
:10511C0029980E9476081E2F0E9476080E2F0E9456
:10512C0076083E2F0895E0E0EA930C948D08EA93FC
:10513C000E947808EDE0EA930E947808CDCFE4E075
:10514C00EA930E94F50EE0918E07E13008952998BC
:10515C000E9476081E2F0895E0918302F070EE0FE6
:10516C00EE0FEE0FAE2FE0918302F0E0F0E00E9424
:10517C00D12EE470EA2B0895EA93E0918202EA932F
:10518C001A930895EA93E0918302F070F5CFA2E8A8
:10519C00B2E0C3CEE160EA93E0918202EA93E0E0F0
:1051AC00EA930C948908EA93E0918302F070EA93F5
:1051BC00E0918202EA93B7CFEA93E0918202EA93FC
:1051CC00E0E0EA930C9489081A930A9390CF1DE0BF
:1051DC000E9476080E2FA0918A02A2300895EA93BD
:1051EC00E0E0EA930A930C948D081A930E947808D5
:1051FC00299AE0E0E0938A0708950E9476081E2F12
:10520C000E9476080E2F089566277727E093840274
:10521C00F093850260938602709387020895E09163
:10522C008402F091850260918602709187020E943F
:10523C00E12EE0938402F0938502609386027093D2
:10524C0087020895A4E8B2E00E94902F3197604045
:10525C0070400E949A2F0E94E42F089566277727AA
:10526C000E948E2E0895E0938402F0938502609341
:10527C008602709387020895A4E8B2E00E94902FF2
:10528C003197604070400E949A2F0895E0918402FB
:10529C00F091850260918602709187020E94E42F42
:1052AC000895E0937B07F0937C0760937D077093E0
:1052BC007E070895E0917B07F0917C0760917D0754
:1052CC0070917E070E94A42F0E947B19E0300895F4
:1052DC00EC85FD853196EC87FD873197E15AFA4FC5
:1052EC000895A0918402B0918502809186029091DC
:1052FC0087020895E0E0DF01EBCFE081F0E0EA2BDC
:10530C00FB2B0895EC85FD853196EC87FD87089580
:10531C00E0918B02F0E0EE0FFF1F0895FA93EA93F1
:10532C00EFE2F3E0FA93EA930E94B719E0300895A4
:10533C00E093C600E7CFAC85BD85AE1BBF0BAC8739
:10534C00BD870895E885F985A0918202B09183020A
:10535C00EA17FB070895FA93EA930C94000FEC916B
:10536C00EA930E94080FE295E07F0895FA93EA937E
:10537C000C94380FFA93EA930E94630F66277727F1
:10538C000895A4ECB0E01A2EAC91E091B50208950A
:10539C00FA93EA930C949006E4E6F7E0FA93EA9316
:1053AC000895FA93EA930C941227E3ECF1E0FA9344
:1053BC00EA930E945F1AE093AD02F093AE0230972D
:1053CC000895E091AD02F091AE02FA93EA930E9437
:1053DC003F26E130A0E0FA070895E7ECF1E0FA93FC
:1053EC00EA930E945F1AE093AD02F093AE023097FD
:1053FC000895FA93EA930E945F1AE093AD02F0933A
:10540C00AE0230970895E091AD02F091AE02FA939E
:10541C00EA930C943F26E091B402A5E0EA9FF001D8
:10542C000895DF01EFEF0E94D32FF5CFE091B40286
:10543C00EF5FE093B4020895E1E0E093AF02EA93EA
:10544C00EA93ECEDF5E00895FA93EA930C94670671
:10545C00E091AD02F091AE02FA93EA930C947426AB
:10546C00E091AD02F091AE02FA93EA930895E2EF67
:10547C00F2E0FA93EA930895E4E0EA930C94450F72
:10548C00EEEEF2E0FA93EA930895EAEEF2E0FA9384
:10549C00EA930895FA93EA930E945F1AE093AD029F
:1054AC00F093AE02FA93EA9308950F01A081E7E717
:1054BC00EA27D001EC930895E35FFF4FDF010E94D0
:1054CC00BF2FEF700895DF010E94BF2FAE2F0895FC
:1054DC00DF010E94BF2FEF3F0895E35FFF4FDF0115
:1054EC000E94BF2FE07F0895E45FFF4FDF01E09142
:1054FC0060050E94D32F0895EA2BD0010E94D32F70
:10550C000895E65FFF4FDF01E0E0F0E00E94CB2F53
:10551C000895A091FE02B091FF0210970895E45FE8
:10552C00FF4FDF010E94BF2FA09160050895E0910D
:10553C006105E07F6E2F6FCF0E94D32F6CCFE35F9E
:10554C00FF4F0F01C0CFE0916105E07FD5CFB09147
:10555C006305A0E0E0916405F0E0EA2BFB2B0895D5
:10556C00E65FFF4FDF010E94BB2F0895E093FC0222
:10557C00F093FD020895E0E0E0932F05E0933005F1
:10558C00E0933105E093320508950E940A130E94BE
:10559C008D0FE5E4E0938C020E940F08E1E4EA939E
:1055AC000E94BE0EE0E0EA930E94BE0EE0E0EA9399
:1055BC000E94BE0E0E94BC06A0910002AD30089560
:1055CC00FA93EA930C94D913F098E0E0F8E064E0D5
:1055DC0070E067DE6FCEE0912303F0912403A0917D
:1055EC002F05B091300580913105909132056627D9
:1055FC0077270E94F32F0895E0912F05F091300545
:10560C00609131057091320508950E94A42FE0E05D
:10561C00F1E0FA93EA93EFE2F3E0FA93EA930E9453
:10562C00DA15E0300895EFE2F3E0FA93EA93E0E064
:10563C00F1E0FA93EA93E0912F05F0913005FA939B
:10564C00EA930895D9DFE050FF4F6F4F7F4FE093FF
:10565C002F05F09330056093310570933205089552
:10566C000E94ED07E8EBF2E093CE0E940A13E5E40A
:10567C00E0938C0291CEE091B302F0E0FA93EA93BE
:10568C00EDE8F2E0FA93EA930E94B82685CEEDE8B5
:10569C00F2E0FA93EA9308950E94F4267DCEEAEBA9
:1056AC00F2E0FA93EA930E94032776CEFA93EA93F8
:1056BC000E9403270E94301AE0300895EA83FB838E
:1056CC006C837D830895EA81FB816C817D810895D3
:1056DC00E091AD02F091AE020895EA930E94080F9A
:1056EC00EF700895EA930E94080FE295E07F089509
:1056FC00E4E0F0E0FA93EA931A930A930895EE81AA
:10570C00FF81688579850895EF5FFF4F6F4F7F4F5D
:10571C000E94A42F0895E8E0F0E0FA93EA930E9427
:10572C00801AE0300895E3EAF7E0FA93EA93E0CFC9
:10573C00E295EF70EA930C94200F0E94050FEA9308
:10574C000C94080F5E2FE295E07F0895EA0F5E2F10
:10575C00450F0895EF83F88769877A870895AF819D
:10576C00B88589859A8508950E94F02E0E947A2E1C
:10577C000895662777270E947A2E0895E093A7074D
:10578C00F093A8076093A9077093AA07D6CFEA0FE6
:10579C005E2F450F40300895EDE5F3E0DCCDECE6EF
:1057AC00F3E0D9CDEA0F5E2F450FC7CF1A930A93BA
:1057BC000E94ED07E1E4EA930E94BE0EEB81EA93AE
:1057CC000E94BE0EEA81EA930E94BE0E0E94BC06A5
:1057DC0000E010E00895E0912303F0912403A091E0
:1057EC008202B0918302AE17BF070895F801AE8113
:1057FC00BF81AE0FBF1FEC9108950E94BE0E0C949A
:10580C00BC063196FA93EA930C94010FEA2B1E2FE7
:10581C00E981FA810895EA930E94BE0E1A93EDCFA6
:10582C003296FA93EA930C94010F3396FA93EA9317
:10583C000C94010FEA81FB81E4CFEA81FB81F0CF6C
:10584C00EA81FB81F2CFEC81FD81FA93EA93089512
:10585C00E091AE07EA930E949518E0E00895EFE519
:10586C00F5E0FA93EA930895E0E0F2E0FA93EA9314
:10587C00EFE5F7E0FA93EA930E946A21E093AE0712
:10588C00E0300895E0915F07F09160070895EDE630
:10589C00F4E0FA93EA930C942727A00FB11FEC9134
:1058AC00EE0F0E2E0895A00FB11FEC91EE1FE0E04D
:1058BC00EE1FE029DB01EC93D8010895E3DF0E170E
:1058CC001F070895F801E15AFA4FBF01AFE5B5E0A3
:1058DC00E4CFE0E0F0E060E070E00E94A42F0E94D2
:1058EC006523E093AE07E0300895CCDFA0917B07F1
:1058FC00B0917C0780917D0790917E073ACFD1DCE7
:10590C00E0E0E0936107E0936207E1E00895FA9329
:10591C00EA93EFE5F7E0FA93EA930E946A21E093A9
:10592C00AE070895F801AC81BD81AE0FBF1FEC919D
:10593C0008950E94902FEF5FFF4F6F4F7F4F0E9493
:10594C009A2F08951A930A9300E010E00895EE81BF
:10595C00FF81FA93EA930895EC81FD813196EC83F3
:10596C00FD830895EFE5F7E0FA93EA930E9457223E
:10597C00E093AE07E0300895EA93E0E0F0E060E0F9
:10598C0070E00E94A42F0C94DC1AEA930E94C91AAE
:10599C00AA81BB818C819D810895E0E0F0E060E0FC
:1059AC0070E00E94A42F08950E94A42F0C94DC1A7E
:1059BC00E12FF0E0DE011696EA0FFB1F0895E0E000
:1059CC00F2E060E070E00895E885F9856A857B85F2
:1059DC000895A0E0B2E080E090E00E94FF2E0895D0
:1059EC00E887F9876A877B870895E985FA856B854F
:1059FC007C850895EC81FD816E817F810895E09115
:105A0C00B207F091B3070895AC85BD858E859F854F
:105A1C000895A230E0E0BE07E0E08E07E0E09E07CC
:105A2C000895FE013896FA93EA93E885F985A485E2
:105A3C00B58586859785F9019CCEE2E0F0E0FA9376
:105A4C00EA930E94BB1BE0300895FA93EA93E88531
:105A5C00F985A485B585868597850895AE85BF851E
:105A6C008889998908950E947A2E0E94A42FEA8928
:105A7C00FB890895FA93EA93E0CFFA93EA930E9494
:105A8C00BB1BE03008951A930A930091B207109152
:105A9C00B3070895AA81BB818C819D810895E0E0B4
:105AAC00F0E060E070E00895E0E0F0E0ED93FC934E
:105ABC0008950E948A2F02CEA130E0E0BE07E0E0FC
:105ACC008E07E0E09E070895FEDD0E94A42F089546
