:0A0000000C9452020C9400000C94C2
:10000A0000000C9400000C9400000C9400000C9466
:10001A0000000C9400000C9400000C9400000C9456
:10002A0000000C9400000C9400000C948A020C94BA
:10003A0000000C9400000C9400000C9400000C9436
:10004A0000000C9400000C9400000C947F030C94A4
:10005A0000000C9400000C9400000C94000013FFA4
:10006A00207F287F30FF34FF387F48FF4CFF51FF45
:10007A0055FF56FF68FF6CFF86FF87FF014004406B
:10008A00054006400740084009400E101A100F208C
:10009A001B2014201C201D40231031203320354002
:1000AA00374039403D403E4057103A204140438056
:1000BA0045805E106040624064406920724074402E
:1000CA00762078400000415652204953500000E9FA
:1000DA0079255488DFA5B9F6C2ABFCB3B137E18301
:1000EA00D5970438FE9926E48E4BF704C5A51F88D8
:1000FA0068EF1D39BC62D8630F6AA512AAE58C7530
:10010A0036BA818F303DEBE0FE70FA94AEB531001D
:10011A00809A90418E418F804545454949498E8F45
:10012A009092924F994F555559999A9B9C9D9E9F93
:10013A0041494F55A5A5A6A7A8A9AAABAC21AEAF20
:10014A00B0B1B2B3B4B5B6B7B8B9BABBBCBDBEBF2D
:10015A00C0C1C2C3C4C5C6C7C8C9CACBCCCDCECF1D
:10016A00D0D1D2D3D4D5D6D7D8D9DADBDCDDDEDF0D
:10017A00E0E1E2E3E4E5E6E7E8E9EAEBECEDEEEFFD
:10018A00F0F1F2F3F4F5F6F7F8F9FAFBFCFDFEFFED
:10019A000000000500000F0000004261642068654D
:1001AA0078206469676974210050002F302F636FCB
:1001BA006E6669672E696E690075704F00646F77A5
:1001CA006E4F007461646F720075703000646F77EF
:1001DA006E300076697267696E0075700075706FAF
:1001EA0000646F776E00646F776E6F006D6178667A
:1001FA006F6C64657273006370755F667265710017
:10020A007061676573697A65006368697073697A92
:10021A006500656570726F6D73697A65006D6173EB
:10022A006B6675736573006E6F726D667573657351
:10023A000070726F676675736573007369676E61C4
:10024A0074757265007370696469760070726F679D
:10025A00696E666F0070726F676E616D6500570038
:10026A000D0A50726F6772616D204675736573204F
:10027A006661696C000D0A4661696C656420746F79
:10028A0020766572696679206675736573000D0A52
:10029A0057726974696E6720666C6173682E2E2EB8
:1002AA00000D0A53657441646472204641494C004A
:1002BA002F0073657269616C2E74787400737461AF
:1002CA00727461646472657373006E6578747365C1
:1002DA007269616C000D0A567269667920736572DB
:1002EA0069616C20767320656570726F6D20666136
:1002FA00696C6564002530386C580063616C6279FA
:10030A007465732E7478740063616C6962627974BF
:10031A006573000D0A537461727420666C617368A8
:10032A00696E672066726F6D205344636172642E32
:10033A002E2E0D0A000D0A4E6F726D616C204675E5
:10034A00736573206661696C004E6F20636F6C6F12
:10035A006E3F0042616420636865636B73756D3A32
:10036A0020004E6F20656E64206F66206C696E6592
:10037A00004E6F20636F6C6F6E00520046004E0095
:10038A005100303A2F31302F66696C65313233347F
:10039A002E7478740046525F4449534B5F4552525B
:1003AA000046525F494E545F4552520046525F4ED4
:1003BA004F545F52454144590046525F4E4F5F4683
:1003CA00494C450046525F4E4F5F504154480046E3
:1003DA00525F494E56414C49445F4E414D45004695
:1003EA00525F44454E4945440046525F4558495379
:1003FA00540046525F494E56414C49445F4F424A67
:10040A004543540046525F57524954455F50524F34
:10041A005445435445440046525F494E56414C495F
:10042A00445F44524956450046525F4E4F545F4519
:10043A004E41424C45440046525F4E4F5F46494C3E
:10044A004553595354454D0046525F4D4B46535FF1
:10045A0041424F525445440046525F54494D454F1C
:10046A005554005B73657474696E67735D002F0081
:10047A00666C6173682E6461740001002D4E414EF2
:10048A0000494E4600000A0004009A01120064075F
:10049A008C030100B40784040000F894EE27EFBB34
:1004AA00F1E0F5BFE5BFF8E1A895A4B7A77FA4BF1F
:1004BA00F0936000E09360008DE0A2E0BB27ED932B
:1004CA008A95E9F780E098E0A0E0B1E0ED93019722
:1004DA00E9F7E0E9F4E085919591009761F0A5913B
:1004EA00B59105901590BF01F00105900D92019705
:1004FA00E1F7FB01F0CFE0E0EEBBEFEFEDBFE8E0A4
:10050A00EEBFC0E0D2E00C9487030A921A92FA92E4
:10051A006A937A938A939A93AA93BA93EA93FA93E9
:10052A00EFB7EA93E0918707E0938500E0918607A9
:10053A00E0938400A0918107AF5FA0938107A53162
:10054A0008F47CC0E0E0E0938107A0EBB2E00E94EF
:10055A00AA27E091AF02E030A9F4442081F40E9476
:10056A00B027AC3330F0E0E0E09363070E94B6278F
:10057A0005C0A0916307AE3109F4C3D202C00E943C
:10058A00B6275CC0A091AF02A33071F40E94B027D5
:10059A00A33048F0E0E0E0936307289A299B02C061
:1005AA00299801C0299A4AC0A091AF02A13019F432
:1005BA002998289A43C0A091AF02A230A1F4299A9F
:1005CA000E94B027AC3370F0E0E0E0936307289B09
:1005DA0002C0289801C0289AE0918007E03011F4FF
:1005EA000E94BB272BC0A091AF02A430B9F4299A6C
:1005FA000E94B027A43660F0E0E0E0936307289BEE
:10060A0002C0289801C0289AE5E4EA9380D205C07E
:10061A00A0916307A23309F474D210C0A091AF026B
:10062A00A53061F4299A289AEDE2EA9370D20E94E1
:10063A00B027A43618F0E0E0E0936307A091AF0278
:10064A00A33021F0E0917F07E03009F445C0A09182
:10065A008107BB27E2E0F0E00E94782F3097E1F5AE
:10066A00E0918307E03049F1E0918307E150E0939C
:10067A008307E0918307E03059F4E0918407E03082
:10068A0039F0E0918407E150E09384076092820791
:10069A00E0918507E03081F0E0918507E150E09331
:1006AA008507E0918507E03039F45E9B02C05E98C9
:1006BA0001C05E9AB09285070FC0E0918207E030D0
:1006CA0059F0E0918207E150E0938207E0918207B6
:1006DA00E03011F490928307E991EFBFF991E99123
:1006EA00B991A9919991899179916991F990199002
:1006FA0009901895EA93E1E0E09389070E94C527DB
:10070A00E9911895E5E0E093AF02E0E0E5B9E4B9D4
:10071A00E8B9E7B9EBB9579AE4BDE5BDE6BDE7BD6F
:10072A00E8BDE0938000E0938100E0938500E093C8
:10073A008400E0938700E0938600E0938900E093C9
:10074A008800E0938B00E0938A00E093B600E09380
:10075A00B000E093B100E093B200E093B300E093FD
:10076A00B400E0936900EDBBE0936800E0936E008B
:10077A00E0936F00E09370000E94CA27549A5C9835
:10078A000E94D0270E94CA27E0E8E0BFE0E0E09399
:10079A007B00E0937F00E0937E00E0E2E0937C0040
:1007AA00E3E8E0937A00E0E0ECBDE093BC00E1E02E
:1007BA00E09389070E94AD060E949C18569A5E989B
:1007CA00E1E0E093B20278940E94D727E5E0E09353
:1007DA002A03E0E4FFE1E0932B03F0932C0391D189
:1007EA000E94DD2759F0E3E0E093AF02E4E6EA93E2
:1007FA008ED10E94E327E5E0E093AF020E94E92749
:10080A000E94FE27A0E0AE1BEA2FE09386070E9413
:10081A0014100E94D727EAE0E0932A030E94E927EE
:10082A000E94FE27A0E0AE1BEA2FE0938607E1E0D4
:10083A00E093B3020E940D280E94112843D20E941D
:10084A00162829F0A6E0B0E0E0E00E94EA2FEFE0E7
:10085A00AE2E0E94E910E13029F40E941C2832D2FF
:10086A00E0E001C0E4E0E093AF02E0E0E0932E03B1
:10087A00F1D15E2EF0E0E031A0E0FA0789F4E1E080
:10088A00E41511F4DCD00BC0A091AF02A23021F024
:10089A00A091AF02A43011F4D2D001C013D007C086
:1008AA00E430A0E0FA0711F474D001C05524A091F5
:1008BA00AF02A03021F0A091AF02A13009F40000EC
:1008CA00D4CFFFCF1A930A93E091AF02E03019F028
:1008DA000E94BB2713C10E94162819F00E942428DF
:1008EA000DC108E813E10024001601067CF40E94F9
:1008FA002E280E94332819F40E941C2803D2E4E00F
:10090A000E943A2819F001501040EDCF0F37E3E169
:10091A001E070CF0F3C0002E012A19F40E94BB270F
:10092A00EDC0EFE0AE2EE091B302F0E03196DF01C8
:10093A00E0912A03F0E0EA17FB0714F4E1E003C0B0
:10094A00E091B302EF5FE093B302E5E0E093AF0218
:10095A000E94E910E13021F40E943F28B3D113C06C
:10096A000E942428E1E0E093B3020E94E910E130FA
:10097A0021F4E0E0E093AF0206C0E4E0E093AF02C6
:10098A000E942428BBC0E0E0E093AF02299A289A8B
:10099A00B5C01A930A93A091AF02A03021F0A0919A
:1009AA00AF02A13009F401C0A9C008E813E100248C
:1009BA00001601067CF40E942E280E94332819F49E
:1009CA000E941C287FD1E2E00E943A2819F00150C7
:1009DA001040EDCF0F37E3E11E070CF08FC0A5E002
:1009EA00B0E00E94D62FAE2FE091B302EA1721F0B1
:1009FA00A5E0B0E00E94EA2F002E012A79F4A6E0D1
:100A0A00B0E00E94D62FE13029F0A6E0B0E0E1E0A4
:100A1A000E94EA2F0E94482875D170C0E1E04E2E4C
:100A2A000E94B627E3E0E093AF02299A289AE0E011
:100A3A00E093B002E093B1020E9424155FC01A93BA
:100A4A000A93A091AF02A33019F40E94242856C039
:100A5A0008E813E1002400160106E4F40E942E2897
:100A6A000E94812EE4E00E943A28A1F0EEE7F3E129
:100A7A00E017F10761F40E941C2824D1A091AF026B
:100A8A00A23021F0A091AF02A43009F403C00150B2
:100A9A001040E0CF0F37E3E11E0784F5A091AF02C3
:100AAA00A23071F0002E012A59F40E94162829F06A
:100ABA00A6E0B0E0E0E00E94EA2F0E94482802D1B6
:100ACA00E0E0E0938007E0932E03299A289AE5E074
:100ADA00E093AF020E9414100E94E910E13021F461
:100AEA000E943F28EFD006C0E4E0E093AF020E94E4
:100AFA00242804C0E0E00E943A28E1F30991199100
:100B0A000895EFE3E7B9579AE8B95F9A0895E8813B
:100B1A00F0E0309721F4E0E0E8B95F9A87C0E1306D
:100B2A00A0E0FA0721F4E9E3E8B95F9A7FC0E2306E
:100B3A00A0E0FA0721F4E4E2E8B95F9877C0E3306D
:100B4A00A0E0FA0721F4E0E3E8B95F986FC0E43067
:100B5A00A0E0FA0721F4E9E1E8B95F9867C0E53057
:100B6A00A0E0FA0721F4E2E1E8B95F985FC0E63055
:100B7A00A0E0FA0721F4E2E0E8B95F9857C0E7304D
:100B8A00A0E0FA0721F4E8E3E8B95F9A4FC0E83039
:100B9A00A0E0FA0721F4E0E0E8B95F9847C0E9303D
:100BAA00A0E0FA0721F4E0E1E8B95F983FC0EA3033
:100BBA00A0E0FA0721F4E0E0E8B95F9A37C0ED3225
:100BCA00A0E0FA0721F4EFE3E8B95F982FC0E43612
:100BDA00A0E0FA0721F4E1E2E8B95F9827C0E53618
:100BEA00A0E0FA0721F4E4E0E8B95F981FC0E23711
:100BFA00A0E0FA0721F4EFE2E8B95F9817C0E534FC
:100C0A00A0E0FA0721F4E6E0E8B95F980FC0E634FD
:100C1A00A0E0FA0721F4EEE0E8B95F9807C0E035F2
:100C2A00A0E0FA0719F4ECE0E8B95F980C94870899
:100C3A0011D01E2EE881A1E0B0E00E94BE2EA12DA7
:100C4A00B0E0EA17FB0719F4E1E00C948708E0E04A
:100C5A000C9487081A9310E0E0E0E0938907E6E233
:100C6A000E944D28E0917A00E074E1F70E94C527BE
:100C7A00A0918807A23310F4106105C0A0918807DB
:100C8A00A63908F41460E0E0E0938907E7E20E94DD
:100C9A004D28E0917A00E074E1F70E94C527A091FF
:100CAA008807A23310F4186005C0A0918807A639F6
:100CBA0008F41260103019F0E12F19910895E1E05B
:100CCA000C941A0BE1E0E0937F07EB81E03019F412
:100CDA00E0E0E0937F07E0E0E0938007E881A4E6A4
:100CEA00EA02F0019E2EE0938307EA818E2EE093BA
:100CFA008407EB81BE2EE0938507E0E06E2EE09339
:100D0A00820707C0EB81EA93EB81EA930E94582895
:100D1A00D9DF249608951A937DD10E94CD0E10E052
:100D2A000E945D280E943E27A12FB0E0AE17BF07A0
:100D3A0060F4E12FA981BA81F0E0EA0FFB1FE49188
:100D4A00EA930E94D50E1F5FEBCF11D01881DEC146
:100D5A00219A299A209A289AC3D10E946228E0E00F
:100D6A00E0938902E0938E070E94CD0E2DC4E0E045
:100D7A00E0938002E0938102E091A107E13008F458
:100D8A00FBC0E0918902E13049F4E0918802E13048
:100D9A0011F41BD5F1CFE0E0E0938902E0918E07D0
:100DAA00E03019F49ED1E0938D07E0918D07F0E0D1
:100DBA00EB31A0E0FA0709F4DAC0E035A0E0FA075F
:100DCA0011F4ACD1D4C0E136A0E0FA0711F453D43F
:100DDA00CEC0E134A0E0FA0711F450D4C8C0E3351C
:100DEA00A0E0FA0711F42DD4C2C0E635A0E0FA0754
:100DFA0011F437D4BCC0E637A0E0FA0711F436D4B0
:100E0A00B6C0E037A0E0FA0711F436D4B0C0E43532
:100E1A00A0E0FA0711F4CED1AAC0E437A0E0FA079D
:100E2A0011F4BAD1A4C0E837A0E0FA0711F4FBD153
:100E3A009EC0E937A0E0FA0711F4FBD198C0EA3363
:100E4A00A0E0FA0711F4FBD192C0EE32A0E0FA0753
:100E5A0011F407D28CC0E236A0E0FA0711F4E9D304
:100E6A0086C0E536A0E0FA0711F4EFD280C0E53477
:100E7A00A0E0FA0711F481D07AC0EC34A0E0FA07B6
:100E8A0011F4D5D374C0EC36A0E0FA0711F4F8D205
:100E9A006EC0E636A0E0FA0711F417D368C0E13550
:100EAA00A0E0FA0711F45FD362C0E634A0E0FA07C3
:100EBA0011F44AD35CC0EE36A0E0FA0711F41AD353
:100ECA0056C0EE34A0E0FA0711F45CD350C0EF36F6
:100EDA00A0E0FA0711F423D34AC0EF34A0E0FA07DE
:100EEA0011F460D344C0E337A0E0FA0711F470D3D9
:100EFA003EC0E735A0E0FA0711F483D338C0E436E0
:100F0A00A0E0FA0711F485D232C0E736A0E0FA076A
:100F1A0011F4CFD32CC0E234A0E0FA0711F414D4B0
:100F2A0026C0E235A0E0FA0731F4E8E2EA93E0E20B
:100F3A00EA933BD21CC0E336A0E0FA0711F4D6D1FB
:100F4A0016C0E334A0E0FA0711F4D6D110C0ED368A
:100F5A00A0E0FA0719F408D2EDE007C0E434A0E0F3
:100F6A00FA0711F4CFD103C0EFE3EA93BCD0E091C2
:100F7A008E07E13009F000CF08950E94682809F42D
:100F8A0054C3AFD01E2FF0E0E7FDFFEFE434A0E03A
:100F9A00FA0719F40E94A30F0BC0EE32A0E0FA0779
:100FAA0039F4A895E8E1E0936000EFE0E09360008F
:100FBA003CC3E0918002F0E0E050FE4FA881B98185
:100FCA00ED93FC93A0918002E0918102EA1B04C296
:100FDA00E0E0E0938102E09380020895E881A09125
:100FEA008002EA0FE0938002E0918102A0918002E0
:100FFA00EA1779F4E0E0E0938102E0938002E0915D
:10100A008902E13021F4E0918802E03009F001C060
:10101A0077D378C00E941130EDB7FEB73197FA93B3
:10102A00EA931F930F93C5DF0F911F913E2FE13073
:10103A0060F03A93D3DFE32F3150E03029F0D80142
:10104A000F5F1F4FEC91F7CFE7CFBBC31A93E09125
:10105A00C000E072E1F31091C600E981E093C60096
:10106A00E091C000E078E1F3E091C6001881B4C1D4
:10107A00A0918A02A23011F45D9801C00000E0E05C
:10108A00E093C200E093C100E093C500549A5C9AD1
:10109A000E942E280E94812E559A5D980E942E2821
:1010AA000E94812E5C980E942E280E94812E519ABD
:1010BA005098589A0E942E280E94812E58980E9471
:1010CA00D027E091C600E0932D035D9AA0918A0291
:1010DA00A23009F45D98E4E1F0E00E9471280895D5
:1010EA00089578D60895A0918102A03858F4E09125
:1010FA008102EF5FE0938102E150F0E0E050FE4FA1
:10110A00A881A083219608950E94752823960895A0
:10111A00EB81EA939BDF0E94752855C30E94113028
:10112A0010E03DE029980E948428DADFE0918A02E3
:10113A00E23039F49DDF0E9489280E948C2811E050
:10114A0021C000E0033068F493DF0E948C282E2F20
:10115A00E0E0EA937BDF233511F411E002C00F5F70
:10116A00F1CF103059F4BCDF3FE3E0912E03E030B9
:10117A0021F0E4EFF1E00E94712804C0E4E6F0E017
:10118A000E9471283A93AFDF103011F4299A299AF4
:10119A00E0E0E0938A0715C31A930A9300E0E02F70
:1011AA00F0E0E859FF4F14911A939DDF0E5F10305B
:1011BA00B1F7A3C20E9411300FE330E00E949428D5
:1011CA0009F4FFC28EDF2E2FE32FF0E0E859FF4F1C
:1011DA00E4911E2FE03021F1121701F5E32FF0E020
:1011EA00E859FF4F049000928B07E32FF0E0E7598C
:1011FA00FF4F049000928B020DE0E0918B07E038DC
:10120A0010F0E2E009C0A0918B02AF3711F0AF3FB6
:10121A0011F4E1E001C0E0E0E0938A023E5FD4CF3E
:10122A000A9361DFCEC20E94942809F4089559DF17
:10123A003CC20E94942809F4089553DF36C20E94E2
:10124A0011300E949C2809F4BCC20E94A4281A9357
:10125A000A933A930E94B0280E94B428299A299A9C
:10126A00B0C20E9411300E94BC2809F4AAC20E948E
:10127A00A42837DF2E2F1A930A933A932A9348DF2A
:10128A000E94B428299A299A9CC21A930E94C428B7
:10129A00A0918A02A23039F40E94C928E2600E9411
:1012AA00D92832DF04C0E0E40E94DF2831DFE0E21F
:1012BA00EA931A932DD0E0918A02E23011F40E9447
:1012CA00E428299AB2C11A93E0918A02E23069F0BD
:1012DA000E94C428E8E40E94DF281ADFE8E2EA93C1
:1012EA001A9316D00E94E428299A9FC10E94942832
:1012FA0009F40895CADFD9C10E94942809F408950F
:10130A00E2DFD3C10E94942809F4089567D0CDC1C1
:10131A00E0918B02EF7039F1E881A0918B02EA1714
:10132A0019F40E9489281FC02197EFEFE883E09102
:10133A008A02E23041F40E94C9280E94E728A98162
:10134A00EA1759F006C0EA810E94F028A981EA1733
:10135A0021F0E881E150E88351F7E881E03011F4A7
:10136A000E948928219638C0E0918A02E030E1F48F
:10137A002297E0918202F0918302E883F983E09157
:10138A008902E13029F4E881F9813197E883F98308
:10139A00ECE4EA93EA81F070EA93EA81EA930E9424
:1013AA00B0280E948928229608952998E0918A02F5
:1013BA00E23049F0E9810E94F028EA9394DEE8815C
:1013CA000E94F02804C00E94C9280E94E728EA93D4
:1013DA008ADE0E94E428299A229608951A930E9486
:1013EA00C428E0918A02E23029F0E0EC0E94DF286A
:1013FA008FDE09C0E0918B07E63829F40E94C928DC
:10140A00E6600E94F9280E9489280E94E428299A05
:10141A000CC12998E0918A02E23021F0E0EA0E94A8
:10142A00F0280DC0E0918B07E63859F4E091830269
:10143A00F070EE0FEE0FEE0FE5600E94F928EA93C6
:10144A0052DE0E94E428299A08950E948428A091D5
:10145A008A02A23041F4ECEAEA93E4E0EA93E0E09B
:10146A00EA9352DE07C0ECEAEA93E0E8EA930E94C4
:10147A000D284EDEE2E3F0E00E947128EDE0A1C003
:10148A000E94682809F4D1C00E9484282ADE1E2FEF
:10149A00A0918A02A23051F4ECEAEA93E12FE07EAD
:1014AA00E760EA93E0E0EA932FDE09C0ECEAEA9308
:1014BA00E12FE96FEA93E0E0EA931A9329DE0E94AA
:1014CA008928EDE0EA930FDEACC00E94012909F4F5
:1014DA0014C10E9484280E94042911F41FE305C044
:1014EA00ECEAEA93E0EA0E940C290E9489280E9409
:1014FA00122903C10E94012909F4FFC00E9484280D
:10150A000E94042911F41FE305C0ECEAEA93E8EA11
:10151A000E940C290E9489280E941229EEC00E946A
:10152A00012909F4EAC00E9484280E94042911F4BE
:10153A001FE305C0ECEAEA93E4EA0E940C290E9440
:10154A0089280E941229D9C00E948428A0918A025F
:10155A00A23011F4EFE306C0E0E5EA930E940D28F9
:10156A000E94B0282EC00E948428A0918A02A2302C
:10157A0011F4EFE306C0E8E5EA930E940D280E9401
:10158A00B0281FC00E948428A0918A02A23011F4B8
:10159A00EFE307C0E8E5EA93E8E0EA930E940D2842
:1015AA00B7DD0FC00E948428A0918A02A23011F4EC
:1015BA00EFE307C0E0E5EA93E8E0EA930E940D282A
:1015CA00A7DDEA9390DD299AE0E0E0938A0708957F
:1015DA001A930E94842810E0E0E3EA93E0E0EA9399
:1015EA001A930E94B028EA937EDD1F5F1330A0F39E
:1015FA00E0912E03E03021F0E8ECF0E00E9471283F
:10160A0010C01A930E94842810E0E8E3EA93E8EAFB
:10161A00EA931A930E94B028EA9365DD1F5F14309B
:10162A00A0F3299AE0E0E0938A071991089558DD1A
:10163A003CC0E9E5EA9357DDE0E0EA9354DDE0E8EF
:10164A0035C01A930A9300ED10E0F801E491E030F6
:10165A0039F0F8010F5F1F4FE491EA9344DDF5CFAB
:10166A004CC0E5E5EA933FDDE2E320C0E0E3EA931C
:10167A003ADDE2E31BC019C0E3E518C0E2E0EA93F1
:10168A00C6D3E0918E07E13009F408952ADDFE2FD2
:10169A00E0E0FF93EF9325DDF0E0AF91BF91EA2BF5
:1016AA00FB2BE0938202F0938302EDE0EA931BDDC9
:1016BA0008951A930A930E949C28F9F00E941A2905
:1016CA00F12FE0E0DF01E02FF0E0EA2BFB2B0E9494
:1016DA00212907DDE0938C02E0E0E0938802E1E053
:1016EA00E0938902E0918A02E23031F0E0918C02C3
:1016FA00E63411F40E942C2903D009911991089516
:10170A00E0918C02E63491F4A0918102A03868F449
:10171A00E0E2EA93E8E2EA9348DE0E943F2921F4F4
:10172A00E0E0E093890201C0EFCF0DC0A0918102F1
:10173A00A03848F46EDE0E943F2921F4E0E0E093ED
:10174A00890201C0F3CF08950E94113031E00E944E
:10175A00BC2841F4E3E0EA935AD330E0E0918E07E3
:10176A00E13079F1303011F0BCDC3E2F0E941A29A9
:10177A00E32FF0E00E94072F0E94022FDF01CB0126
:10178A00F12FE0E00E944B29DF01CB01E02FF0E0CE
:10179A000E944B290E945029A4DCE0938C02E1E0CC
:1017AA00E0938902E0938802E0E0E0938C07E091FD
:1017BA008A02E23031F0E0918C02E63411F40E94A0
:1017CA002C290E94183024960895E0918C02E53461
:1017DA0041F4E091A107E13020F000DE0E9459298E
:1017EA00F8CFE0918C02E634E1F4E091A107E13010
:1017FA00C0F04BDD68DD0E945929E0918A02E03091
:10180A0079F4E0918C07EF5FE0938C07E0918B020B
:10181A00A0918C07EA1721F4A7DDE0E0E0938C079A
:10182A00E4CF0E94632979F4E0918C07E03029F033
:10183A00E0918C02E63409F497DDE0E0E093890256
:10184A00EDE0EA9350DC08952D97E0E0EE83EF8314
:10185A00E8870E940F30E0EDF7E060E070E00E9458
:10186A006E290E945619E03011F4E0E08DC20E9400
:10187A00772911F4E0E088C20E94A119E03011F43E
:10188A00E0E082C2E0E0EC87ED870E9485292081B2
:10189A000E94852950810E94852940810E948529BC
:1018AA00E081FF27662777270E9450290E948E2908
:1018BA00E8E00E94C72EDF01CB010E948529E08162
:1018CA00FF27662777270E94A52E0E9450290E948B
:1018DA008529E081F0E0E887F987F8850E94972951
:1018EA000E949A29E887F9870E948529E081EA8B74
:1018FA000E948529E081E98B0E948529E081E88B95
:10190A000E948529E081F0E0EA87FB87FA850E9438
:10191A0097290E949A29EA87FB87309711F0E1E01C
:10192A00EE870E948529E081F0E0EE83FF83FE8145
:10193A000E9497290E949A29EE83FF830E949F2979
:10194A000E949F293197E15AFA4FE081E0938B0276
:10195A0030918B020E946329A1F4EE81FF81E8870E
:10196A00F987E0E0EE83EF830E946228EA85FB852F
:10197A000E942129E0E0EA87EB872A895989488968
:10198A00EE87E0E0EC87ED87E0E0F8E060E070E009
:10199A000E946E290E9462280E94A5290E94AB29F2
:1019AA0011F4E0E0F1C10E948E290E94FF2F08F095
:1019BA00E4C1AE85A03021F0AA85BB85109709F055
:1019CA0005C02A8959894889E0E0EE87E091C0007C
:1019DA00E072E1F3E0E4E093C600E091C000E07257
:1019EA00E1F3E0E0E093C600E091C000E072E1F3C9
:1019FA004093C6000E949F293197E15DFC4F008108
:101A0A00E091C000E072E1F30093C600E091C000EB
:101A1A00E072E1F3E8E4E093C6003150E091C000DF
:101A2A00E072E1F3E0E0E093C600E091C000E0720A
:101A3A00E1F3E42F4F5F0E94B5293197E15DFC4F36
:101A4A000081E091C000E072E1F30093C6003030FB
:101A5A0009F092C1E091C000E072E1F3ECE4E09396
:101A6A00C600E091C000E072E1F35093C600E09135
:101A7A00C000E072E1F3E42FE150E093C600E09188
:101A8A00C000E072E1F3E0E0E093C600E091C0003C
:101A9A00E072E1F31FEF0E94A5290E94B829A091E4
:101AAA008B024A1B0E9459290E948E290E94FF2FED
:101ABA0020F0AA85BB85109791F10E94632991F4C1
:101ACA000E94BF2911F0E0E05FC1EE81FF81E88743
:101ADA00F9870E946228EA85FB850E942129E0E0B5
:101AEA00EA87EB87EC85FD85309741F00E94A529AE
:101AFA000E94AB2911F4E0E047C110C00E94A52959
:101B0A00FA93EA930E94A529E15DFC4FFA93EA93BE
:101B1A000E94CE19E03011F4E0E036C104C00E9400
:101B2A002E280E94812EE0918B02E31709F466C0E9
:101B3A001F3F09F05AC0EC85FD85E15DFC4FA0818D
:101B4A00AF3F09F452C0EC85FD85E15DFC4F108181
:101B5A00E091C000E07819F00091C600F9CFE4E105
:101B6A00EF87EF85E150EF8709F43FC0E091C000AD
:101B7A00E072E1F3EC85FD85E17011F0E8E201C065
:101B8A00E0E2E093C600E091C000E078E1F3009162
:101B9A00C600E091C000E072E1F35093C600E09104
:101BAA00C000E078E1F30091C600E091C000E07265
:101BBA00E1F34093C600E091C000E078E1F30091C0
:101BCA00C600E091C000E072E1F3E0E0E093C600F5
:101BDA00E091C000E078E1F30091C600101729F007
:101BEA000E942E280E94812EBCCFEC85FD85E170D3
:101BFA0011F04F5F3F5F0E949F2995CF1F3F21F44D
:101C0A000E9489280E94892830E0A0918B024A1BF1
:101C1A000E94A5290E94B829E091C000E07819F035
:101C2A000091C600F9CFE091C000E072E1F3E0E272
:101C3A00E093C600E0918B02E31709F47BC0E091C0
:101C4A00C000E072E1F35093C600E091C000E07872
:101C5A00E1F30091C600E091C000E072E1F3409325
:101C6A00C600E091C000E078E1F30091C600E0917F
:101C7A00C000E072E1F3E0E0E093C600E091C0004A
:101C8A00E078E1F30091C600E091C000E072E1F370
:101C9A00E8E20E94B5293197E15DFC4F1081E0919D
:101CAA00C000E078E1F30091C600101711F0E0E0FF
:101CBA006BC0E091C000E072E1F35093C6003F5F51
:101CCA00E091C000E078E1F30091C600E091C00025
:101CDA00E072E1F3E42F4F5FE093C600E091C000A9
:101CEA00E078E1F30091C600E091C000E072E1F310
:101CFA00E0E0E093C600403009F45F5FE091C00085
:101D0A00E078E1F30091C600E091C000E072E1F3EF
:101D1A00E0E20E94B5293197E15DFC4F1081E09124
:101D2A00C000E078E1F30091C600101711F0E0E07E
:101D3A002BC080CFE091C000E072E1F3E0E2E093D3
:101D4A00C600E091C000E072E1F3E0E2E093C60071
:101D5A00E091C000E072E1F3E0E2E093C600E091B6
:101D6A008B02F0E00E94E32EAC85BD85AE17BF075B
:101D7A0018F0E0E0EC87ED8716CE0E94BF2911F03B
:101D8A00E0E002C07894E1E00E941630639608957C
:101D9A00E0E0E093A007E0939F07E093A10708958E
:101DAA00E091A107E031A8F4E0919F07EF5FE0938B
:101DBA009F07E150F0E0E157F84FA881A083E09136
:101DCA009F07EF70E0939F07E091A107EF5FE09311
:101DDA00A1075EC0E091A107E130C0F02197E09130
:101DEA00A007EF5FE093A007E150F0E0E157F84F5A
:101DFA00E081E883E091A007EF70E093A007E0910B
:101E0A00A107E150E093A107E88142C0D5C0E09163
:101E1A00A107A881EA1710F4E1E001C0E0E0E0932D
:101E2A008E0736C0FAC0A881B981EC91F6C00E942B
:101E3A002F1A0895A881A03310F0AA3308F003C01E
:101E4A00E881E05325C0A881A13410F0A73408F036
:101E5A0003C0E881E7531CC0E4EAF1E00E94C82904
:101E6A00E0E016C0E881EF70E883A881A03010F0A6
:101E7A00AA3008F003C0E881E05D0AC0A881AA3050
:101E8A0010F0A03108F003C0E881E95C01C0E8E580
:101E9A0021960895A881B9810E94CC29EF93E881FF
:101EAA00F981A181AA93C6DFAF91EA2BB6C01A9332
:101EBA0010E0E9811E17B0F4E12FAA81BB81F0E09E
:101ECA00EA0FFB1FFF93EF93E2E0E19FF001AC8181
:101EDA00BD81EA0FFB1F0E94D329AF91BF91EC93FA
:101EEA001F5FE7CF188126960895E881F9810E943D
:101EFA00D329FE2FE0E0FF93EF93E881F981329630
:101F0A000E94D329F0E0AF91BF91EA2BFB2B85C049
:101F1A00E881F9810E94D7290E94022F7F936F934B
:101F2A00FF93EF93E881F98134960E94D729AF9104
:101F3A00BF918F919F910E94A52E6FC00895E0E0F6
:101F4A00E093C400A091B502A63020F5A091C40088
:101F5A00A03021F4A091B502A13009F004C0E1E05B
:101F6A00E093C40016C0A091C400A03021F4A0914F
:101F7A00B502A23008F407C0E1E0E093C4000E9471
:101F8A00DE29E15002C00E94DE290E94B62EA12D50
:101F9A00EC9301C001D00895EFEFE093C4000895D7
:101FAA00E091C400E07841F4E091B502EF5FE0937C
:101FBA00B502C5DFE1E00895E0E0089508951A93B7
:101FCA0011E0E981E03011F0E7DF01C0B8DF10303D
:101FDA00B9F0E3EBF1E00E94E529A0910002AD30EF
:101FEA0029F0DEDFE03099F710E009C038D3E0309D
:101FFA0029F4D6DFE03059F710E001C001C0E7CF7D
:10200A00103011F4E0E008C0E981E03021F4E091F9
:10201A00B502E0932203E1E01881229608950E9416
:10202A00B318E03029F40E9448280E946706CBC002
:10203A000E94E929E5EBF1E00E94EE290E94471A85
:10204A00E03009F4C0C0E0E0E093A2070E94F22960
:10205A0061F00E94FE2949F40E940A2A31F00E9486
:10206A00FE2919F4E1E0E093A207A091A207A130AA
:10207A0059F0EDECF1E00E94162A11F4E0E002C0FA
:10208A000E94202AE093A207E091A207E03009F01B
:10209A004FC0E3EDF1E00E94162A51F10E94FE2999
:1020AA0039F5E7EDF1E00E94162A11F10E94FE29A6
:1020BA00F9F4E0E0E093B402A091B402A43698F4F3
:1020CA000E94282AE45FFF4F0E942E2AE35FFF4FF7
:1020DA000E942E2AE25FFF4FDF01EFEF0E94EA2FF4
:1020EA000E94332AE9CF0E94392A0E94412AFFCF4F
:1020FA00EDEDF1E00E94162AD9F00E94DD2729F0C1
:10210A00A4E0B0E0E4E40E94EA2F0E94DD2719F47B
:10211A000E94392A08C0E2E0E093AF02E3E0EA93C2
:10212A00EA93E4EFF1E0FA93EA930E946706FFCF9D
:10213A00E4EEF1E00E94162A69F4E7EEF1E00E946B
:10214A00162A41F40E94F22929F4E3EDF1E00E94F3
:10215A00162AC9F10E94202AE0932803EBEEF1E047
:10216A000E94162A69F4E0EFF1E00E94162A41F46F
:10217A000E940A2A29F4E7EDF1E00E94162A19F1D1
:10218A000E94202AE0932903E6EFF1E00E94162A32
:10219A00D1F00E94202AE0932A03A0912A03A536AF
:1021AA0018F0E4E6E0932A03E1E0F2E00E94162A3E
:1021BA0019F4E0E4FFE102C00E94202AE0932B0315
:1021CA00F0932C03FFC2F5C21A9336D20E94B318B9
:1021DA00E03051F4E2E0EA93E1E0EA93E2E0F0E091
:1021EA000E94412AE0E026C20E94DA18E03011F487
:1021FA00E0E020C2EAE0F2E00E94162A11F4E0E0F0
:10220A0019C20E94202AEE0FFF1FE093FA02F093F0
:10221A00FB02E3E1F2E00E94162A11F4E0E00AC2AE
:10222A000E94452AE093F602F093F7026093F802BF
:10223A007093F902ECE1F2E00E94162A11F4E0E050
:10224A00F9C10E94452AE0932303F0932403E7E2AD
:10225A00F2E00E94162A11F4E0E0ECC10E944D2A35
:10226A000E94542A0E94592AE1E3F2E00E94162AA7
:10227A0011F4E0E0DFC10E944D2A0E945D2A0E940B
:10228A00592AEBE3F2E00E94162A11F4E0E0D2C1E7
:10229A000E944D2A0E94622A0E94592AE5E4F2E02D
:1022AA000E94162A11F4E0E0C5C10E944D2AE7EE09
:1022BA00F2E0FA93EA93E3E0EA93F9DDE0E0E093EF
:1022CA002203EFE4F2E00E94162A21F00E94202A5B
:1022DA00E0932203A0912203A83018F0E0E0E093F3
:1022EA002203E0912203E093B502E0E0F3E0FA93DF
:1022FA00EA93E6E5F2E00E94672AEEE1EA930E9499
:10230A006127E6ECF2E0FA93EA93EFE5F2E00E9445
:10231A00672AECE0EA930E9461270E94A119E03043
:10232A0011F4E0E087C1A0915F05E7E7EA27E093AF
:10233A005F05E0E6F5E00E94722AE1E6F5E00E9418
:10234A00722AE2E6F5E00E94722AE3E6F5E00E94CC
:10235A00722AE4E6F5E00E94722AE5E6F5E00E94B8
:10236A00722AE6E6F5E00E94722AE7E6F5E00E94A4
:10237A00722AE8E6F5E00E94722AE9E6F5E00E9490
:10238A00722AEAE6F5E00E94722AE091A207E0309A
:10239A0009F02FC1E0E0E093B402A091B402A436A0
:1023AA00B8F40E94282A0E94792AAE2FE091680583
:1023BA00EF70EA1751F40E94282AE25FFF4F0E9449
:1023CA00802AE0916905EA1719F00E94332AE5CFBD
:1023DA00A091B402A43609F050C0E0E0E093B40240
:1023EA00A091B402A43608F042C00E94282A0E9492
:1023FA00792AEF3039F40E94282AE25FFF4F0E94BF
:10240A00852A71F00E94282AE45FFF4F0E94852ADC
:10241A0031F40E94282A0E948A2AE03F09F024C047
:10242A000E94282A0E94912A0E94282AE35FFF4FCD
:10243A000F01E0916105E07FAE2FE0916805EF7032
:10244A000E94992A0E94282AE25FFF4FDF01E09149
:10245A0069050E94EA2FE0916205E03021F00E94AE
:10246A00282A0E949E2A03C00E94332AB9CFA0912B
:10247A00B402A43611F4E0E0DDC0A0915F05A130FA
:10248A00C9F50E94A62A19F40E94DD2799F10E9433
:10249A00282A0E94AC2AEA1768F10E94282A0E9478
:1024AA00AC2AAE1768F00E94282A0E94AC2AEA17C2
:1024BA0031F40E94B42A0E948A2A6E1708F01AC0C0
:1024CA000E94282A0E94AC2AEA1721F00E94282A90
:1024DA000E94912A0E94B42A0E948A2AE61751F081
:1024EA000E94282A0E94792A0E94B92A0E94BC2A9C
:1024FA000E94C02A0E94282AE45FFF4F0E94852A70
:10250A0021F40E94282A0E948A2A0E94C42AE0935F
:10251A00FE02F093FF020E94A62A19F40E94DD2708
:10252A0031F00E94282A0E94AC2AAE1708F002C095
:10253A00E0E080C00E94A62A19F40E94DD2731F04B
:10254A000E94282A0E94AC2AEA1709F021C00E9498
:10255A00B42A0E948A2A6E1710F4E0E06BC00E9427
:10256A00B42A0E948A2AE61790F40E94282A0E9416
:10257A00792A0E94B92A0E94BC2A0E94C02AE091A4
:10258A006205E03021F00E94282A0E949E2A1CC07F
:10259A000E94282A0E94912A0E94B42A0E948A2A0A
:1025AA00E61751F00E94282A0E94792A0E94B92A25
:1025BA000E94BC2A0E94C02AE0916205E03021F004
:1025CA000E94282A0E949E2A0E94282A0E94CD2A16
:1025DA00EF3FAFEFFA0721F40E94282A0E949E2AB1
:1025EA000E94282A0E94CD2A0E94D32A0E94C42A25
:1025FA0006C0E0E0F0E00E94D32AE0E0F0E0E093D9
:10260A00FE02F093FF02E0912103E03031F4E0E0B2
:10261A00F0E0E093FE02F093FF02E0916505E0939B
:10262A002503E0916605E0932603E0916705E093B0
:10263A002703E1E019910895F298F198E0E0E09318
:10264A008802E0938902E093A707E093A807E09342
:10265A00A907E093AA07F0980E94D82A0895EFEFF5
:10266A00F1E00E94E529A091E802E0910102EA174F
:10267A0031F4A091E902E0910202EA1719F00E94EE
:10268A00E32797C00E940F089DC0E8ECF0E00E9483
:10269A007128E8E6F2E00E94E529E0910002E09361
:1026AA00A307E0910102E093A407E0910202E093FC
:1026BA00A507E0910302E093A6070E940F0882C0D3
:1026CA00E1E1F2E00E94E5290E94ED070895E09118
:1026DA00FA02F091FB02F695E795E0938B02E0E0AF
:1026EA00E0938A026FC058DC0E94622A0E94542A30
:1026FA0031D4E03029F4EAE6F2E00E94C82959C050
:10270A000E94622A0E94542A8FD4E03029F4EFE70B
:10271A00F2E00E94C8294DC055C011DC0E94290C64
:10272A00E03009F446C04CC00E94E22A29F0EBEAE4
:10273A00F2E00E94FD2A3DC00E94D82A0E94012B85
:10274A00C1F10E94A119E030A1F10E94082B88F47E
:10275A000E94ED070E94192B0E94222B41F1F09949
:10276A0005C00E94302BB3D3E03009F10E943F2B01
:10277A00ECCF26C00E94E22AE1F40E940F080E94D0
:10278A00D82A0E94012BA9F00E94A119E03089F0F1
:10279A000E94082BA8F40E94192B0E94222B39F0C0
:1027AA00F09909C00E94302BB5D3E03021F40E9481
:1027BA002E1AE0E00895F19903C00E943F2BE8CF5A
:1027CA000E942E1AE1E008950E944D2BE881EA93B7
:1027DA00F6DB219608952296089524971A930A9370
:1027EA000E94522BEAEBF2E00E94EE290E94582B3B
:1027FA000E94642B0E94692B0E946C2BECEBF2E086
:10280A000E94732B71F0E7ECF2E00E94162A49F05D
:10281A000E944D2A6ADB8F01E4EDF2E00E94162A3B
:10282A0029F4E0E019810881269608950E944D2A2C
:10283A006FDB0E947B2B0E94802B0E94FB2F09F4E6
:10284A0071C4A091AD02B091AE020E94CC29EF935F
:10285A000E94852BE1810E948A2BAF91EA2BE0939B
:10286A008D020E94852BE2810E948F2BEF930E949A
:10287A00852BE3810E948A2BAF91EA2BE0938E028B
:10288A000E94852BE4810E948F2BEF930E94852B57
:10289A00E5810E948A2BAF91EA2BE0938F020E9476
:1028AA00852BE6810E948F2BEF930E94852BE7816F
:1028BA000E948A2BAF91EA2BE09390020E94642B2C
:1028CA000E94952B04D3E03011F4E0E02CC40E945E
:1028DA00642B0E94952B1ED3E03031F4EFEDF2E029
:1028EA000E94FD2AE0E01FC40E94642BEFEFF2E091
:1028FA00FA93EA930E949C2B0E94A12B84E00E94E7
:10290A001A262896E4EDF2E0FA93EA930E94642BE1
:10291A000E94A82B11F4E0E006C40E94471AE03096
:10292A0011F4E0E000C4E4EDF2E00E94162A11F48A
:10293A00E0E0F9C3F7C31A930A93A7DEE03011F473
:10294A00E0E07AC00E94522BEAEBF2E00E94EE2904
:10295A000E94582B0E94642B0E94692B0E946C2BA8
:10296A00E5E0F3E00E94732B11F4E0E065C0E7ECC8
:10297A00F2E00E94162A09F45EC00E944D2AB5DAD6
:10298A008F010E94B02BA3D2E03011F4E0E054C0D2
:10299A000E94B02BBFD2E03031F4EFEDF2E00E949A
:1029AA00FD2AE0E049C0E091A3070E94B52BE0931D
:1029BA008D02E091A307EA9355DAE0938E02E09143
:1029CA00A4070E94B52BE0938F02E091A407EA9333
:1029DA0049DAE0939002E091A5070E94B52BE093B3
:1029EA009102E091A507EA933DDAE0939202E09121
:1029FA00A6070E94B52BE0939302E091A607EA93FB
:102A0A0031DAE0939402E2E1F3E0FA93EA930E9466
:102A1A00642B0E94A82B11F4E0E00EC00E94471A12
:102A2A00E03011F4E0E008C0E2E1F3E00E94162A87
:102A3A0011F4E0E001C0E1E0099119910895E3E0A1
:102A4A00E093AF02E0912203E093B502EDE1F3E0F7
:102A5A000E94FD2A299AE091A207E03049F50E94D6
:102A6A00282A0E94CD2AA091FE02B091FF02EA17FD
:102A7A00FB0740F40E94282A0E94CD2AEE3FAFEFBE
:102A8A00FA07B1F4E091FE02F091FF02309709F0E3
:102A9A0072C00E94DD2731F00E94282A0E94CD2AA6
:102AAA003A9708F405C0E4E6EA930E948C0563C0ED
:102ABA00C3DDE1E0EA9383DAE03009F45CC000DECA
:102ACA0012DEE03009F457C03ADAE0E0EA937CDE3D
:102ADA00E03009F450C0FBDDE03009F44CC0F0DD11
:102AEA00ABDDE6E4E0938C0218DEE03021F458DA3C
:102AFA00E03059F740C0A0DDE0912503E03031F025
:102B0A0013DEE030C1F136DEE030A9F1E0912603B0
:102B1A00E03019F062DEE03071F1E0912703E03035
:102B2A0019F009DFE03039F10E945D2A0E94542A27
:102B3A0011D2E03029F4EFE3F3E00E94C8291BC068
:102B4A00FED9E1E0EA9340DEE030A9F00E945D2A76
:102B5A000E94542A69D2E03029F4EFE7F2E00E9499
:102B6A00C82909C0ECD9E091B502E0932203E1E05B
:102B7A00E093AF0229980E944D2B0E94282A0E94B6
:102B8A00CD2A0E94D32AA091AF02A13059F0E1E0E8
:102B9A00E0932E03A091AF02A43019F0E2E0E09393
:102BAA00AF0219C0E0E0E0932E030E94A62A19F4AE
:102BBA000E94DD2749F00E94282A0E94CD2A3196D8
:102BCA000E94E22F0E94D32AE1E0EA93EA93E4EF1B
:102BDA00F1E00E94412A089525970E940F3020E0D3
:102BEA0030E040E0F09912C000E010E0ED85FE858B
:102BFA000E171F0750F4F801AB85BC85AE0FBF1F37
:102C0A00EFEFEC930F5F1F4FF1CFF09AF19B02C0E9
:102C1A00E1E059C1F299F4C00AD9EA3329F0E3E5AF
:102C2A00F3E00E94C8294EC10E94BA2BEE83E295B6
:102C3A00E07FEF930E94BA2BAF91EA0FEE834E81A9
:102C4A000E94BA2B0E94BF2BEF930E94BA2BAF911E
:102C5A000E94C32BFF27662777270E94C72B0E9453
:102C6A00BA2B0E94BF2BEF930E94BA2BAF91EA0FA7
:102C7A005E2F450F0E94CC2BE8E00E94C72EDF0191
:102C8A00CB01E52FF0E00E94D12B0E94C72BE091E7
:102C9A00A707F091A8076091A9077091AA070E9457
:102CAA00CC2B0E94912E0E94C72BED85FE85AF8505
:102CBA00B88989899A890E94D62B0E94CC2B0E94B6
:102CCA000A3010F0E1E0FFC00E94BA2B0E94BF2B2D
:102CDA00EF930E94BA2BAF91EA0F5E2F450F513046
:102CEA0019F4F19AE1E0EFC0523009F049C00E94AC
:102CFA00BA2B0E94BF2BEF930E94BA2BAF910E946E
:102D0A00C32BF0E00E94072FDF01CB01ECE00E9409
:102D1A00C72E0E94DB2B0E94BF2BEF930E94BA2B77
:102D2A00AF910E94C32BF0E00E94072FDF01CB0175
:102D3A00E4E00E94C72EA091A707B091A80780914E
:102D4A00A9079091AA070E94A52E0E94DB2B0E9438
:102D5A00BF2BEF930E94BA2BAF910E94E42B19F07C
:102D6A000E94E92BAFC063D8ED3019F00E94EC2B1A
:102D7A00A9C05DD8EA3019F00E94EC2BA3C046CF57
:102D8A005330D9F50E94BA2B0E94BF2BEF930E94B1
:102D9A00BA2BAF910E94EF2B0E94BF2BEF930E9498
:102DAA00BA2BAF910E94EF2B0E94BF2BEF930E9488
:102DBA00BA2BAF910E94EF2B0E94BF2BEF930E9478
:102DCA00BA2BAF910E94EF2B0E94BF2BEF930E9468
:102DDA00BA2BAF910E94E42B19F00E94E92B72C022
:102DEA0026D8ED3019F00E94EC2B6CC020D8EA30BE
:102DFA0019F00E94EC2B66C009CF00E010E009C070
:102E0A000091AB0711274091AC07E091AD07EE8323
:102E1A00F298EE81D801F0E0AE17BF0768F50E947C
:102E2A00BA2B0E94BF2BEF930E94BA2BAF91EA0FE5
:102E3A005E2F450FF09B03C05F3F09F0F098F90140
:102E4A00AB85BC85EA0FFB1F50832F5F3F4FED8593
:102E5A00FE853197E217F30760F4F29AE02FEF5FED
:102E6A00E093AB074093AC07EE81E093AD07E1E056
:102E7A002AC00F5F1F4FCDCFF29B02C0E1E023C0F3
:102E8A000E94BA2B0E94BF2BEF930E94BA2BAF91DC
:102E9A000E94E42B19F00E94E92B14C00E941C0F17
:102EAA00ED3019F00E94EC2B0DC00E941C0FEA3085
:102EBA0019F00E94EC2B06C0ED85FE85E217F30798
:102ECA0009F0A4CEE0E00E941630639608950E94AD
:102EDA00F32BEC81FD810E171F0718F40E94082CB2
:102EEA0008F014C0E4E4EA930E94D50E0E94132C61
:102EFA00EA930E941A2CA0910002AD3021F0E0E082
:102F0A0019810881A4C20F5F1F4FE3CFE1E0198145
:102F1A0008819DC20E94F32BEC81FD810E171F07C9
:102F2A0018F40E94082C08F011C0E4E6EA930E9403
:102F3A001A2C0E94132CA0910002EA1721F0E0E05B
:102F4A001981088184C20F5F1F4FE6CFE1E0198122
:102F5A0008817DC21A9320D8EB81FC810E941E2C25
:102F6A00EF93E981FA810E941E2CE095AF910E94AD
:102F7A00232C0E941E2CE03039F00E94ED07E6E671
:102F8A000E94282C0E94ED07EB81FC810E942D2CC7
:102F9A00EF93E981FA810E942D2CE095AF910E946E
:102FAA00232C0E942D2CE03039F00E94ED07EEE62A
:102FBA000E94282C0E94ED07EB81FC810E94322C92
:102FCA00EF93E981FA810E94322CE095AF910E9439
:102FDA00232C0E94322CE03039F00E94ED07EFE6F4
:102FEA000E94282C0E94ED07EB81FC81FA93EA9358
:102FFA000E94180FEF930E945D280E94180FE09517
:10300A00AF91EA2B1E2F0E945D280E94180FE03014
:10301A0039F00E94ED07ECE60E94282C0E94ED0789
:10302A00E1E01881259608951A930A930E94D10F18
:10303A00EC81FD810E941E2CEF930E94372CE095B3
:10304A00AF91EA2B1E2F0E94372CE03071F0E6E890
:10305A00F3E00E94E529009100020E94372CE095D6
:10306A000E2B101711F0E0E05EC0EC81FD810E948A
:10307A002D2CEF930E943A2CE095AF91EA2B1E2F4C
:10308A000E943A2CE03071F0E8E8F3E00E94E5296A
:10309A00009100020E943A2CE0950E2B101711F0B5
:1030AA00E0E041C0EC81FD810E94322CEF930E9446
:1030BA003D2CE095AF91EA2B1E2F0E943D2CE0306B
:1030CA0071F0E5ECF1E00E94E529009100020E940E
:1030DA003D2CE0950E2B101711F0E0E024C00E9461
:1030EA00402C0E94180FEF930E9458280E94180F34
:1030FA00E095AF91EA2B1E2F0E9458280E94180FC4
:10310A00E03081F0EAE8F3E00E94E529009100024C
:10311A000E9458280E94180FE0950E2B101711F0E4
:10312A00E0E001C0E1E01981088126960895E0E017
:10313A00E0938000E3E0E0938100EFEFE093850005
:10314A00E2ECE0938400E1E0E0936F000895E88107
:10315A00E03019F0E4E0E093AF0232C21A9313E0D0
:10316A00103001F111507BD2E093AE07E03059F0F4
:10317A001030B1F7E4EFF1E00E947128E4E0E09347
:10318A00AF02E0E027C2E3E3F5E0FA93EA930E9494
:10319A000920E093AE07E03019F0103009F702C0B9
:1031AA00E1E018C20E94452C15C20E94113030E09D
:1031BA00E1E0E093B20275D0E03009F46DC0A4D02A
:1031CA000E944C2C0E94512C09F066C00E945F2C70
:1031DA00E15AFA4FA0E0A083313408F040C00E94BF
:1031EA00642B0E944C2C0E94642CFA93EA930E944E
:1031FA00FB26E32FF0E0E852FF4F249100E010E0B5
:10320A000E94642C0E171F0710F4213008F414C012
:10321A00F801E357FD4FBF01ADE8B2E00E946A2C06
:10322A00ADE8B2E00E94702CA357BD4FEC91E227A3
:10323A00EC930F5F1F4FE4CF0E94642BEDE6F4E09E
:10324A00FA93EA93EDE6F4E0FA93EA930E943E27B2
:10325A00EA930E944927E03011F03F5FBDCF313435
:10326A00D8F420932103213098F000E010E00E9466
:10327A007B2C70F40E947F2CAFE5B5E00E94702C85
:10328A00A15ABA4FEC91E227EC930F5F1F4FEFCF91
:10329A00E1E00E94183044C10E94452C0E94183077
:1032AA003FC11A9313E00E94E929E8E7F4E00E947B
:1032BA00EE290E94582B0E94642B0E94692BE8E792
:1032CA00F4E0FA93EA930E941A270E94E929EAE7AE
:1032DA00F4E0FA93EA930E941A27103081F0115011
:1032EA000E94E9290E942C21E093AE07E03021F4E4
:1032FA000E94862C31F403C0103079F702C0E1E055
:10330A0069C10E94452C66C10E94862C29F0E09171
:10331A00AE07EA931CDFD0C0CDC00E94B62F0E9430
:10332A00BB2F0E947C23E093AE07E03019F00E9485
:10333A00452CF6C0E1E0F4C00E941130E09121036F
:10334A003E2F0E944C2C0E94512CB1F4303099F03F
:10335A0000E010E00E947B2C70F40E947F2CAFE505
:10336A00B5E00E94702CA15ABA4FEC91E327EC9376
:10337A000F5F1F4FEFCF01C007C00E94922C0E941F
:10338A009C2C0E941830CCC00E94452C0E941830F8
:10339A00C7C00E941130E09121033E2F0E94772975
:1033AA0009F451C00E94402CE885F9850E94A42C9A
:1033BA00E091AE07E03071F500E010E00E947B2C4E
:1033CA0040F53030B1F0F801AC81BD81EA0FFB1F46
:1033DA00BF010E94AF2CEE0F0E2E0E94AF2CEE1FE3
:1033EA00E0E0EE1FE029DB01EC930E94AF2CE3271B
:1033FA00EC930E94AF2CF0E0A0918202B09183027C
:10340A00EA0FFB1FE0938202F09383020F5F1F4FC4
:10341A00D5CF01C018C000915F0710916007EE81F7
:10342A00FF810E171F0750F4F801AC81BD81AE0F62
:10343A00BF1FEFEFEC930F5F1F4FF1CF0E94922C4B
:10344A000E949C2C02C00E94452C0E94183028968B
:10345A00089508951A930E945F2CA0916107B09174
:10346A006207AE17BF0708F067DFA1E6B7E00E9460
:10347A00AA273197E15AFA4F1081A7E7B7E00E94CD
:10348A00B62CA7C00E94E9290E942C21E093AE071E
:10349A00E03091F40E94862C79F40E944C2CE0E0F2
:1034AA00F2E00E94A42CE03029F4E0E0E093610706
:1034BA00E0936207E1E00895E0E008950E94BF2CDE
:1034CA000E944C2C0E94402C0E9483278F01309727
:1034DA0039F00E9458280E943E2731960E0F1F1F6E
:1034EA001CC00E94BF2C0E945828E8DF8F01309729
:1034FA00A1F00E94642B1A930A93E0E2EA930E94D5
:10350A0061270DE812E01A930A93EDE0EA930E940C
:10351A007527E00FF11FA0E0A083F8011981088147
:10352A00249608950E94BF2CADDFE030A1F10E94DD
:10353A00C42CC4DF8F01309741F1EA81FB813097B7
:10354A0079F0AC81BD81EC91D801EC930F5F1F4FEC
:10355A000E94C92CEA81FB813197EA83FB83EDCF74
:10356A000E94862CC1F40E944C2C0E945F2C319739
:10357A00FA93EA930E94CF2C71F40E9411280E94B8
:10358A0011280E94CF2C39F401C005C0E1E019814D
:10359A0008810C94CD1FE0E0198108810C94CD1F9D
:1035AA00E4B1EC62E4B9E5B1EC63E5B9E0E5ECBDA0
:1035BA00E1E0EDBD0895E881EEBDEDB5E078E9F30F
:1035CA00219608951A93EFEFEEBDEDB5E078E9F391
:1035DA001EB5E12F19910895F5DF08951A930A93FC
:1035EA00EE81E07849F0EE81EF77EE83E7E70E941B
:1035FA00D92C0E2F023070F52A9AE4DF2A98E2DFDE
:10360A00EE810E94E22CE8E10E94D32EEA93D3DFF6
:10361A000E94802B0E94FD2E0E94E22CE8E00E946C
:10362A00D32EEA93C8DFEA81EA93C5DF11E0AE81BF
:10363A00A03409F415E9AE81A83409F417E81A93FD
:10364A00BADF1AE0BFDF0E2F07FF02C0115009F4DC
:10365A0001C0F8CFE02F1981088127960895249791
:10366A000E940F309DDF2A9905C00E9411280E94EE
:10367A00EA2CF2D014E6103019F0A4DF1150FBCF77
:10368A0030E0E0E40E94D92CE13009F075C0E8E4AA
:10369A00EA93EAEAF1E060E070E00E94F12CE1309E
:1036AA0009F045C010E0143050F40E94F52CFF9345
:1036BA00EF9388DFAF91BF91EC931F5FF4CFA8859A
:1036CA00A13019F4A985AA3A09F030C040EE5EE2A9
:1036DA00042E052A51F0E9EEEA93E0E0F0E060E01A
:1036EA0070E40E94F12CE03009F403C041505040CC
:1036FA00EFCF042E052A29F0EAE70E94D92CE03000
:10370A0009F014C010E0143050F40E94F52CFF9315
:10371A00EF9358DFAF91BF91EC931F5FF4CFEE8127
:10372A00E07411F0ECE001C0E4E03E2F25C0E9EEC0
:10373A000E94D92CE23018F432E009EE02C031E0DE
:10374A0001E448EA51E6042E052A31F00A930E9460
:10375A00EA2C44DFE03009F403C041505040F3CF73
:10376A00042E052A41F0E0E5EA930E94FC2C0E940F
:10377A00F12CE03009F030E03093AF072DDFECB5E3
:10378A00EC7FECBDEDB5E160EDBD303011F0E0E06D
:10379A0001C0E1E00E941630D0C20E941130E091CF
:1037AA00AF07E87031F40E94012D0E94062D0E9495
:1037BA000D2D11E0E1E5EA930E94122D0E94F12CF1
:1037CA00E03009F044C020E335E7FCDE0E2F0F3F5E
:1037DA0019F42150304009F401C0F7CF0E3FB9F572
:1037EA00AE81BF81E2E0F2E0EA1BFB0BDF01EC8174
:1037FA00FD81AE1BBF0B9D01EE81FF81309739F031
:10380A00E1DEEE81FF813197EE83FF83C9F7EC8514
:10381A00FD85309781F00E949F293197FF93EF939E
:10382A00D1DEAF91BF91EC93EC81FD813197EC83AE
:10383A00FD8389F706C0EC81FD813197EC83FD8316
:10384A00D1F7C0DEF90131979F01D9F710E0C4DE44
:10385A00E12F0E94183034C30E94113011E0E8852C
:10386A00F9853097F9F02C813D81022E032A31F037
:10387A00E091B007F091B107309709F411C0A8851B
:10388A00B985ED91A887B987EA9395DEA0EBB7E0F1
:10389A00ED91FD913197FE93EE9321503040E5CFA3
:1038AA0010E04DC00E94172D0E94FB2F21F1E091DC
:1038BA00AF07E87041F40E94172D0E94062DEC8391
:1038CA00FD836E837F83E8E5EA93ED81FE816F8154
:1038DA0078850E94F12CE03069F4EFEFEA936BDE11
:1038EA00EEEFEA9368DEE0E0F2E0E093B007F093EF
:1038FA00B10710E024C0E091B007F091B107329609
:10390A009F01F90121503040309721F0E0E0EA931D
:10391A0052DEF7CF57DEEF71E53081F428EE3DEF46
:10392A0051DEEF3F19F0022E032A09F403C0215099
:10393A003040F6CF022E032A09F010E04DDEE12FC7
:10394A00FAC11A930A930E811F81EA81FB8131978A
:10395A00EA83FB83319649F01F930F930F5F1F4F42
:10396A00EC81AF91BF91EC93F0CF1981088110C31C
:10397A000E940F300A851B852885398540E050E072
:10398A00EE81FF813197EE83FF83319681F0D80172
:10399A000F5F1F4F0C901124D9012F5F3F4FAC913D
:1039AA00BB27F001EA1BFB0BAF01309709F001C0FE
:1039BA00E7CFFA010E9416302C96089526970E94A6
:1039CA000F300E941C2DEE83FF830E94212D0E943E
:1039DA00262D50F0AE81BF8118960E94A12F0E9419
:1039EA00212D0E940A3008F0A7C0AE81BF81EC9158
:1039FA00F0E0E130A0E0FA0709F04DC02C853D85E2
:103A0A00F901F695E7952E0F3F1FF901F170AF0105
:103A1A00D901E0E0F2E00E943B2F9F01EFEFF1E0D5
:103A2A00E417F50759F00E942E2D0E94BB2F5A93D6
:103A3A004A930E943A2D09F07FC01FC00E942E2D82
:103A4A000E94BB2FEFEFF1E0FA93EA930E942E282F
:103A5A00A4DEE03009F070C0FE0139960E94422DC2
:103A6A00F9010E94D62B0E94A12B0E9411280E94C4
:103A7A002E2893DEE03009F05FC008851985EC85B1
:103A8A00E17021F0F8010E94EF2E02C0F801FF70E8
:103A9A006627772755C0E230A0E0FA0709F5FE014C
:103AAA0038960E94422D9F938F93BF93AF930E94A3
:103ABA004B2DE0E0F1E060E070E00E944E2FAF9104
:103ACA00BF918F919F910E94502DF070EE0FFF1FB2
:103ADA000E94572D89F5E885F9856627772730C032
:103AEA00E330A0E0FA0741F5FE0138960E94422D24
:103AFA009F938F93BF93AF930E944B2DE0E8F0E022
:103B0A0060E070E00E944E2FAF91BF918F919F911C
:103B1A000E94502DEF77F0700E94E32EFA93EA93F9
:103B2A00E4E0F0E00E945A2D39F40E94012DEF7F63
:103B3A00FF7F6F7F7F7004C0E1E0F0E060E070E03B
:103B4A000E941630609608950E94602D0E94802B74
:103B5A00E250F040604070400E947B2BF801A08543
:103B6A00B18582859385E2E0F0E060E070E00E9432
:103B7A00C52F0E94962E0E94672D0E940A3028F0B7
:103B8A000E946C2D198108813DC2F801E181F0E0A3
:103B9A000E94672D0E94072F0E94162F7F936F9312
:103BAA00FF93EF93D80154960E94A12FAF91BF9132
:103BBA008F919F910E94912E1981088123C2249787
:103BCA000E94602DAE81BF810E94712DAE81BF819E
:103BDA0014960E94762D0E94672D0E94792D49F035
:103BEA00D80118960E94A12F0E94672D0E940A30C0
:103BFA0020F0E1E019810881CBC10E94802B0E944C
:103C0A00FB2F21F4D801AC91A33009F004C0D801EC
:103C1A0050960E94762D0E94802BAE81BF81189605
:103C2A000E94AC2F0E94802B0E94FB2F21F00E9441
:103C3A00812D8ADF04C0D80150960E94A12FAE813F
:103C4A00BF811C960E94AC2FE0E019810881A0C1B7
:103C5A0024970E94852DA885B9850E949D2F3196AB
:103C6A008F01002E012A31F01C960E94A12F0E947A
:103C7A00FB2F11F4E3E05FC0F801EF7009F056C0C2
:103C8A00A885B9851C960E94B62CA885B985189670
:103C9A000E94A12F0E94FB2F51F4D90114960E9471
:103CAA009D2F0E171F0710F0E3E045C03FC0F80133
:103CBA000E94EF2EDF01F901E181F0E03197EA235A
:103CCA00FB23309799F5E885F985A085B18582852A
:103CDA0093850E948C2DEC83FD836E837F83AC8158
:103CEA00BD818E819F810E94262D10F4E1E023C0C0
:103CFA00D90118960E94A12FAC81BD818E819F8126
:103D0A000E940A3010F0E3E016C00E94172DA88521
:103D1A00B98518960E94AC2F0E94172D0E94BB2FBE
:103D2A0013DFA885B9851C960E94AC2FA885B98592
:103D3A000D931C93E0E00E9418302A9608950E9481
:103D4A0011300E94402C3BDF1E2F103019F00E94C8
:103D5A00183058C10E94902D3A932A93EE81FF8120
:103D6A000E94982D0E94C02FAA85BB850E949D2F74
:103D7A00EF70F070EE0F0E94DF2EFA93EA93E0E202
:103D8A00F0E00E945A2D11F0E1E001C0E0E01E2FA0
:103D9A00103011F5D9010C91003011F413E01CC058
:103DAA00F901E385E87079F43A932A93EE81FF8169
:103DBA00A281B381BA93AA93EBE0F0E0FA93EA9373
:103DCA00D7DD309709F001C007C00E94402C40DFC0
:103DDA001E2F103009F4C0CFE12F0E94183012C1F3
:103DEA0024970E940F30AC85BD8512960E949D2FA4
:103DFA00E887F987FA93EA93E0E2F0E0FA93EA9324
:103E0A00EBE0F0E0FA93EA939CDDE0E05E2F2E2FE0
:103E1A0038E0AA85BB850E949D2D0E94A22D1C9187
:103E2A00113210F01F3209F435C01E3211F0531747
:103E3A0040F0383011F41E3209F02CC058E03BE053
:103E4A0028C0103838F0E12FF0E0E058F040E65E84
:103E5A00FE4F1491E0E0E03041F0E32FF0E03197BB
:103E6A00A52FB0E0AE17BF070CF40AC00E94A22D1E
:103E7A000C910E94AA2D10830E94AA2D008309C0CA
:103E8A00113610F01B3708F001C010520E94AA2DFB
:103E9A001083C3CFE22FAE81BF81F0E0EA0FFB1F90
:103EAA00AA85BB85ED93FC93113210F4E1E001C0C1
:103EBA00E0E0A885B9851B96EC93E0E00E941630F5
:103ECA002E9608950E941130AC81BD81AC91A0322A
:103EDA0019F40E94C92CF8CFAC81BD81AC91AF32E4
:103EEA0011F40E94C92CAE81BF8114960E94B22D92
:103EFA00AC81BD81AC91A13258F40E94C42C5FDE22
:103F0A001E2F0E941C2DA681B781E0E0EC933DC0D4
:103F1A000E94C42CFE013696FA93EA9361DF1E2FA3
:103F2A00103099F50E94C42C0ADF1E2F103041F080
:103F3A00133019F40E94B62D09F001C014E025C00F
:103F4A000E94B62D11F50E94902DF901E385E071CA
:103F5A0011F414E01AC0D90154960E94BE2D0E9491
:103F6A00022F7F936F93FF93EF93D9015A960E9482
:103F7A009D2FAF91BF918F919F910E944B29AE8146
:103F8A00BF8114960E94AC2FC3CFE12F0E94183034
:103F9A00289608950E94402C0E94812DEEEFF1E0B0
:103FAA000E94572D11F0E3E02DC00E94C32DE53584
:103FBA00AAEAFA0711F0E2E025C00E94402C0E940A
:103FCA00812DE6E3F0E00E94572D31F40E94C32DC3
:103FDA00E634A1E4FA0709F002C0E0E013C00E9447
:103FEA00402C0E94812DE2E5F0E00E94572D31F429
:103FFA000E94C32DE634A1E4FA0709F002C0E0E00A
:10400A0001C0E1E026960895E4971A93E0E0E09370
:10401A00B207E093B307EDA9FEA9309709F413C1DB
:10402A001EDBE17011F0E2E00FC1E0E0ED87EE8700
:10403A00EF87E88B0E94C82DADDF1E2F1130E1F407
:10404A000E94C82DEEEBF1E0FA93EA93E0E1F0E08A
:10405A000E945A2D11F013E00FC0ED89E03061F093
:10406A00E98DFA8D6B8D7C8DED87FE876F87788B56
:10407A000E94C82D8FDF1E2F133011F4E1E0E4C037
:10408A00103011F0E7E0E0C00E94C82DEDE0F0E04A
:10409A00FA93EA93E4E2F0E00E945A2D11F0E1E08B
:1040AA00D3C0FE01B7963D97DF010E94BE2D0E9444
:1040BA00D32D0E94122D0E94FB2F41F4FE01F5968A
:1040CA003D97DF010E94A12F0E94D32DEC89F0E0D9
:1040DA00A985BA858B859C850E94072F0E94162F79
:1040EA000E94D32D0E94D82DAD85BE858F859889D3
:1040FA000E94D62BADA9BEA91C960E94AC2FE989B5
:10410A00ADA9BEA91196EC93FE01B2963D97DF01C7
:10411A000E949D2FADA9BEA91496ED93FC93FE01B2
:10412A00B4963D97DF010E94BE2DED83FE836F8317
:10413A0078870E94FB2F51F4FE01F1963D97DF012B
:10414A000E94A12FED83FE836F8378870E94D82D6A
:10415A00AD81BE818F819885662777270E94C52FFA
:10416A000E94962EA985BA858B859C850E94962EDB
:10417A007F936F93FF93EF930E94DF2DAF91BF91CF
:10418A008F919F91662777270E949B2EEDA9FEA902
:10419A000E94E72D0E944E2FEE5FFF4F6F4F7F4F19
:1041AA00E983FA836B837C83ADA9BEA918960E9422
:1041BA00AC2F11E0A981BA818B819C81A73FEFE0E6
:1041CA00BE07E0E08E07E0E09E0708F012E0A98152
:1041DA00BA818B819C81A73FEFEFBE07E0E08E0793
:1041EA00E0E09E0708F013E0ADA9BEA91C931330C6
:1041FA0029F4E8A9F9A96AA97BA902C00E94EC2DB1
:10420A00ADA9BEA950960E94AC2F0E94EC2D7F93B7
:10421A006F93FF93EF930E94DF2DAF91BF918F9120
:10422A009F910E94D62BADA9BEA954960E94AC2F8D
:10423A00ADA9BEA91296E0E0EC93EDA9FEA9E09320
:10424A00B207F093B307E0E01881E7960895EC9778
:10425A000E94852D022E032A11F4E6E048C0D901F6
:10426A001296E0E0EC93FE013496D9011696ED938E
:10427A00FC93FE01B496EAABFBABFE01F096FA930F
:10428A00EA93FE01EE5BFF4F0190F081E02DFA9375
:10429A00EA9318DE1E2F103009F029C0EC81E030B5
:1042AA0019F0EF85E07111F0E3E021C0E88DF98D96
:1042BA00662777270E94022FDF01CB01EE8DFF8D43
:1042CA000E944B29D90190960E94AC2FE8A1F9A12E
:1042DA006AA17BA1D9015C960E94AC2FD90158969C
:1042EA000E94B22DD9011296E1E0EC93E0E00E941F
:1042FA001830EF96239608952E970E940F30288D36
:10430A00398D0E941C2DEE83FF83AC89BD890E94E2
:10431A00712DEE81FF81309711F4E6E0D6C0EE816F
:10432A00FF81A281A17011F4E5E0CFC0EE81FF8187
:10433A00A48DB58D868D978D9F938F93BF93AF93E1
:10434A000E94F32DEF91FF916F917F910E94962E1B
:10435A000E940D2D0E94012DAE89BF8988279927B9
:10436A000E94053020F4E885F985EE8BFF8BEE89F3
:10437A00FF89309709F4A3C00E94F32DFD01BC0107
:10438A00F170309709F052C00E94F32D0E94FA2D65
:10439A00EE81FF810E94E72D0E94862F0E94FB2F4B
:1043AA0049F50E94F32D0E94FF2F31F4AE81BF819F
:1043BA0090960E94A12F04C00E94002E0E948C2D6C
:1043CA00E88BF98B6A8B7B8BA889B9898A899B8947
:1043DA000E94262D08F475C0E889F9896A897B89C3
:1043EA00AE81BF8194960E94AC2FAE81BF81139695
:1043FA00E0E0EC930E94002E0E94C02FA5DB0E94F1
:10440A00072EEC85FD856E857F850E94FB2F09F4BA
:10441A0058C0AE81BF810E940C2E0E94212D0E949D
:10442A00D12BAE81BF8198960E94AC2FEE81FF817D
:10443A000E94132EA0E0B2E0AE1BBF0BAD01EE89C5
:10444A00FF89E417F50710F44E895F89E88DF98D25
:10445A00309719F4E0E0F0E001C0F901FA93EA9329
:10446A00E885F9850E94182EAC85BD8558960E946C
:10447A009D2FF170FA93EA935A934A938ED91E2F7D
:10448A001030F9F4EE81FF810E941F2EDF01CB016B
:10449A00FA010E94D62BD0010E94AC2F240F351F9F
:1044AA00EE89FF89E41BF50BEE8BFF8BAC89BD8986
:1044BA00ED91FD91E40FF51FFE93EE9358CFE0E0E6
:1044CA0004C0AE81BF810E94252E0E9416306A96D2
:1044DA0008952C970E940F300E891F894091B207C8
:1044EA005091B307AA89BB890E94712D042E052A0F
:1044FA0011F4E6E0F8C0FA01A281A17011F4E5E036
:10450A00F2C0EC89FD893097A1F4FA01A281A07466
:10451A0039F00E9411280E94EA2C9ED9E03009F451
:10452A0001C0DEC0DA011296EC91EF7BEC93E0E079
:10453A00DAC0FA01A281A07441F4DA015896ED9129
:10454A00FD91E070FE7FFE93EE93FA01A48DB58D86
:10455A00868D978D9F938F93BF93AF930E942A2E38
:10456A00EF91FF916F917F910E94962E0E94302EBB
:10457A00AC89BD89882799270E94053020F4EE81ED
:10458A00FF81EC8BFD8BEC89FD89309709F4A6C07D
:10459A00FA010E94132E309709F05AC00E942A2E5F
:1045AA000E94FA2DFA010E94E72D0E94862F0E948E
:1045BA00FB2F19F50E942A2E0E94FF2F29F4DA01F7
:1045CA0090960E94A12F07C0FA01A4A1B5A186A1C5
:1045DA0097A10E948C2D0E94352E0E944B2D0E947D
:1045EA00262D08F47DC00E943A2EDA0194960E9484
:1045FA00AC2FDA011396E0E0EC93FA01A4A1B5A17D
:10460A0086A197A10E94C02F9FDAEA87FB876C8751
:10461A007D870E943F2E0E94FB2F09F461C0DA01B8
:10462A000E940C2E0E94442E0E94D12BDA019896E9
:10463A000E94AC2F0E941128FA010E94182E0CD950
:10464A00E03009F04DC0DA011296EC91E064EC9387
:10465A00FA010E94132EA0E0B2E0AE1BBF0B9D012F
:10466A00EC89FD89E217F30710F42C893D891A9326
:10467A000A93F901662777270E94BB2FEDD8E0300D
:10468A0079F5FA010E941F2EDF01CB01F9010E9480
:10469A00D62BD0010E94AC2F020F131FEC89FD8983
:1046AA00E21BF30BEC8BFD8BAA89BB89ED91FD9183
:1046BA00E20FF31FFE93EE93FA010E94132E309736
:1046CA0061F40E9411280E94EA2CC6D8E03041F415
:1046DA00DA011296EC91EF7BEC9355CFE0E003C040
:1046EA00DA010E94252E0E94163068960895609776
:1046FA000E94602D002E012A11F4E6E0DCC0F801C8
:10470A00A281A17011F4E5E0D6C0D8015C960E949E
:10471A00492E0E94053040F4D8015C960E94A12FD0
:10472A00EA8BFB8B6C8B7D8BD80158960E94762D79
:10473A00D80158960E94B22D0E94502E0E94FF2F37
:10474A0008F0B4C0F8010E94E72D0E94062DEA87FE
:10475A00FB876C877D870E94672D0E94FF2F98F444
:10476A000E94552E0E945A2E7F936F93FF93EF93C8
:10477A000E94802B0E945A2EAF91BF918F919F91D8
:10478A000E940A3008F427C00E94802BE150F040B2
:10479A0060407040DF01CB010E943F2EE150F040A3
:1047AA00604070400E94112F0E94A02ED801589696
:1047BA000E94AC2FD80158960E94492E0E949B2E27
:1047CA00AA8BBB8B8C8B9D8BD80194960E94A12FB0
:1047DA000E94352E08C0D80190960E94A12F0E94EF
:1047EA00352E0E94642E0E943F2E0E94502E0E9457
:1047FA00053068F50E943A2E0E94BB2FDFD80E942E
:10480A00352E0E944B2D0E94262D48F0D80118966D
:10481A000E94A12F0E944B2D0E940A3008F048C026
:10482A000E94642EF8010E941F2E0E94442E0E94AC
:10483A00912ED0010E94AC2F0E94442E0E94552E28
:10484A000E94962EEA8BFB8B6C8B7D8BCCCFF8016A
:10485A000E941F2E0E94502E0E94912ED0010E946B
:10486A00AC2F0E943A2E0E94BB2F6ED90E94302E86
:10487A000E94FB2FE9F00E94502E0E94FC2C0E94FD
:10488A004E2FD8011396EC930E94552EF170309753
:10489A0069F0D8010E940C2EAE81BF818885998566
:1048AA000E94D12BD80198960E94AC2FE0E003C059
:1048BA00D8010E94252E19810881669608951A93B7
:1048CA000A93AA81BB8112960E949D2F309729F1E3
:1048DA00AA81BB8114960E949D2F8F01309761F0A7
:1048EA000230E0E01E0780F0F80131978F01AA81BB
:1048FA00BB811496ED93FC93AA81BB8112960E9408
:10490A00AA273197AC81A083AA81BB810E949D2FDF
:10491A00FF2312F00E94AA2706C0AA81BB81EFEFEB
:10492A00FFEFED93FC9319810881259608952B9743
:10493A000E940F3010E0A989BA890E94712DEF896F
:10494A00F88D3196EF8BF88F3197E4912E2FE03066
:10495A0009F463C1E12FE03039F4253211F411E092
:10496A0002C00E946A2E58C1E130A9F4253219F416
:10497A000E946A2E50C112E040E000E02D3211F48C
:10498A0001E04AC12B3211F44BE246C1203211F444
:10499A0040E242C102C0E23039F450E013E0203371
:1049AA0011F4006839C102C0E33091F4203310F0E9
:1049BA002A3308F007C0AAE05A9F502DE22FE0538D
:1049CA005E0F2AC12C3619F4026015E025C103C016
:1049DA00E53009F021C1E22FE33649F40E94732E33
:1049EA00ED89FE89A481AA930E94792E14C1E33726
:1049FA0069F40E94732EAD89BE8914960E949D2D7A
:104A0A000E94C42C0E9434271E2F0FC0E03791F455
:104A1A000E94732EAD89BE8914960E949D2D0E9414
:104A2A00C42C0E943E271E2F08600F77E0E0E88B17
:104A3A0030E06AC0E43611F0E93611F4046002C0CD
:104A4A00E537A1F4EAE0E88B01FF08C0E0E0FAEC00
:104A5A006AE97BE30E940D2D1AE022C0E0E1F7E249
:104A6A0060E070E00E940D2D15E01AC0E83511F4DF
:104A7A00086003C0E83709F0CEC0E0E1E88B01FF27
:104A8A0008C0E0E0F0E060E070E10E940D2D18E05F
:104A9A0007C0E0E0F0E160E070E00E940D2D14E054
:104AAA0001FF08C00E94732EAD89BE8914960E9428
:104ABA00A12F13C002FF0AC00E94732EAD89BE89BE
:104ACA0014960E949D2F0E94072F07C00E94732EE2
:104ADA00AD89BE8914960E94BE2DEC87FD876E872C
:104AEA007F8702FF11C0AF85AA234AF4EC85FD85B2
:104AFA006E857F850E94AE2E0E94072E4DE24030C1
:104B0A0011F01F5F01C00B7F00FD11C0151778F46B
:104B1A0007FF08C002FF04C00B7F242F115001C0F9
:104B2A0020E301C020E20E946A2E5150EFCF312FBC
:104B3A00E889E030B9F43030A1F003FF06C0EE8115
:104B4A00FF812591EE83FF8305C0AE81BF812D9140
:104B5A00AE83BF830E946A2E503009F05150315003
:104B6A00EACF4FC00E94012D0E94212D0E944E2F94
:104B7A002E2F2A3030F003FF02C0295C01C0295AC7
:104B8A0001C0205D04FD1DC0213338F4A885B98514
:104B9A008A859B850E94792D09F409C0531710F064
:104BAA0000FF01C013C020E207FF0BC020E3006131
:104BBA0002FF07C00B7F4A930E94792E503009F0FA
:104BCA0051500E946A2E503009F0515031500E94C3
:104BDA00012D0E94212D0E94862F0E94072EE8890E
:104BEA00A885B9858A859B85FF27662777270E942E
:104BFA004E2F0E940D2D0E94012D0E94FB2F09F0BD
:104C0A00B1CF00FF08C0503031F05150E0E2EA93D2
:104C1A000E94792EF8CF10E092CEA989BA890E9413
:104C2A009D2F0E94163069960895FF92F82E2697B6
:104C3A000E941130DE011C960E948D2E0E949D2F2B
:104C4A00309719F4EFEFFFEF27C0DE0116960E94A6
:104C5A008D2E8D01DE011C960E948D2E0E949D2DA7
:104C6A00E0E0E887E987DE011A960E948D2E0E940D
:104C7A009D2FFA93EA931A930A93E4E6F4E2FA93DD
:104C8A00EA93FE013A96FA93EA9351DE9F01AE81C6
:104C9A00BF81E0E0EC93F9010E9418302A96FF9058
:104CAA000895B981A881EC918A2FEA930E94A027DE
:104CBA00A82FEE2311F01196F6CFE894EC91ED327D
:104CCA0011F4689402C0EB3209F41196662777272B
:104CDA00EC918A2FEA930E949827A82FEE2379F065
:104CEA00FB01660F771F660F771F6E0F7F1F660F18
:104CFA00771FED91FF27E0536E0F7F1FE9CFFB016E
:104D0A001EF4E095F095319622960895B981A8810E
:104D1A00EC91AF93EA930E94A027AF91EE2311F092
:104D2A001196F6CFE894EC91ED3211F4689402C032
:104D3A00EB3209F411960024112488279927EC9163
:104D4A00AF93EA930E949827AF91EE2389F0F0017E
:104D5A00BC011BD01AD00E0E1F1E861F971F15D01E
:104D6A00ED91FF27E0530E0E1F1E8F1F9F1FE7CFE7
:104D7A00F001BC0146F4E095F0956095709588279E
:104D8A003196681F781F22960895000C111C881FFF
:104D9A00991F0895A991B991E991F99130962AF448
:104DAA00E095F09531966DE26D93E89480E197E293
:104DBA000DD088EE93E00AD084E6992707D08AE0DE
:104DCA0005D06E2F10D066276C9308956627E817D2
:104DDA00F90720F06395E81BF90BC9F7662311F46C
:104DEA0016F008956894605D6D930895998188819D
:104DFA00009641F0BD81AC81FB81EA8161916D939E
:104E0A000197E1F7FD81EC8126960895E991F991E0
:104E1A00A991B991CD016D916623E9F71197619135
:104E2A006D936623E1F7FC010895E991F991A9913F
:104E3A00B991CD016D916623E9F7119705900D920D
:104E4A000020E1F7FC010895E991F991A991B9913E
:104E5A00CD0105900D920020E1F7FC010895A9917A
:104E6A00B991EE27FF276D91662311F03196FBCF9A
:104E7A000895AA27BB27E991F9910590002011F01E
:104E8A001196FBCFFD010895002411246991E9913F
:104E9A00F991A991B991662349F06A951D900590F7
:104EAA00011421F40020B9F7EE2708951018E1F350
:104EBA00E1E008F4E25008957991E991F991A99114
:104ECA00B991CD01772351F07A9561916D9366235B
:104EDA00C9F7772319F07A956D93FBCFFC010895F2
:104EEA006991A991B991EE27FF277D91671729F05A
:104EFA0031967723D1F7EFEFFFEF0895AA81BB81AF
:104F0A00CD01E881F9810590002011F4FC0109C066
:104F1A006D916015C1F30196DC01662391F7EE27C6
:104F2A00FF2724960895E1E0F991F03310F0FA335F
:104F3A0008F0EE270895E1E0F991F03229F0F9300E
:104F4A0010F0FE3008F0EE270895ED91FD913196AC
:104F5A00FE93EE930895A0916307AF5FA093630752
:104F6A000895E091B302EA930C948C05E3E0EA9386
:104F7A00E1E0EA93E1E0F0E0FA93EA930C94870621
:104F8A00E0917900E09388070895E0E0E093C50096
:104F9A00E093C4000895E0ECE093C200E8E1E093F6
:104FAA00C1000895E1E0E0932803E09329030895FE
:104FBA00A4E0B0E00E94D62FE4340895E8EEF3E0CE
:104FCA00FA93EA930C94812EA0912B03B0912C03AF
:104FDA000E940C2FE8EEF3E060E070E00E94362FAA
:104FEA00DF01CB01E0E0F4EF61E070E00E94732F93
:104FFA000895A0E0B0E081E090E00E94C52F0E94F1
:10500A00962E66277727EF2FF0E0E0938707DCCF0D
:10501A00E0E0EA93EA930895E0E0F0E0FA93EA9395
:10502A000895A6E0B0E00E94D62FE0300895E1E0AE
:10503A00EA93EA93E1E0F0E0FA93EA930895E3E071
:10504A00EA93E1E0EA93E1E0F0E0FA93EA930C9460
:10505A006706E1E0F0E0FA93EA9308950E94812E50
:10506A00EEE7F3E1E017F1070895EA930E941D06BF
:10507A00E0300895E0E0E093AF02E1E0EA93E091E6
:10508A00B302EA93E6CFE2E0EA93E1E0EA93E1CF02
:10509A00E0937C0085E38A95F1F7E0917A00E06479
:1050AA00E0937A000895EA81FB81FA93EA930895DE
:1050BA00E981FA81FA93EA930895E0E0E0938202A3
:1050CA00E093830208951A93E1E0EA930E940C0F99
:1050DA00E0918E07E1300895FA93EA930C94812EB9
:1050EA00EA81EA930E942B08E981EA930E942B083D
:1050FA00E881EA930E942B08E0932D0308952998EA
:10510A00E1E0E0938A070895EAE0F0E0E5CFECEA0F
:10511A00EA93E3E5EA93E0E0EA930C948908E1E094
:10512A00EA930E940C0FE0918E07E1300895E3E0C4
:10513A00EA930E940C0FE0918E07E13008952998B6
:10514A0029980E9476081E2F0E9476080E2F0E9428
:10515A0076083E2F0895E0E0EA930C948D08EA93CE
:10516A000E947808EDE0EA930E947808CDCFE4E047
:10517A00EA930E940C0FE0918E07E1300895299876
:10518A000E9476081E2F0895E0918302F070EE0FB8
:10519A00EE0FEE0FAE2FE0918302F0E0F0E00E94F6
:1051AA00E82EE470EA2B0895EA93E0918202EA93EA
:1051BA001A930895EA93E0918302F070F5CFA2E87A
:1051CA00B2E0C3CEE160EA93E0918202EA93E0E0C2
:1051DA00EA930C948908EA93E0918302F070EA93C7
:1051EA00E0918202EA93B7CFEA93E0918202EA93CE
:1051FA00E0E0EA930C9489081A930A9390CF1DE091
:10520A000E9476080E2FA0918A02A2300895EA938E
:10521A00E0E0EA930A930C948D081A930E947808A6
:10522A00299AE0E0E0938A0708950E9476081E2FE3
:10523A000E9476080E2F089566277727E093840246
:10524A00F093850260938602709387020895E09135
:10525A008402F091850260918602709187020E9411
:10526A00F82EE0938402F09385026093860270938D
:10527A0087020895A4E8B2E00E94A72F3197604000
:10528A0070400E94B12F0E94FB2F0895662777274E
:10529A000E94A52E0895E0938402F09385026093FC
:1052AA008602709387020895A4E8B2E00E94A72FAD
:1052BA003197604070400E94B12F0895E0918402B6
:1052CA00F091850260918602709187020E94FB2FFD
:1052DA000895E0937B07F0937C0760937D077093B2
:1052EA007E070895E0917B07F0917C0760917D0726
:1052FA0070917E070E94BB2F0E949219E030089598
:10530A00EC85FD853196EC87FD873197E15AFA4F96
:10531A000895A0918402B0918502809186029091AD
:10532A0087020895E0E0DF01EBCFE081F0E0EA2BAD
:10533A00FB2B0895EC85FD853196EC87FD87089552
:10534A00E0918B02F0E0EE0FFF1F0895FA93EA93C3
:10535A00EFE2F3E0FA93EA930E94CE19E03008955F
:10536A00E093C600E7CFAC85BD85AE1BBF0BAC870B
:10537A00BD870895E885F985A0918202B0918302DC
:10538A00EA17FB070895FA93EA930C94170FEC9126
:10539A00EA930E941F0FE295E07F0895FA93EA9339
:1053AA000C944F0FFA93EA930E947A0F6627772795
:1053BA000895A4ECB0E01A2EAC91E091B5020895DC
:1053CA00FA93EA930C949006E4E6F7E0FA93EA93E8
:1053DA000895FA93EA930C942927E3ECF1E0FA93FF
:1053EA00EA930E94761AE093AD02F093AE023097E8
:1053FA000895E091AD02F091AE02FA93EA930E9409
:10540A005626E130A0E0FA070895E7ECF1E0FA93B6
:10541A00EA930E94761AE093AD02F093AE023097B7
:10542A000895FA93EA930E94761AE093AD02F093F4
:10543A00AE0230970895E091AD02F091AE02FA9370
:10544A00EA930C945626E091B402A5E0EA9FF00193
:10545A000895DF01EFEF0E94EA2FF5CFE091B40241
:10546A00EF5FE093B4020895E1E0E093AF02EA93BC
:10547A00EA93ECEDF5E00895FA93EA930C94670643
:10548A00E091AD02F091AE02FA93EA930C948B2666
:10549A00E091AD02F091AE02FA93EA930895E2EF39
:1054AA00F2E0FA93EA930895E4E0EA930C945C0F2D
:1054BA00EEEEF2E0FA93EA930895EAEEF2E0FA9356
:1054CA00EA930895FA93EA930E94761AE093AD025A
:1054DA00F093AE02FA93EA9308950F01A081E7E7E9
:1054EA00EA27D001EC930895E35FFF4FDF010E94A2
:1054FA00D62FEF700895DF010E94D62FAE2F0895A0
:10550A00DF010E94D62FEF3F0895E35FFF4FDF01CF
:10551A000E94D62FE07F0895E45FFF4FDF01E091FC
:10552A0060050E94EA2F0895EA2BD0010E94EA2F13
:10553A000895E65FFF4FDF01E0E0F0E00E94E22F0E
:10554A000895A091FE02B091FF0210970895E45FBA
:10555A00FF4FDF010E94D62FA09160050895E091C8
:10556A006105E07F6E2F6FCF0E94EA2F6CCFE35F59
:10557A00FF4F0F01C0CFE0916105E07FD5CFB09119
:10558A006305A0E0E0916405F0E0EA2BFB2B0895A7
:10559A00E65FFF4FDF010E94D22F0895E093FC02DD
:1055AA00F093FD020895E0E0E0932F05E0933005C3
:1055BA00E0933105E093320508950E9421130E9479
:1055CA00A40FE5E4E0938C020E940F08E1E4EA9359
:1055DA000E94D50EE0E0EA930E94D50EE0E0EA933D
:1055EA000E94D50E0E94BC06A0910002AD3008951B
:1055FA00FA93EA930C94F013F098E0E0F8E064E090
:10560A0070E067DE6FCEE0912303F0912403A0914E
:10561A002F05B091300580913105909132056627AA
:10562A0077270E940A300895E0912F05F0913005FE
:10563A00609131057091320508950E94BB2FE0E018
:10564A00F1E0FA93EA93EFE2F3E0FA93EA930E9425
:10565A00F115E0300895EFE2F3E0FA93EA93E0E01F
:10566A00F1E0FA93EA93E0912F05F0913005FA936D
:10567A00EA930895D9DFE050FF4F6F4F7F4FE093D1
:10568A002F05F09330056093310570933205089524
:10569A000E94ED07E8EBF2E093CE0E942113E5E4C5
:1056AA00E0938C0291CEE091B302F0E0FA93EA9390
:1056BA00EDE8F2E0FA93EA930E94CF2685CEEDE870
:1056CA00F2E0FA93EA9308950E940B277DCEEAEB63
:1056DA00F2E0FA93EA930E941A2776CEFA93EA93B3
:1056EA000E941A270E94471AE0300895EA83FB8332
:1056FA006C837D830895EA81FB816C817D810895A5
:10570A00E091AD02F091AE020895EA930E941F0F54
:10571A00EF700895EA930E941F0FE295E07F0895C3
:10572A00E4E0F0E0FA93EA931A930A930895EE817B
:10573A00FF81688579850895EF5FFF4F6F4F7F4F2F
:10574A000E94BB2F0895E8E0F0E0FA93EA930E94E2
:10575A00971AE0300895E3EAF7E0FA93EA93E0CF84
:10576A00E295EF70EA930C94370F0E941C0FEA93AC
:10577A000C941F0F5E2FE295E07F0895EA0F5E2FCB
:10578A00450F0895EF83F88769877A870895AF816F
:10579A00B88589859A8508950E94072F0E94912EBF
:1057AA000895662777270E94912E0895E093A70708
:1057BA00F093A8076093A9077093AA07D6CFEA0FB8
:1057CA005E2F450F40300895EDE5F3E0DCCDECE6C1
:1057DA00F3E0D9CDEA0F5E2F450FC7CF1A930A938C
:1057EA000E94ED07E1E4EA930E94D50EEB81EA9369
:1057FA000E94D50EEA81EA930E94D50E0E94BC0649
:10580A0000E010E00895E0912303F0912403A091B1
:10581A008202B0918302AE17BF070895F801AE81E4
:10582A00BF81AE0FBF1FEC9108950E94D50E0C9454
:10583A00BC063196FA93EA930C94180FEA2B1E2FA2
:10584A00E981FA810895EA930E94D50E1A93EDCF61
:10585A003296FA93EA930C94180F3396FA93EA93D2
:10586A000C94180FEA81FB81E4CFEA81FB81F0CF27
:10587A00EA81FB81F2CFEC81FD81FA93EA930895E4
:10588A00E091AE07EA930E94AC18E0E00895EFE5D4
:10589A00F5E0FA93EA930895E0E0F2E0FA93EA93E6
:1058AA00EFE5F7E0FA93EA930E948121E093AE07CD
:1058BA00E0300895E0915F07F09160070895EDE602
:1058CA00F4E0FA93EA930C943E27A00FB11FEC91EF
:1058DA00EE0F0E2E0895A00FB11FEC91EE1FE0E01F
:1058EA00EE1FE029DB01EC93D8010895E3DF0E17E0
:1058FA001F070895F801E15AFA4FBF01AFE5B5E075
:10590A00E4CFE0E0F0E060E070E00E94BB2F0E948C
:10591A007C23E093AE07E0300895CCDFA0917B07AB
:10592A00B0917C0780917D0790917E073ACFD1DCB8
:10593A00E0E0E0936107E0936207E1E00895FA93FB
:10594A00EA93EFE5F7E0FA93EA930E948121E09364
:10595A00AE070895F801AC81BD81AE0FBF1FEC916F
:10596A0008950E94A72FEF5FFF4F6F4F7F4F0E944E
:10597A00B12F08951A930A9300E010E00895EE817A
:10598A00FF81FA93EA930895EC81FD813196EC83C5
:10599A00FD830895EFE5F7E0FA93EA930E946E22F9
:1059AA00E093AE07E0300895EA93E0E0F0E060E0CB
:1059BA0070E00E94BB2F0C94F31AEA930E94E01A3B
:1059CA00AA81BB818C819D810895E0E0F0E060E0CE
:1059DA0070E00E94BB2F08950E94BB2F0C94F31A0B
:1059EA00E12FF0E0DE011696EA0FFB1F0895E0E0D2
:1059FA00F2E060E070E00895E885F9856A857B85C4
:105A0A000895A0E0B2E080E090E00E94162F089589
:105A1A00E887F9876A877B870895E985FA856B8520
:105A2A007C850895EC81FD816E817F810895E091E6
:105A3A00B207F091B3070895AC85BD858E859F8521
:105A4A000895A230E0E0BE07E0E08E07E0E09E079E
:105A5A000895FE013896FA93EA93E885F985A485B4
:105A6A00B58586859785F9019CCEE2E0F0E0FA9348
:105A7A00EA930E94D21BE0300895FA93EA93E885EC
:105A8A00F985A485B585868597850895AE85BF85F0
:105A9A008889998908950E94912E0E94BB2FEA89CC
:105AAA00FB890895FA93EA93E0CFFA93EA930E9466
:105ABA00D21BE03008951A930A930091B20710910D
:105ACA00B3070895AA81BB818C819D810895E0E086
