:0E0000000C94CE040C9400000C9400000C94A0
:10000E0000000C9400000C9400000C9400000C9462
:10001E0000000C9400000C9400000C9400000C9452
:10002E0000000C9400000C9400000C9471140C94BD
:10003E0000000C9400000C9400000C9400050C942D
:10004E0000000C9432050C9400000C9400000C94EB
:10005E0000000C9400000C9400000C9400000C9412
:10006E0000000C9400000C9400000C9400000C9402
:10007E0000000C9400000C9400000C94000013FF80
:10008E00207F287F30FF34FF387F48FF4CFF51FF21
:10009E0055FF56FF68FF6CFF86FF87FF3A204140F1
:1000AE00438045605E10604062406440692072404B
:1000BE00744076207840000041565220495350003B
:1000CE00E006E106ED06F806050710071B072B07ED
:1000DE0035073E0750076307740783079407A40785
:1000EE0020222A2B2C5B3D5D7C7F0000000000004F
:1000FE0073746172740D00000D0A5265626F6F7435
:10010E00696E6720746F20626F6F746C61646572C4
:10011E002E2E2E004572726F7220000042616420F6
:10012E0068657820646967697421000D0A646562E8
:10013E0075673D2564000D0A636869706E616D65B3
:10014E00203D202573000D0A63686970636F646536
:10015E00203D2030782578000D0A7369676E617432
:10016E00757265203D20253032782025303278207A
:10017E0025303278000D0A70726F6766757365737D
:10018E00203D20253032782025303278202530321F
:10019E00782025303278000D0A6E6F726D66757399
:1001AE006573203D20253032782025303278202589
:1001BE003032782025303278000D0A6D61736B660F
:1001CE0075736573203D20253032782025303278C6
:1001DE0020253032782025303278000D0A63686988
:1001EE007073697A65203D20256C75000D0A70616B
:1001FE00676573697A65203D202575000D0A537475
:10020E0061727420666C617368696E672066726FC6
:10021E006D20666C6173682E2E2E0D0A0064656269
:10022E0075670068657866696C6500636869706EED
:10023E00616D650063686970636F646500736967FB
:10024E006E61747572650070726F67667573657333
:10025E00006E6F726D6675736573006D61736B669C
:10026E0075736573006368697073697A6500706190
:10027E00676573697A6500466C6173685374617261
:10028E007441646472427974650045000D0A5374BA
:10029E00617274696E672050726F6772616D204D66
:1002AE006F64652E2E2E200050004641494C0020D2
:1002BE004F4B2E000D0A5461726765742073696787
:1002CE006E61747572652069733A2025303278201C
:1002DE0025303278202530327800207461726765BF
:1002EE0074206E6F7420636F6E6E65637465640D3B
:1002FE000A000D0A52656164696E67207369676E44
:10030E0061747572653A204F4B2E000D0A4572616D
:10031E0073696E6720706C656173652077616974AF
:10032E002E2E2E2000446F6E652E000D0A50726F19
:10033E006772616D204675736573206661696C0026
:10034E000D0A4661696C656420746F20766572696A
:10035E006679206675736573000D0A50726F677249
:10036E00616D2046757365732056657269666965A1
:10037E0064204F4B2E000D0A5365744465765479F4
:10038E007065204641494C000D0A53657441646402
:10039E0072204641494C000D0A466C61736820700C
:1003AE00726F6772616D6D696E67000D0A466C61E2
:1003BE0073682070726F6772616D6D696E6720660B
:1003CE0061696C65640020446F6E652E000D0A4EE7
:1003DE006F726D616C204675736573206661696C12
:1003EE00000D0A4E6F726D616C2066757365732019
:1003FE0077726974696E6720646F6E652E000D0AE0
:10040E005665726966696E6720666C6173682E2E1A
:10041E002E000D0A4661696C656420746F20766546
:10042E0072696679206368697000446F6E652E0D7F
:10043E000A466C6173682076657269666965642028
:10044E00636F72726563746C7920212121000D0A2D
:10045E004E6F726D616C2066757365732076657272
:10046E00696669656420636F72726563746C792066
:10047E00212121000D0A4C656176696E672070722C
:10048E006F6772616D6D696E67206D6F64652E2E7C
:10049E002E2000204F4B2E0A000D0A466C61736809
:1004AE00696E672066726F6D20736463617264207B
:1004BE004661696C65642E0D0A000D0A466C617307
:1004CE0068696E672066726F6D2073646361726413
:1004DE00205061737365642E0D0A004261642063BF
:1004EE006865636B73756D3A20004E6F20656E64A0
:1004FE00206F66206C696E65004E6F20636F6C6FA7
:10050E006E00766572696669636174696F6E2065E7
:10051E0072726F72206174206164647265737320ED
:10052E003078002053686F756C64206265203078D7
:10053E0000206E6F742030780052000D0A536574DF
:10054E0074696E67206675736573000D0A202053FB
:10055E006574204C6F636B204675736520746F3A1B
:10056E0020307825303278000D0A20205365742013
:10057E004C6F7720467573657320746F3A20307810
:10058E0025303278000D0A202053657420486967A3
:10059E0068204675736520746F3A203078253032A6
:1005AE0078000D0A20205365742045787420467516
:1005BE00736520746F3A20307825303278000D0A3A
:1005CE00566572696679696E672066757365732EF6
:1005DE002E2E0051000D0A20204C6F636B204675A5
:1005EE0073652057726974656E3A20307825303203
:1005FE0078000D0A20204C6F636B204675736520C2
:10060E005265616465643A20307825303278004650
:10061E00000D0A20204C6F772046757365205772A7
:10062E006974656E3A20307825303278000D0A20D4
:10063E00204C6F7720467573652052656164656442
:10064E003A20307825303278004E000D0A202048AE
:10065E0069676820467573652057726974656E3ACE
:10066E0020307825303278000D0A202048696768DE
:10067E002046757365205265616465643A20307852
:10068E0025303278004F000D0A2020457874204620
:10069E007573652057726974656E3A20307825300F
:1006AE003278000D0A202045787420467573652037
:1006BE005265616465643A203078253032780000E6
:1006CE00303A2F31302F66696C65313233342E74E7
:1006DE0078740046525F4449534B5F455252004670
:1006EE00525F494E545F4552520046525F4E4F5430
:1006FE005F52454144590046525F4E4F5F46494C4A
:10070E00450046525F4E4F5F504154480046525F7F
:10071E00494E56414C49445F4E414D450046525F4D
:10072E0044454E4945440046525F4558495354008E
:10073E0046525F494E56414C49445F4F424A4543EB
:10074E00540046525F57524954455F50524F5445DC
:10075E00435445440046525F494E56414C49445F0E
:10076E0044524956450046525F4E4F545F454E41E6
:10077E00424C45440046525F4E4F5F46494C4553EE
:10078E00595354454D0046525F4D4B46535F4142BF
:10079E004F525445440046525F54494D454F5554AF
:1007AE00000D0A4552524F522025643A2025700002
:1007BE004469736B20696E6974206661696C656447
:1007CE000043617264206E6F742070726573656E83
:1007DE007400436172642077726974650A70726F77
:1007EE00746563746564004C6F676963616C206443
:1007FE007269766520303A206D6F756E746564206F
:10080E004F4B0D0A00303A2F312F70726F6A6563AD
:10081E00742E747874000D0A46696C652025732059
:10082E006F70656E6564204F4B2E000D0A25732088
:10083E006B6579206E6F7420666F756E642E000D79
:10084E000A46696C6520257320636C6F736564209E
:10085E004F4B2E0001004641540001002D4E414EDB
:10086E0000494E46000001000200FA000700000396
:10087E00FE0001000B00FC001C0007030601070030
:10088E00230322010F002A032A011C0039039A02B6
:10089E0005005503B80218005A03E802150072034A
:1008AE003903190087034E031200A00384030F00BF
:1008BE00B20396030700C103D4031400C803DB037D
:1008CE001800DC0320041900F4034E031F000D046E
:1008DE00820406002C04A1040F003204E9040F0068
:1008EE004104F8040F005004F8040F005F04E904FB
:1008FE000F006E04F8040F007D04F8040F008C0442
:10090E00E9040F009B04F8040F00AA04F804090080
:10091E00B90407050F00C204E9040F00D104F8045E
:10092E000F00E004F8040F00EF04E9040F00FE04CA
:10093E00F8040F000D05F80421001C0510050E002B
:10094E003D05310508004B053F05210053051005F7
:10095E000E0074053105080082053F050F008A055B
:10096E00E9040F009905F8040F00A805F80410001B
:10097E00B70549051200140CCE060100270C6208BB
:10098E000300310C64080100350C68080000F8946F
:10099E00EE27ECBBF1E0F5BFE5BFE0936C00F8E1AC
:1009AE00F1BDE1BD8DE0A2E0BB27ED938A95E9F79D
:1009BE0080E090E1A0E0B1E0ED930197E9F7E4E784
:1009CE00F8E085919591009761F0A591B59105900C
:1009DE001590BF01F00105900D920197E1F7FB0113
:1009EE00F0CFEFEFEDBFE0E1EEBFC0E0D3E00C944F
:1009FE006305EA93FA93EFB7EA931A930A931BB13E
:100A0E000CB1E12FEC7189F4E52D5394F0E0ED5922
:100A1E00F74F0083E8E0E51509F455247394E8E0F8
:100A2E00E71519F47724689420F80991199125C0D7
:100A3E001A937720F1F3E42D4394F0E0ED59F74F3C
:100A4E001081E8E0E41509F44424F8947A9478943B
:100A5E00E12F19910895EA93FA93EFB7EA9388205C
:100A6E0061F08A94E92D9394F0E0E559F74FE08117
:100A7E00ECB9E8E0E91509F49924E991EFBFF99191
:100A8E00E9911895E8E0E815E9F3F894882011F457
:100A9E005D990DC0E62D6394F0E0E559F74FA881FE
:100AAE00A083E8E0E61509F46624839402C0E88189
:100ABE00ECB9789421960895E0E0EBBBEABBE8BB75
:100ACE00E7BBE5BBE4BBE2BBE1BBE3BFE2BFE1BF1B
:100ADE00EFBDEEBDEDBDECBDE7BDE6BDEBBDEABDC8
:100AEE00E9BDE8BDE0BFE5BDE4BDE3BDE5BFE4BFE4
:100AFE00E7BFEBB9E8EDEAB9E6E0E0939500E0E098
:100B0E00E0939000ECE0E9B9E0E8E8B9E0E0E0BDA0
:100B1E00E6B9EDB9E093740066D07894E0E0F3E0C6
:100B2E000E94C329772041F0772029F081DFEA93D4
:100B3E000E94480BF9CF70D0B2D108D0E03021F02E
:100B4E00969A0E94040D9698EDCFFFCF1A93819B33
:100B5E0003C0E1E0EB1509F00EC010E01E3138F4D1
:100B6E00819903C0E0E00C94260A1F5FF7CFBB24E7
:100B7E00E0E00C94260AE0E0EB1521F4A091C70505
:100B8E00A33009F412C010E01E3138F4819B03C06B
:100B9E00E0E00C94260A1F5FF7CFE1E0BE2EE3E003
:100BAE00E093C705E1E00C94260AE0E00C94260AD7
:100BBE001A9375D15ED510E00E94C7290E9495291F
:100BCE00A12FB0E0AE17BF0758F4E12FA981BA816B
:100BDE00F0E0EA0FFB1FE491EA9353D51F5FECCFD1
:100BEE001BD01881D0C1E4B3E06EE4BBE5B3EF7166
:100BFE00E5BBC49ABC98C09AB89AE0E0EEB9E0930F
:100C0E004B06E0934C060E94CC29E0937A0831D52E
:100C1E009CD18998919A0895E0E0E0934906E0937B
:100C2E004A06E0918D08E13010F40C941307E09120
:100C3E005206E13049F4E0915106E13011F4D6D478
:100C4E00F0CFE0E0E0935206E0917A08E03019F43C
:100C5E0085D1E0937908E0917908F0E0EB31A0E0DE
:100C6E00FA0709F4D4C0E035A0E0FA0711F494D1E4
:100C7E00CEC0E136A0E0FA0711F409D4C8C0E134C1
:100C8E00A0E0FA0711F406D4C2C0E335A0E0FA07DB
:100C9E0011F4E1D3BCC0E635A0E0FA0711F4EDD3B0
:100CAE00B6C0E637A0E0FA0711F4ECD3B0C0E037D7
:100CBE00A0E0FA0711F4ECD3AAC0E435A0E0FA07DD
:100CCE0011F4B6D1A4C0E437A0E0FA0711F4A2D112
:100CDE009EC0E837A0E0FA0711F4E0D198C0E937DA
:100CEE00A0E0FA0711F4E0D192C0EA33A0E0FA07CF
:100CFE0011F4E0D18CC0EE32A0E0FA0711F4F2D17B
:100D0E0086C0E236A0E0FA0711F49DD380C0E53626
:100D1E00A0E0FA0711F4D2D27AC0E534A0E0FA07C7
:100D2E0011F47BD074C0EC34A0E0FA0711F489D32F
:100D3E006EC0EC36A0E0FA0711F4D9D268C0E636E0
:100D4E00A0E0FA0711F4F7D262C0E135A0E0FA078D
:100D5E0011F436D35CC0E634A0E0FA0711F424D3C4
:100D6E0056C0EE36A0E0FA0711F4F8D250C0EE34B9
:100D7E00A0E0FA0711F430D34AC0EF36A0E0FA072C
:100D8E0011F4FFD244C0EF34A0E0FA0711F431D3CE
:100D9E003EC0E337A0E0FA0711F43BD338C0E43687
:100DAE00A0E0FA0711F471D232C0E736A0E0FA07DC
:100DBE0011F48BD32CC0E234A0E0FA0711F4D2D395
:100DCE0026C0E235A0E0FA0731F4E8E2EA93E0E269
:100DDE00EA932AD21CC0E336A0E0FA0711F4CAD176
:100DEE0016C0E334A0E0FA0711F4CAD110C0ED36F4
:100DFE00A0E0FA0719F4F9D1EDE007C0E434A0E061
:100E0E00FA0711F4C3D103C0EFE3EA93A9D0E0913E
:100E1E007A08E13009F005CF0895A895E8E1E1BD23
:100E2E00EFE0E1BDE7E0F3E00E94C3290895E09111
:100E3E004906F0E0E753FA4FA881B981ED93FC9390
:100E4E00A0914A06BB27E0914906F0E00E94693066
:100E5E00EA1BFB0B22960895E0E0E0934A06E0932E
:100E6E0049060895E881A0914906EA0FE0934906E4
:100E7E00E0914A06A0914906EA1779F4E0E0E09382
:100E8E004A06E0934906E0915206E13021F4E091E2
:100E9E005106E03009F001C041D30C94BC0B0E9406
:100EAE00BB30EDB7FEB73197FA93EA931F930F93CA
:100EBE00BEDF0F911F913E2FE13078F03A93D2DFD3
:100ECE00E32F3150E03041F0D8010F5F1F4FEC910E
:100EDE00EA930E944905F4CFE4CF0E94C2302496D3
:100EEE0008951A932197E0E0E88310E01830D8F4C3
:100EFE00EA81E07811F0C59A01C0C598EA81EE0F3B
:100F0E00EA83E881EE0FE883B49B03C0E881EF5FCC
:100F1E00E883C79A84E08A95F1F7C79884E08A95AA
:100F2E00F1F71F5FE3CFE881219618810C94140C22
:100F3E00E7B3E06EE7BBC49AE1E5EDB9E2E0EA158E
:100F4E0011F4C69A01C0C6980895E0E0EDB9E7B372
:100F5E00EF70E7BBE8B3EF70E8BB0895ADD308952B
:100F6E00A0914A06A03858F4E0914A06EF5FE0934C
:100F7E004A060E94D029E753FA4FA881A0830C9409
:100F8E00BC0B0E94D32923960895EB81EA93A9DF27
:100F9E000E94D3290C94310C0E94BB3010E03DE02E
:100FAE00AF9AAE9AA2E0AA1641F4CFDFC1DF0E943B
:100FBE00DF290E94E52911E023C0C7DFB9DF0E94B7
:100FCE00ED2900E00032C0F421970E94E529E88364
:100FDE00E0E0EA9386DFE881E33519F411E021962B
:100FEE000BC0C79A88EC8A95F1F7C79888EC8A955A
:100FFE00F1F721960F5FE6CF103011F4A6DF3FE335
:10100E00103021F03A93ACDFAE98AF980E94C23008
:10101E000C94310C1A930A9300E00E94F329E457C2
:10102E00FF4F14911A939CDF0E5F1030B1F722C25E
:10103E000E94BB300FE330E00E94F62921F40E949B
:10104E00C2300C94310C8ADF2E2F0E94FE29E491BF
:10105E001E2FE030E9F01217C9F40E94FE29D49039
:10106E000E94032AE357FF4FC4900DE0AFE7AD1582
:10107E0018F4E2E0AE2E0AC0EFE7EC1519F0EFEF30
:10108E00EC1519F4E1E0AE2E01C0AA243E5FDDCFCF
:10109E000A9366DF0E94C2300C94310C0E94F6292E
:1010AE0009F408955BDF0DC20E94F62909F4089534
:1010BE0055DF07C20E94BB300E94062A21F40E940F
:1010CE00C2300C94310C0E940E2A1A930A933A9352
:1010DE000E941A2A0E941E2AAF98AE980E94C23011
:1010EE000C94310C0E94BB300E94262A21F40E94DF
:1010FE00C2300C94310C0E940E2A30DF2E2F1A9320
:10110E000A933A932A9341DF0E941E2AAF98AE9813
:10111E000E94C2300C94310C1A930E942E2AE2E0E7
:10112E00EA1539F40E94332AE2600E94432A29DF2D
:10113E0004C0E0E40E94492A28DFE0E2EA931A9311
:10114E002BD0A2E0AA1611F40E944E2AAE9877C1B7
:10115E001A93A2E0AA1669F00E942E2AE8E40E94D1
:10116E00492A13DFE8E2EA931A9316D00E944E2A18
:10117E00AE9865C10E94F62909F40895CDDFA1C18C
:10118E000E94F62909F40895E3DF9BC10E94F62917
:10119E0009F4089561D095C1EC2DEF7021F1E8812D
:1011AE00EC1519F40E94DF291EC02197EFEFE8839A
:1011BE00A2E0AA1641F40E94332A0E94562AA9815F
:1011CE00EA1759F006C0EA810E945F2AA981EA1740
:1011DE0021F0E881E150E88359F7E881E03011F41D
:1011EE000E94DF2921960C94140CAA20E1F4229778
:1011FE00E0914B06F0914C06E883F983E09152069C
:10120E00E13029F4E881F9813197E883F983ECE440
:10121E00EA93EA81F070EA93EA81EA930E941A2A2D
:10122E000E94DF2922960895AF9AA2E0AA1649F0ED
:10123E00E9810E945F2AEA9393DEE8810E945F2A89
:10124E0004C00E94332A0E94562AEA9389DE0E9425
:10125E004E2AAF980C94140C1A930E942E2AA2E0D8
:10126E00AA1629F0E0EC0E94492A8FDE08C0A6E8F3
:10127E00DA1629F40E94332AE6600E94682A0E9438
:10128E00DF290E944E2AAE98DAC0AF9AA2E0AA16C3
:10129E0021F0E0EA0E945F2A0CC0A6E8DA1659F4A3
:1012AE00E0914C06F070EE0FEE0FEE0FE5600E942F
:1012BE00682AEA9355DE0E944E2AA9C0AE9AE2E051
:1012CE00EA1541F4ECEAEA93E4E0EA93E0E0EA930B
:1012DE0058DE06C0ECEAEA93E0E80E94702A55DE7A
:1012EE000E94ED29EDE0EA933BDEAE9808951A9345
:1012FE000E94F62909F4A3C00E942E2AE2E0EA1504
:10130E0051F4ECEAEA93E12FE07EE760EA93E0E045
:10131E00EA9337DE09C0ECEAEA93E12FE96FEA932C
:10132E00E0E0EA931A9331DE0E94DF29EDE0EA93C2
:10133E0017DEAE9884C00E94752A09F49BC00E94E5
:10134E00782A11F41FE305C0ECEAEA93E0EA0E9462
:10135E00802A0E94DF290E94862A8CC00E94752A4C
:10136E0009F488C00E94782A11F41FE305C0ECEA44
:10137E00EA93E8EA0E94802A0E94DF290E94862AC8
:10138E0079C00E94752A09F475C00E94782A11F45A
:10139E001FE305C0ECEAEA93E4EA0E94802A0E9469
:1013AE00DF290E94862A66C0AF9AE2E0EA1511F4A0
:1013BE00EFE305C0E0E50E94702A0E941A2A25C0BC
:1013CE00AF9AE2E0EA1511F4EFE305C0E8E50E94FA
:1013DE00702A0E941A2A19C0AF9AE2E0EA1511F497
:1013EE00EFE306C0E8E5EA93E8E00E94702ACDDD5F
:1013FE000CC0AF9AE2E0EA1511F4EFE306C0E0E5A7
:10140E00EA93E8E00E94702AC0DDEA93A9DDAF9866
:10141E0008951A93AF9A12E0E2E0EA1511F4EFEF95
:10142E0007C0E0E3EA93E0E0EA931A930E941A2AD7
:10143E00EA9396DDE12F1150E03071F7AF981991D4
:10144E00089583DD3EC0E9E5EA938ADDE0E0EA93A4
:10145E0087DDE0E837C01A930A9306EC10E0F80136
:10146E00E491E03039F0F8010F5F1F4FE491EA93F9
:10147E0077DDF5CF099119910895E5E5EA9370DDD1
:10148E00E2E320C0E0E3EA936BDDE2E31BC019C0A8
:10149E00E3E518C0E2E0EA932ED1E0917A08E1305C
:1014AE0009F408955BDDFE2FE0E0FF93EF9356DD28
:1014BE00F0E0AF91BF91EA2BFB2BE0934B06F0933C
:1014CE004C06EDE0EA934CDD08951A930A930E94C0
:1014DE00062A11F40C94670F0E948B2AF12FE0E07C
:1014EE00DF010E94F329EA2BFB2B662777270E9448
:1014FE00922A34DDE0937708E0E0E0935106E1E0D4
:10150E00E0935206A2E0AA1631F0E0917708E63495
:10151E0011F40E949B2A02D00C94670FE091770879
:10152E00E63491F4A0914A06A03868F4E0E2EA931A
:10153E00E8E2EA9379DE0E94A62A21F4E0E0E09345
:10154E00520601C0EFCF0DC0A0914A06A03848F454
:10155E009CDE0E94A62A21F4E0E0E093520601C030
:10156E00F3CF08950E94BB3031E00E94262A61F429
:10157E00E3E0EA93C0D030E0E0917A08E13021F464
:10158E000E94C2300C94310C303011F0E7DC3E2F4B
:10159E000E948B2A0E94032A0E94C12F0E94BC2FF8
:1015AE00DF01CB01F12FE0E00E94B22ADF01CB0177
:1015BE000E94F3290E94B22A0E94922ACFDCE09365
:1015CE007708E1E0E0935206E0935106E0E0E09305
:1015DE007808A2E0AA1631F0E0917708E63411F40B
:1015EE000E949B2A0E94C2300C94310CE091770825
:1015FE00E53441F4E0918D08E13020F02DDE0E94BB
:10160E00B72AF8CFE0917708E634C1F4E0918D085F
:10161E00E130A0F081DD9CDD0E94B72AAA2069F49A
:10162E00E0917808EF5FE0937808A0917808CA16E9
:10163E0021F4DBDDE0E0E0937808E8CFE0914D06A1
:10164E00F0914E0660914F06709150060E94A530A3
:10165E0079F4E0917808E03029F0E0917708E634EB
:10166E0009F4C3DDE0E0E0935206EDE0EA9378DCA6
:10167E000895E0E0E0938C08E0938B08E0938D08EA
:10168E000895E0918D08E031A8F4E0918B08EF5FAA
:10169E00E0938B080E94D029E558F74FA881A083CC
:1016AE00E0918B08EF70E0938B08E0918D08EF5F6F
:1016BE00E0938D080C94BC0BE0918D08E130C8F0DE
:1016CE002197E0918C08EF5FE0938C080E94D0295F
:1016DE00E558F74FE081E883E0918C08EF70E093D6
:1016EE008C08E0918D08E150E0938D08E8810C9410
:1016FE00BC0BE0E00895E0918D08A881EA1710F484
:10170E00E1E001C0E0E0E0937A080C94BC0BE3E268
:10171E00F3E00E94C329E881F9810E94C3297DC0AC
:10172E00A881B981EC9179C0AEEBB9E00E94C52ACF
:10173E003197E4910895A881A03310F0AA3308F0F0
:10174E0004C00E94CB2AF09710C0A881A13410F0DB
:10175E00A73408F006C00E94CB2AE154F040E65FA1
:10176E0004C0EAE2F3E00E94CE2A21960895A881F1
:10177E00B981EC91EA93DFDFE295E07FEF93E881A8
:10178E00F981A181AA93D7DFAF91EA2B46C01A93B4
:10179E0010E0E9811E17B8F4E12FAA81BB81F0E0B9
:1017AE00EA0FFB1FFF93EF93E2E0E19FF001AC81A4
:1017BE00BD81EA0FFB1F0E94D22AAF91BF910E94FA
:1017CE0094301F5FE6CF1881EEC0E881F9810E9448
:1017DE00D22AFE2FE0E0FF93EF93E881F981329653
:1017EE000E94D22AF0E0AF91BF91EA2BFB2B15C0DD
:1017FE00E881F9810E94D62A0E94BC2F7F936F93B5
:10180E00FF93EF93E881F98134960E94D62AAF9127
:10181E00BF918F919F910E946D2F22960895A8815E
:10182E00B981EC91E03039F0AA81BB810E949430ED
:10183E000E94DD2AF4CF0EC0A881B9810E947830B3
:10184E00E03041F00E947830AA81BB81EC930E9477
:10185E00DD2AF2CF24960895E881E030A9F0A9811F
:10186E00BA810E947830AB81BC81EC93EB81FC8114
:10187E003196EB83FC83E981FA813196E983FA8311
:10188E00E881E150E883E8CF25960895E9E3F1E099
:10189E00FA93EA93E091C8050E94E82AE4E4F1E0A5
:1018AE00FA93EA93EEE8F8E00E94F22AE4E5F1E01A
:1018BE00FA93EA93E091B3080E94E82AE6E6F1E093
:1018CE00FA93EA93E0919A080E94FB2AE0919B0812
:1018DE000E94FB2AE0919C080E94FB2A8CE00E9449
:1018EE005D292E96E3E8F1E0FA93EA93E091A708DA
:1018FE000E94FB2AE091A8080E94FB2AE091A90809
:10190E000E94FB2AE091AA080E94FB2A0E94012B4A
:10191E00E5EAF1E0FA93EA93E091AB080E94FB2A24
:10192E00E091AC080E94FB2AE091AD080E94FB2AD0
:10193E00E091AE080E94FB2A0E94012BE7ECF1E039
:10194E00FA93EA93E091AF080E94FB2AE091B00867
:10195E000E94FB2AE091B1080E94FB2AE091B20896
:10196E000E94FB2A0E94012BE9EEF1E0FA93EA9322
:10197E000E94062B0E94593084E00E945D29269613
:10198E00EAEFF1E00E940F2B0E94F22AE9EEF1E05D
:10199E00FA93EA93AAE4B0E00E9470300E945930A4
:1019AE0084E00E945D2926960895EEE8F8E0FA9309
:1019BE00EA93E8E2F0E0FA93EA933EDFA4E3B0E0C4
:1019CE000E947830E093B308EAE9F8E0FA93EA93DC
:1019DE000E94162B41DF0E941D2B0E94222B3CDF02
:1019EE00EBEAF8E0FA93EA930E94292B35DF0E9486
:1019FE00302B0E94352B30DF08951A930A93E3E0C3
:101A0E00E093C705EAE0F2E00E943C2BAD980E94FD
:101A1E00B2140E94DC14E03051F4AFE4B0E00E9446
:101A2E007830E03009F42EC2C0DF30DFA0C0EBE228
:101A3E00F2E00E94432B09F425C2E0E5F0E0FF93AB
:101A4E00EF931A930A9393DEAF91BF910E94943055
:101A5E00E1E3F2E00E94432B09F414C2EAE0F0E065
:101A6E000E944A2BE9E3F2E00E94432B09F40AC2DA
:101A7E00E8E2F0E00E944A2BE2E4F2E00E94432BFF
:101A8E0009F400C2E4E3F0E0FF93EF931A930A9394
:101A9E006EDEAF91BF910E949430EBE4F2E00E94B3
:101AAE00432B09F4EFC11A930A930E94162B6FDE93
:101ABE00E5E5F2E00E94432B09F4E4C11A930A9380
:101ACE000E94222B64DEEFE5F2E00E94432B09F424
:101ADE00D9C11A930A930E94292B59DEE9E6F2E046
:101AEE000E94432B09F4CEC11A930A930E94352B00
:101AFE004EDEE3E7F2E00E94432B09F4C3C1E4E4B7
:101B0E00F0E0FF93EF931A930A9372DEAF91BF91B9
:101B1E000E948430ECE7F2E00E94432B09F4B2C13C
:101B2E00E8E4F0E0FF93EF931A930A934EDEAF9141
:101B3E00BF910E948C30E5E8F2E00E94432B09F43D
:101B4E00A1C1EAE4F0E0FF93EF931A930A9350DEFB
:101B5E00AF91BF910E948430AFE4B0E0E0E00E940C
:101B6E00943023DF93DEE8E9F2E00E94502B0E94CE
:101B7E00400BE0E0E093B409E093B509E093510621
:101B8E000E94CC290E94542BE0E0E093BD09E09323
:101B9E009D08E0939E08E0939F08E093A008E9E378
:101BAE00F3E00E94C3290E945D2BA091C905AD30C0
:101BBE0029F0E5E5F3E00E94C32964C1EDEBF2E004
:101BCE000E943C2BE2E5F1E00E94502BE2ECF2E0A9
:101BDE00FA93EA93E091CB050E94FB2AE091CA05A5
:101BEE000E94FB2AE091C9050E94FB2A8CE00E940C
:101BFE005D292E96A0919B08E091CA05EA1731F453
:101C0E00A0919C08E091C905EA1729F0EAE5F3E0F6
:101C1E000E94C32937C1E0E0F3E00E943C2B0E94F2
:101C2E005607E9E1F3E00E943C2BE7E3F2E00E9465
:101C3E00502BE3E3F3E00E943C2B0E9433070E94FB
:101C4E001D2B0E94302B2DD5E03029F4E2E7F3E076
:101C5E000E94CE2A17C10E941D2B0E94302B93D5B5
:101C6E00E03029F4E7E8F3E00E94CE2A0BC1E7E664
:101C7E00F3E00E943C2B0E9433070E94602B0E94CF
:101C8E005D2B0E945607E4E5EA930E94480BE09113
:101C9E00B3080E94632B29F0E0EAF3E00E94C32907
:101CAE00F1C00E945607E1E4EA930E94480BE0E07F
:101CBE00EA930E94480BE0E00E94632B29F0E2EBCE
:101CCE00F3E00E94C329DEC00E945607E2E4EA93C5
:101CDE000E94480B0E94062B0E94B72FEA930E9487
:101CEE00480BA091A108B091A2088091A3089091F1
:101CFE00A408E8E00E94862FEA930E94480BE09128
:101D0E00A108EA930E94480BE6E4EA930E946C2B2A
:101D1E00E5EAF3E00E943C2B0E94702B0E94062BFA
:101D2E000E94792B0E94B43010F00C94000FE091B9
:101D3E009D08F0919E0860919F087091A0080E94E6
:101D4E0059300E94822BFA93EA93E4EBF8E0FA936F
:101D5E00EA93B9D0E03029F4E9EBF3E00E943C2B92
:101D6E0091C0E091BD09E03079F4E4EBF8E00E9417
:101D7E000F2BFA93EA931DD2E03029F4E9EBF3E04E
:101D8E000E943C2B7FC024C00E94872B0E945E2F96
:101D9E00FD01BC010E94AD2FE0934B06F0934C0663
:101DAE000E94822BF695E795A0914D06B0914E06B6
:101DBE0080914F0690915006662777270E94682FD4
:101DCE00A0934D06B0934E0680934F069093500607
:101DDE00E091B509E03069F40E94872B0E94592FDB
:101DEE00E0939D08F0939E0860939F087093A0085F
:101DFE0095CFE1ECF3E00E94C329E0E0E093B40953
:101E0E00E09351060E94CC290E94542BEBEAF8E095
:101E1E00FA93EA930E94302B44D4E03029F4E8EC94
:101E2E00F3E00E94CE2A2EC0EFEEF3E00E943C2B90
:101E3E000E94602B0E945D2BECE0F4E00E943C2B94
:101E4E000E94702BDED1E03029F4ECEDF3E00E941D
:101E5E00CE2A18C0E8E3F4E00E943C2B0E941D2B12
:101E6E000E94302B90D4E03029F4E4EFF3E00E948E
:101E7E00CE2A08C0ECE5F4E00E943C2BE1E0E093B2
:101E8E00C705AD9A0E943307EDE0F4E00E94C32926
:101E9E000E94602BECE2F4E00E94C329A091C705DA
:101EAE00A13031F0E2E0E093C705E7EAF4E002C0CA
:101EBE00E8ECF4E0FA93EA9380E00E945D29229622
:101ECE0009911991089525970E94B93020E030E0CC
:101EDE0040E0E091BD09E030A1F400E010E0ED85B6
:101EEE00FE850E171F0750F4F801AB85BC85AE0FAB
:101EFE00BF1FEFEFEC930F5F1F4FF1CFE1E0E093C9
:101F0E00BD09E091B409E03011F00C9471100CDCB5
:101F1E00EA3309F049C10E948C2BEE83E295E07FF3
:101F2E00EF930E948C2BAF91EA0FEE834E810E94AD
:101F3E008C2B0E94912BEF930E948C2BAF910E94C1
:101F4E00962BFF27662777270E949B2B0E948C2BB0
:101F5E000E94912BEF930E948C2BAF91EA0F5E2F74
:101F6E00450F0E94A02BE8E00E947A2FDF01CB01E3
:101F7E00E52F0E94A52B0E94592F0E949B2B0E9499
:101F8E00A92B0E94A02B0E94592F0E949B2BED85FE
:101F9E00FE85AF85B88989899A890E94B22B0E94E5
:101FAE00A02B0E94B43010F0E1E0FFC00E948C2BF9
:101FBE000E94912BEF930E948C2BAF91EA0F5E2F14
:101FCE00450F513021F4E1E0E093B509EEC05230F7
:101FDE00C9F50E948C2B0E94912BEF930E948C2BA3
:101FEE00AF910E94962B0E94A52B0E94B72B0E94A8
:101FFE00912BEF930E948C2BAF910E94962B0E94F7
:10200E00A52B0E94C52B0E94912BEF930E948C2B27
:10201E00AF910E94DD2B29F0E2E3F4E00E94CE2A7C
:10202E00C3C082DBED3029F0E1E4F4E00E94CE2A59
:10203E00BBC07ADBEA3029F0E0E5F4E00E94CE2A5C
:10204E00B3C05FCF533011F00C946E100E948C2BE6
:10205E000E94912BEF930E948C2BAF910E94E22B4A
:10206E000E94912BEF930E948C2BAF910E94E22B3A
:10207E000E94912BEF930E948C2BAF910E94E22B2A
:10208E000E94912BEF930E948C2BAF910E94E22B1A
:10209E000E94912BEF930E948C2BAF910E94DD2B0F
:1020AE0029F0EFE5F4E00E94CE2A7EC03DDBED3054
:1020BE0029F0EEE6F4E00E94CE2A76C035DBEA3057
:1020CE0029F0EDE7F4E00E94CE2A6EC01ACF00E0B0
:1020DE0010E00BC00091BA0911274091BB09E091A5
:1020EE00BC09EE83E0E0E093B409E0E0E093BD09C3
:1020FE00EE81D801F0E0AE17BF0750F50E948C2B91
:10210E000E94912BEF930E948C2BAF91EA0F5E2FC2
:10211E00450FF901AB85BC85EA0FFB1F50832F5F7E
:10212E003F4FED85FE853197E217F30770F4E1E03E
:10213E00E093B409E02FEF5FE093BA094093BB0937
:10214E00EE81E093BC09E1E030C00F5F1F4FD0CFAE
:10215E00E091B409E03011F0E1E027C00E948C2B31
:10216E000E94912BEF930E948C2BAF910E94DD2B3E
:10217E0029F0ECE8F4E00E94CE2A16C0D5DAED3054
:10218E0029F0EBE9F4E00E94CE2A0EC0CDDAEA3057
:10219E0029F0EAEAF4E00E94CE2A06C0ED85FE851B
:1021AE00E217F30709F0ADCEE0E00E94C03063966F
:1021BE0008951A930A9300E010E0EA81FB81F695E8
:1021CE00E7950E171F07C0F40E943307A2E0A09FE9
:1021DE00F001A19FF00D0E94E62B0E94480BA2E099
:1021EE00A09FF001A19FF00D31960E94E62B0E9458
:1021FE006C2B0F5F1F4FE1CFE1E0198108810C942A
:10220E00961524970E94BB3030E08EDAEA3331F017
:10221E00E9EBF4E00E94CE2AE0E03FC20E948C2B54
:10222E001E2FE12FE295E07FEF930E948C2BAF9152
:10223E00EA0F1E2F312F0E948C2B0E94ED2BEF9355
:10224E000E948C2BAF91EA0F0E2F300FE02FFF273D
:10225E00662777270E94F22B0E948C2B0E94ED2B73
:10226E00EF930E948C2BAF91EA0F0E2F300F0E942E
:10227E00F72BE8E00E947A2FDF01CB010E94F329B1
:10228E000E94C12F0E94592F0E94F22B0E94A92B4F
:10229E000E94F72B0E94592F0E94F22B0E948C2B2A
:1022AE000E94ED2BEF930E948C2BAF91EA0F0E2F15
:1022BE00300F013009F4F0C1023011F00C94A61168
:1022CE000E948C2B0E94ED2BEF930E948C2BAF91D2
:1022DE00EA0F0E2F300F0E94F3290E94C12F0E9489
:1022EE00B72B0E94ED2BEF930E948C2BAF91EA0F30
:1022FE000E2F300F0E94F3290E94C12F0E94C52B72
:10230E000E94ED2BEF930E948C2BAF910E94FC2B21
:10231E0021F0E2ECF4E00E94CE2A06DAED3031F044
:10232E00E1EDF4E00E94CE2AE0E0B7C1FDD9EA303B
:10233E0029F0E0EEF4E00E94CE2AAEC166CF033063
:10234E0011F00C94EB110E948C2B0E94ED2BEF934D
:10235E000E948C2BAF910E94012C0E94ED2BEF93CB
:10236E000E948C2BAF910E94012C0E94ED2BEF93BB
:10237E000E948C2BAF910E94012C0E94ED2BEF93AB
:10238E000E948C2BAF910E94012C0E94ED2BEF939B
:10239E000E948C2BAF910E94FC2B21F0EFEEF4E00B
:1023AE000E94CE2AC1D9ED3031F0EEEFF4E00E945A
:1023BE00CE2AE0E072C1B8D9EA3029F0EDE0F5E0BE
:1023CE000E94CE2A69C121CF20E0211710F00C9473
:1023DE0011130E948C2B0E94ED2BEF930E948C2BDD
:1023EE00AF91EA0F0E2F300F0E94052CE17011F401
:1023FE000C947712E091C905E01711F40C94761243
:10240E00ECE1F5E00E94C3290E940A2C1E2E0E94C8
:10241E000A2C0E94142C18F40E941C2C02C00E943C
:10242E00212C0E94262C18F40E941C2C02C00E9403
:10243E00212C0E94362C0E943C2C18F40E941C2C3D
:10244E0002C00E94212C0E94362C0E943C2C18F4B3
:10245E000E941C2C02C00E94212C0E94422CEDE3F3
:10246E00F5E00E94C3290E94F3290E949B2FAE2FF4
:10247E000E94F3290E949B2F3A971CF4E0E3F0E0B0
:10248E0002C0E7E3F0E00E94422C0E94462C10F4BA
:10249E00E0E301C0E7E30E94422CEBE4F5E00E948A
:1024AE00C3290E944D2CAE2F0E944D2C3A971CF43E
:1024BE00E0E3F0E002C0E7E3F0E00E94422CE0919E
:1024CE00C905EF70AE2FE091C905EF70EA3010F438
:1024DE00E0E301C0E7E30E94422CE0E0DEC092C0E0
:1024EE000E943307E1E4EA930E94480B0E94F72B07
:1024FE00E9E00E94862FEA930E94480B0E94052C69
:10250E000E94AD2F0E94632B11F0E0E0C6C00E9426
:10251E003307E7E4F5E00E94502BE091CA05E0177F
:10252E0011F40C940913E3E5F5E00E94C3290E940F
:10253E000A2C1E2E0E940A2C0E94142C18F40E94A3
:10254E001C2C02C00E94212C0E94262C18F40E94E2
:10255E001C2C02C00E94212C0E94362C0E943C2C66
:10256E0018F40E941C2C02C00E94212C0E94362CB2
:10257E000E943C2C18F40E941C2C02C00E94212C9C
:10258E000E94422CE4E7F5E00E94C3290E94F32941
:10259E000E949B2FAE2F0E94F3290E949B2F3A97E9
:1025AE001CF4E0E3F0E002C0E7E3F0E00E94422C0E
:1025BE000E94462C10F4E0E301C0E7E30E94422C97
:1025CE00E2E8F5E00E94C3290E94532CAE2F0E9430
:1025DE00532C3A971CF4E0E3F0E002C0E7E3F0E09E
:1025EE000E94422CE091CA05EF70AE2FE091CA0511
:1025FE00EF70EA3010F4E0E301C0E7E30E94422CF2
:10260E00E0E04BC00E94052C0E94592C0E94F22B38
:10261E002F5FDBCE0E948C2B0E94ED2BEF930E943E
:10262E008C2BAF910E94FC2B21F1EAE8F5E00E9481
:10263E00CE2A0E94032A0E949B2FAE2F0E94032AAD
:10264E000E949B2F3A971CF4E0E3F0E002C0E7E310
:10265E00F0E00E94422CE32FEF70AE2FE32FEF70CD
:10266E00EA3010F4E0E301C0E7E30E94422CE0E020
:10267E0014C05AD8ED3031F0E9E9F5E00E94CE2AC7
:10268E00E0E00BC051D8EA3031F0E8EAF5E00E9404
:10269E00CE2AE0E002C0B9CDE1E00E94C230289619
:1026AE0008951A93E7EBF5E00E94C329EB81FC81B4
:1026BE000E945E2CEF930E94C72932D8AF91EA2375
:1026CE001E2F103059F0E9E5F5E00E94622C0E94B1
:1026DE003307ECE60E94662C0E943307EB81FC81E7
:1026EE0031960E945E2CEF93E981FA8131960E9419
:1026FE005E2CAF91EA231E2F103059F0E6E7F5E07D
:10270E000E94622C0E943307E6E60E94662C0E940D
:10271E003307EB81FC8132960E945E2CEF93E981A8
:10272E00FA8132960E945E2CAF91EA231E2F103052
:10273E0059F0E3E9F5E00E94622C0E943307EEE6C1
:10274E000E94662C0E943307EB81FC8133960E9417
:10275E005E2CEF93E981FA8133960E945E2CAF9145
:10276E00EA231E2F103059F0E0EBF5E00E94622CA8
:10277E000E943307EFE60E94662C0E943307E1E0C9
:10278E001881259608951A930A93ECECF5E00E94B1
:10279E003C2BEC81FD810E945E2CEF93EA81FB8144
:1027AE000E945E2CAF91EA231E2F1030B9F0E1EE9D
:1027BE00F5E00E94502B0E946B2C0E945E2C0E2383
:1027CE00E3EEF5E00E94622CE0E0F6E00E94702C51
:1027DE00101721F0E0E019810881A1C1EC81FD8183
:1027EE0031960E945E2CEF93EA81FB8131960E9416
:1027FE005E2CAF91EA231E2F1030C1F0EDE1F6E012
:10280E000E94502B0E946B2C31960E945E2C0E2340
:10281E00EFE1F6E00E94622CEBE3F6E00E94702CF2
:10282E00101721F0E0E01981088179C1EC81FD815A
:10283E0032960E945E2CEF93EA81FB8132960E94C3
:10284E005E2CAF91EA231E2F1030C1F0E7E5F6E0C3
:10285E000E94502B0E946B2C32960E945E2C0E23EF
:10286E00E9E5F6E00E94622CE6E7F6E00E94702CA5
:10287E00101721F0E0E01981088151C1EC81FD8132
:10288E0033960E945E2CEF93EA81FB8133960E9471
:10289E005E2CAF91EA231E2F1030C1F0E3E9F6E073
:1028AE000E94502B0E946B2C33960E945E2C0E239E
:1028BE00E5E9F6E00E94622CE1EBF6E00E94702C56
:1028CE00101721F0E0E01981088129C1E1E019819A
:1028DE00088125C10A921A92FA926A937A938A9380
:1028EE009A93AA93BA93EA93FA93EFB7EA93EFEF18
:1028FE00EDBDEBE8ECBD0E94381AA091C705A030E3
:10290E0011F0A33011F4AD9A18C0A091C705A130F3
:10291E0011F4AD9812C0A091C705A23071F4A09128
:10292E00C009AF5FA093C009A23338F0E0E0E09396
:10293E00C009E5B3A0E2EA27E5BBE991EFBFF99143
:10294E00E991B991A9919991899179916991F990AA
:10295E00199009901895E0E0EFBDE5E0EEBDEFEFC0
:10296E00EDBDEBE8ECBDE4E0E7BF0895A881A13032
:10297E0010F0A03108F018C0EFEAF7E0FA93EA93EE
:10298E00EA810E94FB2AEE81AEECB0E00E94742C2C
:10299E00EA0FFB1F0E944130662777270E945930AD
:1029AE0088E00E945D292A96C7C21A93E0E0EA9356
:1029BE00DBD11E2FE030B1F010FF03C0EEEBF7E0DD
:1029CE0009C011FF03C0EFECF7E004C012FF08C00E
:1029DE00E0EEF7E0FA93EA9380E00E945D292296FA
:1029EE00E0E0B5C0E0E0EA93E2ECF9E0FA93EA93B6
:1029FE000E947424E093C109E03029F4E5EFF7E07A
:102A0E000E943C2B01C002C0E1E0A1C0E091C109CF
:102A1E00EA93ACDFE0E09BC00E94BB3000E010E028
:102A2E00E4E1FCE0FA93EA93E3E1F8E0FA93EA9347
:102A3E000E9480290E94782CE4E1FCE0FA93EA934C
:102A4E00E1E0EA930E94A224E093C109E03049F448
:102A5E00E091C805E03021F0E4E2F8E00E947D2C20
:102A6E0001C052C00E94782CE3E5F6E0FA93EA9397
:102A7E00EFEFF1E0FA93EA93E3E5F8E0FA93EA93E5
:102A8E000E94E425E093C109E03069F5E091530816
:102A9E00F0915408ED5AF94FA0E0A083E3E5F6E07B
:102AAE000E94822CFA93EA930E94AE299F013097DE
:102ABE0039F4E9E3F8E00E94822C0E94F22A24C045
:102ACE000E94872C0E9495293196E20FF31F8F01E9
:102ADE001A930A93EDE0EA930E94A029E00FF11FEA
:102AEE00A0E0A08301C010C00E94782C0E94B727DE
:102AFE00E093C109E03041F4E091C805E03021F0E7
:102B0E00EDE4F8E00E947D2C0E94782C0E94B727FD
:102B1E00E091C109EA932ADFF8010E94C23026969D
:102B2E0008951A93E2E3E093290CEFEFEFB9779B48
:102B3E00FECFEFEFEFB9779BFECF1FB11F3F21F016
:102B4E00E091290CE03009F401C0F3CFE12F199187
:102B5E000895C09AEFEFEFB9779BFECF08950E94CC
:102B6E00BB30EAE0E093280CEFEFEFB9779BFECF96
:102B7E001FB11F3F21F4E091280CE03009F401C091
:102B8E00F3CF1E3F21F0E0E00E94C23051C52E81EE
:102B9E003F81EFEFEFB9779BFECF3F932F932F5FE0
:102BAE003F4FEFB1AF91BF91EC93EFEFEFB9779B42
:102BBE00FECF3F932F932F5F3F4FEFB1AF91BF915A
:102BCE00EC93EFEFEFB9779BFECF3F932F932F5FF1
:102BDE003F4FEFB1AF91BF91EC93EFEFEFB9779B12
:102BEE00FECF3F932F932F5F3F4FEFB1AF91BF912A
:102BFE00EC93EC81FD813497EC83FD8351F6EFEF7E
:102C0E00EFB9779BFECFEFEFEFB9779BFECFE1E009
:102C1E000E94C2300DC50E94BB3083DFEF3F21F012
:102C2E00E0E00E94C230D0C4EC81EFB9779BFECFBA
:102C3E00AC81AD3F49F100E02D813E81D9012F5F7E
:102C4E003F4FEC91EFB9779BFECFD9012F5F3F4FEE
:102C5E00EC91EFB9779BFECF0150003079F7EFEF93
:102C6E00EFB9779BFECFEFEFEFB9779BFECFEFEF8C
:102C7E00EFB9779BFECF1FB1E12FEF71E53021F059
:102C8E00E0E00E94C230A0C4E1E00E94C2309CC4C9
:102C9E001A930A93EE81E07899F0EE81EF77EE8346
:102CAE00E7E7EA93E0E0F0E060E070E00E94593080
:102CBE00EFDF0E2F023020F0E02F1981088184C43F
:102CCE00C09AC0982EDFEF3F21F0EFEF19810881F7
:102CDE007BC4EE81EFB9779BFECFED81EFB9779B89
:102CEE00FECFEC81EFB9779BFECFEB81EFB9779BEF
:102CFE00FECFEA81EFB9779BFECF11E0AE81A03413
:102D0E0011F415E904C0AE81A83409F417E81FB90F
:102D1E00779BFECFAE81AC3421F4EFEFEFB9779B0A
:102D2E00FECF1FEFEFEFEFB9779BFECF0FB107FF8F
:102D3E0003C01150103009F401C0F4CFE02F1981F7
:102D4E00088142C41A9314E0EFEFEFB9779BFECFE0
:102D5E00A981BA811196A983BA831197EFB1EC9329
:102D6E001150103089F788C524970E94BB30E88532
:102D7E00E03011F0E1E0D5C0D098D198EAE0E093D0
:102D8E00280CE091280CE030E1F7E091270CE2707E
:102D9E0009F0C5C0B89AC09AE8B3E97FE8BBC39AF8
:102DAE00BB98E7B3E760E7BBE2E5EDB9E0E0EEB96B
:102DBE003FEF1AE0EFEFEFB9779BFECF11501030D7
:102DCE00C9F7E0E4EA93E0E0F0E060E070E00E9432
:102DDE0059305EDF0E2F3150013011F0303009F4D2
:102DEE0001C0E7CF30E0013011F00C947617E4E625
:102DFE00E093280CE8E4EA93EAEAF1E060E070E0A0
:102E0E000E94593045DFE130D1F5FE013496FA9338
:102E1E00EA9398DFAE81A13019F4AF81AA3A09F096
:102E2E002DC0E091280CE03059F0E9EEEA93E0E095
:102E3E00F0E060E070E40E9459302ADFE03009F4DF
:102E4E0001C0EFCFE091280CE03059F0EAE7EA93A9
:102E5E00E0E0F0E060E070E00E94593019DFE03011
:102E6E0009F00CC0FE013496FA93EA936BDFEC8105
:102E7E00E07411F0ECE001C0E4E03E2F30C0E9EE6A
:102E8E00EA93E0E0F0E060E070E00E94593000DF8D
:102E9E00E23018F432E009EE02C031E001E4E091D4
:102EAE00280CE03051F00A93E0E0F0E060E070E0D2
:102EBE000E945930EDDEE03009F401C0F0CFE09110
:102ECE00280CE03059F0E0E5EA93E0E0F2E060E053
:102EDE0070E00E945930DCDEE03009F030E03093D3
:102EEE002A0C37DE303051F0E091270CEE7FE09364
:102EFE00270CE0E5EDB9E1E0EEB911C0C09811DEA6
:102F0E0028DEE0E0EDB9E7B3E07FE7BBE8B3E07FB2
:102F1E00E8BBB898E091270CE160E093270CE091B4
:102F2E00270C0E94C23029960895E881E03011F0F6
:102F3E00E1E002C0E091270C21960895EF81E03088
:102F4E0019F4E881E03011F4E4E072C3E091270C4B
:102F5E00E17011F0E3E06CC3E0912A0CE87071F4BB
:102F6E00E981FA816B817C81A0E0B2E080E090E0A3
:102F7E000E94C62FE983FA836B837C83A881A130DC
:102F8E00D1F4E1E5EA93EA81FB816C817D810E94B7
:102F9E0059307EDEE03059F4ED81FE81FA93EA93EA
:102FAE00E0E0F2E0FA93EA93DADDE03009F402C0F1
:102FBE00E0E0E88329C0E2E5EA93EA81FB816C81D7
:102FCE007D810E94593064DEE030F1F4ED81FE81A6
:102FDE00FA93EA93E0E0F2E0FA93EA93C0DDE03090
:102FEE0051F0ED81FE81E050FE4FED83FE83E881CE
:102FFE00E150E88359F7ECE4EA93E0E0F0E060E0BA
:10300E0070E00E94593044DEA4DDE881E03011F01A
:10301E00E1E001C0E0E00CC3EF81E03019F4E8819B
:10302E00E03011F4E4E004C3E091270CE17011F0FC
:10303E00E3E0FEC2E091270CE47011F0E2E0F8C28A
:10304E00E0912A0CE87071F4E981FA816B817C8140
:10305E00A0E0B2E080E090E00E94C62FE983FA8300
:10306E006B837C83A881A130C1F4E8E5EA93EA8101
:10307E00FB816C817D810E9459300ADEE03049F47B
:10308E00ED81FE81FA93EA93EEEFEA93C4DDE03030
:10309E0009F402C0E0E0E88336C0E0912A0CE67045
:1030AE0049F0E7EDEA93E981FF27662777270E942B
:1030BE005930EEDDE9E5EA93EA81FB816C817D8191
:1030CE000E945930E5DDE030F1F4ED81FE81FA9396
:1030DE00EA93ECEFEA939FDDE03051F0ED81FE8153
:1030EE00E050FE4FED83FE83E881E150E88369F7FF
:1030FE00E0E0F0E0FA93EA93EDEFEA938CDDE03056
:10310E0011F4E1E0E88325DDE881E03011F0E1E043
:10311E0001C0E0E08DC260970E94B930E98DE030C9
:10312E0011F0E4E09AC111E0E091270CE17011F08A
:10313E00E3E093C14E895F89E88DE03031F4C098A9
:10314E00F0DCEF3F09F410E086C1E13011F00C9491
:10315E000E19E9E4EA93E0E0F0E060E070E00E942E
:10316E00593096DDE03059F4FE013696FA93EA9323
:10317E00E0E1F0E0FA93EA93F2DCE03009F446C0C5
:10318E00EE81E295EF70E695E695E13069F4E0E0C8
:10319E00FE85AF85B0E0EA0FFB1F31969F01D90186
:1031AE0088279927EAE02CC0EB85EF70AE2FE889CF
:1031BE00E078EE1FE0E0EE1FAE0FEF85E370EE0F4E
:1031CE00EA0FEE5F0E2FEE85E295EF70E695E6952F
:1031DE00AE2FED85F0E00E94962FB0E0AE0FBF1F30
:1031EE00EC85E370F0E00E94962FFE2FE0E0EA0FF0
:1031FE00FB1F31969F01D90188279927E02FE950AF
:10320E000E947A2FDA010E94373010E024C1E2309A
:10321E0039F4DA01E0E0F2E0ED93FC9310E01BC12B
:10322E00E33011F00C94C919E0912A0CE47089F185
:10323E00EDECEA93E0E0F0E060E070E00E945930DF
:10324E0027DDE03029F5EFEFEFB9779BFECFFE01DA
:10325E003696FA93EA93E0E1F0E0FA93EA937FDC94
:10326E00E030B1F000E3003031F0EFEFEFB9779BD3
:10327E00FECF0150F8CFE889E295EF70A0E1B0E003
:10328E0080E090E00E947A2FDA010E94373010E041
:10329E0078C0E9E4EA93E0E0F0E060E070E00E94DC
:1032AE005930F6DCE03059F4FE013696FA93EA9383
:1032BE00E0E1F0E0FA93EA9352DCE03009F461C009
:1032CE00E0912A0CE27051F1E889EF73FF2766272F
:1032DE0077270E94B22F7F936F93FF93EF93E98925
:1032EE00E078FF2766277727DF01CB01E7E00E9412
:1032FE00862FAF91BF918F919F910E94592FEF5FB3
:10330E00FF4F6F4F7F4FDF01CB01EB89E295EF70DF
:10331E00E695E695E1500E947A2F2FC0E889EC776A
:10332E00E695E695FF2766277727EF5FFF4F6F4FEE
:10333E007F4F7F936F93FF93EF93E989E370FF279E
:10334E0066277727DF01CB01E3E00E947A2FDF01AA
:10335E00CB01E989E07EE295EF70E695FF276627BF
:10336E0077270E94592FEF5FFF4F6F4F7F4FAF911F
:10337E00BF918F919F910E94C62FDA010E94373024
:10338E0010E069C0EA3031F4E0912A0CDA01EC93D6
:10339E0010E061C0EB30B9F4E9E4EA93E0E0F0E06C
:1033AE0060E070E00E94593073DCE03049F45A93CB
:1033BE004A93E0E1F0E0FA93EA93D1DBE03009F4CE
:1033CE0001C010E048C0EC30B9F4EAE4EA93E0E062
:1033DE00F0E060E070E00E9459305ADCE03049F4D1
:1033EE005A934A93E0E1F0E0FA93EA93B8DBE030C7
:1033FE0009F401C010E02FC0ED3081F4EAE7EA9342
:10340E00E0E0F0E060E070E00E94593041DCE03036
:10341E0021F45A934A9396DC10E01DC0EE30D1F49D
:10342E00EDECEA93E0E0F0E060E070E00E945930ED
:10343E002FDCE03071F4EFEFEFB9779BFECF5A93AC
:10344E004A93E0E4F0E0FA93EA9389DBE03009F086
:10345E0010E001C014E07DDBE12F0E94C0306A96BF
:10346E0008951A930A931091280C103019F01150E8
:10347E001093280C1091290C103019F01150109344
:10348E00290C10912B0CE9B3E270AE2FE9B3E17069
:10349E00EA2BE0932B0CE11781F40091270CE270DC
:1034AE0011F0046001C00B7FE0912B0CE17011F064
:1034BE00036001C00D7F0093270C099119910895A7
:1034CE002797A0917308B0917408109731F0A091CE
:1034DE007508B0917608109729F4E0E0F0E061E20B
:1034EE007AE372C0FE013696FA93EA93FE0137969E
:1034FE000E948C2CE0917308F09174080995FE01DE
:10350E003396FA93EA93FE013496FA93EA93FE0108
:10351E003496FA93EA93E0917508F091760809953E
:10352E00E881F981EC5BF74066277727DF01CB0155
:10353E00E9E10E947A2F7F936F93FF93EF93EA81D5
:10354E000E94A52BDF01CB01E5E10E947A2FAF91FE
:10355E00BF918F919F910E946D2FDF01CB01EB8167
:10356E000E94A52B0E94BC2F0E946D2F7F936F93FC
:10357E00FF93EF93EE810E94A52BDF01CB01EBE0D1
:10358E000E947A2FAF91BF918F919F910E946D2FC4
:10359E007F936F93FF93EF93ED810E94A52BDF0135
:1035AE00CB01E5E00E947A2FAF91BF918F919F9151
:1035BE000E946D2FDF01CB01EC81F0E0F595E795D0
:1035CE000E94C12F0E946D2F279608950E94BB3036
:1035DE00088519852E813F81EC81FD813197EC8321
:1035EE00FD83319661F01F930F930F5F1F4FD9012B
:1035FE002F5F3F4FEC91AF91BF91EC93EDCF0E94B7
:10360E00C23031C41A930A930E811F81EA81FB8165
:10361E003197EA83FB83319649F01F930F930F5F27
:10362E001F4FEC81AF91BF91EC93F0CF19810881C0
:10363E00289608950E94B9300A851B8528853985FC
:10364E0040E050E0EE81FF813197EE83FF833196AB
:10365E0081F0D8010F5F1F4F0C901124D9012F5FFD
:10366E003F4FAC91BB27F001EA1BFB0BAF0130972C
:10367E0009F001C0E7CFFA010E94C0302C960895E0
:10368E00EA81FB81E491E03049F0EA81FB81A4916B
:10369E00E881F981B0E0EA17FB0709F406C0EA8178
:1036AE00FB813196EA83FB83EBCFEA81FB81E491C8
:1036BE00F0E0249608952497A885B9859E960E94D9
:1036CE00932C0E94052C0E94982C0E94AF3011F46E
:1036DE000C94D51BA885B9851496EC91E03011F4A5
:1036EE000C94C01B0E949B2C0E94A52C0E94AA2CFD
:1036FE00E03011F0E1E0B7C3A885B9851496E0E09B
:10370E00EC93E885F9850E94B02C0D01A885B9854A
:10371E005A960E942C30D0010E94592F0E94982C4C
:10372E000E94B43030F52197A985BA851396EC9195
:10373E00E883A881A230E0F0A985BA855A960E9446
:10374E002C300E94B52C0E94592FE983FA836B838B
:10375E007C83E985FA85A181AA93EA85FB85F29699
:10376E000E94BA2C0E94AA2CE881E150E883E1CF96
:10377E0021960E94052C0E94A53081F00E949B2C60
:10378E000E94BD2C0E94C42C11F0E1E06CC30E947B
:10379E00052CA885B9859E960E943730E0E063C35C
:1037AE001A930E94C7290E94CA2C0E94CF2C1E2F4A
:1037BE00103011F00C94421CA981BA81AC91A33047
:1037CE0031F4A981BA811996EC91E03009F447C021
:1037DE00A981BA819E960E94D32CE981FA810E941A
:1037EE00D72CE981FA81F296E250FE4FA5E5BAEAAE
:1037FE00A083B183E981FA81F296A2E5B2E581E672
:10380E0091E40E94E42CEC51FE4FA2E7B2E781E472
:10381E0091E60E94E42CE851FE4F0F01A981BA8176
:10382E001E960E94EA2CF296E451FE4F0F01A981DA
:10383E00BA811A960E94EA2CA181AA93EA81FB8191
:10384E00F296FA93EA93EC81FD810E94F22CE1E06C
:10385E00EA93E2DBA981BA811996E0E0EC93E98163
:10386E00FA81A181AA93E0E0EA930E94F92C53DC3D
:10387E00E03009F011E0E12F188123960895249786
:10388E000E94BB300E94FE2C0E94032D50F0AC858E
:10389E00BD855E960E942C300E94FE2C0E94B43094
:1038AE0018F00E940B2D66C0AC85BD8592960E94C5
:1038BE00102DAC85BD850E94132D71F52885398597
:1038CE00F901F695E7952E0F3F1F0E94192D0E94C4
:1038DE00CF2CE03009F04CC00E94272D0C911127FF
:1038EE002F5F3F4F0E94192D0E94CF2CE03009F020
:1038FE003FC00E94272DEC91FE2FE0E00E2B1F2BD8
:10390E00E885E17021F0F8010E94A42F02C0F801B1
:10391E00FF70662777272EC0E230A0E0FA0781F409
:10392E000E942F2D0E94382D0E943F2DE03001F570
:10393E00A885B985E2E00E94462D0E944F2D1AC03F
:10394E00E330A0E0FA07A1F40E942F2D0E94542D1F
:10395E000E943F2DE03061F4A885B985E4E00E9415
:10396E00462D0E942C30EF7FFF7F6F7F7F7002C04D
:10397E000E945B2D0E94C2302E96089524970E94BD
:10398E00B9300E94602D0E94032D50F0AA89BB8988
:10399E005E960E942C300E94602D0E94B43010F072
:1039AE0052E08FC0AA89BB8992960E942C30EE837A
:1039BE00FF8368877987AA89BB890E94132D11F02E
:1039CE000C94341D0E851F85F801F695E7950E0FA4
:1039DE001F1F0E94652D0E94CF2C5E2F503009F0C4
:1039EE006BC00E94702D51F0D901EC91EF70AE2F8B
:1039FE00EA85F0E00E94922FEA2B01C0EA85D901F8
:103A0E00EC930F5F1F4FAA89BB891496E1E0EC93EC
:103A1E000E94652D0E94CF2C5E2F503009F04CC0B5
:103A2E000E94702D49F00E947B2DE4E00E94862FAB
:103A3E00FF27662777270EC0D901EC91E07F1E2E57
:103A4E000E947B2DE8E00E94862FFF2766277727AE
:103A5E00EF70E129D901EC932FC0E230A0E0FA0714
:103A6E0099F40E94802D0E94382D0E94892D5E2F80
:103A7E00503011F5AE85BF85E2E00E948D2DAA85EE
:103A8E00BB85A083B18318C0E330A0E0FA0799F498
:103A9E000E94802D0E94542D0E94892D5E2F503041
:103AAE0059F4AE85BF85E4E00E948D2D0E947B2DDA
:103ABE000E94543001C052E0AA89BB891496E1E0FD
:103ACE00EC93E52F0E94C0306496089524971A93C4
:103ADE000E94962D0E94032D18F00E949B2D10F02F
:103AEE0012E03CC010E00E949B2DC0F50E94A42D58
:103AFE00C6DEE983FA836B837C830E94A53071F165
:103B0E000E94B52C0E94A92D11F412E027C00E942C
:103B1E00B52C0E94B12D11F411E020C00E94A42DED
:103B2E000E94CA2C0E94B92D1E2F1030B9F4E985BF
:103B3E00FA850E94BD2D49F0A985BA850E94C22D35
:103B4E00A985BA851996E1E0EC93E981FA816B813A
:103B5E007C81ED83FE836F837887C5CFE12F18813B
:103B6E002B9608956097AC89BD895E960E94932C22
:103B7E000E94C92D0E94A530B1F4AC89BD891A9658
:103B8E000E94102D0E94F72B0E94A93039F00E943E
:103B9E00CE2D0E94F72B0E94B43020F00E940B2DE8
:103BAE000E94F22B1CC00E94D12D0E94D62D0E9485
:103BBE00DD2D0E94E42D0E94032D18F40E940B2D82
:103BCE008AC00E94CE2D0E94E42D0E94B43018F4BB
:103BDE000E94E92D80C00E94C92D0E94F22B0E94E6
:103BEE00052C0E94EE2D0E94F32D0E94592C0E944E
:103BFE00EE2D0E94CE2D0E94FE2C0E94B43060F05D
:103C0E00E2E0F0E060E070E00E94EE2D0E94F82D00
:103C1E0018F40E94CA2C5FC00E94D12D0E94FD2D67
:103C2E000E94DD2D0E94E92D0E94A530A1F00E9478
:103C3E00E42D0E94B12D29F00E94E42D0E94A92DA1
:103C4E0019F40E94E92D47C00E94F82D19F40E9424
:103C5E00CA2C41C0C8CF0E94D12D0E94FD2DEFEF7E
:103C6E00FFEF6FEF7FE00E94B92DE03019F00E9458
:103C7E005B2D31C00E94C92D0E94A53079F00E94A3
:103C8E00D12D0E94D62DEE85FF85688979890E94F7
:103C9E00B92DE03019F00E945B2D1DC00E94F32D4E
:103CAE00AC89BD891A960E943730EC89FD890E9435
:103CBE00BD2D79F0AC89BD891E960E9432303197A8
:103CCE00604070400E943C30AC89BD891996E1E09D
:103CDE00EC930E94F32D669608950E94CE2DE2502D
:103CEE00F040604070400E944F30EC81FD81A68D07
:103CFE00B78D80A191A1E2E0F0E060E070E00E945B
:103D0E00042E0E94982C0E94B43018F00E94CA2CE7
:103D1E00B2C3AC81BD8112960E94092E0E94982CCE
:103D2E000E94C12F0E94C62F7F936F93FF93EF9334
:103D3E00AC81BD819A960E942C30AF91BF918F912C
:103D4E009F910E94592F97C324971A930A93EE813D
:103D5E00FF81A885B9851496ED93FC93A885B98546
:103D6E0016960E940C2E0E94132E0E94A92D29F049
:103D7E000E94182E0E941D2E10F0E2E072C00E94CA
:103D8E00252E29F40E94182EA081A33009F006C01A
:103D9E000E94182EB696DF010E940C2E0E94252E30
:103DAE00A1F40E942C2E3796DF010E942830AE819E
:103DBE00BF81AE17BF0710F0E2E053C00E94182E6D
:103DCE00B696DF010E942C3031C00E94182EE2817F
:103DDE00A0E1EA9F8001AE81BF81A017B10700F17B
:103DEE000E94182E0E94BA2C0E9459300E94362E24
:103DFE000E94B12D11F4E1E034C00E94132E0E94F6
:103E0E00032D28F00E94182E0E941D2E10F0E2E0C5
:103E1E0028C0EE81FF81E01BF10BEE83FF83DBCF29
:103E2E000E942C2E0E94BA2C0E943D2EDF01CB0147
:103E3E00EE81FF810E94A42F0E94B22BA885B98526
:103E4E001E960E9437300E94182EF296DF01EE81E8
:103E5E00FF810E94412EA885B9855296ED93FC9361
:103E6E00E0E0198108812A96089524971A930A93FF
:103E7E00AF81B88514960E94283031968F01002E9E
:103E8E00012A41F0AF81B8851E960E942C300E9407
:103E9E00A53011F4E4E0FAC0F801EF7011F00C94C3
:103EAE003A20AF81B8850E94C22DAF81B8851A968F
:103EBE000E942C300E94A53061F40E94492E379644
:103ECE00DF010E9428300E171F0710F0E4E0DEC05D
:103EDE00CAC0F8010E94A42F0F010E94492EE28150
:103EEE00F0E03197E021F121309711F00C943A2057
:103EFE000E94492EFA93EA93E985FA850E944E2E86
:103F0E000E94362E0E94032D10F4E2E0BFC00E94E4
:103F1E00132E0E94B12D11F4E1E0B8C00E94492E7B
:103F2E000E941D2E10F40C9426202197EF81E03074
:103F3E0019F4E4E02196AAC00E94182E0E94552E74
:103F4E000E944E2E0FDEEB83FC836D837E830E94D8
:103F5E00A52C0E94A53019F4E7E0219697C0AB81FD
:103F6E00BC818D819E810E94A92D19F4E2E02196DB
:103F7E008DC0AB81BC818D819E810E94B12D19F4C3
:103F8E00E1E0219683C00E94182E0E945A2EE03046
:103F9E0019F0E1E021967AC00E94182E0E94D72CCB
:103FAE000E94182EBE96FF93EF930E94182EFA933E
:103FBE00EA93ED81FE816F8178850E943D2EAF914F
:103FCE00BF910E943730E0E0E8830E94182EE28114
:103FDE00A881AE17F8F40E94182E3496A1E0A083A3
:103FEE000E94182E0E945A2EE03019F0E1E0219620
:103FFE004DC00E94182EBE96DF010E9432300E94E4
:10400E00592C0E943C30319760407040E881EF5F40
:10401E00E883DBCF0E94182EBE96FF93EF93DF014D
:10402E000E942C30DF01CB010E94CB2A0E94C12FAF
:10403E000E94042EAF91BF910E9437302196EA81E3
:10404E00FB816C817D81AF81B8851A960E943730D5
:10405E000E94492E0E94BA2C0E943D2EAF81B88537
:10406E001E960E943730F801AF81B8851496ED93F5
:10407E00FC930E94492EF296DF01F8010E94412E18
:10408E00AF81B8855296ED93FC93E0E019810881DB
:10409E00299608950E94BB300E94872C0E94F92C0D
:1040AE0053DE1E2F103021F0E12F0E94C230E3C1EB
:1040BE000E945E2E0E94632EF1F4AC81BD81529659
:1040CE002D913C91D9010C91003011F414E013C0E4
:1040DE00F901E385E87029F40E946E2EABDA309771
:1040EE0009F001C008C00E94872CE0E0EA93BDDE13
:1040FE001E2F1030E9F2E12F0E94C230BCC10E9487
:10410E00BB300E94872C0E94F92C1EDE1E2F103011
:10411E00B9F40E945E2E0E94632E91F4EC81FD8113
:10412E00A289B3890C91053E11F0003009F408C044
:10413E000E94872CE1E0EA9398DE1E2F103049F39F
:10414E00103039F50E945E2E0E94632E11F5AC815F
:10415E00BD8152962D913C913A932A930E94F92C4F
:10416E00E0E2F0E0FA93EA934DDA0E946E2E2EDA38
:10417E00AC81BD8154960E942830E385E871D90147
:10418E001C96EC93AC81BD810E9428303496A1E040
:10419E00A083E12F0E94C2306EC128970E94B930D1
:1041AE00A889B98954964D915C915A934A93E0E24D
:1041BE00F0E0FA93EA93EBE0F0E0FA93EA9322DA76
:1041CE00E0E01E2FF0E0E887F987EA87FB87E8E05A
:1041DE00F0E0EC87FD87AE85BF850E947B2E0E94A6
:1041EE00802EAE0FBF1FAC91AE3209F50E94852E08
:1041FE000E3221F4AA85BB8513970CF003C00E94E2
:10420E00912EF4CF0F3221F00C3511F0003208F45C
:10421E0002C0E6E080C00E94802E0E949B2E10F409
:10422E00E4E201C0E0E2DA011B96EC9373C00E9457
:10423E00852E003220F00F3211F00C3509F442C0F9
:10424E000E3239F0EC85FD85A885B985AE17BF070E
:10425E009CF0AC85BD85189711F40E3211F0E6E096
:10426E005AC0E8E0F0E0E887F987EBE0F0E0EC8791
:10427E00FD87110F110F25C0003818F01360E6E00E
:10428E004AC0EEEEF0E0FA93EA930E94F329FA9315
:10429E00EA93F6D9309711F0E6E03DC0013410F004
:1042AE000B3508F002C012600AC0013610F00B3751
:1042BE0008F005C011600E94F329B0970E2F0E94DE
:1042CE00912EB5CF0E94802E0E949B2E10F4E4E01A
:1042DE0001C0E0E00E2FE885F985309711F4E6E095
:1042EE001AC0DA01AC91A53E19F4DA01E5E0EC93BF
:1042FE00AC85BD85189711F4110F110FE12FE370E6
:10430E00E13009F40061E12FEC70E43009F408604B
:10431E00FA010387E0E00E94C030629608950E9481
:10432E00BB30AC81BD81AC91AF3229F0AC81BD8187
:10433E00AC91AC3559F4EC81FD813196EC83FD8363
:10434E00AE81BF8116960E94D32C0AC0AE81BF816A
:10435E000E9428307696DF010E942C300E94A32EF8
:10436E00AC81BD81AC91BB27909760F40E94A92EC1
:10437E000E94F92CE9DC1E2FAE81BF8152960E945D
:10438E00AE2E3FC00E94A92EFE013696FA93EA93F6
:10439E0004DF1E2F1030A9F50E94A92E7BDE1E2FE2
:1043AE00AE81BF8154960E942830E385E4700E2FB3
:1043BE00103039F0143011F4003009F001C015E05E
:1043CE0020C00030F1F4AE81BF8152962D913C9108
:1043DE00F901E385E07111F415E013C00E94B32ECC
:1043EE000E94BC2F7F936F93FF93EF930E94B62E84
:1043FE00AF91BF918F919F910E94B22A0E94A32EDE
:10440E00C1CFE12F0E94C23028960895EC81FD8124
:10441E00A181AA93ED81FE81F296FA93EA930E940E
:10442E00A52C0E9459300E94C42C11F0E3E023C049
:10443E00EC81FD810E94BB2E11F0E2E01CC0EC81EC
:10444E00FD81E859FF4F0E94C52E11F4E0E013C024
:10445E00EC81FD81F296EE5AFF4F0E94C52E39F483
:10446E00EC81FD81E65AFF4FE081E07809F002C051
:10447E00E0E001C0E1E02696089565970E94B9300C
:10448E00AE8DBF8D0E942830E887F987A885B98543
:10449E000E94092EF097AF014A30E0E05E0730F43B
:1044AE00A885B9851196AC91AA3309F00AC0E885A2
:1044BE00F9853296E887F987AE8DBF8DED93FC9323
:1044CE0003C04091300C55274130E0E05E0710F0FC
:1044DE00EBE0DCC1FA01ACE2BCE0EE0FFF1FAE0F69
:1044EE00BF1F0E947B2EAC8DBD8DED93FC93EE8194
:1044FE00FF81309711F4ECE0C9C1AE81BF81EC9120
:10450E00E03091F00E94D32E0E949C17EA8FE1704A
:10451E0059F4EB8DE03019F0EA8DE47009F402C025
:10452E00EAE0B4C1E0E0B2C1AE81BF81E0E0EC935D
:10453E00E42FAE81BF811196EC930E94D32E0E9480
:10454E00BB16EA8FE17011F0E3E0A0C1EB8DE03015
:10455E0019F0EA8DE47009F402C0EAE097C10E94F6
:10456E00A92E0E94CA2CE88FF98F6A8F7B8F0E942A
:10457E0059304CDF0E2F0130E1F4EE81FF81F296BF
:10458E00E254FE4F9F01F901E481E03091F0D90130
:10459E0018960E942C30EE8BFF8B688F798F0E94BD
:1045AE00A92EE88DF98D6A8D7B8D0E9459302EDFF4
:1045BE000E2F033011F4E1E069C1003049F4AE81F1
:1045CE00BF81DD960E942830E030A2E0FA0711F09C
:1045DE00EDE05CC1AE81BF81A85BBF4F0E944F2D45
:1045EE000E94D82E0E94DD2E0E94A53041F4AE818D
:1045FE00BF81AA5ABF4F0E942C300E94D82E0E9413
:10460E00DD2EAE81BF815A960E943730EE81FF813A
:10461E00EE5BFF4FE081AE81BF811396EC93AE81CE
:10462E00BF8113960E94092EAA89BB898C899D8908
:10463E000E94C12F0E94C62F0E94D82E0E94E22EE9
:10464E000E94E92EAE81BF8192960E943730EE8194
:10465E00FF81E7ADAE81BF811296EC93AE81BF8133
:10466E00AD5BBF4F0E942830AE81BF811796ED9390
:10467E00FC93AE81BF81AB5BBF4F0E944F2DEE8787
:10468E00FF87688B798B0E94A53051F4AE81BF8174
:10469E00AE5ABF4F0E942C30EE87FF87688B798B06
:1046AE000E94E22E0E94602D662777270E94042E1C
:1046BE00AA89BB898C899D890E94632F7F936F93F2
:1046CE00FF93EF930E94EE2EAF91BF918F919F912A
:1046DE00662777270E94042E7F936F93FF93EF93A5
:1046EE00AE81BF8112960E94092EAF91BF918F911C
:1046FE009F910E94C12F0E94FF2FEE5FFF4F6F4FC1
:10470E007F4FEA87FB876C877D87AE81BF815E9680
:10471E000E94373001E00E947B2DA73FEFE0BE07DD
:10472E00E0E08E07E0E09E0708F002E00E947B2D9D
:10473E00A73FEFEFBE07E0E08E07E0E09E0708F030
:10474E0003E0033039F4AE81BF81A25ABF4F0E94FD
:10475E002C3002C00E94F62EAE81BF8196960E942A
:10476E0037300E94F62E7F936F93FF93EF930E9444
:10477E00EE2EAF91BF918F919F910E94B22BAE8181
:10478E00BF819A960E943730AE81BF811E960E94DD
:10479E005B2D0E943730AE81BF811496E0E0EC9322
:1047AE00033011F00C943724AE81BF811996EC932F
:1047BE00AE81BF81AE59BF4F0E9428300E94E92EB4
:1047CE00AE81BF8152960E9437300E94D32EEF8168
:1047DE00F885F296FA93EA93E985FA850E94F22C0F
:1047EE000E94C42C11F5EE81FF810E94BB2EE9F4CC
:1047FE00AE81BF81D2960E942C30E235A2E5FA0737
:10480E00A1E66A07A1E47A0781F4EE81FF81F296B0
:10481E00EC51FE4FDF010E942C30E237A2E7FA077F
:10482E00A1E46A07A1E67A0709F01AC0EE81FF81BA
:10483E00F296E451FE4FDF010E942C30AE81BF8113
:10484E001A960E943730EE81FF81F296E851FE4FA4
:10485E00DF010E942C30AE81BF811E960E94373040
:10486E00AE81BF810C939E960E94D32CAE81BF81E8
:10487E0056960E94D32CAEE2BCE00E94C52AAE81B1
:10488E00BF811596ED93FC9310E0E12F0E94C0308E
:10489E00A0960895EA81FB81309771F0AA81BB81C1
:1048AE00EC91E03049F0EA81FB81A581B681E88187
:1048BE00F981EA17FB0719F0E9E00C94C129EA81A6
:1048CE00FB81A181AA930E949C17E17019F0E3E08D
:1048DE000C94C129E0E00C94C1291A930A93AC817F
:1048EE00A13010F0EBE023C0EC81ACE2BCE00E9402
:1048FE00742CAE0FBF1F0D911C91002E012A19F0C2
:10490E00D801E0E0EC93EA81FB81309721F0AA8197
:10491E00BB81E0E0EC93EC81ACE2BCE00E94742C35
:10492E00EA0FFB1FAA81BB81A083B183E0E019814E
:10493E00088125960895A2970E94BB30A9A5BAA515
:10494E000E94AE2EEEA1EF71EEA3FE01B796FA9382
:10495E00EA93FE017296FA93EA93EAA5EE71EA9350
:10496E008CDD1E2F103011F0E12F23C1FE01349685
:10497E00ECA3FDA3FE017096FA93EA93E9A5FAA5BE
:10498E00FA93EA93CCDC1E2FEEA1EC7111F40C9489
:10499E0073252897103099F0143031F4FE01789673
:1049AE00FA93EA93ACDB1E2F103019F0E12F289604
:1049BE0000C1EEA5E860EEA72AA53BA576C0EEA540
:1049CE00E47019F0E8E02896F4C02AA53BA5022E63
:1049DE00032A21F0F901E385E17119F0E7E0289649
:1049EE00E8C0EEA5E87011F40C945C250E94B32E7D
:1049FE000E94BC2F7F936F93FF93EF930E94B62E6E
:104A0E00AF91BF918F919F910E94B22A0E944F3019
:104A1E00F9017496A0E0B0E0A083B183F9017A9613
:104A2E00A083B183F9017C96A0E0B0E080E090E035
:104A3E000E945430A88DB98D1496E1E0EC93A88DA8
:104A4E00B98D9E960E94102D0E94CE2D0E94A530EB
:104A5E00E1F0E88DF98DFA93EA93EA81FB816C819E
:104A6E007D810E94593032D81E2F103019F0E12F5F
:104A7E0028969FC00E94CE2DE150F04060407040BD
:104A8E00A88DB98D1A960E943730E88DF98DFA935C
:104A9E00EA93EE81FF81688579850E94CF2C1E2FC7
:104AAE00103019F0E12F289684C0EEA5E87091F031
:104ABE00F9013B96A0E0A0830E94FD2ED9011E961F
:104ACE000E943730A88DB98D1496E1E0EC93EEA5D7
:104ADE00E062EEA7289619C0103011F0E12F69C0E0
:104AEE002AA13BA1022E032A21F0F901E385E071F0
:104AFE0011F0E4E05EC0EEA1E27021F0F901E38571
:104B0E00E17009F402C0E7E054C0A889B9899E9605
:104B1E000E942C30A9A5BAA55A960E943730EAA158
:104B2E00FBA1A9A5BAA55E96ED93FC93EEA1A9A54E
:104B3E00BAA51496EC930E94B32E0E94BC2F7F93BD
:104B4E006F93FF93EF930E94B62EAF91BF918F910B
:104B5E009F910E94B22AA9A5BAA51E960E9437302F
:104B6E00D9015C960E942C30A9A5BAA51A960E946E
:104B7E003730A9A5BAA516960E94D32CA9A5BAA519
:104B8E001596EFEFEC93A9A5BAA556960E94D32CD5
:104B9E00E889F989A9A5BAA5ED93FC93A889B989E5
:104BAE0015960E942830A9A5BAA51296ED93FC93EE
:104BBE00E0E00E94C230AB9608952E970E94B93065
:104BCE00E88DF98DEE83FF83AC89BD890E94AE2EF0
:104BDE000E94012F0E94062F0E940B2F11F0E12F31
:104BEE0050C1EA8DFB8DA481A07811F0E2E049C19D
:104BFE00EA8DFB8DA481A17011F4E7E042C1EA8D2C
:104C0E00FB8DA285B385848595859F938F93BF93E6
:104C1E00AF930E94142FEF91FF916F917F910E949D
:104C2E00632F0E94EE2D0E94F32DAE89BF89882737
:104C3E0099270E94AF3020F4E885F985EE8BFF8B23
:104C4E00EE89FF89309711F40C9447270E94142F98
:104C5E00FD01BC01F170309711F00C94E626EA8D3F
:104C6E00FB8D05800E94012FE2810E16C8F10E9475
:104C7E00142F0E94A93031F4AA8DBB8D1E960E946E
:104C8E002C3008C00E94012F0E94062F0E94F22C89
:104C9E000E94461CE88BF98B6A8B7B8BA889B9899D
:104CAE008A899B890E94032D20F40E941B2FE2E02B
:104CBE00E8C0A889B9898A899B890E94B12D21F4FF
:104CCE000E941B2FE1E0DDC00E94C92DAA8DBB8D75
:104CDE0052960E943730AA8DBB8D1596E0E0EC936C
:104CEE000E94012F0E94062F0E94F22C0E94741E19
:104CFE000E94222F0E94E92D0E94A53021F40E94CD
:104D0E001B2FE2E0BEC00E94272F0E94E42D0E94BE
:104D1E00C12F0E94592F0E94222FAE89BF89E0E039
:104D2E00F2E00E94EC2FAF01042E052AD9F10E9469
:104D3E00272FE40FF51F0F010E94012FE281D001F2
:104D4E00F0E0EA17FB0750F40E94012F02801124B5
:104D5E000E94272FD001AE1BBF0BAD010E94012F69
:104D6E00E181EA93EF81F885FA93EA93EF85F8896A
:104D7E0069897A890E9459304A930E94A517E030BA
:104D8E0021F00E941B2FE1E07CC0AA8DBB8D1596F1
:104D9E00EC91E40FEC93FA01EE0FFF1FFE2FE0E013
:104DAE009F0149C00E94E92DAA8DBB8D56960E9487
:104DBE003730AA8DBB8D1596EC91EF5FEC930E9468
:104DCE00142F0E942B2FA0E0B2E080E090E00E9412
:104DDE00042E9F01EE89FF89E217F30710F42E8946
:104DEE003F890E94012F0E94062FA689B789808DC8
:104DFE00918D0E945E300E94621BE03021F00E9475
:104E0E001B2FE1E03EC00E94A92EAC8DBD8D0E94ED
:104E1E002830F2960F01EC8DFD8DA681B78180852D
:104E2E0091850E942B2FE00DF11DFA93EA933A9390
:104E3E002A930E94ED1AF901AE81BF81EA0FFB1F82
:104E4E00EE83FF83EA8DFB8D36960F01DF010E9404
:104E5E002C30DF01CB01F9010E94B22BD0010E9450
:104E6E003730AC89BD89ED91FD91E20FF31FFE93B2
:104E7E00EE93EE89FF89E21BF30BEE8BFF8BE0CEF8
:104E8E00E0E00E94C0306C96089524970E94BB30DB
:104E9E000E94182E0E94552E0E940B2F11F00C947A
:104EAE00B227E885F985A481A07211F40C94B2277B
:104EBE000E94182E0E94552EA28DB38D848D958D35
:104ECE000E945E300E94621B1E2F103011F00C9457
:104EDE00B227A885B9855E962D913C91D9011B9676
:104EEE00EC91E062EC93A885B9851A960E942C305D
:104EFE00D9015C960E943730A885B9851E960E940E
:104F0E002830D9015A96ED93FC93E885F985A6854C
:104F1E00B78580899189FD01BC010E94B72FD90107
:104F2E005496ED93FC930E94FD2ED90156960E9445
:104F3E003730A885B9851496EC91EF7DEC930E94DD
:104F4E00182E3496A1E0A0830E94182EFA93EA93AD
:104F5E000E94D71B1E2FE12F0E94C2302A96089561
:104F6E001A930E94C72991DF1E2F103021F4A981B8
:104F7E00BA810E94AE2EE12F18811BC01A93A9810F
:104F8E00BA81ED91A983BA831E2FE03021F01A93D6
:104F9E000E944905F4CFEAE0EA930E944905188180
:104FAE0008C0EA81EA930E944905A881B9810E944E
:104FBE00C52A239608952B970E94B93010E0A9892F
:104FCE00BA890E94AE2EEF89F88D3196EF8BF88F4D
:104FDE003197E4912E2FE03011F40C945529E12FE6
:104FEE00E03039F4253211F411E002C00E94322F64
:104FFE0054C1E130A9F4253219F40E94322F4CC16C
:10500E0012E040E000E02D3211F401E046C12B32F7
:10501E0011F44BE242C1203211F440E23EC102C013
:10502E00E23039F450E013E0203311F4006835C15A
:10503E0002C0E33091F4203310F02A3308F007C099
:10504E00AAE05A9F502DE22FE0535E0F26C12C3658
:10505E0019F4026015E021C104C0E53011F00C9482
:10506E005429E22FE33649F40E943B2FED89FE8945
:10507E00A481AA930E94412F0FC1E33769F40E94C5
:10508E003B2FAD89BE8914960E947B2E0E94A92EBD
:10509E000E948B291E2F0FC0E03791F40E943B2FE8
:1050AE00AD89BE8914960E947B2E0E94A92E0E9465
:1050BE0095291E2F08600F77E0E0E88B30E069C07D
:1050CE00E43611F0E93611F4046002C0E537A1F4BC
:1050DE00EAE0E88B01FF08C0E0E0FAEC6AE97BE366
:1050EE000E94EE2D1AE023C0E0E1F7E260E070E0EE
:1050FE000E94EE2D15E01BC0E83511F4086004C0C7
:10510E00E83711F00C945329E0E1E88B01FF08C059
:10511E00E0E0F0E060E070E10E94EE2D18E007C0E4
:10512E00E0E0F0E160E070E00E94EE2D14E001FF9F
:10513E0008C00E943B2FAD89BE8914960E942C3068
:10514E0013C002FF0AC00E943B2FAD89BE89149680
:10515E000E9428300E94C12F07C00E943B2FAD89AC
:10516E00BE8914960E944F2DEC87FD876E877F8730
:10517E0002FF0FC0AF85AA233AF40E94E92D0E94C8
:10518E00722F0E94222F4DE2403011F01F5F01C09E
:10519E000B7F00FD11C0151778F407FF08C002FF42
:1051AE0004C00B7F242F115001C020E301C020E268
:1051BE000E94322F5150EFCF312FE889E030B9F4F1
:1051CE003030A1F003FF06C0EE81FF812591EE8302
:1051DE00FF8305C0AE81BF812D91AE83BF830E9438
:1051EE00322F503009F051503150EACF4BC00E944F
:1051FE00F32D0E94E42D0E94FF2F2E2F2A3030F027
:10520E0003FF02C0295C01C0295A01C0205D04FDC4
:10521E001BC0213328F40E94FE2C0E94A92D09F4F4
:10522E0009C0531710F000FF01C013C020E207FFA2
:10523E000BC020E3006102FF07C00B7F4A930E9460
:10524E00412F503009F051500E94322F503009F04A
:10525E00515031500E94F32D0E94E42D0E942430B3
:10526E000E94222FE8890E94FE2CFF2766277727AF
:10527E000E94FF2F0E94EE2D0E94F32D0E94A5305A
:10528E0009F0B5CF00FF08C0503031F05150E0E2C8
:10529E00EA930E94412FF8CF10E095CEA989BA89E2
:1052AE000E9428300E94C03069960895FF92F82E11
:1052BE0026971A930A93DE0114960E94552F8D019C
:1052CE00E0E0EC83ED83EE83EF83DE0118960E941F
:1052DE00552F0E942830FA93EA931A930A93E8ED19
:1052EE00F7E20E948C2C67DE198108812896FF90C8
:1052FE000895E991F991A991B991CD0105900D9279
:10530E000020E1F7FC010895A991B991EE27FF273E
:10531E006D91662311F03196FBCF0895AA27BB2716
:10532E00E991F9910590002011F01196FBCFFD0146
:10533E0008956991A991B991EE27FF277D9167177D
:10534E0029F031967723D1F7EFEFFFEF0895AA8179
:10535E00BB81CD01E881F9810590002011F4FC019B
:10536E0009C06D916015C1F30196DC01662391F7BA
:10537E00EE27FF2724960895FA93EA930C94C527F7
:10538E00E981FA81FA93EA930895E0E0E0935206F8
:10539E000895E150F0E00895EA81EA930E947807BB
:1053AE00E981EA930E947807E881EA930C947807E2
:1053BE00EAE0F0E0FA93EA930C94492FECEAEA93D0
:1053CE00E3E5EA93E0E0EA930C94C807E4E1F0E049
:1053DE00FA93EA930C94492FE02FF0E00895E1E060
:1053EE00EA930E94820BE0917A08E1300895E32F50
:1053FE00F0E0E457FF4F0895E32FF0E00895E3E067
:10540E00EA930E94820BE0917A08E1300895AF9AF8
:10541E00AE9A0E94B5071E2F0E94B5070E2F0E944E
:10542E00B5073E2F0895E0E0EA930C94CC07EA937B
:10543E000E94B707EDE0EA930E94B707B9CFE4E008
:10544E00EA930E94820BE0917A08E1300895AE9AB9
:10545E000E94B5071E2F0895E0914C06F070EE0FD6
:10546E00EE0FEE0FAE2FE0914C06F0E0F0E00E9452
:10547E009D2FE470EA2B0895EA93E0914B06EA9390
:10548E001A930895EA93E0914C06F070F5CFABE4D1
:10549E00B6E0ED91FD913196FE93EE930895E160A5
:1054AE00EA93E0914B06EA93E0E0EA930C94C80786
:1054BE00EA93E0914C06F070EA93E0914B06EA9382
:1054CE00B2CFEA93E0914B06EA93E0E0EA930C94B4
:1054DE00C807EA93E0E0EA93EA9308951A930A93D1
:1054EE007ECFAE9A1DE00E94B5070E2FE2E0EA15C0
:1054FE000895EA93E0E0EA930A930C94CC071A938A
:10550E000E94B707AE9808950E94B5071E2F0E94FD
:10551E00B5070E2F0895E0934D06F0934E06609357
:10552E004F06709350060895E0914D06F0914E0689
:10553E0060914F06709150060E94AD2FECCFADE4F6
:10554E00B6E00E9432303197604070400E943C308D
:10555E000E94A5300895662777270E946D2F089523
:10556E00ADE4B6E00E9432303197604070400E9448
:10557E003C30EF5FFF4F6F4F7F4F0895ED91FD91E0
:10558E003196FE93EE930895E881F0E00895FA9334
:10559E00EA930C948E0BFA93EA930C94BE0BFA9347
:1055AE00EA930E94EC0B662777270895EA81FB8128
:1055BE003196EA83FB83E881F9813196E883F9839A
:1055CE000895FF27662777270E94593084E00E94AE
:1055DE005D2926960895662777270E94593084E024
:1055EE000E945D2926960895FF27662777270E9439
:1055FE005930089580E10E945D2962960895E091E8
:10560E00A108F091A2086091A3087091A4080895D2
:10561E00FA93EA93E091A508F091A6080895E5E3C0
:10562E00F0E0FA93EA93E3E0EA930895E7EAF8E00C
:10563E00FA93EA930895E8E3F0E0FA93EA93E4E04C
:10564E00EA930895ECE3F0E0FA93EA93E4E0EA9348
:10565E000895EFEAF8E0FA93EA930895E0E4F0E0B3
:10566E00FA93EA93E4E0EA930895FA93EA9380E0DA
:10567E000E945D2922960895FA93EA930E941315CB
:10568E008F0130970895FA93EA931A930A930C9424
:10569E00160CFA93EA930C94DF05E093B609E093A7
:1056AE00B709E093B809E093B9090895E6EBF2E083
:1056BE00F0CFEBEBF2E0EDCFEA930E94480B0E94A5
:1056CE001306A091C905AD3008950E94480B0C94A5
:1056DE001306AAE4B0E00E947430E093BE09F09382
:1056EE00BF090895A0919D08B0919E0880919F08D2
:1056FE009091A0080895E091A508F091A60808954C
:10570E00FADFF0DF6627772708950E949B0BEA9356
:10571E000C94A20B5E2FE52FE295E07F0895EA0F21
:10572E005E2F450FE52F0895EF83F88769877A87F7
:10573E000895AF81B88589859A850895F0E00E9415
:10574E00C12F0895E091B609F091B7096091B8099B
:10575E007091B9090895662777270E94592F0895E9
:10576E00DF01CB01ECE00E947A2FE093B609F093B3
:10577E00B7096093B8097093B909C7CFDF01CB01A0
:10578E00E4E00E947A2FA091B609B091B7098091FA
:10579E00B8099091B9090E946D2FE093B609F09364
:1057AE00B7096093B8097093B909AFCFEA0F5E2FAE
:1057BE00450F40300895EA0F5E2F450FA6CFAC81FE
:1057CE00BD81AE0FBF1FEC91EA9308950E2FE02F0F
:1057DE00E295E07F0895EC83FD836E837F830895C9
:1057EE00AC81BD818E819F810895EA0F0E2F300FFF
:1057FE0030300895EA0F0E2F300F87CFEC81FD81E8
:10580E006E817F810895ECDFE8E00E94862FDF0134
:10581E00CB01E4E00E94862F0895EA30A0E0FA075B
:10582E00A0E06A07A0E07A070895E0E3F0E060E008
:10583E0070E00895E7E3F0E060E070E00895E10DB8
:10584E00EA930E944905CCDFE8E00E94862FEF70B4
:10585E00AE2FEC81FD81EF2FEF70EA300895EA0F45
:10586E00EA930E944905EC810895EF70AE2FC6DFD2
:10587E00EF70EA300895EA0FEA930C944905E02F91
:10588E00EF70AE2FE02FEF70EA300895E091C9056A
:10589E00F0E00E949B2F0895E091CA05F0E00E946F
:1058AE009B2F0895EF5FFF4F6F4F7F4F0895FA9331
:1058BE00EA930C94970BFA93EA93E12F82CEEA9334
:1058CE000E94480B1A9301CF0091C905EA81FB8112
:1058DE000895FA93EA93E02F74CEF0E0EE0FFF1FD7
:1058EE000895E4EFFBE0FA93EA930895FA93EA93AE
:1058FE00E4E1FCE070CEFA93EA93EE81FF81089525
:10590E00EC81FD81FA93EA930895FA93EA93FE01EE
:10591E003896FA93EA9308950E942C300E944F30E5
:10592E0008950E944A300895E885F985A181AA93C9
:10593E00E985FA85F296FA93EA930895EB81FC8154
:10594E006D817E8108950E945930E1E0EA930C94B6
:10595E001318A2A1B3A184A195A10895A981BA811A
:10596E008B819C810895FA93EA9348CFEF81F88555
:10597E0069857A850E9459300895E1E0EA930E9484
:10598E00A517E0300895E0E0F0E060E070E00895E3
:10599E000E9459300C94621BF6DF0E943730089536
:1059AE00F296FA93EA93E0E0F0E0FA93EA93E0E0FD
:1059BE00F2E0FA93EA930C94091B0E945430E981A9
:1059CE00FA81F29608950E942C30D0010E94373051
:1059DE00E981FA810895A289B389848995890E9403
:1059EE005E300895E0E0F0E0FA93EA930895A8851A
:1059FE00B9858A859B850895A230E0E0BE07E0E078
:105A0E008E07E0E09E070895E1E0F0E060E070E0D0
:105A1E0008950E942C30DFCEEC91F0E0E130A0E052
:105A2E00FA070895EC85FD85FA93EA93D901E0E033
:105A3E00F2E00E94EC2FAE81BF81888599858BCED6
:105A4E00AC85BD85D296F901F170AE0FBF1F0895DA
:105A5E00EC85FD85FA93EA93AA85BB858C859D8599
:105A6E000895E0E0F1E060E070E00E94FF2F0895FD
:105A7E00AE81BF81888599850E94592F89CF0E945A
:105A8E00E62FF170AC85BD85D296AE0FBF1F08957F
:105A9E000E942830662777270895E0E8F0E060E05E
:105AAE0070E00E94FF2F0895EFEFFFEF6FEF7FEF93
:105ABE000895AE85BF85888999890895EA89FB89FD
:105ACE00FA93EA93D801E0E0F2E00E94EC2F8FDF28
